{
	"Users/yanickwilisky/Library/CloudStorage/GoogleDrive-yanickw@gmail.com/My Drive/09_Programming/FinTech_Workspace/sabot3/Contracts/MoneyToCurve.sol": {
		"MoneyToCurve": {
			"abi": [
				{
					"anonymous": false,
					"inputs": [
						{
							"indexed": true,
							"internalType": "address",
							"name": "previousOwner",
							"type": "address"
						},
						{
							"indexed": true,
							"internalType": "address",
							"name": "newOwner",
							"type": "address"
						}
					],
					"name": "OwnershipTransferred",
					"type": "event"
				},
				{
					"constant": true,
					"inputs": [],
					"name": "balanceOfAll",
					"outputs": [
						{
							"internalType": "uint256[4]",
							"name": "balances",
							"type": "uint256[4]"
						}
					],
					"payable": false,
					"stateMutability": "view",
					"type": "function"
				},
				{
					"constant": true,
					"inputs": [],
					"name": "curveFi_CRVMinter",
					"outputs": [
						{
							"internalType": "address",
							"name": "",
							"type": "address"
						}
					],
					"payable": false,
					"stateMutability": "view",
					"type": "function"
				},
				{
					"constant": true,
					"inputs": [],
					"name": "curveFi_CRVToken",
					"outputs": [
						{
							"internalType": "address",
							"name": "",
							"type": "address"
						}
					],
					"payable": false,
					"stateMutability": "view",
					"type": "function"
				},
				{
					"constant": true,
					"inputs": [],
					"name": "curveFi_Deposit",
					"outputs": [
						{
							"internalType": "address",
							"name": "",
							"type": "address"
						}
					],
					"payable": false,
					"stateMutability": "view",
					"type": "function"
				},
				{
					"constant": true,
					"inputs": [],
					"name": "curveFi_LPGauge",
					"outputs": [
						{
							"internalType": "address",
							"name": "",
							"type": "address"
						}
					],
					"payable": false,
					"stateMutability": "view",
					"type": "function"
				},
				{
					"constant": true,
					"inputs": [],
					"name": "curveFi_LPToken",
					"outputs": [
						{
							"internalType": "address",
							"name": "",
							"type": "address"
						}
					],
					"payable": false,
					"stateMutability": "view",
					"type": "function"
				},
				{
					"constant": true,
					"inputs": [],
					"name": "curveFi_Swap",
					"outputs": [
						{
							"internalType": "address",
							"name": "",
							"type": "address"
						}
					],
					"payable": false,
					"stateMutability": "view",
					"type": "function"
				},
				{
					"constant": true,
					"inputs": [],
					"name": "curveLPTokenBalance",
					"outputs": [
						{
							"internalType": "uint256",
							"name": "",
							"type": "uint256"
						}
					],
					"payable": false,
					"stateMutability": "view",
					"type": "function"
				},
				{
					"constant": true,
					"inputs": [],
					"name": "curveLPTokenStaked",
					"outputs": [
						{
							"internalType": "uint256",
							"name": "",
							"type": "uint256"
						}
					],
					"payable": false,
					"stateMutability": "view",
					"type": "function"
				},
				{
					"constant": true,
					"inputs": [],
					"name": "curveLPTokenUnstaked",
					"outputs": [
						{
							"internalType": "uint256",
							"name": "",
							"type": "uint256"
						}
					],
					"payable": false,
					"stateMutability": "view",
					"type": "function"
				},
				{
					"constant": false,
					"inputs": [
						{
							"internalType": "uint256",
							"name": "_x",
							"type": "uint256"
						}
					],
					"name": "initialize",
					"outputs": [],
					"payable": false,
					"stateMutability": "nonpayable",
					"type": "function"
				},
				{
					"constant": true,
					"inputs": [],
					"name": "isOwner",
					"outputs": [
						{
							"internalType": "bool",
							"name": "",
							"type": "bool"
						}
					],
					"payable": false,
					"stateMutability": "view",
					"type": "function"
				},
				{
					"constant": false,
					"inputs": [
						{
							"internalType": "uint256[4]",
							"name": "_amounts",
							"type": "uint256[4]"
						}
					],
					"name": "multiStepDeposit",
					"outputs": [],
					"payable": false,
					"stateMutability": "nonpayable",
					"type": "function"
				},
				{
					"constant": false,
					"inputs": [
						{
							"internalType": "uint256[4]",
							"name": "_amounts",
							"type": "uint256[4]"
						}
					],
					"name": "multiStepWithdraw",
					"outputs": [],
					"payable": false,
					"stateMutability": "nonpayable",
					"type": "function"
				},
				{
					"constant": true,
					"inputs": [],
					"name": "normalizedBalance",
					"outputs": [
						{
							"internalType": "uint256",
							"name": "",
							"type": "uint256"
						}
					],
					"payable": false,
					"stateMutability": "view",
					"type": "function"
				},
				{
					"constant": true,
					"inputs": [],
					"name": "owner",
					"outputs": [
						{
							"internalType": "address",
							"name": "",
							"type": "address"
						}
					],
					"payable": false,
					"stateMutability": "view",
					"type": "function"
				},
				{
					"constant": false,
					"inputs": [],
					"name": "renounceOwnership",
					"outputs": [],
					"payable": false,
					"stateMutability": "nonpayable",
					"type": "function"
				},
				{
					"constant": false,
					"inputs": [
						{
							"internalType": "address",
							"name": "_depositContract",
							"type": "address"
						},
						{
							"internalType": "address",
							"name": "_gaugeContract",
							"type": "address"
						},
						{
							"internalType": "address",
							"name": "_minterContract",
							"type": "address"
						}
					],
					"name": "setup",
					"outputs": [],
					"payable": false,
					"stateMutability": "nonpayable",
					"type": "function"
				},
				{
					"constant": false,
					"inputs": [
						{
							"internalType": "address",
							"name": "newOwner",
							"type": "address"
						}
					],
					"name": "transferOwnership",
					"outputs": [],
					"payable": false,
					"stateMutability": "nonpayable",
					"type": "function"
				},
				{
					"constant": true,
					"inputs": [],
					"name": "x",
					"outputs": [
						{
							"internalType": "uint256",
							"name": "",
							"type": "uint256"
						}
					],
					"payable": false,
					"stateMutability": "view",
					"type": "function"
				}
			],
			"devdoc": {
				"methods": {
					"isOwner()": {
						"details": "Returns true if the caller is the current owner."
					},
					"multiStepDeposit(uint256[4])": {
						"params": {
							"_amounts": "Array of amounts for CurveFI stablecoins in pool (denormalized to token decimals)"
						}
					},
					"multiStepWithdraw(uint256[4])": {
						"params": {
							"_amounts": "Array of amounts for CurveFI stablecoins in pool (denormalized to token decimals)"
						}
					},
					"owner()": {
						"details": "Returns the address of the current owner."
					},
					"renounceOwnership()": {
						"details": "Leaves the contract without owner. It will not be possible to call `onlyOwner` functions anymore. Can only be called by the current owner.     * NOTE: Renouncing ownership will leave the contract without an owner, thereby removing any functionality that is only available to the owner."
					},
					"setup(address,address,address)": {
						"params": {
							"_depositContract": "CurveFi Deposit contract for Y-pool",
							"_gaugeContract": "CurveFi Gauge contract for Y-pool",
							"_minterContract": "CurveFi CRV minter"
						}
					},
					"transferOwnership(address)": {
						"details": "Transfers ownership of the contract to a new account (`newOwner`). Can only be called by the current owner."
					}
				}
			},
			"evm": {
				"assembly": "    /* \"Users/yanickwilisky/Library/CloudStorage/GoogleDrive-yanickw@gmail.com/My Drive/09_Programming/FinTech_Workspace/sabot3/Contracts/MoneyToCurve.sol\":1044:8905  contract MoneyToCurve is Initializable, Context, Ownable {... */\n  mstore(0x40, 0x80)\n    /* \"https://github.com/OpenZeppelin/openzeppelin-contracts/blob/release-v2.5.0/contracts/ownership/Ownable.sol\":698:715  address msgSender */\n  0x00\n    /* \"https://github.com/OpenZeppelin/openzeppelin-contracts/blob/release-v2.5.0/contracts/ownership/Ownable.sol\":718:730  _msgSender() */\n  tag_5\n    /* \"https://github.com/OpenZeppelin/openzeppelin-contracts/blob/release-v2.5.0/contracts/ownership/Ownable.sol\":718:728  _msgSender */\n  shl(0x20, tag_6)\n    /* \"https://github.com/OpenZeppelin/openzeppelin-contracts/blob/release-v2.5.0/contracts/ownership/Ownable.sol\":718:730  _msgSender() */\n  0x20\n  shr\n  jump\t// in\ntag_5:\n    /* \"https://github.com/OpenZeppelin/openzeppelin-contracts/blob/release-v2.5.0/contracts/ownership/Ownable.sol\":698:730  address msgSender = _msgSender() */\n  swap1\n  pop\n    /* \"https://github.com/OpenZeppelin/openzeppelin-contracts/blob/release-v2.5.0/contracts/ownership/Ownable.sol\":749:758  msgSender */\n  dup1\n    /* \"https://github.com/OpenZeppelin/openzeppelin-contracts/blob/release-v2.5.0/contracts/ownership/Ownable.sol\":740:746  _owner */\n  0x33\n  0x00\n    /* \"https://github.com/OpenZeppelin/openzeppelin-contracts/blob/release-v2.5.0/contracts/ownership/Ownable.sol\":740:758  _owner = msgSender */\n  0x0100\n  exp\n  dup2\n  sload\n  dup2\n  0xffffffffffffffffffffffffffffffffffffffff\n  mul\n  not\n  and\n  swap1\n  dup4\n  0xffffffffffffffffffffffffffffffffffffffff\n  and\n  mul\n  or\n  swap1\n  sstore\n  pop\n    /* \"https://github.com/OpenZeppelin/openzeppelin-contracts/blob/release-v2.5.0/contracts/ownership/Ownable.sol\":806:815  msgSender */\n  dup1\n    /* \"https://github.com/OpenZeppelin/openzeppelin-contracts/blob/release-v2.5.0/contracts/ownership/Ownable.sol\":773:816  OwnershipTransferred(address(0), msgSender) */\n  0xffffffffffffffffffffffffffffffffffffffff\n  and\n    /* \"https://github.com/OpenZeppelin/openzeppelin-contracts/blob/release-v2.5.0/contracts/ownership/Ownable.sol\":802:803  0 */\n  0x00\n    /* \"https://github.com/OpenZeppelin/openzeppelin-contracts/blob/release-v2.5.0/contracts/ownership/Ownable.sol\":773:816  OwnershipTransferred(address(0), msgSender) */\n  0xffffffffffffffffffffffffffffffffffffffff\n  and\n  0x8be0079c531659141344cd1fd0a4f28419497f9722a3daafe3b4186f6b6457e0\n  mload(0x40)\n  mload(0x40)\n  dup1\n  swap2\n  sub\n  swap1\n  log3\n    /* \"https://github.com/OpenZeppelin/openzeppelin-contracts/blob/release-v2.5.0/contracts/ownership/Ownable.sol\":664:823  constructor () internal {... */\n  pop\n    /* \"Users/yanickwilisky/Library/CloudStorage/GoogleDrive-yanickw@gmail.com/My Drive/09_Programming/FinTech_Workspace/sabot3/Contracts/MoneyToCurve.sol\":1044:8905  contract MoneyToCurve is Initializable, Context, Ownable {... */\n  jump(tag_7)\n    /* \"https://github.com/OpenZeppelin/openzeppelin-contracts/blob/release-v2.5.0/contracts/GSN/Context.sol\":788:884  function _msgSender() internal view returns (address payable) {... */\ntag_6:\n    /* \"https://github.com/OpenZeppelin/openzeppelin-contracts/blob/release-v2.5.0/contracts/GSN/Context.sol\":833:848  address payable */\n  0x00\n    /* \"https://github.com/OpenZeppelin/openzeppelin-contracts/blob/release-v2.5.0/contracts/GSN/Context.sol\":867:877  msg.sender */\n  caller\n    /* \"https://github.com/OpenZeppelin/openzeppelin-contracts/blob/release-v2.5.0/contracts/GSN/Context.sol\":860:877  return msg.sender */\n  swap1\n  pop\n    /* \"https://github.com/OpenZeppelin/openzeppelin-contracts/blob/release-v2.5.0/contracts/GSN/Context.sol\":788:884  function _msgSender() internal view returns (address payable) {... */\n  swap1\n  jump\t// out\n    /* \"Users/yanickwilisky/Library/CloudStorage/GoogleDrive-yanickw@gmail.com/My Drive/09_Programming/FinTech_Workspace/sabot3/Contracts/MoneyToCurve.sol\":1044:8905  contract MoneyToCurve is Initializable, Context, Ownable {... */\ntag_7:\n  dataSize(sub_0)\n  dup1\n  dataOffset(sub_0)\n  0x00\n  codecopy\n  0x00\n  return\nstop\n\nsub_0: assembly {\n        /* \"Users/yanickwilisky/Library/CloudStorage/GoogleDrive-yanickw@gmail.com/My Drive/09_Programming/FinTech_Workspace/sabot3/Contracts/MoneyToCurve.sol\":1044:8905  contract MoneyToCurve is Initializable, Context, Ownable {... */\n      mstore(0x40, 0x80)\n      callvalue\n        /* \"--CODEGEN--\":8:17   */\n      dup1\n        /* \"--CODEGEN--\":5:7   */\n      iszero\n      tag_1\n      jumpi\n        /* \"--CODEGEN--\":30:31   */\n      0x00\n        /* \"--CODEGEN--\":27:28   */\n      dup1\n        /* \"--CODEGEN--\":20:32   */\n      revert\n        /* \"--CODEGEN--\":5:7   */\n    tag_1:\n        /* \"Users/yanickwilisky/Library/CloudStorage/GoogleDrive-yanickw@gmail.com/My Drive/09_Programming/FinTech_Workspace/sabot3/Contracts/MoneyToCurve.sol\":1044:8905  contract MoneyToCurve is Initializable, Context, Ownable {... */\n      pop\n      jumpi(tag_2, lt(calldatasize, 0x04))\n      shr(0xe0, calldataload(0x00))\n      dup1\n      0x8141d266\n      gt\n      tag_23\n      jumpi\n      dup1\n      0xbe873f50\n      gt\n      tag_24\n      jumpi\n      dup1\n      0xbe873f50\n      eq\n      tag_18\n      jumpi\n      dup1\n      0xdfda714a\n      eq\n      tag_19\n      jumpi\n      dup1\n      0xe011262a\n      eq\n      tag_20\n      jumpi\n      dup1\n      0xf2fde38b\n      eq\n      tag_21\n      jumpi\n      dup1\n      0xfe4b84df\n      eq\n      tag_22\n      jumpi\n      jump(tag_2)\n    tag_24:\n      dup1\n      0x8141d266\n      eq\n      tag_13\n      jumpi\n      dup1\n      0x8da5cb5b\n      eq\n      tag_14\n      jumpi\n      dup1\n      0x8f32d59b\n      eq\n      tag_15\n      jumpi\n      dup1\n      0x97aa80d5\n      eq\n      tag_16\n      jumpi\n      dup1\n      0xa3477c36\n      eq\n      tag_17\n      jumpi\n      jump(tag_2)\n    tag_23:\n      dup1\n      0x44f9c395\n      gt\n      tag_25\n      jumpi\n      dup1\n      0x44f9c395\n      eq\n      tag_8\n      jumpi\n      dup1\n      0x628cb95e\n      eq\n      tag_9\n      jumpi\n      dup1\n      0x715018a6\n      eq\n      tag_10\n      jumpi\n      dup1\n      0x77b8b1c7\n      eq\n      tag_11\n      jumpi\n      dup1\n      0x7c241146\n      eq\n      tag_12\n      jumpi\n      jump(tag_2)\n    tag_25:\n      dup1\n      0x0c55699c\n      eq\n      tag_3\n      jumpi\n      dup1\n      0x14a19aec\n      eq\n      tag_4\n      jumpi\n      dup1\n      0x1c600416\n      eq\n      tag_5\n      jumpi\n      dup1\n      0x208e509f\n      eq\n      tag_6\n      jumpi\n      dup1\n      0x38eda370\n      eq\n      tag_7\n      jumpi\n    tag_2:\n      0x00\n      dup1\n      revert\n        /* \"Users/yanickwilisky/Library/CloudStorage/GoogleDrive-yanickw@gmail.com/My Drive/09_Programming/FinTech_Workspace/sabot3/Contracts/MoneyToCurve.sol\":1388:1404  uint256 public x */\n    tag_3:\n      tag_26\n      tag_27\n      jump\t// in\n    tag_26:\n      mload(0x40)\n      dup1\n      dup3\n      dup2\n      mstore\n      0x20\n      add\n      swap2\n      pop\n      pop\n      mload(0x40)\n      dup1\n      swap2\n      sub\n      swap1\n      return\n        /* \"Users/yanickwilisky/Library/CloudStorage/GoogleDrive-yanickw@gmail.com/My Drive/09_Programming/FinTech_Workspace/sabot3/Contracts/MoneyToCurve.sol\":2612:3742  function multiStepDeposit(uint256[4] memory _amounts) public {... */\n    tag_4:\n      tag_28\n      0x04\n      dup1\n      calldatasize\n      sub\n        /* \"--CODEGEN--\":13:16   */\n      0x80\n        /* \"--CODEGEN--\":8:11   */\n      dup2\n        /* \"--CODEGEN--\":5:17   */\n      lt\n        /* \"--CODEGEN--\":2:4   */\n      iszero\n      tag_29\n      jumpi\n        /* \"--CODEGEN--\":30:31   */\n      0x00\n        /* \"--CODEGEN--\":27:28   */\n      dup1\n        /* \"--CODEGEN--\":20:32   */\n      revert\n        /* \"--CODEGEN--\":2:4   */\n    tag_29:\n        /* \"Users/yanickwilisky/Library/CloudStorage/GoogleDrive-yanickw@gmail.com/My Drive/09_Programming/FinTech_Workspace/sabot3/Contracts/MoneyToCurve.sol\":2612:3742  function multiStepDeposit(uint256[4] memory _amounts) public {... */\n      dup2\n      add\n      swap1\n      dup1\n      dup1\n      0x80\n      add\n      swap1\n      0x04\n      dup1\n      0x20\n      mul\n      mload(0x40)\n      swap1\n      dup2\n      add\n      0x40\n      mstore\n      dup1\n      swap3\n      swap2\n      swap1\n      dup3\n      mul(0x20, 0x04)\n        /* \"--CODEGEN--\":30:33   */\n      dup1\n        /* \"--CODEGEN--\":22:28   */\n      dup3\n        /* \"--CODEGEN--\":14:20   */\n      dup5\n        /* \"--CODEGEN--\":1:34   */\n      calldatacopy\n        /* \"--CODEGEN--\":99:100   */\n      0x00\n        /* \"--CODEGEN--\":93:96   */\n      dup2\n        /* \"--CODEGEN--\":85:91   */\n      dup5\n        /* \"--CODEGEN--\":81:97   */\n      add\n        /* \"--CODEGEN--\":74:101   */\n      mstore\n        /* \"--CODEGEN--\":137:141   */\n      0x1f\n        /* \"--CODEGEN--\":133:142   */\n      not\n        /* \"--CODEGEN--\":126:130   */\n      0x1f\n        /* \"--CODEGEN--\":121:124   */\n      dup3\n        /* \"--CODEGEN--\":117:131   */\n      add\n        /* \"--CODEGEN--\":113:143   */\n      and\n        /* \"--CODEGEN--\":106:143   */\n      swap1\n      pop\n        /* \"--CODEGEN--\":169:172   */\n      dup1\n        /* \"--CODEGEN--\":161:167   */\n      dup4\n        /* \"--CODEGEN--\":157:173   */\n      add\n        /* \"--CODEGEN--\":147:173   */\n      swap3\n      pop\n        /* \"Users/yanickwilisky/Library/CloudStorage/GoogleDrive-yanickw@gmail.com/My Drive/09_Programming/FinTech_Workspace/sabot3/Contracts/MoneyToCurve.sol\":2612:3742  function multiStepDeposit(uint256[4] memory _amounts) public {... */\n      pop\n      pop\n      pop\n      pop\n      pop\n      swap2\n      swap3\n      swap2\n      swap3\n      swap1\n      pop\n      pop\n      pop\n      tag_30\n      jump\t// in\n    tag_28:\n      stop\n        /* \"Users/yanickwilisky/Library/CloudStorage/GoogleDrive-yanickw@gmail.com/My Drive/09_Programming/FinTech_Workspace/sabot3/Contracts/MoneyToCurve.sol\":1208:1235  address public curveFi_Swap */\n    tag_5:\n      tag_31\n      tag_32\n      jump\t// in\n    tag_31:\n      mload(0x40)\n      dup1\n      dup3\n      0xffffffffffffffffffffffffffffffffffffffff\n      and\n      0xffffffffffffffffffffffffffffffffffffffff\n      and\n      dup2\n      mstore\n      0x20\n      add\n      swap2\n      pop\n      pop\n      mload(0x40)\n      dup1\n      swap2\n      sub\n      swap1\n      return\n        /* \"Users/yanickwilisky/Library/CloudStorage/GoogleDrive-yanickw@gmail.com/My Drive/09_Programming/FinTech_Workspace/sabot3/Contracts/MoneyToCurve.sol\":6874:7917  function balanceOfAll() public view returns(uint256[4] memory balances) {... */\n    tag_6:\n      tag_33\n      tag_34\n      jump\t// in\n    tag_33:\n      mload(0x40)\n      dup1\n      dup3\n      mul(0x20, 0x04)\n      dup1\n      dup4\n      dup4\n        /* \"--CODEGEN--\":23:24   */\n      0x00\n        /* \"--CODEGEN--\":8:108   */\n    tag_35:\n        /* \"--CODEGEN--\":33:36   */\n      dup4\n        /* \"--CODEGEN--\":30:31   */\n      dup2\n        /* \"--CODEGEN--\":27:37   */\n      lt\n        /* \"--CODEGEN--\":8:108   */\n      iszero\n      tag_37\n      jumpi\n        /* \"--CODEGEN--\":99:100   */\n      dup1\n        /* \"--CODEGEN--\":94:97   */\n      dup3\n        /* \"--CODEGEN--\":90:101   */\n      add\n        /* \"--CODEGEN--\":84:102   */\n      mload\n        /* \"--CODEGEN--\":80:81   */\n      dup2\n        /* \"--CODEGEN--\":75:78   */\n      dup5\n        /* \"--CODEGEN--\":71:82   */\n      add\n        /* \"--CODEGEN--\":64:103   */\n      mstore\n        /* \"--CODEGEN--\":52:54   */\n      0x20\n        /* \"--CODEGEN--\":49:50   */\n      dup2\n        /* \"--CODEGEN--\":45:55   */\n      add\n        /* \"--CODEGEN--\":40:55   */\n      swap1\n      pop\n        /* \"--CODEGEN--\":8:108   */\n      jump(tag_35)\n    tag_37:\n        /* \"--CODEGEN--\":12:26   */\n      pop\n        /* \"Users/yanickwilisky/Library/CloudStorage/GoogleDrive-yanickw@gmail.com/My Drive/09_Programming/FinTech_Workspace/sabot3/Contracts/MoneyToCurve.sol\":6874:7917  function balanceOfAll() public view returns(uint256[4] memory balances) {... */\n      pop\n      pop\n      pop\n      swap1\n      pop\n      add\n      swap2\n      pop\n      pop\n      mload(0x40)\n      dup1\n      swap2\n      sub\n      swap1\n      return\n        /* \"Users/yanickwilisky/Library/CloudStorage/GoogleDrive-yanickw@gmail.com/My Drive/09_Programming/FinTech_Workspace/sabot3/Contracts/MoneyToCurve.sol\":3941:5393  function multiStepWithdraw(uint256[4] memory _amounts) public {... */\n    tag_7:\n      tag_38\n      0x04\n      dup1\n      calldatasize\n      sub\n        /* \"--CODEGEN--\":13:16   */\n      0x80\n        /* \"--CODEGEN--\":8:11   */\n      dup2\n        /* \"--CODEGEN--\":5:17   */\n      lt\n        /* \"--CODEGEN--\":2:4   */\n      iszero\n      tag_39\n      jumpi\n        /* \"--CODEGEN--\":30:31   */\n      0x00\n        /* \"--CODEGEN--\":27:28   */\n      dup1\n        /* \"--CODEGEN--\":20:32   */\n      revert\n        /* \"--CODEGEN--\":2:4   */\n    tag_39:\n        /* \"Users/yanickwilisky/Library/CloudStorage/GoogleDrive-yanickw@gmail.com/My Drive/09_Programming/FinTech_Workspace/sabot3/Contracts/MoneyToCurve.sol\":3941:5393  function multiStepWithdraw(uint256[4] memory _amounts) public {... */\n      dup2\n      add\n      swap1\n      dup1\n      dup1\n      0x80\n      add\n      swap1\n      0x04\n      dup1\n      0x20\n      mul\n      mload(0x40)\n      swap1\n      dup2\n      add\n      0x40\n      mstore\n      dup1\n      swap3\n      swap2\n      swap1\n      dup3\n      mul(0x20, 0x04)\n        /* \"--CODEGEN--\":30:33   */\n      dup1\n        /* \"--CODEGEN--\":22:28   */\n      dup3\n        /* \"--CODEGEN--\":14:20   */\n      dup5\n        /* \"--CODEGEN--\":1:34   */\n      calldatacopy\n        /* \"--CODEGEN--\":99:100   */\n      0x00\n        /* \"--CODEGEN--\":93:96   */\n      dup2\n        /* \"--CODEGEN--\":85:91   */\n      dup5\n        /* \"--CODEGEN--\":81:97   */\n      add\n        /* \"--CODEGEN--\":74:101   */\n      mstore\n        /* \"--CODEGEN--\":137:141   */\n      0x1f\n        /* \"--CODEGEN--\":133:142   */\n      not\n        /* \"--CODEGEN--\":126:130   */\n      0x1f\n        /* \"--CODEGEN--\":121:124   */\n      dup3\n        /* \"--CODEGEN--\":117:131   */\n      add\n        /* \"--CODEGEN--\":113:143   */\n      and\n        /* \"--CODEGEN--\":106:143   */\n      swap1\n      pop\n        /* \"--CODEGEN--\":169:172   */\n      dup1\n        /* \"--CODEGEN--\":161:167   */\n      dup4\n        /* \"--CODEGEN--\":157:173   */\n      add\n        /* \"--CODEGEN--\":147:173   */\n      swap3\n      pop\n        /* \"Users/yanickwilisky/Library/CloudStorage/GoogleDrive-yanickw@gmail.com/My Drive/09_Programming/FinTech_Workspace/sabot3/Contracts/MoneyToCurve.sol\":3941:5393  function multiStepWithdraw(uint256[4] memory _amounts) public {... */\n      pop\n      pop\n      pop\n      pop\n      pop\n      swap2\n      swap3\n      swap2\n      swap3\n      swap1\n      pop\n      pop\n      pop\n      tag_40\n      jump\t// in\n    tag_38:\n      stop\n        /* \"Users/yanickwilisky/Library/CloudStorage/GoogleDrive-yanickw@gmail.com/My Drive/09_Programming/FinTech_Workspace/sabot3/Contracts/MoneyToCurve.sol\":5482:5621  function curveLPTokenStaked() public view returns(uint256) {... */\n    tag_8:\n      tag_41\n      tag_42\n      jump\t// in\n    tag_41:\n      mload(0x40)\n      dup1\n      dup3\n      dup2\n      mstore\n      0x20\n      add\n      swap2\n      pop\n      pop\n      mload(0x40)\n      dup1\n      swap2\n      sub\n      swap1\n      return\n        /* \"Users/yanickwilisky/Library/CloudStorage/GoogleDrive-yanickw@gmail.com/My Drive/09_Programming/FinTech_Workspace/sabot3/Contracts/MoneyToCurve.sol\":8027:8419  function normalizedBalance() public view returns(uint256) {... */\n    tag_9:\n      tag_43\n      tag_44\n      jump\t// in\n    tag_43:\n      mload(0x40)\n      dup1\n      dup3\n      dup2\n      mstore\n      0x20\n      add\n      swap2\n      pop\n      pop\n      mload(0x40)\n      dup1\n      swap2\n      sub\n      swap1\n      return\n        /* \"https://github.com/OpenZeppelin/openzeppelin-contracts/blob/release-v2.5.0/contracts/ownership/Ownable.sol\":1684:1821  function renounceOwnership() public onlyOwner {... */\n    tag_10:\n      tag_45\n      tag_46\n      jump\t// in\n    tag_45:\n      stop\n        /* \"Users/yanickwilisky/Library/CloudStorage/GoogleDrive-yanickw@gmail.com/My Drive/09_Programming/FinTech_Workspace/sabot3/Contracts/MoneyToCurve.sol\":1737:2414  function setup(address _depositContract, address _gaugeContract, address _minterContract) external onlyOwner {... */\n    tag_11:\n      tag_47\n      0x04\n      dup1\n      calldatasize\n      sub\n        /* \"--CODEGEN--\":13:15   */\n      0x60\n        /* \"--CODEGEN--\":8:11   */\n      dup2\n        /* \"--CODEGEN--\":5:16   */\n      lt\n        /* \"--CODEGEN--\":2:4   */\n      iszero\n      tag_48\n      jumpi\n        /* \"--CODEGEN--\":29:30   */\n      0x00\n        /* \"--CODEGEN--\":26:27   */\n      dup1\n        /* \"--CODEGEN--\":19:31   */\n      revert\n        /* \"--CODEGEN--\":2:4   */\n    tag_48:\n        /* \"Users/yanickwilisky/Library/CloudStorage/GoogleDrive-yanickw@gmail.com/My Drive/09_Programming/FinTech_Workspace/sabot3/Contracts/MoneyToCurve.sol\":1737:2414  function setup(address _depositContract, address _gaugeContract, address _minterContract) external onlyOwner {... */\n      dup2\n      add\n      swap1\n      dup1\n      dup1\n      calldataload\n      0xffffffffffffffffffffffffffffffffffffffff\n      and\n      swap1\n      0x20\n      add\n      swap1\n      swap3\n      swap2\n      swap1\n      dup1\n      calldataload\n      0xffffffffffffffffffffffffffffffffffffffff\n      and\n      swap1\n      0x20\n      add\n      swap1\n      swap3\n      swap2\n      swap1\n      dup1\n      calldataload\n      0xffffffffffffffffffffffffffffffffffffffff\n      and\n      swap1\n      0x20\n      add\n      swap1\n      swap3\n      swap2\n      swap1\n      pop\n      pop\n      pop\n      tag_49\n      jump\t// in\n    tag_47:\n      stop\n        /* \"Users/yanickwilisky/Library/CloudStorage/GoogleDrive-yanickw@gmail.com/My Drive/09_Programming/FinTech_Workspace/sabot3/Contracts/MoneyToCurve.sol\":1313:1345  address public curveFi_CRVMinter */\n    tag_12:\n      tag_50\n      tag_51\n      jump\t// in\n    tag_50:\n      mload(0x40)\n      dup1\n      dup3\n      0xffffffffffffffffffffffffffffffffffffffff\n      and\n      0xffffffffffffffffffffffffffffffffffffffff\n      and\n      dup2\n      mstore\n      0x20\n      add\n      swap2\n      pop\n      pop\n      mload(0x40)\n      dup1\n      swap2\n      sub\n      swap1\n      return\n        /* \"Users/yanickwilisky/Library/CloudStorage/GoogleDrive-yanickw@gmail.com/My Drive/09_Programming/FinTech_Workspace/sabot3/Contracts/MoneyToCurve.sol\":1351:1382  address public curveFi_CRVToken */\n    tag_13:\n      tag_52\n      tag_53\n      jump\t// in\n    tag_52:\n      mload(0x40)\n      dup1\n      dup3\n      0xffffffffffffffffffffffffffffffffffffffff\n      and\n      0xffffffffffffffffffffffffffffffffffffffff\n      and\n      dup2\n      mstore\n      0x20\n      add\n      swap2\n      pop\n      pop\n      mload(0x40)\n      dup1\n      swap2\n      sub\n      swap1\n      return\n        /* \"https://github.com/OpenZeppelin/openzeppelin-contracts/blob/release-v2.5.0/contracts/ownership/Ownable.sol\":899:976  function owner() public view returns (address) {... */\n    tag_14:\n      tag_54\n      tag_55\n      jump\t// in\n    tag_54:\n      mload(0x40)\n      dup1\n      dup3\n      0xffffffffffffffffffffffffffffffffffffffff\n      and\n      0xffffffffffffffffffffffffffffffffffffffff\n      and\n      dup2\n      mstore\n      0x20\n      add\n      swap2\n      pop\n      pop\n      mload(0x40)\n      dup1\n      swap2\n      sub\n      swap1\n      return\n        /* \"https://github.com/OpenZeppelin/openzeppelin-contracts/blob/release-v2.5.0/contracts/ownership/Ownable.sol\":1250:1342  function isOwner() public view returns (bool) {... */\n    tag_15:\n      tag_56\n      tag_57\n      jump\t// in\n    tag_56:\n      mload(0x40)\n      dup1\n      dup3\n      iszero\n      iszero\n      iszero\n      iszero\n      dup2\n      mstore\n      0x20\n      add\n      swap2\n      pop\n      pop\n      mload(0x40)\n      dup1\n      swap2\n      sub\n      swap1\n      return\n        /* \"Users/yanickwilisky/Library/CloudStorage/GoogleDrive-yanickw@gmail.com/My Drive/09_Programming/FinTech_Workspace/sabot3/Contracts/MoneyToCurve.sol\":5965:6167  function curveLPTokenBalance() public view returns(uint256) {... */\n    tag_16:\n      tag_58\n      tag_59\n      jump\t// in\n    tag_58:\n      mload(0x40)\n      dup1\n      dup3\n      dup2\n      mstore\n      0x20\n      add\n      swap2\n      pop\n      pop\n      mload(0x40)\n      dup1\n      swap2\n      sub\n      swap1\n      return\n        /* \"Users/yanickwilisky/Library/CloudStorage/GoogleDrive-yanickw@gmail.com/My Drive/09_Programming/FinTech_Workspace/sabot3/Contracts/MoneyToCurve.sol\":1241:1271  address public curveFi_LPToken */\n    tag_17:\n      tag_60\n      tag_61\n      jump\t// in\n    tag_60:\n      mload(0x40)\n      dup1\n      dup3\n      0xffffffffffffffffffffffffffffffffffffffff\n      and\n      0xffffffffffffffffffffffffffffffffffffffff\n      and\n      dup2\n      mstore\n      0x20\n      add\n      swap2\n      pop\n      pop\n      mload(0x40)\n      dup1\n      swap2\n      sub\n      swap1\n      return\n        /* \"Users/yanickwilisky/Library/CloudStorage/GoogleDrive-yanickw@gmail.com/My Drive/09_Programming/FinTech_Workspace/sabot3/Contracts/MoneyToCurve.sol\":1172:1202  address public curveFi_Deposit */\n    tag_18:\n      tag_62\n      tag_63\n      jump\t// in\n    tag_62:\n      mload(0x40)\n      dup1\n      dup3\n      0xffffffffffffffffffffffffffffffffffffffff\n      and\n      0xffffffffffffffffffffffffffffffffffffffff\n      and\n      dup2\n      mstore\n      0x20\n      add\n      swap2\n      pop\n      pop\n      mload(0x40)\n      dup1\n      swap2\n      sub\n      swap1\n      return\n        /* \"Users/yanickwilisky/Library/CloudStorage/GoogleDrive-yanickw@gmail.com/My Drive/09_Programming/FinTech_Workspace/sabot3/Contracts/MoneyToCurve.sol\":5732:5865  function curveLPTokenUnstaked() public view returns(uint256) {... */\n    tag_19:\n      tag_64\n      tag_65\n      jump\t// in\n    tag_64:\n      mload(0x40)\n      dup1\n      dup3\n      dup2\n      mstore\n      0x20\n      add\n      swap2\n      pop\n      pop\n      mload(0x40)\n      dup1\n      swap2\n      sub\n      swap1\n      return\n        /* \"Users/yanickwilisky/Library/CloudStorage/GoogleDrive-yanickw@gmail.com/My Drive/09_Programming/FinTech_Workspace/sabot3/Contracts/MoneyToCurve.sol\":1277:1307  address public curveFi_LPGauge */\n    tag_20:\n      tag_66\n      tag_67\n      jump\t// in\n    tag_66:\n      mload(0x40)\n      dup1\n      dup3\n      0xffffffffffffffffffffffffffffffffffffffff\n      and\n      0xffffffffffffffffffffffffffffffffffffffff\n      and\n      dup2\n      mstore\n      0x20\n      add\n      swap2\n      pop\n      pop\n      mload(0x40)\n      dup1\n      swap2\n      sub\n      swap1\n      return\n        /* \"https://github.com/OpenZeppelin/openzeppelin-contracts/blob/release-v2.5.0/contracts/ownership/Ownable.sol\":1970:2077  function transferOwnership(address newOwner) public onlyOwner {... */\n    tag_21:\n      tag_68\n      0x04\n      dup1\n      calldatasize\n      sub\n        /* \"--CODEGEN--\":13:15   */\n      0x20\n        /* \"--CODEGEN--\":8:11   */\n      dup2\n        /* \"--CODEGEN--\":5:16   */\n      lt\n        /* \"--CODEGEN--\":2:4   */\n      iszero\n      tag_69\n      jumpi\n        /* \"--CODEGEN--\":29:30   */\n      0x00\n        /* \"--CODEGEN--\":26:27   */\n      dup1\n        /* \"--CODEGEN--\":19:31   */\n      revert\n        /* \"--CODEGEN--\":2:4   */\n    tag_69:\n        /* \"https://github.com/OpenZeppelin/openzeppelin-contracts/blob/release-v2.5.0/contracts/ownership/Ownable.sol\":1970:2077  function transferOwnership(address newOwner) public onlyOwner {... */\n      dup2\n      add\n      swap1\n      dup1\n      dup1\n      calldataload\n      0xffffffffffffffffffffffffffffffffffffffff\n      and\n      swap1\n      0x20\n      add\n      swap1\n      swap3\n      swap2\n      swap1\n      pop\n      pop\n      pop\n      tag_70\n      jump\t// in\n    tag_68:\n      stop\n        /* \"Users/yanickwilisky/Library/CloudStorage/GoogleDrive-yanickw@gmail.com/My Drive/09_Programming/FinTech_Workspace/sabot3/Contracts/MoneyToCurve.sol\":1415:1489  function initialize(uint256 _x) public initializer {... */\n    tag_22:\n      tag_71\n      0x04\n      dup1\n      calldatasize\n      sub\n        /* \"--CODEGEN--\":13:15   */\n      0x20\n        /* \"--CODEGEN--\":8:11   */\n      dup2\n        /* \"--CODEGEN--\":5:16   */\n      lt\n        /* \"--CODEGEN--\":2:4   */\n      iszero\n      tag_72\n      jumpi\n        /* \"--CODEGEN--\":29:30   */\n      0x00\n        /* \"--CODEGEN--\":26:27   */\n      dup1\n        /* \"--CODEGEN--\":19:31   */\n      revert\n        /* \"--CODEGEN--\":2:4   */\n    tag_72:\n        /* \"Users/yanickwilisky/Library/CloudStorage/GoogleDrive-yanickw@gmail.com/My Drive/09_Programming/FinTech_Workspace/sabot3/Contracts/MoneyToCurve.sol\":1415:1489  function initialize(uint256 _x) public initializer {... */\n      dup2\n      add\n      swap1\n      dup1\n      dup1\n      calldataload\n      swap1\n      0x20\n      add\n      swap1\n      swap3\n      swap2\n      swap1\n      pop\n      pop\n      pop\n      tag_73\n      jump\t// in\n    tag_71:\n      stop\n        /* \"Users/yanickwilisky/Library/CloudStorage/GoogleDrive-yanickw@gmail.com/My Drive/09_Programming/FinTech_Workspace/sabot3/Contracts/MoneyToCurve.sol\":1388:1404  uint256 public x */\n    tag_27:\n      sload(0x3a)\n      dup2\n      jump\t// out\n        /* \"Users/yanickwilisky/Library/CloudStorage/GoogleDrive-yanickw@gmail.com/My Drive/09_Programming/FinTech_Workspace/sabot3/Contracts/MoneyToCurve.sol\":2612:3742  function multiStepDeposit(uint256[4] memory _amounts) public {... */\n    tag_30:\n        /* \"Users/yanickwilisky/Library/CloudStorage/GoogleDrive-yanickw@gmail.com/My Drive/09_Programming/FinTech_Workspace/sabot3/Contracts/MoneyToCurve.sol\":2683:2712  address[4] memory stablecoins */\n      tag_75\n      tag_76\n      jump\t// in\n    tag_75:\n        /* \"Users/yanickwilisky/Library/CloudStorage/GoogleDrive-yanickw@gmail.com/My Drive/09_Programming/FinTech_Workspace/sabot3/Contracts/MoneyToCurve.sol\":2733:2748  curveFi_Deposit */\n      0x34\n      0x00\n      swap1\n      sload\n      swap1\n      0x0100\n      exp\n      swap1\n      div\n      0xffffffffffffffffffffffffffffffffffffffff\n      and\n        /* \"Users/yanickwilisky/Library/CloudStorage/GoogleDrive-yanickw@gmail.com/My Drive/09_Programming/FinTech_Workspace/sabot3/Contracts/MoneyToCurve.sol\":2715:2766  ICurveFi_DepositY(curveFi_Deposit).underlying_coins */\n      0xffffffffffffffffffffffffffffffffffffffff\n      and\n      0xfb6d3a89\n        /* \"Users/yanickwilisky/Library/CloudStorage/GoogleDrive-yanickw@gmail.com/My Drive/09_Programming/FinTech_Workspace/sabot3/Contracts/MoneyToCurve.sol\":2715:2768  ICurveFi_DepositY(curveFi_Deposit).underlying_coins() */\n      mload(0x40)\n      dup2\n      0xffffffff\n      and\n      0xe0\n      shl\n      dup2\n      mstore\n      0x04\n      add\n      0x80\n      mload(0x40)\n      dup1\n      dup4\n      sub\n      dup2\n      dup7\n      dup1\n      extcodesize\n      iszero\n        /* \"--CODEGEN--\":8:17   */\n      dup1\n        /* \"--CODEGEN--\":5:7   */\n      iszero\n      tag_77\n      jumpi\n        /* \"--CODEGEN--\":30:31   */\n      0x00\n        /* \"--CODEGEN--\":27:28   */\n      dup1\n        /* \"--CODEGEN--\":20:32   */\n      revert\n        /* \"--CODEGEN--\":5:7   */\n    tag_77:\n        /* \"Users/yanickwilisky/Library/CloudStorage/GoogleDrive-yanickw@gmail.com/My Drive/09_Programming/FinTech_Workspace/sabot3/Contracts/MoneyToCurve.sol\":2715:2768  ICurveFi_DepositY(curveFi_Deposit).underlying_coins() */\n      pop\n      gas\n      staticcall\n      iszero\n        /* \"--CODEGEN--\":8:17   */\n      dup1\n        /* \"--CODEGEN--\":5:7   */\n      iszero\n      tag_78\n      jumpi\n        /* \"--CODEGEN--\":45:61   */\n      returndatasize\n        /* \"--CODEGEN--\":42:43   */\n      0x00\n        /* \"--CODEGEN--\":39:40   */\n      dup1\n        /* \"--CODEGEN--\":24:62   */\n      returndatacopy\n        /* \"--CODEGEN--\":77:93   */\n      returndatasize\n        /* \"--CODEGEN--\":74:75   */\n      0x00\n        /* \"--CODEGEN--\":67:94   */\n      revert\n        /* \"--CODEGEN--\":5:7   */\n    tag_78:\n        /* \"Users/yanickwilisky/Library/CloudStorage/GoogleDrive-yanickw@gmail.com/My Drive/09_Programming/FinTech_Workspace/sabot3/Contracts/MoneyToCurve.sol\":2715:2768  ICurveFi_DepositY(curveFi_Deposit).underlying_coins() */\n      pop\n      pop\n      pop\n      pop\n      mload(0x40)\n      returndatasize\n        /* \"--CODEGEN--\":101:105   */\n      0x1f\n        /* \"--CODEGEN--\":97:106   */\n      not\n        /* \"--CODEGEN--\":90:94   */\n      0x1f\n        /* \"--CODEGEN--\":84:88   */\n      dup3\n        /* \"--CODEGEN--\":80:95   */\n      add\n        /* \"--CODEGEN--\":76:107   */\n      and\n        /* \"--CODEGEN--\":69:74   */\n      dup3\n        /* \"--CODEGEN--\":65:108   */\n      add\n        /* \"--CODEGEN--\":126:132   */\n      dup1\n        /* \"--CODEGEN--\":120:124   */\n      0x40\n        /* \"--CODEGEN--\":113:133   */\n      mstore\n        /* \"--CODEGEN--\":0:138   */\n      pop\n        /* \"--CODEGEN--\":13:16   */\n      0x80\n        /* \"--CODEGEN--\":8:11   */\n      dup2\n        /* \"--CODEGEN--\":5:17   */\n      lt\n        /* \"--CODEGEN--\":2:4   */\n      iszero\n      tag_79\n      jumpi\n        /* \"--CODEGEN--\":30:31   */\n      0x00\n        /* \"--CODEGEN--\":27:28   */\n      dup1\n        /* \"--CODEGEN--\":20:32   */\n      revert\n        /* \"--CODEGEN--\":2:4   */\n    tag_79:\n        /* \"Users/yanickwilisky/Library/CloudStorage/GoogleDrive-yanickw@gmail.com/My Drive/09_Programming/FinTech_Workspace/sabot3/Contracts/MoneyToCurve.sol\":2715:2768  ICurveFi_DepositY(curveFi_Deposit).underlying_coins() */\n      dup2\n      add\n      swap1\n      dup1\n      swap2\n      swap1\n      pop\n      pop\n        /* \"Users/yanickwilisky/Library/CloudStorage/GoogleDrive-yanickw@gmail.com/My Drive/09_Programming/FinTech_Workspace/sabot3/Contracts/MoneyToCurve.sol\":2683:2768  address[4] memory stablecoins = ICurveFi_DepositY(curveFi_Deposit).underlying_coins() */\n      swap1\n      pop\n        /* \"Users/yanickwilisky/Library/CloudStorage/GoogleDrive-yanickw@gmail.com/My Drive/09_Programming/FinTech_Workspace/sabot3/Contracts/MoneyToCurve.sol\":2784:2793  uint256 i */\n      0x00\n        /* \"Users/yanickwilisky/Library/CloudStorage/GoogleDrive-yanickw@gmail.com/My Drive/09_Programming/FinTech_Workspace/sabot3/Contracts/MoneyToCurve.sol\":2796:2797  0 */\n      dup1\n        /* \"Users/yanickwilisky/Library/CloudStorage/GoogleDrive-yanickw@gmail.com/My Drive/09_Programming/FinTech_Workspace/sabot3/Contracts/MoneyToCurve.sol\":2784:2797  uint256 i = 0 */\n      swap1\n      pop\n        /* \"Users/yanickwilisky/Library/CloudStorage/GoogleDrive-yanickw@gmail.com/My Drive/09_Programming/FinTech_Workspace/sabot3/Contracts/MoneyToCurve.sol\":2779:3012  for (uint256 i = 0; i < stablecoins.length; i++) {... */\n    tag_80:\n        /* \"Users/yanickwilisky/Library/CloudStorage/GoogleDrive-yanickw@gmail.com/My Drive/09_Programming/FinTech_Workspace/sabot3/Contracts/MoneyToCurve.sol\":2803:2821  stablecoins.length */\n      0x04\n        /* \"Users/yanickwilisky/Library/CloudStorage/GoogleDrive-yanickw@gmail.com/My Drive/09_Programming/FinTech_Workspace/sabot3/Contracts/MoneyToCurve.sol\":2799:2800  i */\n      dup2\n        /* \"Users/yanickwilisky/Library/CloudStorage/GoogleDrive-yanickw@gmail.com/My Drive/09_Programming/FinTech_Workspace/sabot3/Contracts/MoneyToCurve.sol\":2799:2821  i < stablecoins.length */\n      lt\n        /* \"Users/yanickwilisky/Library/CloudStorage/GoogleDrive-yanickw@gmail.com/My Drive/09_Programming/FinTech_Workspace/sabot3/Contracts/MoneyToCurve.sol\":2779:3012  for (uint256 i = 0; i < stablecoins.length; i++) {... */\n      iszero\n      tag_81\n      jumpi\n        /* \"Users/yanickwilisky/Library/CloudStorage/GoogleDrive-yanickw@gmail.com/My Drive/09_Programming/FinTech_Workspace/sabot3/Contracts/MoneyToCurve.sol\":2842:2923  IERC20(stablecoins[i]).safeTransferFrom(_msgSender(), address(this), _amounts[i]) */\n      tag_83\n        /* \"Users/yanickwilisky/Library/CloudStorage/GoogleDrive-yanickw@gmail.com/My Drive/09_Programming/FinTech_Workspace/sabot3/Contracts/MoneyToCurve.sol\":2882:2894  _msgSender() */\n      tag_84\n        /* \"Users/yanickwilisky/Library/CloudStorage/GoogleDrive-yanickw@gmail.com/My Drive/09_Programming/FinTech_Workspace/sabot3/Contracts/MoneyToCurve.sol\":2882:2892  _msgSender */\n      tag_85\n        /* \"Users/yanickwilisky/Library/CloudStorage/GoogleDrive-yanickw@gmail.com/My Drive/09_Programming/FinTech_Workspace/sabot3/Contracts/MoneyToCurve.sol\":2882:2894  _msgSender() */\n      jump\t// in\n    tag_84:\n        /* \"Users/yanickwilisky/Library/CloudStorage/GoogleDrive-yanickw@gmail.com/My Drive/09_Programming/FinTech_Workspace/sabot3/Contracts/MoneyToCurve.sol\":2904:2908  this */\n      address\n        /* \"Users/yanickwilisky/Library/CloudStorage/GoogleDrive-yanickw@gmail.com/My Drive/09_Programming/FinTech_Workspace/sabot3/Contracts/MoneyToCurve.sol\":2911:2919  _amounts */\n      dup6\n        /* \"Users/yanickwilisky/Library/CloudStorage/GoogleDrive-yanickw@gmail.com/My Drive/09_Programming/FinTech_Workspace/sabot3/Contracts/MoneyToCurve.sol\":2920:2921  i */\n      dup5\n        /* \"Users/yanickwilisky/Library/CloudStorage/GoogleDrive-yanickw@gmail.com/My Drive/09_Programming/FinTech_Workspace/sabot3/Contracts/MoneyToCurve.sol\":2911:2922  _amounts[i] */\n      0x04\n      dup2\n      lt\n      tag_86\n      jumpi\n      invalid\n    tag_86:\n      0x20\n      mul\n      add\n      mload\n        /* \"Users/yanickwilisky/Library/CloudStorage/GoogleDrive-yanickw@gmail.com/My Drive/09_Programming/FinTech_Workspace/sabot3/Contracts/MoneyToCurve.sol\":2849:2860  stablecoins */\n      dup6\n        /* \"Users/yanickwilisky/Library/CloudStorage/GoogleDrive-yanickw@gmail.com/My Drive/09_Programming/FinTech_Workspace/sabot3/Contracts/MoneyToCurve.sol\":2861:2862  i */\n      dup6\n        /* \"Users/yanickwilisky/Library/CloudStorage/GoogleDrive-yanickw@gmail.com/My Drive/09_Programming/FinTech_Workspace/sabot3/Contracts/MoneyToCurve.sol\":2849:2863  stablecoins[i] */\n      0x04\n      dup2\n      lt\n      tag_87\n      jumpi\n      invalid\n    tag_87:\n      0x20\n      mul\n      add\n      mload\n        /* \"Users/yanickwilisky/Library/CloudStorage/GoogleDrive-yanickw@gmail.com/My Drive/09_Programming/FinTech_Workspace/sabot3/Contracts/MoneyToCurve.sol\":2842:2881  IERC20(stablecoins[i]).safeTransferFrom */\n      0xffffffffffffffffffffffffffffffffffffffff\n      and\n      tag_88\n      swap1\n        /* \"Users/yanickwilisky/Library/CloudStorage/GoogleDrive-yanickw@gmail.com/My Drive/09_Programming/FinTech_Workspace/sabot3/Contracts/MoneyToCurve.sol\":2842:2923  IERC20(stablecoins[i]).safeTransferFrom(_msgSender(), address(this), _amounts[i]) */\n      swap4\n      swap3\n      swap2\n      swap1\n      0xffffffff\n      and\n      jump\t// in\n    tag_83:\n        /* \"Users/yanickwilisky/Library/CloudStorage/GoogleDrive-yanickw@gmail.com/My Drive/09_Programming/FinTech_Workspace/sabot3/Contracts/MoneyToCurve.sol\":2937:3001  IERC20(stablecoins[i]).safeApprove(curveFi_Deposit, _amounts[i]) */\n      tag_89\n        /* \"Users/yanickwilisky/Library/CloudStorage/GoogleDrive-yanickw@gmail.com/My Drive/09_Programming/FinTech_Workspace/sabot3/Contracts/MoneyToCurve.sol\":2972:2987  curveFi_Deposit */\n      0x34\n      0x00\n      swap1\n      sload\n      swap1\n      0x0100\n      exp\n      swap1\n      div\n      0xffffffffffffffffffffffffffffffffffffffff\n      and\n        /* \"Users/yanickwilisky/Library/CloudStorage/GoogleDrive-yanickw@gmail.com/My Drive/09_Programming/FinTech_Workspace/sabot3/Contracts/MoneyToCurve.sol\":2989:2997  _amounts */\n      dup5\n        /* \"Users/yanickwilisky/Library/CloudStorage/GoogleDrive-yanickw@gmail.com/My Drive/09_Programming/FinTech_Workspace/sabot3/Contracts/MoneyToCurve.sol\":2998:2999  i */\n      dup4\n        /* \"Users/yanickwilisky/Library/CloudStorage/GoogleDrive-yanickw@gmail.com/My Drive/09_Programming/FinTech_Workspace/sabot3/Contracts/MoneyToCurve.sol\":2989:3000  _amounts[i] */\n      0x04\n      dup2\n      lt\n      tag_90\n      jumpi\n      invalid\n    tag_90:\n      0x20\n      mul\n      add\n      mload\n        /* \"Users/yanickwilisky/Library/CloudStorage/GoogleDrive-yanickw@gmail.com/My Drive/09_Programming/FinTech_Workspace/sabot3/Contracts/MoneyToCurve.sol\":2944:2955  stablecoins */\n      dup5\n        /* \"Users/yanickwilisky/Library/CloudStorage/GoogleDrive-yanickw@gmail.com/My Drive/09_Programming/FinTech_Workspace/sabot3/Contracts/MoneyToCurve.sol\":2956:2957  i */\n      dup5\n        /* \"Users/yanickwilisky/Library/CloudStorage/GoogleDrive-yanickw@gmail.com/My Drive/09_Programming/FinTech_Workspace/sabot3/Contracts/MoneyToCurve.sol\":2944:2958  stablecoins[i] */\n      0x04\n      dup2\n      lt\n      tag_91\n      jumpi\n      invalid\n    tag_91:\n      0x20\n      mul\n      add\n      mload\n        /* \"Users/yanickwilisky/Library/CloudStorage/GoogleDrive-yanickw@gmail.com/My Drive/09_Programming/FinTech_Workspace/sabot3/Contracts/MoneyToCurve.sol\":2937:2971  IERC20(stablecoins[i]).safeApprove */\n      0xffffffffffffffffffffffffffffffffffffffff\n      and\n      tag_92\n      swap1\n        /* \"Users/yanickwilisky/Library/CloudStorage/GoogleDrive-yanickw@gmail.com/My Drive/09_Programming/FinTech_Workspace/sabot3/Contracts/MoneyToCurve.sol\":2937:3001  IERC20(stablecoins[i]).safeApprove(curveFi_Deposit, _amounts[i]) */\n      swap3\n      swap2\n      swap1\n      0xffffffff\n      and\n      jump\t// in\n    tag_89:\n        /* \"Users/yanickwilisky/Library/CloudStorage/GoogleDrive-yanickw@gmail.com/My Drive/09_Programming/FinTech_Workspace/sabot3/Contracts/MoneyToCurve.sol\":2823:2826  i++ */\n      dup1\n      dup1\n      0x01\n      add\n      swap2\n      pop\n      pop\n        /* \"Users/yanickwilisky/Library/CloudStorage/GoogleDrive-yanickw@gmail.com/My Drive/09_Programming/FinTech_Workspace/sabot3/Contracts/MoneyToCurve.sol\":2779:3012  for (uint256 i = 0; i < stablecoins.length; i++) {... */\n      jump(tag_80)\n    tag_81:\n      pop\n        /* \"Users/yanickwilisky/Library/CloudStorage/GoogleDrive-yanickw@gmail.com/My Drive/09_Programming/FinTech_Workspace/sabot3/Contracts/MoneyToCurve.sol\":3106:3121  curveFi_Deposit */\n      0x34\n      0x00\n      swap1\n      sload\n      swap1\n      0x0100\n      exp\n      swap1\n      div\n      0xffffffffffffffffffffffffffffffffffffffff\n      and\n        /* \"Users/yanickwilisky/Library/CloudStorage/GoogleDrive-yanickw@gmail.com/My Drive/09_Programming/FinTech_Workspace/sabot3/Contracts/MoneyToCurve.sol\":3088:3136  ICurveFi_DepositY(curveFi_Deposit).add_liquidity */\n      0xffffffffffffffffffffffffffffffffffffffff\n      and\n      0x029b2f34\n        /* \"Users/yanickwilisky/Library/CloudStorage/GoogleDrive-yanickw@gmail.com/My Drive/09_Programming/FinTech_Workspace/sabot3/Contracts/MoneyToCurve.sol\":3137:3145  _amounts */\n      dup4\n        /* \"Users/yanickwilisky/Library/CloudStorage/GoogleDrive-yanickw@gmail.com/My Drive/09_Programming/FinTech_Workspace/sabot3/Contracts/MoneyToCurve.sol\":3147:3148  0 */\n      0x00\n        /* \"Users/yanickwilisky/Library/CloudStorage/GoogleDrive-yanickw@gmail.com/My Drive/09_Programming/FinTech_Workspace/sabot3/Contracts/MoneyToCurve.sol\":3088:3149  ICurveFi_DepositY(curveFi_Deposit).add_liquidity(_amounts, 0) */\n      mload(0x40)\n      dup4\n      0xffffffff\n      and\n      0xe0\n      shl\n      dup2\n      mstore\n      0x04\n      add\n      dup1\n      dup4\n      mul(0x20, 0x04)\n      dup1\n      dup4\n      dup4\n        /* \"--CODEGEN--\":23:24   */\n      0x00\n        /* \"--CODEGEN--\":8:108   */\n    tag_93:\n        /* \"--CODEGEN--\":33:36   */\n      dup4\n        /* \"--CODEGEN--\":30:31   */\n      dup2\n        /* \"--CODEGEN--\":27:37   */\n      lt\n        /* \"--CODEGEN--\":8:108   */\n      iszero\n      tag_95\n      jumpi\n        /* \"--CODEGEN--\":99:100   */\n      dup1\n        /* \"--CODEGEN--\":94:97   */\n      dup3\n        /* \"--CODEGEN--\":90:101   */\n      add\n        /* \"--CODEGEN--\":84:102   */\n      mload\n        /* \"--CODEGEN--\":80:81   */\n      dup2\n        /* \"--CODEGEN--\":75:78   */\n      dup5\n        /* \"--CODEGEN--\":71:82   */\n      add\n        /* \"--CODEGEN--\":64:103   */\n      mstore\n        /* \"--CODEGEN--\":52:54   */\n      0x20\n        /* \"--CODEGEN--\":49:50   */\n      dup2\n        /* \"--CODEGEN--\":45:55   */\n      add\n        /* \"--CODEGEN--\":40:55   */\n      swap1\n      pop\n        /* \"--CODEGEN--\":8:108   */\n      jump(tag_93)\n    tag_95:\n        /* \"--CODEGEN--\":12:26   */\n      pop\n        /* \"Users/yanickwilisky/Library/CloudStorage/GoogleDrive-yanickw@gmail.com/My Drive/09_Programming/FinTech_Workspace/sabot3/Contracts/MoneyToCurve.sol\":3088:3149  ICurveFi_DepositY(curveFi_Deposit).add_liquidity(_amounts, 0) */\n      pop\n      pop\n      pop\n      swap1\n      pop\n      add\n      dup3\n      dup2\n      mstore\n      0x20\n      add\n      swap3\n      pop\n      pop\n      pop\n      0x00\n      mload(0x40)\n      dup1\n      dup4\n      sub\n      dup2\n      0x00\n      dup8\n      dup1\n      extcodesize\n      iszero\n        /* \"--CODEGEN--\":8:17   */\n      dup1\n        /* \"--CODEGEN--\":5:7   */\n      iszero\n      tag_96\n      jumpi\n        /* \"--CODEGEN--\":30:31   */\n      0x00\n        /* \"--CODEGEN--\":27:28   */\n      dup1\n        /* \"--CODEGEN--\":20:32   */\n      revert\n        /* \"--CODEGEN--\":5:7   */\n    tag_96:\n        /* \"Users/yanickwilisky/Library/CloudStorage/GoogleDrive-yanickw@gmail.com/My Drive/09_Programming/FinTech_Workspace/sabot3/Contracts/MoneyToCurve.sol\":3088:3149  ICurveFi_DepositY(curveFi_Deposit).add_liquidity(_amounts, 0) */\n      pop\n      gas\n      call\n      iszero\n        /* \"--CODEGEN--\":8:17   */\n      dup1\n        /* \"--CODEGEN--\":5:7   */\n      iszero\n      tag_97\n      jumpi\n        /* \"--CODEGEN--\":45:61   */\n      returndatasize\n        /* \"--CODEGEN--\":42:43   */\n      0x00\n        /* \"--CODEGEN--\":39:40   */\n      dup1\n        /* \"--CODEGEN--\":24:62   */\n      returndatacopy\n        /* \"--CODEGEN--\":77:93   */\n      returndatasize\n        /* \"--CODEGEN--\":74:75   */\n      0x00\n        /* \"--CODEGEN--\":67:94   */\n      revert\n        /* \"--CODEGEN--\":5:7   */\n    tag_97:\n        /* \"Users/yanickwilisky/Library/CloudStorage/GoogleDrive-yanickw@gmail.com/My Drive/09_Programming/FinTech_Workspace/sabot3/Contracts/MoneyToCurve.sol\":3088:3149  ICurveFi_DepositY(curveFi_Deposit).add_liquidity(_amounts, 0) */\n      pop\n      pop\n      pop\n      pop\n        /* \"Users/yanickwilisky/Library/CloudStorage/GoogleDrive-yanickw@gmail.com/My Drive/09_Programming/FinTech_Workspace/sabot3/Contracts/MoneyToCurve.sol\":3262:3284  uint256 curveLPBalance */\n      0x00\n        /* \"Users/yanickwilisky/Library/CloudStorage/GoogleDrive-yanickw@gmail.com/My Drive/09_Programming/FinTech_Workspace/sabot3/Contracts/MoneyToCurve.sol\":3294:3309  curveFi_LPToken */\n      0x36\n      0x00\n      swap1\n      sload\n      swap1\n      0x0100\n      exp\n      swap1\n      div\n      0xffffffffffffffffffffffffffffffffffffffff\n      and\n        /* \"Users/yanickwilisky/Library/CloudStorage/GoogleDrive-yanickw@gmail.com/My Drive/09_Programming/FinTech_Workspace/sabot3/Contracts/MoneyToCurve.sol\":3287:3320  IERC20(curveFi_LPToken).balanceOf */\n      0xffffffffffffffffffffffffffffffffffffffff\n      and\n      0x70a08231\n        /* \"Users/yanickwilisky/Library/CloudStorage/GoogleDrive-yanickw@gmail.com/My Drive/09_Programming/FinTech_Workspace/sabot3/Contracts/MoneyToCurve.sol\":3329:3333  this */\n      address\n        /* \"Users/yanickwilisky/Library/CloudStorage/GoogleDrive-yanickw@gmail.com/My Drive/09_Programming/FinTech_Workspace/sabot3/Contracts/MoneyToCurve.sol\":3287:3335  IERC20(curveFi_LPToken).balanceOf(address(this)) */\n      mload(0x40)\n      dup3\n      0xffffffff\n      and\n      0xe0\n      shl\n      dup2\n      mstore\n      0x04\n      add\n      dup1\n      dup3\n      0xffffffffffffffffffffffffffffffffffffffff\n      and\n      0xffffffffffffffffffffffffffffffffffffffff\n      and\n      dup2\n      mstore\n      0x20\n      add\n      swap2\n      pop\n      pop\n      0x20\n      mload(0x40)\n      dup1\n      dup4\n      sub\n      dup2\n      dup7\n      dup1\n      extcodesize\n      iszero\n        /* \"--CODEGEN--\":8:17   */\n      dup1\n        /* \"--CODEGEN--\":5:7   */\n      iszero\n      tag_98\n      jumpi\n        /* \"--CODEGEN--\":30:31   */\n      0x00\n        /* \"--CODEGEN--\":27:28   */\n      dup1\n        /* \"--CODEGEN--\":20:32   */\n      revert\n        /* \"--CODEGEN--\":5:7   */\n    tag_98:\n        /* \"Users/yanickwilisky/Library/CloudStorage/GoogleDrive-yanickw@gmail.com/My Drive/09_Programming/FinTech_Workspace/sabot3/Contracts/MoneyToCurve.sol\":3287:3335  IERC20(curveFi_LPToken).balanceOf(address(this)) */\n      pop\n      gas\n      staticcall\n      iszero\n        /* \"--CODEGEN--\":8:17   */\n      dup1\n        /* \"--CODEGEN--\":5:7   */\n      iszero\n      tag_99\n      jumpi\n        /* \"--CODEGEN--\":45:61   */\n      returndatasize\n        /* \"--CODEGEN--\":42:43   */\n      0x00\n        /* \"--CODEGEN--\":39:40   */\n      dup1\n        /* \"--CODEGEN--\":24:62   */\n      returndatacopy\n        /* \"--CODEGEN--\":77:93   */\n      returndatasize\n        /* \"--CODEGEN--\":74:75   */\n      0x00\n        /* \"--CODEGEN--\":67:94   */\n      revert\n        /* \"--CODEGEN--\":5:7   */\n    tag_99:\n        /* \"Users/yanickwilisky/Library/CloudStorage/GoogleDrive-yanickw@gmail.com/My Drive/09_Programming/FinTech_Workspace/sabot3/Contracts/MoneyToCurve.sol\":3287:3335  IERC20(curveFi_LPToken).balanceOf(address(this)) */\n      pop\n      pop\n      pop\n      pop\n      mload(0x40)\n      returndatasize\n        /* \"--CODEGEN--\":13:15   */\n      0x20\n        /* \"--CODEGEN--\":8:11   */\n      dup2\n        /* \"--CODEGEN--\":5:16   */\n      lt\n        /* \"--CODEGEN--\":2:4   */\n      iszero\n      tag_100\n      jumpi\n        /* \"--CODEGEN--\":29:30   */\n      0x00\n        /* \"--CODEGEN--\":26:27   */\n      dup1\n        /* \"--CODEGEN--\":19:31   */\n      revert\n        /* \"--CODEGEN--\":2:4   */\n    tag_100:\n        /* \"Users/yanickwilisky/Library/CloudStorage/GoogleDrive-yanickw@gmail.com/My Drive/09_Programming/FinTech_Workspace/sabot3/Contracts/MoneyToCurve.sol\":3287:3335  IERC20(curveFi_LPToken).balanceOf(address(this)) */\n      dup2\n      add\n      swap1\n      dup1\n      dup1\n      mload\n      swap1\n      0x20\n      add\n      swap1\n      swap3\n      swap2\n      swap1\n      pop\n      pop\n      pop\n        /* \"Users/yanickwilisky/Library/CloudStorage/GoogleDrive-yanickw@gmail.com/My Drive/09_Programming/FinTech_Workspace/sabot3/Contracts/MoneyToCurve.sol\":3262:3335  uint256 curveLPBalance = IERC20(curveFi_LPToken).balanceOf(address(this)) */\n      swap1\n      pop\n        /* \"Users/yanickwilisky/Library/CloudStorage/GoogleDrive-yanickw@gmail.com/My Drive/09_Programming/FinTech_Workspace/sabot3/Contracts/MoneyToCurve.sol\":3346:3414  IERC20(curveFi_LPToken).safeApprove(curveFi_LPGauge, curveLPBalance) */\n      tag_101\n        /* \"Users/yanickwilisky/Library/CloudStorage/GoogleDrive-yanickw@gmail.com/My Drive/09_Programming/FinTech_Workspace/sabot3/Contracts/MoneyToCurve.sol\":3382:3397  curveFi_LPGauge */\n      0x37\n      0x00\n      swap1\n      sload\n      swap1\n      0x0100\n      exp\n      swap1\n      div\n      0xffffffffffffffffffffffffffffffffffffffff\n      and\n        /* \"Users/yanickwilisky/Library/CloudStorage/GoogleDrive-yanickw@gmail.com/My Drive/09_Programming/FinTech_Workspace/sabot3/Contracts/MoneyToCurve.sol\":3399:3413  curveLPBalance */\n      dup3\n        /* \"Users/yanickwilisky/Library/CloudStorage/GoogleDrive-yanickw@gmail.com/My Drive/09_Programming/FinTech_Workspace/sabot3/Contracts/MoneyToCurve.sol\":3353:3368  curveFi_LPToken */\n      0x36\n      0x00\n      swap1\n      sload\n      swap1\n      0x0100\n      exp\n      swap1\n      div\n      0xffffffffffffffffffffffffffffffffffffffff\n      and\n        /* \"Users/yanickwilisky/Library/CloudStorage/GoogleDrive-yanickw@gmail.com/My Drive/09_Programming/FinTech_Workspace/sabot3/Contracts/MoneyToCurve.sol\":3346:3381  IERC20(curveFi_LPToken).safeApprove */\n      0xffffffffffffffffffffffffffffffffffffffff\n      and\n      tag_92\n      swap1\n        /* \"Users/yanickwilisky/Library/CloudStorage/GoogleDrive-yanickw@gmail.com/My Drive/09_Programming/FinTech_Workspace/sabot3/Contracts/MoneyToCurve.sol\":3346:3414  IERC20(curveFi_LPToken).safeApprove(curveFi_LPGauge, curveLPBalance) */\n      swap3\n      swap2\n      swap1\n      0xffffffff\n      and\n      jump\t// in\n    tag_101:\n        /* \"Users/yanickwilisky/Library/CloudStorage/GoogleDrive-yanickw@gmail.com/My Drive/09_Programming/FinTech_Workspace/sabot3/Contracts/MoneyToCurve.sol\":3439:3454  curveFi_LPGauge */\n      0x37\n      0x00\n      swap1\n      sload\n      swap1\n      0x0100\n      exp\n      swap1\n      div\n      0xffffffffffffffffffffffffffffffffffffffff\n      and\n        /* \"Users/yanickwilisky/Library/CloudStorage/GoogleDrive-yanickw@gmail.com/My Drive/09_Programming/FinTech_Workspace/sabot3/Contracts/MoneyToCurve.sol\":3424:3463  ICurveFi_Gauge(curveFi_LPGauge).deposit */\n      0xffffffffffffffffffffffffffffffffffffffff\n      and\n      0xb6b55f25\n        /* \"Users/yanickwilisky/Library/CloudStorage/GoogleDrive-yanickw@gmail.com/My Drive/09_Programming/FinTech_Workspace/sabot3/Contracts/MoneyToCurve.sol\":3464:3478  curveLPBalance */\n      dup3\n        /* \"Users/yanickwilisky/Library/CloudStorage/GoogleDrive-yanickw@gmail.com/My Drive/09_Programming/FinTech_Workspace/sabot3/Contracts/MoneyToCurve.sol\":3424:3479  ICurveFi_Gauge(curveFi_LPGauge).deposit(curveLPBalance) */\n      mload(0x40)\n      dup3\n      0xffffffff\n      and\n      0xe0\n      shl\n      dup2\n      mstore\n      0x04\n      add\n      dup1\n      dup3\n      dup2\n      mstore\n      0x20\n      add\n      swap2\n      pop\n      pop\n      0x00\n      mload(0x40)\n      dup1\n      dup4\n      sub\n      dup2\n      0x00\n      dup8\n      dup1\n      extcodesize\n      iszero\n        /* \"--CODEGEN--\":8:17   */\n      dup1\n        /* \"--CODEGEN--\":5:7   */\n      iszero\n      tag_102\n      jumpi\n        /* \"--CODEGEN--\":30:31   */\n      0x00\n        /* \"--CODEGEN--\":27:28   */\n      dup1\n        /* \"--CODEGEN--\":20:32   */\n      revert\n        /* \"--CODEGEN--\":5:7   */\n    tag_102:\n        /* \"Users/yanickwilisky/Library/CloudStorage/GoogleDrive-yanickw@gmail.com/My Drive/09_Programming/FinTech_Workspace/sabot3/Contracts/MoneyToCurve.sol\":3424:3479  ICurveFi_Gauge(curveFi_LPGauge).deposit(curveLPBalance) */\n      pop\n      gas\n      call\n      iszero\n        /* \"--CODEGEN--\":8:17   */\n      dup1\n        /* \"--CODEGEN--\":5:7   */\n      iszero\n      tag_103\n      jumpi\n        /* \"--CODEGEN--\":45:61   */\n      returndatasize\n        /* \"--CODEGEN--\":42:43   */\n      0x00\n        /* \"--CODEGEN--\":39:40   */\n      dup1\n        /* \"--CODEGEN--\":24:62   */\n      returndatacopy\n        /* \"--CODEGEN--\":77:93   */\n      returndatasize\n        /* \"--CODEGEN--\":74:75   */\n      0x00\n        /* \"--CODEGEN--\":67:94   */\n      revert\n        /* \"--CODEGEN--\":5:7   */\n    tag_103:\n        /* \"Users/yanickwilisky/Library/CloudStorage/GoogleDrive-yanickw@gmail.com/My Drive/09_Programming/FinTech_Workspace/sabot3/Contracts/MoneyToCurve.sol\":3424:3479  ICurveFi_Gauge(curveFi_LPGauge).deposit(curveLPBalance) */\n      pop\n      pop\n      pop\n      pop\n        /* \"Users/yanickwilisky/Library/CloudStorage/GoogleDrive-yanickw@gmail.com/My Drive/09_Programming/FinTech_Workspace/sabot3/Contracts/MoneyToCurve.sol\":3568:3583  crvTokenClaim() */\n      tag_104\n        /* \"Users/yanickwilisky/Library/CloudStorage/GoogleDrive-yanickw@gmail.com/My Drive/09_Programming/FinTech_Workspace/sabot3/Contracts/MoneyToCurve.sol\":3568:3581  crvTokenClaim */\n      tag_105\n        /* \"Users/yanickwilisky/Library/CloudStorage/GoogleDrive-yanickw@gmail.com/My Drive/09_Programming/FinTech_Workspace/sabot3/Contracts/MoneyToCurve.sol\":3568:3583  crvTokenClaim() */\n      jump\t// in\n    tag_104:\n        /* \"Users/yanickwilisky/Library/CloudStorage/GoogleDrive-yanickw@gmail.com/My Drive/09_Programming/FinTech_Workspace/sabot3/Contracts/MoneyToCurve.sol\":3593:3610  uint256 crvAmount */\n      0x00\n        /* \"Users/yanickwilisky/Library/CloudStorage/GoogleDrive-yanickw@gmail.com/My Drive/09_Programming/FinTech_Workspace/sabot3/Contracts/MoneyToCurve.sol\":3620:3636  curveFi_CRVToken */\n      0x39\n      0x00\n      swap1\n      sload\n      swap1\n      0x0100\n      exp\n      swap1\n      div\n      0xffffffffffffffffffffffffffffffffffffffff\n      and\n        /* \"Users/yanickwilisky/Library/CloudStorage/GoogleDrive-yanickw@gmail.com/My Drive/09_Programming/FinTech_Workspace/sabot3/Contracts/MoneyToCurve.sol\":3613:3647  IERC20(curveFi_CRVToken).balanceOf */\n      0xffffffffffffffffffffffffffffffffffffffff\n      and\n      0x70a08231\n        /* \"Users/yanickwilisky/Library/CloudStorage/GoogleDrive-yanickw@gmail.com/My Drive/09_Programming/FinTech_Workspace/sabot3/Contracts/MoneyToCurve.sol\":3656:3660  this */\n      address\n        /* \"Users/yanickwilisky/Library/CloudStorage/GoogleDrive-yanickw@gmail.com/My Drive/09_Programming/FinTech_Workspace/sabot3/Contracts/MoneyToCurve.sol\":3613:3662  IERC20(curveFi_CRVToken).balanceOf(address(this)) */\n      mload(0x40)\n      dup3\n      0xffffffff\n      and\n      0xe0\n      shl\n      dup2\n      mstore\n      0x04\n      add\n      dup1\n      dup3\n      0xffffffffffffffffffffffffffffffffffffffff\n      and\n      0xffffffffffffffffffffffffffffffffffffffff\n      and\n      dup2\n      mstore\n      0x20\n      add\n      swap2\n      pop\n      pop\n      0x20\n      mload(0x40)\n      dup1\n      dup4\n      sub\n      dup2\n      dup7\n      dup1\n      extcodesize\n      iszero\n        /* \"--CODEGEN--\":8:17   */\n      dup1\n        /* \"--CODEGEN--\":5:7   */\n      iszero\n      tag_106\n      jumpi\n        /* \"--CODEGEN--\":30:31   */\n      0x00\n        /* \"--CODEGEN--\":27:28   */\n      dup1\n        /* \"--CODEGEN--\":20:32   */\n      revert\n        /* \"--CODEGEN--\":5:7   */\n    tag_106:\n        /* \"Users/yanickwilisky/Library/CloudStorage/GoogleDrive-yanickw@gmail.com/My Drive/09_Programming/FinTech_Workspace/sabot3/Contracts/MoneyToCurve.sol\":3613:3662  IERC20(curveFi_CRVToken).balanceOf(address(this)) */\n      pop\n      gas\n      staticcall\n      iszero\n        /* \"--CODEGEN--\":8:17   */\n      dup1\n        /* \"--CODEGEN--\":5:7   */\n      iszero\n      tag_107\n      jumpi\n        /* \"--CODEGEN--\":45:61   */\n      returndatasize\n        /* \"--CODEGEN--\":42:43   */\n      0x00\n        /* \"--CODEGEN--\":39:40   */\n      dup1\n        /* \"--CODEGEN--\":24:62   */\n      returndatacopy\n        /* \"--CODEGEN--\":77:93   */\n      returndatasize\n        /* \"--CODEGEN--\":74:75   */\n      0x00\n        /* \"--CODEGEN--\":67:94   */\n      revert\n        /* \"--CODEGEN--\":5:7   */\n    tag_107:\n        /* \"Users/yanickwilisky/Library/CloudStorage/GoogleDrive-yanickw@gmail.com/My Drive/09_Programming/FinTech_Workspace/sabot3/Contracts/MoneyToCurve.sol\":3613:3662  IERC20(curveFi_CRVToken).balanceOf(address(this)) */\n      pop\n      pop\n      pop\n      pop\n      mload(0x40)\n      returndatasize\n        /* \"--CODEGEN--\":13:15   */\n      0x20\n        /* \"--CODEGEN--\":8:11   */\n      dup2\n        /* \"--CODEGEN--\":5:16   */\n      lt\n        /* \"--CODEGEN--\":2:4   */\n      iszero\n      tag_108\n      jumpi\n        /* \"--CODEGEN--\":29:30   */\n      0x00\n        /* \"--CODEGEN--\":26:27   */\n      dup1\n        /* \"--CODEGEN--\":19:31   */\n      revert\n        /* \"--CODEGEN--\":2:4   */\n    tag_108:\n        /* \"Users/yanickwilisky/Library/CloudStorage/GoogleDrive-yanickw@gmail.com/My Drive/09_Programming/FinTech_Workspace/sabot3/Contracts/MoneyToCurve.sol\":3613:3662  IERC20(curveFi_CRVToken).balanceOf(address(this)) */\n      dup2\n      add\n      swap1\n      dup1\n      dup1\n      mload\n      swap1\n      0x20\n      add\n      swap1\n      swap3\n      swap2\n      swap1\n      pop\n      pop\n      pop\n        /* \"Users/yanickwilisky/Library/CloudStorage/GoogleDrive-yanickw@gmail.com/My Drive/09_Programming/FinTech_Workspace/sabot3/Contracts/MoneyToCurve.sol\":3593:3662  uint256 crvAmount = IERC20(curveFi_CRVToken).balanceOf(address(this)) */\n      swap1\n      pop\n        /* \"Users/yanickwilisky/Library/CloudStorage/GoogleDrive-yanickw@gmail.com/My Drive/09_Programming/FinTech_Workspace/sabot3/Contracts/MoneyToCurve.sol\":3672:3734  IERC20(curveFi_CRVToken).safeTransfer(_msgSender(), crvAmount) */\n      tag_109\n        /* \"Users/yanickwilisky/Library/CloudStorage/GoogleDrive-yanickw@gmail.com/My Drive/09_Programming/FinTech_Workspace/sabot3/Contracts/MoneyToCurve.sol\":3710:3722  _msgSender() */\n      tag_110\n        /* \"Users/yanickwilisky/Library/CloudStorage/GoogleDrive-yanickw@gmail.com/My Drive/09_Programming/FinTech_Workspace/sabot3/Contracts/MoneyToCurve.sol\":3710:3720  _msgSender */\n      tag_85\n        /* \"Users/yanickwilisky/Library/CloudStorage/GoogleDrive-yanickw@gmail.com/My Drive/09_Programming/FinTech_Workspace/sabot3/Contracts/MoneyToCurve.sol\":3710:3722  _msgSender() */\n      jump\t// in\n    tag_110:\n        /* \"Users/yanickwilisky/Library/CloudStorage/GoogleDrive-yanickw@gmail.com/My Drive/09_Programming/FinTech_Workspace/sabot3/Contracts/MoneyToCurve.sol\":3724:3733  crvAmount */\n      dup3\n        /* \"Users/yanickwilisky/Library/CloudStorage/GoogleDrive-yanickw@gmail.com/My Drive/09_Programming/FinTech_Workspace/sabot3/Contracts/MoneyToCurve.sol\":3679:3695  curveFi_CRVToken */\n      0x39\n      0x00\n      swap1\n      sload\n      swap1\n      0x0100\n      exp\n      swap1\n      div\n      0xffffffffffffffffffffffffffffffffffffffff\n      and\n        /* \"Users/yanickwilisky/Library/CloudStorage/GoogleDrive-yanickw@gmail.com/My Drive/09_Programming/FinTech_Workspace/sabot3/Contracts/MoneyToCurve.sol\":3672:3709  IERC20(curveFi_CRVToken).safeTransfer */\n      0xffffffffffffffffffffffffffffffffffffffff\n      and\n      tag_111\n      swap1\n        /* \"Users/yanickwilisky/Library/CloudStorage/GoogleDrive-yanickw@gmail.com/My Drive/09_Programming/FinTech_Workspace/sabot3/Contracts/MoneyToCurve.sol\":3672:3734  IERC20(curveFi_CRVToken).safeTransfer(_msgSender(), crvAmount) */\n      swap3\n      swap2\n      swap1\n      0xffffffff\n      and\n      jump\t// in\n    tag_109:\n        /* \"Users/yanickwilisky/Library/CloudStorage/GoogleDrive-yanickw@gmail.com/My Drive/09_Programming/FinTech_Workspace/sabot3/Contracts/MoneyToCurve.sol\":2612:3742  function multiStepDeposit(uint256[4] memory _amounts) public {... */\n      pop\n      pop\n      pop\n      pop\n      jump\t// out\n        /* \"Users/yanickwilisky/Library/CloudStorage/GoogleDrive-yanickw@gmail.com/My Drive/09_Programming/FinTech_Workspace/sabot3/Contracts/MoneyToCurve.sol\":1208:1235  address public curveFi_Swap */\n    tag_32:\n      0x35\n      0x00\n      swap1\n      sload\n      swap1\n      0x0100\n      exp\n      swap1\n      div\n      0xffffffffffffffffffffffffffffffffffffffff\n      and\n      dup2\n      jump\t// out\n        /* \"Users/yanickwilisky/Library/CloudStorage/GoogleDrive-yanickw@gmail.com/My Drive/09_Programming/FinTech_Workspace/sabot3/Contracts/MoneyToCurve.sol\":6874:7917  function balanceOfAll() public view returns(uint256[4] memory balances) {... */\n    tag_34:\n        /* \"Users/yanickwilisky/Library/CloudStorage/GoogleDrive-yanickw@gmail.com/My Drive/09_Programming/FinTech_Workspace/sabot3/Contracts/MoneyToCurve.sol\":6918:6944  uint256[4] memory balances */\n      tag_112\n      tag_113\n      jump\t// in\n    tag_112:\n        /* \"Users/yanickwilisky/Library/CloudStorage/GoogleDrive-yanickw@gmail.com/My Drive/09_Programming/FinTech_Workspace/sabot3/Contracts/MoneyToCurve.sol\":6956:6985  address[4] memory stablecoins */\n      tag_115\n      tag_76\n      jump\t// in\n    tag_115:\n        /* \"Users/yanickwilisky/Library/CloudStorage/GoogleDrive-yanickw@gmail.com/My Drive/09_Programming/FinTech_Workspace/sabot3/Contracts/MoneyToCurve.sol\":7006:7021  curveFi_Deposit */\n      0x34\n      0x00\n      swap1\n      sload\n      swap1\n      0x0100\n      exp\n      swap1\n      div\n      0xffffffffffffffffffffffffffffffffffffffff\n      and\n        /* \"Users/yanickwilisky/Library/CloudStorage/GoogleDrive-yanickw@gmail.com/My Drive/09_Programming/FinTech_Workspace/sabot3/Contracts/MoneyToCurve.sol\":6988:7039  ICurveFi_DepositY(curveFi_Deposit).underlying_coins */\n      0xffffffffffffffffffffffffffffffffffffffff\n      and\n      0xfb6d3a89\n        /* \"Users/yanickwilisky/Library/CloudStorage/GoogleDrive-yanickw@gmail.com/My Drive/09_Programming/FinTech_Workspace/sabot3/Contracts/MoneyToCurve.sol\":6988:7041  ICurveFi_DepositY(curveFi_Deposit).underlying_coins() */\n      mload(0x40)\n      dup2\n      0xffffffff\n      and\n      0xe0\n      shl\n      dup2\n      mstore\n      0x04\n      add\n      0x80\n      mload(0x40)\n      dup1\n      dup4\n      sub\n      dup2\n      dup7\n      dup1\n      extcodesize\n      iszero\n        /* \"--CODEGEN--\":8:17   */\n      dup1\n        /* \"--CODEGEN--\":5:7   */\n      iszero\n      tag_116\n      jumpi\n        /* \"--CODEGEN--\":30:31   */\n      0x00\n        /* \"--CODEGEN--\":27:28   */\n      dup1\n        /* \"--CODEGEN--\":20:32   */\n      revert\n        /* \"--CODEGEN--\":5:7   */\n    tag_116:\n        /* \"Users/yanickwilisky/Library/CloudStorage/GoogleDrive-yanickw@gmail.com/My Drive/09_Programming/FinTech_Workspace/sabot3/Contracts/MoneyToCurve.sol\":6988:7041  ICurveFi_DepositY(curveFi_Deposit).underlying_coins() */\n      pop\n      gas\n      staticcall\n      iszero\n        /* \"--CODEGEN--\":8:17   */\n      dup1\n        /* \"--CODEGEN--\":5:7   */\n      iszero\n      tag_117\n      jumpi\n        /* \"--CODEGEN--\":45:61   */\n      returndatasize\n        /* \"--CODEGEN--\":42:43   */\n      0x00\n        /* \"--CODEGEN--\":39:40   */\n      dup1\n        /* \"--CODEGEN--\":24:62   */\n      returndatacopy\n        /* \"--CODEGEN--\":77:93   */\n      returndatasize\n        /* \"--CODEGEN--\":74:75   */\n      0x00\n        /* \"--CODEGEN--\":67:94   */\n      revert\n        /* \"--CODEGEN--\":5:7   */\n    tag_117:\n        /* \"Users/yanickwilisky/Library/CloudStorage/GoogleDrive-yanickw@gmail.com/My Drive/09_Programming/FinTech_Workspace/sabot3/Contracts/MoneyToCurve.sol\":6988:7041  ICurveFi_DepositY(curveFi_Deposit).underlying_coins() */\n      pop\n      pop\n      pop\n      pop\n      mload(0x40)\n      returndatasize\n        /* \"--CODEGEN--\":101:105   */\n      0x1f\n        /* \"--CODEGEN--\":97:106   */\n      not\n        /* \"--CODEGEN--\":90:94   */\n      0x1f\n        /* \"--CODEGEN--\":84:88   */\n      dup3\n        /* \"--CODEGEN--\":80:95   */\n      add\n        /* \"--CODEGEN--\":76:107   */\n      and\n        /* \"--CODEGEN--\":69:74   */\n      dup3\n        /* \"--CODEGEN--\":65:108   */\n      add\n        /* \"--CODEGEN--\":126:132   */\n      dup1\n        /* \"--CODEGEN--\":120:124   */\n      0x40\n        /* \"--CODEGEN--\":113:133   */\n      mstore\n        /* \"--CODEGEN--\":0:138   */\n      pop\n        /* \"--CODEGEN--\":13:16   */\n      0x80\n        /* \"--CODEGEN--\":8:11   */\n      dup2\n        /* \"--CODEGEN--\":5:17   */\n      lt\n        /* \"--CODEGEN--\":2:4   */\n      iszero\n      tag_118\n      jumpi\n        /* \"--CODEGEN--\":30:31   */\n      0x00\n        /* \"--CODEGEN--\":27:28   */\n      dup1\n        /* \"--CODEGEN--\":20:32   */\n      revert\n        /* \"--CODEGEN--\":2:4   */\n    tag_118:\n        /* \"Users/yanickwilisky/Library/CloudStorage/GoogleDrive-yanickw@gmail.com/My Drive/09_Programming/FinTech_Workspace/sabot3/Contracts/MoneyToCurve.sol\":6988:7041  ICurveFi_DepositY(curveFi_Deposit).underlying_coins() */\n      dup2\n      add\n      swap1\n      dup1\n      swap2\n      swap1\n      pop\n      pop\n        /* \"Users/yanickwilisky/Library/CloudStorage/GoogleDrive-yanickw@gmail.com/My Drive/09_Programming/FinTech_Workspace/sabot3/Contracts/MoneyToCurve.sol\":6956:7041  address[4] memory stablecoins = ICurveFi_DepositY(curveFi_Deposit).underlying_coins() */\n      swap1\n      pop\n        /* \"Users/yanickwilisky/Library/CloudStorage/GoogleDrive-yanickw@gmail.com/My Drive/09_Programming/FinTech_Workspace/sabot3/Contracts/MoneyToCurve.sol\":7052:7074  uint256 curveLPBalance */\n      0x00\n        /* \"Users/yanickwilisky/Library/CloudStorage/GoogleDrive-yanickw@gmail.com/My Drive/09_Programming/FinTech_Workspace/sabot3/Contracts/MoneyToCurve.sol\":7077:7098  curveLPTokenBalance() */\n      tag_119\n        /* \"Users/yanickwilisky/Library/CloudStorage/GoogleDrive-yanickw@gmail.com/My Drive/09_Programming/FinTech_Workspace/sabot3/Contracts/MoneyToCurve.sol\":7077:7096  curveLPTokenBalance */\n      tag_59\n        /* \"Users/yanickwilisky/Library/CloudStorage/GoogleDrive-yanickw@gmail.com/My Drive/09_Programming/FinTech_Workspace/sabot3/Contracts/MoneyToCurve.sol\":7077:7098  curveLPTokenBalance() */\n      jump\t// in\n    tag_119:\n        /* \"Users/yanickwilisky/Library/CloudStorage/GoogleDrive-yanickw@gmail.com/My Drive/09_Programming/FinTech_Workspace/sabot3/Contracts/MoneyToCurve.sol\":7052:7098  uint256 curveLPBalance = curveLPTokenBalance() */\n      swap1\n      pop\n        /* \"Users/yanickwilisky/Library/CloudStorage/GoogleDrive-yanickw@gmail.com/My Drive/09_Programming/FinTech_Workspace/sabot3/Contracts/MoneyToCurve.sol\":7108:7134  uint256 curveLPTokenSupply */\n      0x00\n        /* \"Users/yanickwilisky/Library/CloudStorage/GoogleDrive-yanickw@gmail.com/My Drive/09_Programming/FinTech_Workspace/sabot3/Contracts/MoneyToCurve.sol\":7144:7159  curveFi_LPToken */\n      0x36\n      0x00\n      swap1\n      sload\n      swap1\n      0x0100\n      exp\n      swap1\n      div\n      0xffffffffffffffffffffffffffffffffffffffff\n      and\n        /* \"Users/yanickwilisky/Library/CloudStorage/GoogleDrive-yanickw@gmail.com/My Drive/09_Programming/FinTech_Workspace/sabot3/Contracts/MoneyToCurve.sol\":7137:7172  IERC20(curveFi_LPToken).totalSupply */\n      0xffffffffffffffffffffffffffffffffffffffff\n      and\n      0x18160ddd\n        /* \"Users/yanickwilisky/Library/CloudStorage/GoogleDrive-yanickw@gmail.com/My Drive/09_Programming/FinTech_Workspace/sabot3/Contracts/MoneyToCurve.sol\":7137:7174  IERC20(curveFi_LPToken).totalSupply() */\n      mload(0x40)\n      dup2\n      0xffffffff\n      and\n      0xe0\n      shl\n      dup2\n      mstore\n      0x04\n      add\n      0x20\n      mload(0x40)\n      dup1\n      dup4\n      sub\n      dup2\n      dup7\n      dup1\n      extcodesize\n      iszero\n        /* \"--CODEGEN--\":8:17   */\n      dup1\n        /* \"--CODEGEN--\":5:7   */\n      iszero\n      tag_120\n      jumpi\n        /* \"--CODEGEN--\":30:31   */\n      0x00\n        /* \"--CODEGEN--\":27:28   */\n      dup1\n        /* \"--CODEGEN--\":20:32   */\n      revert\n        /* \"--CODEGEN--\":5:7   */\n    tag_120:\n        /* \"Users/yanickwilisky/Library/CloudStorage/GoogleDrive-yanickw@gmail.com/My Drive/09_Programming/FinTech_Workspace/sabot3/Contracts/MoneyToCurve.sol\":7137:7174  IERC20(curveFi_LPToken).totalSupply() */\n      pop\n      gas\n      staticcall\n      iszero\n        /* \"--CODEGEN--\":8:17   */\n      dup1\n        /* \"--CODEGEN--\":5:7   */\n      iszero\n      tag_121\n      jumpi\n        /* \"--CODEGEN--\":45:61   */\n      returndatasize\n        /* \"--CODEGEN--\":42:43   */\n      0x00\n        /* \"--CODEGEN--\":39:40   */\n      dup1\n        /* \"--CODEGEN--\":24:62   */\n      returndatacopy\n        /* \"--CODEGEN--\":77:93   */\n      returndatasize\n        /* \"--CODEGEN--\":74:75   */\n      0x00\n        /* \"--CODEGEN--\":67:94   */\n      revert\n        /* \"--CODEGEN--\":5:7   */\n    tag_121:\n        /* \"Users/yanickwilisky/Library/CloudStorage/GoogleDrive-yanickw@gmail.com/My Drive/09_Programming/FinTech_Workspace/sabot3/Contracts/MoneyToCurve.sol\":7137:7174  IERC20(curveFi_LPToken).totalSupply() */\n      pop\n      pop\n      pop\n      pop\n      mload(0x40)\n      returndatasize\n        /* \"--CODEGEN--\":13:15   */\n      0x20\n        /* \"--CODEGEN--\":8:11   */\n      dup2\n        /* \"--CODEGEN--\":5:16   */\n      lt\n        /* \"--CODEGEN--\":2:4   */\n      iszero\n      tag_122\n      jumpi\n        /* \"--CODEGEN--\":29:30   */\n      0x00\n        /* \"--CODEGEN--\":26:27   */\n      dup1\n        /* \"--CODEGEN--\":19:31   */\n      revert\n        /* \"--CODEGEN--\":2:4   */\n    tag_122:\n        /* \"Users/yanickwilisky/Library/CloudStorage/GoogleDrive-yanickw@gmail.com/My Drive/09_Programming/FinTech_Workspace/sabot3/Contracts/MoneyToCurve.sol\":7137:7174  IERC20(curveFi_LPToken).totalSupply() */\n      dup2\n      add\n      swap1\n      dup1\n      dup1\n      mload\n      swap1\n      0x20\n      add\n      swap1\n      swap3\n      swap2\n      swap1\n      pop\n      pop\n      pop\n        /* \"Users/yanickwilisky/Library/CloudStorage/GoogleDrive-yanickw@gmail.com/My Drive/09_Programming/FinTech_Workspace/sabot3/Contracts/MoneyToCurve.sol\":7108:7174  uint256 curveLPTokenSupply = IERC20(curveFi_LPToken).totalSupply() */\n      swap1\n      pop\n        /* \"Users/yanickwilisky/Library/CloudStorage/GoogleDrive-yanickw@gmail.com/My Drive/09_Programming/FinTech_Workspace/sabot3/Contracts/MoneyToCurve.sol\":7214:7215  0 */\n      0x00\n        /* \"Users/yanickwilisky/Library/CloudStorage/GoogleDrive-yanickw@gmail.com/My Drive/09_Programming/FinTech_Workspace/sabot3/Contracts/MoneyToCurve.sol\":7193:7211  curveLPTokenSupply */\n      dup2\n        /* \"Users/yanickwilisky/Library/CloudStorage/GoogleDrive-yanickw@gmail.com/My Drive/09_Programming/FinTech_Workspace/sabot3/Contracts/MoneyToCurve.sol\":7193:7215  curveLPTokenSupply > 0 */\n      gt\n        /* \"Users/yanickwilisky/Library/CloudStorage/GoogleDrive-yanickw@gmail.com/My Drive/09_Programming/FinTech_Workspace/sabot3/Contracts/MoneyToCurve.sol\":7185:7245  require(curveLPTokenSupply > 0, \"No Curve LP tokens minted\") */\n      tag_123\n      jumpi\n      mload(0x40)\n      0x08c379a000000000000000000000000000000000000000000000000000000000\n      dup2\n      mstore\n      0x04\n      add\n      dup1\n      dup1\n      0x20\n      add\n      dup3\n      dup2\n      sub\n      dup3\n      mstore\n      0x19\n      dup2\n      mstore\n      0x20\n      add\n      dup1\n      0x4e6f204375727665204c5020746f6b656e73206d696e74656400000000000000\n      dup2\n      mstore\n      pop\n      0x20\n      add\n      swap2\n      pop\n      pop\n      mload(0x40)\n      dup1\n      swap2\n      sub\n      swap1\n      revert\n    tag_123:\n        /* \"Users/yanickwilisky/Library/CloudStorage/GoogleDrive-yanickw@gmail.com/My Drive/09_Programming/FinTech_Workspace/sabot3/Contracts/MoneyToCurve.sol\":7261:7270  uint256 i */\n      0x00\n        /* \"Users/yanickwilisky/Library/CloudStorage/GoogleDrive-yanickw@gmail.com/My Drive/09_Programming/FinTech_Workspace/sabot3/Contracts/MoneyToCurve.sol\":7273:7274  0 */\n      dup1\n        /* \"Users/yanickwilisky/Library/CloudStorage/GoogleDrive-yanickw@gmail.com/My Drive/09_Programming/FinTech_Workspace/sabot3/Contracts/MoneyToCurve.sol\":7261:7274  uint256 i = 0 */\n      swap1\n      pop\n        /* \"Users/yanickwilisky/Library/CloudStorage/GoogleDrive-yanickw@gmail.com/My Drive/09_Programming/FinTech_Workspace/sabot3/Contracts/MoneyToCurve.sol\":7256:7911  for (uint256 i = 0; i < stablecoins.length; i++) {... */\n    tag_124:\n        /* \"Users/yanickwilisky/Library/CloudStorage/GoogleDrive-yanickw@gmail.com/My Drive/09_Programming/FinTech_Workspace/sabot3/Contracts/MoneyToCurve.sol\":7280:7298  stablecoins.length */\n      0x04\n        /* \"Users/yanickwilisky/Library/CloudStorage/GoogleDrive-yanickw@gmail.com/My Drive/09_Programming/FinTech_Workspace/sabot3/Contracts/MoneyToCurve.sol\":7276:7277  i */\n      dup2\n        /* \"Users/yanickwilisky/Library/CloudStorage/GoogleDrive-yanickw@gmail.com/My Drive/09_Programming/FinTech_Workspace/sabot3/Contracts/MoneyToCurve.sol\":7276:7298  i < stablecoins.length */\n      lt\n        /* \"Users/yanickwilisky/Library/CloudStorage/GoogleDrive-yanickw@gmail.com/My Drive/09_Programming/FinTech_Workspace/sabot3/Contracts/MoneyToCurve.sol\":7256:7911  for (uint256 i = 0; i < stablecoins.length; i++) {... */\n      iszero\n      tag_125\n      jumpi\n        /* \"Users/yanickwilisky/Library/CloudStorage/GoogleDrive-yanickw@gmail.com/My Drive/09_Programming/FinTech_Workspace/sabot3/Contracts/MoneyToCurve.sol\":7354:7377  uint256 yLPTokenBalance */\n      0x00\n        /* \"Users/yanickwilisky/Library/CloudStorage/GoogleDrive-yanickw@gmail.com/My Drive/09_Programming/FinTech_Workspace/sabot3/Contracts/MoneyToCurve.sol\":7395:7407  curveFi_Swap */\n      0x35\n      0x00\n      swap1\n      sload\n      swap1\n      0x0100\n      exp\n      swap1\n      div\n      0xffffffffffffffffffffffffffffffffffffffff\n      and\n        /* \"Users/yanickwilisky/Library/CloudStorage/GoogleDrive-yanickw@gmail.com/My Drive/09_Programming/FinTech_Workspace/sabot3/Contracts/MoneyToCurve.sol\":7380:7417  ICurveFi_SwapY(curveFi_Swap).balances */\n      0xffffffffffffffffffffffffffffffffffffffff\n      and\n      0x065a80d8\n        /* \"Users/yanickwilisky/Library/CloudStorage/GoogleDrive-yanickw@gmail.com/My Drive/09_Programming/FinTech_Workspace/sabot3/Contracts/MoneyToCurve.sol\":7425:7426  i */\n      dup4\n        /* \"Users/yanickwilisky/Library/CloudStorage/GoogleDrive-yanickw@gmail.com/My Drive/09_Programming/FinTech_Workspace/sabot3/Contracts/MoneyToCurve.sol\":7380:7428  ICurveFi_SwapY(curveFi_Swap).balances(int128(i)) */\n      mload(0x40)\n      dup3\n      0xffffffff\n      and\n      0xe0\n      shl\n      dup2\n      mstore\n      0x04\n      add\n      dup1\n      dup3\n      0x0f\n      signextend\n      0x0f\n      signextend\n      dup2\n      mstore\n      0x20\n      add\n      swap2\n      pop\n      pop\n      0x20\n      mload(0x40)\n      dup1\n      dup4\n      sub\n      dup2\n      dup7\n      dup1\n      extcodesize\n      iszero\n        /* \"--CODEGEN--\":8:17   */\n      dup1\n        /* \"--CODEGEN--\":5:7   */\n      iszero\n      tag_127\n      jumpi\n        /* \"--CODEGEN--\":30:31   */\n      0x00\n        /* \"--CODEGEN--\":27:28   */\n      dup1\n        /* \"--CODEGEN--\":20:32   */\n      revert\n        /* \"--CODEGEN--\":5:7   */\n    tag_127:\n        /* \"Users/yanickwilisky/Library/CloudStorage/GoogleDrive-yanickw@gmail.com/My Drive/09_Programming/FinTech_Workspace/sabot3/Contracts/MoneyToCurve.sol\":7380:7428  ICurveFi_SwapY(curveFi_Swap).balances(int128(i)) */\n      pop\n      gas\n      staticcall\n      iszero\n        /* \"--CODEGEN--\":8:17   */\n      dup1\n        /* \"--CODEGEN--\":5:7   */\n      iszero\n      tag_128\n      jumpi\n        /* \"--CODEGEN--\":45:61   */\n      returndatasize\n        /* \"--CODEGEN--\":42:43   */\n      0x00\n        /* \"--CODEGEN--\":39:40   */\n      dup1\n        /* \"--CODEGEN--\":24:62   */\n      returndatacopy\n        /* \"--CODEGEN--\":77:93   */\n      returndatasize\n        /* \"--CODEGEN--\":74:75   */\n      0x00\n        /* \"--CODEGEN--\":67:94   */\n      revert\n        /* \"--CODEGEN--\":5:7   */\n    tag_128:\n        /* \"Users/yanickwilisky/Library/CloudStorage/GoogleDrive-yanickw@gmail.com/My Drive/09_Programming/FinTech_Workspace/sabot3/Contracts/MoneyToCurve.sol\":7380:7428  ICurveFi_SwapY(curveFi_Swap).balances(int128(i)) */\n      pop\n      pop\n      pop\n      pop\n      mload(0x40)\n      returndatasize\n        /* \"--CODEGEN--\":13:15   */\n      0x20\n        /* \"--CODEGEN--\":8:11   */\n      dup2\n        /* \"--CODEGEN--\":5:16   */\n      lt\n        /* \"--CODEGEN--\":2:4   */\n      iszero\n      tag_129\n      jumpi\n        /* \"--CODEGEN--\":29:30   */\n      0x00\n        /* \"--CODEGEN--\":26:27   */\n      dup1\n        /* \"--CODEGEN--\":19:31   */\n      revert\n        /* \"--CODEGEN--\":2:4   */\n    tag_129:\n        /* \"Users/yanickwilisky/Library/CloudStorage/GoogleDrive-yanickw@gmail.com/My Drive/09_Programming/FinTech_Workspace/sabot3/Contracts/MoneyToCurve.sol\":7380:7428  ICurveFi_SwapY(curveFi_Swap).balances(int128(i)) */\n      dup2\n      add\n      swap1\n      dup1\n      dup1\n      mload\n      swap1\n      0x20\n      add\n      swap1\n      swap3\n      swap2\n      swap1\n      pop\n      pop\n      pop\n        /* \"Users/yanickwilisky/Library/CloudStorage/GoogleDrive-yanickw@gmail.com/My Drive/09_Programming/FinTech_Workspace/sabot3/Contracts/MoneyToCurve.sol\":7354:7428  uint256 yLPTokenBalance = ICurveFi_SwapY(curveFi_Swap).balances(int128(i)) */\n      swap1\n      pop\n        /* \"Users/yanickwilisky/Library/CloudStorage/GoogleDrive-yanickw@gmail.com/My Drive/09_Programming/FinTech_Workspace/sabot3/Contracts/MoneyToCurve.sol\":7442:7455  address yCoin */\n      0x00\n        /* \"Users/yanickwilisky/Library/CloudStorage/GoogleDrive-yanickw@gmail.com/My Drive/09_Programming/FinTech_Workspace/sabot3/Contracts/MoneyToCurve.sol\":7473:7485  curveFi_Swap */\n      0x35\n      0x00\n      swap1\n      sload\n      swap1\n      0x0100\n      exp\n      swap1\n      div\n      0xffffffffffffffffffffffffffffffffffffffff\n      and\n        /* \"Users/yanickwilisky/Library/CloudStorage/GoogleDrive-yanickw@gmail.com/My Drive/09_Programming/FinTech_Workspace/sabot3/Contracts/MoneyToCurve.sol\":7458:7492  ICurveFi_SwapY(curveFi_Swap).coins */\n      0xffffffffffffffffffffffffffffffffffffffff\n      and\n      0x23746eb8\n        /* \"Users/yanickwilisky/Library/CloudStorage/GoogleDrive-yanickw@gmail.com/My Drive/09_Programming/FinTech_Workspace/sabot3/Contracts/MoneyToCurve.sol\":7500:7501  i */\n      dup5\n        /* \"Users/yanickwilisky/Library/CloudStorage/GoogleDrive-yanickw@gmail.com/My Drive/09_Programming/FinTech_Workspace/sabot3/Contracts/MoneyToCurve.sol\":7458:7503  ICurveFi_SwapY(curveFi_Swap).coins(int128(i)) */\n      mload(0x40)\n      dup3\n      0xffffffff\n      and\n      0xe0\n      shl\n      dup2\n      mstore\n      0x04\n      add\n      dup1\n      dup3\n      0x0f\n      signextend\n      0x0f\n      signextend\n      dup2\n      mstore\n      0x20\n      add\n      swap2\n      pop\n      pop\n      0x20\n      mload(0x40)\n      dup1\n      dup4\n      sub\n      dup2\n      dup7\n      dup1\n      extcodesize\n      iszero\n        /* \"--CODEGEN--\":8:17   */\n      dup1\n        /* \"--CODEGEN--\":5:7   */\n      iszero\n      tag_130\n      jumpi\n        /* \"--CODEGEN--\":30:31   */\n      0x00\n        /* \"--CODEGEN--\":27:28   */\n      dup1\n        /* \"--CODEGEN--\":20:32   */\n      revert\n        /* \"--CODEGEN--\":5:7   */\n    tag_130:\n        /* \"Users/yanickwilisky/Library/CloudStorage/GoogleDrive-yanickw@gmail.com/My Drive/09_Programming/FinTech_Workspace/sabot3/Contracts/MoneyToCurve.sol\":7458:7503  ICurveFi_SwapY(curveFi_Swap).coins(int128(i)) */\n      pop\n      gas\n      staticcall\n      iszero\n        /* \"--CODEGEN--\":8:17   */\n      dup1\n        /* \"--CODEGEN--\":5:7   */\n      iszero\n      tag_131\n      jumpi\n        /* \"--CODEGEN--\":45:61   */\n      returndatasize\n        /* \"--CODEGEN--\":42:43   */\n      0x00\n        /* \"--CODEGEN--\":39:40   */\n      dup1\n        /* \"--CODEGEN--\":24:62   */\n      returndatacopy\n        /* \"--CODEGEN--\":77:93   */\n      returndatasize\n        /* \"--CODEGEN--\":74:75   */\n      0x00\n        /* \"--CODEGEN--\":67:94   */\n      revert\n        /* \"--CODEGEN--\":5:7   */\n    tag_131:\n        /* \"Users/yanickwilisky/Library/CloudStorage/GoogleDrive-yanickw@gmail.com/My Drive/09_Programming/FinTech_Workspace/sabot3/Contracts/MoneyToCurve.sol\":7458:7503  ICurveFi_SwapY(curveFi_Swap).coins(int128(i)) */\n      pop\n      pop\n      pop\n      pop\n      mload(0x40)\n      returndatasize\n        /* \"--CODEGEN--\":13:15   */\n      0x20\n        /* \"--CODEGEN--\":8:11   */\n      dup2\n        /* \"--CODEGEN--\":5:16   */\n      lt\n        /* \"--CODEGEN--\":2:4   */\n      iszero\n      tag_132\n      jumpi\n        /* \"--CODEGEN--\":29:30   */\n      0x00\n        /* \"--CODEGEN--\":26:27   */\n      dup1\n        /* \"--CODEGEN--\":19:31   */\n      revert\n        /* \"--CODEGEN--\":2:4   */\n    tag_132:\n        /* \"Users/yanickwilisky/Library/CloudStorage/GoogleDrive-yanickw@gmail.com/My Drive/09_Programming/FinTech_Workspace/sabot3/Contracts/MoneyToCurve.sol\":7458:7503  ICurveFi_SwapY(curveFi_Swap).coins(int128(i)) */\n      dup2\n      add\n      swap1\n      dup1\n      dup1\n      mload\n      swap1\n      0x20\n      add\n      swap1\n      swap3\n      swap2\n      swap1\n      pop\n      pop\n      pop\n        /* \"Users/yanickwilisky/Library/CloudStorage/GoogleDrive-yanickw@gmail.com/My Drive/09_Programming/FinTech_Workspace/sabot3/Contracts/MoneyToCurve.sol\":7442:7503  address yCoin = ICurveFi_SwapY(curveFi_Swap).coins(int128(i)) */\n      swap1\n      pop\n        /* \"Users/yanickwilisky/Library/CloudStorage/GoogleDrive-yanickw@gmail.com/My Drive/09_Programming/FinTech_Workspace/sabot3/Contracts/MoneyToCurve.sol\":7568:7583  uint256 yShares */\n      0x00\n        /* \"Users/yanickwilisky/Library/CloudStorage/GoogleDrive-yanickw@gmail.com/My Drive/09_Programming/FinTech_Workspace/sabot3/Contracts/MoneyToCurve.sol\":7586:7645  yLPTokenBalance.mul(curveLPBalance).div(curveLPTokenSupply) */\n      tag_133\n        /* \"Users/yanickwilisky/Library/CloudStorage/GoogleDrive-yanickw@gmail.com/My Drive/09_Programming/FinTech_Workspace/sabot3/Contracts/MoneyToCurve.sol\":7626:7644  curveLPTokenSupply */\n      dup6\n        /* \"Users/yanickwilisky/Library/CloudStorage/GoogleDrive-yanickw@gmail.com/My Drive/09_Programming/FinTech_Workspace/sabot3/Contracts/MoneyToCurve.sol\":7586:7621  yLPTokenBalance.mul(curveLPBalance) */\n      tag_134\n        /* \"Users/yanickwilisky/Library/CloudStorage/GoogleDrive-yanickw@gmail.com/My Drive/09_Programming/FinTech_Workspace/sabot3/Contracts/MoneyToCurve.sol\":7606:7620  curveLPBalance */\n      dup9\n        /* \"Users/yanickwilisky/Library/CloudStorage/GoogleDrive-yanickw@gmail.com/My Drive/09_Programming/FinTech_Workspace/sabot3/Contracts/MoneyToCurve.sol\":7586:7601  yLPTokenBalance */\n      dup7\n        /* \"Users/yanickwilisky/Library/CloudStorage/GoogleDrive-yanickw@gmail.com/My Drive/09_Programming/FinTech_Workspace/sabot3/Contracts/MoneyToCurve.sol\":7586:7605  yLPTokenBalance.mul */\n      tag_135\n      swap1\n        /* \"Users/yanickwilisky/Library/CloudStorage/GoogleDrive-yanickw@gmail.com/My Drive/09_Programming/FinTech_Workspace/sabot3/Contracts/MoneyToCurve.sol\":7586:7621  yLPTokenBalance.mul(curveLPBalance) */\n      swap2\n      swap1\n      0xffffffff\n      and\n      jump\t// in\n    tag_134:\n        /* \"Users/yanickwilisky/Library/CloudStorage/GoogleDrive-yanickw@gmail.com/My Drive/09_Programming/FinTech_Workspace/sabot3/Contracts/MoneyToCurve.sol\":7586:7625  yLPTokenBalance.mul(curveLPBalance).div */\n      tag_136\n      swap1\n        /* \"Users/yanickwilisky/Library/CloudStorage/GoogleDrive-yanickw@gmail.com/My Drive/09_Programming/FinTech_Workspace/sabot3/Contracts/MoneyToCurve.sol\":7586:7645  yLPTokenBalance.mul(curveLPBalance).div(curveLPTokenSupply) */\n      swap2\n      swap1\n      0xffffffff\n      and\n      jump\t// in\n    tag_133:\n        /* \"Users/yanickwilisky/Library/CloudStorage/GoogleDrive-yanickw@gmail.com/My Drive/09_Programming/FinTech_Workspace/sabot3/Contracts/MoneyToCurve.sol\":7568:7645  uint256 yShares = yLPTokenBalance.mul(curveLPBalance).div(curveLPTokenSupply) */\n      swap1\n      pop\n        /* \"Users/yanickwilisky/Library/CloudStorage/GoogleDrive-yanickw@gmail.com/My Drive/09_Programming/FinTech_Workspace/sabot3/Contracts/MoneyToCurve.sol\":7712:7726  uint256 yPrice */\n      0x00\n        /* \"Users/yanickwilisky/Library/CloudStorage/GoogleDrive-yanickw@gmail.com/My Drive/09_Programming/FinTech_Workspace/sabot3/Contracts/MoneyToCurve.sol\":7737:7742  yCoin */\n      dup3\n        /* \"Users/yanickwilisky/Library/CloudStorage/GoogleDrive-yanickw@gmail.com/My Drive/09_Programming/FinTech_Workspace/sabot3/Contracts/MoneyToCurve.sol\":7729:7764  IYERC20(yCoin).getPricePerFullShare */\n      0xffffffffffffffffffffffffffffffffffffffff\n      and\n      0x77c7b8fc\n        /* \"Users/yanickwilisky/Library/CloudStorage/GoogleDrive-yanickw@gmail.com/My Drive/09_Programming/FinTech_Workspace/sabot3/Contracts/MoneyToCurve.sol\":7729:7766  IYERC20(yCoin).getPricePerFullShare() */\n      mload(0x40)\n      dup2\n      0xffffffff\n      and\n      0xe0\n      shl\n      dup2\n      mstore\n      0x04\n      add\n      0x20\n      mload(0x40)\n      dup1\n      dup4\n      sub\n      dup2\n      dup7\n      dup1\n      extcodesize\n      iszero\n        /* \"--CODEGEN--\":8:17   */\n      dup1\n        /* \"--CODEGEN--\":5:7   */\n      iszero\n      tag_137\n      jumpi\n        /* \"--CODEGEN--\":30:31   */\n      0x00\n        /* \"--CODEGEN--\":27:28   */\n      dup1\n        /* \"--CODEGEN--\":20:32   */\n      revert\n        /* \"--CODEGEN--\":5:7   */\n    tag_137:\n        /* \"Users/yanickwilisky/Library/CloudStorage/GoogleDrive-yanickw@gmail.com/My Drive/09_Programming/FinTech_Workspace/sabot3/Contracts/MoneyToCurve.sol\":7729:7766  IYERC20(yCoin).getPricePerFullShare() */\n      pop\n      gas\n      staticcall\n      iszero\n        /* \"--CODEGEN--\":8:17   */\n      dup1\n        /* \"--CODEGEN--\":5:7   */\n      iszero\n      tag_138\n      jumpi\n        /* \"--CODEGEN--\":45:61   */\n      returndatasize\n        /* \"--CODEGEN--\":42:43   */\n      0x00\n        /* \"--CODEGEN--\":39:40   */\n      dup1\n        /* \"--CODEGEN--\":24:62   */\n      returndatacopy\n        /* \"--CODEGEN--\":77:93   */\n      returndatasize\n        /* \"--CODEGEN--\":74:75   */\n      0x00\n        /* \"--CODEGEN--\":67:94   */\n      revert\n        /* \"--CODEGEN--\":5:7   */\n    tag_138:\n        /* \"Users/yanickwilisky/Library/CloudStorage/GoogleDrive-yanickw@gmail.com/My Drive/09_Programming/FinTech_Workspace/sabot3/Contracts/MoneyToCurve.sol\":7729:7766  IYERC20(yCoin).getPricePerFullShare() */\n      pop\n      pop\n      pop\n      pop\n      mload(0x40)\n      returndatasize\n        /* \"--CODEGEN--\":13:15   */\n      0x20\n        /* \"--CODEGEN--\":8:11   */\n      dup2\n        /* \"--CODEGEN--\":5:16   */\n      lt\n        /* \"--CODEGEN--\":2:4   */\n      iszero\n      tag_139\n      jumpi\n        /* \"--CODEGEN--\":29:30   */\n      0x00\n        /* \"--CODEGEN--\":26:27   */\n      dup1\n        /* \"--CODEGEN--\":19:31   */\n      revert\n        /* \"--CODEGEN--\":2:4   */\n    tag_139:\n        /* \"Users/yanickwilisky/Library/CloudStorage/GoogleDrive-yanickw@gmail.com/My Drive/09_Programming/FinTech_Workspace/sabot3/Contracts/MoneyToCurve.sol\":7729:7766  IYERC20(yCoin).getPricePerFullShare() */\n      dup2\n      add\n      swap1\n      dup1\n      dup1\n      mload\n      swap1\n      0x20\n      add\n      swap1\n      swap3\n      swap2\n      swap1\n      pop\n      pop\n      pop\n        /* \"Users/yanickwilisky/Library/CloudStorage/GoogleDrive-yanickw@gmail.com/My Drive/09_Programming/FinTech_Workspace/sabot3/Contracts/MoneyToCurve.sol\":7712:7766  uint256 yPrice = IYERC20(yCoin).getPricePerFullShare() */\n      swap1\n      pop\n        /* \"Users/yanickwilisky/Library/CloudStorage/GoogleDrive-yanickw@gmail.com/My Drive/09_Programming/FinTech_Workspace/sabot3/Contracts/MoneyToCurve.sol\":7871:7900  yPrice.mul(yShares).div(1e18) */\n      tag_140\n        /* \"Users/yanickwilisky/Library/CloudStorage/GoogleDrive-yanickw@gmail.com/My Drive/09_Programming/FinTech_Workspace/sabot3/Contracts/MoneyToCurve.sol\":7895:7899  1e18 */\n      0x0de0b6b3a7640000\n        /* \"Users/yanickwilisky/Library/CloudStorage/GoogleDrive-yanickw@gmail.com/My Drive/09_Programming/FinTech_Workspace/sabot3/Contracts/MoneyToCurve.sol\":7871:7890  yPrice.mul(yShares) */\n      tag_141\n        /* \"Users/yanickwilisky/Library/CloudStorage/GoogleDrive-yanickw@gmail.com/My Drive/09_Programming/FinTech_Workspace/sabot3/Contracts/MoneyToCurve.sol\":7882:7889  yShares */\n      dup5\n        /* \"Users/yanickwilisky/Library/CloudStorage/GoogleDrive-yanickw@gmail.com/My Drive/09_Programming/FinTech_Workspace/sabot3/Contracts/MoneyToCurve.sol\":7871:7877  yPrice */\n      dup5\n        /* \"Users/yanickwilisky/Library/CloudStorage/GoogleDrive-yanickw@gmail.com/My Drive/09_Programming/FinTech_Workspace/sabot3/Contracts/MoneyToCurve.sol\":7871:7881  yPrice.mul */\n      tag_135\n      swap1\n        /* \"Users/yanickwilisky/Library/CloudStorage/GoogleDrive-yanickw@gmail.com/My Drive/09_Programming/FinTech_Workspace/sabot3/Contracts/MoneyToCurve.sol\":7871:7890  yPrice.mul(yShares) */\n      swap2\n      swap1\n      0xffffffff\n      and\n      jump\t// in\n    tag_141:\n        /* \"Users/yanickwilisky/Library/CloudStorage/GoogleDrive-yanickw@gmail.com/My Drive/09_Programming/FinTech_Workspace/sabot3/Contracts/MoneyToCurve.sol\":7871:7894  yPrice.mul(yShares).div */\n      tag_136\n      swap1\n        /* \"Users/yanickwilisky/Library/CloudStorage/GoogleDrive-yanickw@gmail.com/My Drive/09_Programming/FinTech_Workspace/sabot3/Contracts/MoneyToCurve.sol\":7871:7900  yPrice.mul(yShares).div(1e18) */\n      swap2\n      swap1\n      0xffffffff\n      and\n      jump\t// in\n    tag_140:\n        /* \"Users/yanickwilisky/Library/CloudStorage/GoogleDrive-yanickw@gmail.com/My Drive/09_Programming/FinTech_Workspace/sabot3/Contracts/MoneyToCurve.sol\":7857:7865  balances */\n      dup10\n        /* \"Users/yanickwilisky/Library/CloudStorage/GoogleDrive-yanickw@gmail.com/My Drive/09_Programming/FinTech_Workspace/sabot3/Contracts/MoneyToCurve.sol\":7866:7867  i */\n      dup7\n        /* \"Users/yanickwilisky/Library/CloudStorage/GoogleDrive-yanickw@gmail.com/My Drive/09_Programming/FinTech_Workspace/sabot3/Contracts/MoneyToCurve.sol\":7857:7868  balances[i] */\n      0x04\n      dup2\n      lt\n      tag_142\n      jumpi\n      invalid\n    tag_142:\n      0x20\n      mul\n      add\n        /* \"Users/yanickwilisky/Library/CloudStorage/GoogleDrive-yanickw@gmail.com/My Drive/09_Programming/FinTech_Workspace/sabot3/Contracts/MoneyToCurve.sol\":7857:7900  balances[i] = yPrice.mul(yShares).div(1e18) */\n      dup2\n      dup2\n      mstore\n      pop\n      pop\n        /* \"Users/yanickwilisky/Library/CloudStorage/GoogleDrive-yanickw@gmail.com/My Drive/09_Programming/FinTech_Workspace/sabot3/Contracts/MoneyToCurve.sol\":7256:7911  for (uint256 i = 0; i < stablecoins.length; i++) {... */\n      pop\n      pop\n      pop\n      pop\n        /* \"Users/yanickwilisky/Library/CloudStorage/GoogleDrive-yanickw@gmail.com/My Drive/09_Programming/FinTech_Workspace/sabot3/Contracts/MoneyToCurve.sol\":7300:7303  i++ */\n      dup1\n      dup1\n      0x01\n      add\n      swap2\n      pop\n      pop\n        /* \"Users/yanickwilisky/Library/CloudStorage/GoogleDrive-yanickw@gmail.com/My Drive/09_Programming/FinTech_Workspace/sabot3/Contracts/MoneyToCurve.sol\":7256:7911  for (uint256 i = 0; i < stablecoins.length; i++) {... */\n      jump(tag_124)\n    tag_125:\n      pop\n        /* \"Users/yanickwilisky/Library/CloudStorage/GoogleDrive-yanickw@gmail.com/My Drive/09_Programming/FinTech_Workspace/sabot3/Contracts/MoneyToCurve.sol\":6874:7917  function balanceOfAll() public view returns(uint256[4] memory balances) {... */\n      pop\n      pop\n      pop\n      swap1\n      jump\t// out\n        /* \"Users/yanickwilisky/Library/CloudStorage/GoogleDrive-yanickw@gmail.com/My Drive/09_Programming/FinTech_Workspace/sabot3/Contracts/MoneyToCurve.sol\":3941:5393  function multiStepWithdraw(uint256[4] memory _amounts) public {... */\n    tag_40:\n        /* \"Users/yanickwilisky/Library/CloudStorage/GoogleDrive-yanickw@gmail.com/My Drive/09_Programming/FinTech_Workspace/sabot3/Contracts/MoneyToCurve.sol\":4013:4042  address[4] memory stablecoins */\n      tag_144\n      tag_76\n      jump\t// in\n    tag_144:\n        /* \"Users/yanickwilisky/Library/CloudStorage/GoogleDrive-yanickw@gmail.com/My Drive/09_Programming/FinTech_Workspace/sabot3/Contracts/MoneyToCurve.sol\":4063:4078  curveFi_Deposit */\n      0x34\n      0x00\n      swap1\n      sload\n      swap1\n      0x0100\n      exp\n      swap1\n      div\n      0xffffffffffffffffffffffffffffffffffffffff\n      and\n        /* \"Users/yanickwilisky/Library/CloudStorage/GoogleDrive-yanickw@gmail.com/My Drive/09_Programming/FinTech_Workspace/sabot3/Contracts/MoneyToCurve.sol\":4045:4096  ICurveFi_DepositY(curveFi_Deposit).underlying_coins */\n      0xffffffffffffffffffffffffffffffffffffffff\n      and\n      0xfb6d3a89\n        /* \"Users/yanickwilisky/Library/CloudStorage/GoogleDrive-yanickw@gmail.com/My Drive/09_Programming/FinTech_Workspace/sabot3/Contracts/MoneyToCurve.sol\":4045:4098  ICurveFi_DepositY(curveFi_Deposit).underlying_coins() */\n      mload(0x40)\n      dup2\n      0xffffffff\n      and\n      0xe0\n      shl\n      dup2\n      mstore\n      0x04\n      add\n      0x80\n      mload(0x40)\n      dup1\n      dup4\n      sub\n      dup2\n      dup7\n      dup1\n      extcodesize\n      iszero\n        /* \"--CODEGEN--\":8:17   */\n      dup1\n        /* \"--CODEGEN--\":5:7   */\n      iszero\n      tag_145\n      jumpi\n        /* \"--CODEGEN--\":30:31   */\n      0x00\n        /* \"--CODEGEN--\":27:28   */\n      dup1\n        /* \"--CODEGEN--\":20:32   */\n      revert\n        /* \"--CODEGEN--\":5:7   */\n    tag_145:\n        /* \"Users/yanickwilisky/Library/CloudStorage/GoogleDrive-yanickw@gmail.com/My Drive/09_Programming/FinTech_Workspace/sabot3/Contracts/MoneyToCurve.sol\":4045:4098  ICurveFi_DepositY(curveFi_Deposit).underlying_coins() */\n      pop\n      gas\n      staticcall\n      iszero\n        /* \"--CODEGEN--\":8:17   */\n      dup1\n        /* \"--CODEGEN--\":5:7   */\n      iszero\n      tag_146\n      jumpi\n        /* \"--CODEGEN--\":45:61   */\n      returndatasize\n        /* \"--CODEGEN--\":42:43   */\n      0x00\n        /* \"--CODEGEN--\":39:40   */\n      dup1\n        /* \"--CODEGEN--\":24:62   */\n      returndatacopy\n        /* \"--CODEGEN--\":77:93   */\n      returndatasize\n        /* \"--CODEGEN--\":74:75   */\n      0x00\n        /* \"--CODEGEN--\":67:94   */\n      revert\n        /* \"--CODEGEN--\":5:7   */\n    tag_146:\n        /* \"Users/yanickwilisky/Library/CloudStorage/GoogleDrive-yanickw@gmail.com/My Drive/09_Programming/FinTech_Workspace/sabot3/Contracts/MoneyToCurve.sol\":4045:4098  ICurveFi_DepositY(curveFi_Deposit).underlying_coins() */\n      pop\n      pop\n      pop\n      pop\n      mload(0x40)\n      returndatasize\n        /* \"--CODEGEN--\":101:105   */\n      0x1f\n        /* \"--CODEGEN--\":97:106   */\n      not\n        /* \"--CODEGEN--\":90:94   */\n      0x1f\n        /* \"--CODEGEN--\":84:88   */\n      dup3\n        /* \"--CODEGEN--\":80:95   */\n      add\n        /* \"--CODEGEN--\":76:107   */\n      and\n        /* \"--CODEGEN--\":69:74   */\n      dup3\n        /* \"--CODEGEN--\":65:108   */\n      add\n        /* \"--CODEGEN--\":126:132   */\n      dup1\n        /* \"--CODEGEN--\":120:124   */\n      0x40\n        /* \"--CODEGEN--\":113:133   */\n      mstore\n        /* \"--CODEGEN--\":0:138   */\n      pop\n        /* \"--CODEGEN--\":13:16   */\n      0x80\n        /* \"--CODEGEN--\":8:11   */\n      dup2\n        /* \"--CODEGEN--\":5:17   */\n      lt\n        /* \"--CODEGEN--\":2:4   */\n      iszero\n      tag_147\n      jumpi\n        /* \"--CODEGEN--\":30:31   */\n      0x00\n        /* \"--CODEGEN--\":27:28   */\n      dup1\n        /* \"--CODEGEN--\":20:32   */\n      revert\n        /* \"--CODEGEN--\":2:4   */\n    tag_147:\n        /* \"Users/yanickwilisky/Library/CloudStorage/GoogleDrive-yanickw@gmail.com/My Drive/09_Programming/FinTech_Workspace/sabot3/Contracts/MoneyToCurve.sol\":4045:4098  ICurveFi_DepositY(curveFi_Deposit).underlying_coins() */\n      dup2\n      add\n      swap1\n      dup1\n      swap2\n      swap1\n      pop\n      pop\n        /* \"Users/yanickwilisky/Library/CloudStorage/GoogleDrive-yanickw@gmail.com/My Drive/09_Programming/FinTech_Workspace/sabot3/Contracts/MoneyToCurve.sol\":4013:4098  address[4] memory stablecoins = ICurveFi_DepositY(curveFi_Deposit).underlying_coins() */\n      swap1\n      pop\n        /* \"Users/yanickwilisky/Library/CloudStorage/GoogleDrive-yanickw@gmail.com/My Drive/09_Programming/FinTech_Workspace/sabot3/Contracts/MoneyToCurve.sol\":4175:4192  uint256 nWithdraw */\n      0x00\n        /* \"Users/yanickwilisky/Library/CloudStorage/GoogleDrive-yanickw@gmail.com/My Drive/09_Programming/FinTech_Workspace/sabot3/Contracts/MoneyToCurve.sol\":4202:4211  uint256 i */\n      dup1\n        /* \"Users/yanickwilisky/Library/CloudStorage/GoogleDrive-yanickw@gmail.com/My Drive/09_Programming/FinTech_Workspace/sabot3/Contracts/MoneyToCurve.sol\":4230:4231  0 */\n      0x00\n        /* \"Users/yanickwilisky/Library/CloudStorage/GoogleDrive-yanickw@gmail.com/My Drive/09_Programming/FinTech_Workspace/sabot3/Contracts/MoneyToCurve.sol\":4226:4231  i = 0 */\n      swap1\n      pop\n        /* \"Users/yanickwilisky/Library/CloudStorage/GoogleDrive-yanickw@gmail.com/My Drive/09_Programming/FinTech_Workspace/sabot3/Contracts/MoneyToCurve.sol\":4221:4352  for (i = 0; i < stablecoins.length; i++) {... */\n    tag_148:\n        /* \"Users/yanickwilisky/Library/CloudStorage/GoogleDrive-yanickw@gmail.com/My Drive/09_Programming/FinTech_Workspace/sabot3/Contracts/MoneyToCurve.sol\":4237:4255  stablecoins.length */\n      0x04\n        /* \"Users/yanickwilisky/Library/CloudStorage/GoogleDrive-yanickw@gmail.com/My Drive/09_Programming/FinTech_Workspace/sabot3/Contracts/MoneyToCurve.sol\":4233:4234  i */\n      dup2\n        /* \"Users/yanickwilisky/Library/CloudStorage/GoogleDrive-yanickw@gmail.com/My Drive/09_Programming/FinTech_Workspace/sabot3/Contracts/MoneyToCurve.sol\":4233:4255  i < stablecoins.length */\n      lt\n        /* \"Users/yanickwilisky/Library/CloudStorage/GoogleDrive-yanickw@gmail.com/My Drive/09_Programming/FinTech_Workspace/sabot3/Contracts/MoneyToCurve.sol\":4221:4352  for (i = 0; i < stablecoins.length; i++) {... */\n      iszero\n      tag_149\n      jumpi\n        /* \"Users/yanickwilisky/Library/CloudStorage/GoogleDrive-yanickw@gmail.com/My Drive/09_Programming/FinTech_Workspace/sabot3/Contracts/MoneyToCurve.sol\":4288:4341  nWithdraw.add(normalize(stablecoins[i], _amounts[i])) */\n      tag_151\n        /* \"Users/yanickwilisky/Library/CloudStorage/GoogleDrive-yanickw@gmail.com/My Drive/09_Programming/FinTech_Workspace/sabot3/Contracts/MoneyToCurve.sol\":4302:4340  normalize(stablecoins[i], _amounts[i]) */\n      tag_152\n        /* \"Users/yanickwilisky/Library/CloudStorage/GoogleDrive-yanickw@gmail.com/My Drive/09_Programming/FinTech_Workspace/sabot3/Contracts/MoneyToCurve.sol\":4312:4323  stablecoins */\n      dup5\n        /* \"Users/yanickwilisky/Library/CloudStorage/GoogleDrive-yanickw@gmail.com/My Drive/09_Programming/FinTech_Workspace/sabot3/Contracts/MoneyToCurve.sol\":4324:4325  i */\n      dup4\n        /* \"Users/yanickwilisky/Library/CloudStorage/GoogleDrive-yanickw@gmail.com/My Drive/09_Programming/FinTech_Workspace/sabot3/Contracts/MoneyToCurve.sol\":4312:4326  stablecoins[i] */\n      0x04\n      dup2\n      lt\n      tag_153\n      jumpi\n      invalid\n    tag_153:\n      0x20\n      mul\n      add\n      mload\n        /* \"Users/yanickwilisky/Library/CloudStorage/GoogleDrive-yanickw@gmail.com/My Drive/09_Programming/FinTech_Workspace/sabot3/Contracts/MoneyToCurve.sol\":4328:4336  _amounts */\n      dup7\n        /* \"Users/yanickwilisky/Library/CloudStorage/GoogleDrive-yanickw@gmail.com/My Drive/09_Programming/FinTech_Workspace/sabot3/Contracts/MoneyToCurve.sol\":4337:4338  i */\n      dup5\n        /* \"Users/yanickwilisky/Library/CloudStorage/GoogleDrive-yanickw@gmail.com/My Drive/09_Programming/FinTech_Workspace/sabot3/Contracts/MoneyToCurve.sol\":4328:4339  _amounts[i] */\n      0x04\n      dup2\n      lt\n      tag_154\n      jumpi\n      invalid\n    tag_154:\n      0x20\n      mul\n      add\n      mload\n        /* \"Users/yanickwilisky/Library/CloudStorage/GoogleDrive-yanickw@gmail.com/My Drive/09_Programming/FinTech_Workspace/sabot3/Contracts/MoneyToCurve.sol\":4302:4311  normalize */\n      tag_155\n        /* \"Users/yanickwilisky/Library/CloudStorage/GoogleDrive-yanickw@gmail.com/My Drive/09_Programming/FinTech_Workspace/sabot3/Contracts/MoneyToCurve.sol\":4302:4340  normalize(stablecoins[i], _amounts[i]) */\n      jump\t// in\n    tag_152:\n        /* \"Users/yanickwilisky/Library/CloudStorage/GoogleDrive-yanickw@gmail.com/My Drive/09_Programming/FinTech_Workspace/sabot3/Contracts/MoneyToCurve.sol\":4288:4297  nWithdraw */\n      dup4\n        /* \"Users/yanickwilisky/Library/CloudStorage/GoogleDrive-yanickw@gmail.com/My Drive/09_Programming/FinTech_Workspace/sabot3/Contracts/MoneyToCurve.sol\":4288:4301  nWithdraw.add */\n      tag_156\n      swap1\n        /* \"Users/yanickwilisky/Library/CloudStorage/GoogleDrive-yanickw@gmail.com/My Drive/09_Programming/FinTech_Workspace/sabot3/Contracts/MoneyToCurve.sol\":4288:4341  nWithdraw.add(normalize(stablecoins[i], _amounts[i])) */\n      swap2\n      swap1\n      0xffffffff\n      and\n      jump\t// in\n    tag_151:\n        /* \"Users/yanickwilisky/Library/CloudStorage/GoogleDrive-yanickw@gmail.com/My Drive/09_Programming/FinTech_Workspace/sabot3/Contracts/MoneyToCurve.sol\":4276:4341  nWithdraw = nWithdraw.add(normalize(stablecoins[i], _amounts[i])) */\n      swap2\n      pop\n        /* \"Users/yanickwilisky/Library/CloudStorage/GoogleDrive-yanickw@gmail.com/My Drive/09_Programming/FinTech_Workspace/sabot3/Contracts/MoneyToCurve.sol\":4257:4260  i++ */\n      dup1\n      dup1\n      0x01\n      add\n      swap2\n      pop\n      pop\n        /* \"Users/yanickwilisky/Library/CloudStorage/GoogleDrive-yanickw@gmail.com/My Drive/09_Programming/FinTech_Workspace/sabot3/Contracts/MoneyToCurve.sol\":4221:4352  for (i = 0; i < stablecoins.length; i++) {... */\n      jump(tag_148)\n    tag_149:\n        /* \"Users/yanickwilisky/Library/CloudStorage/GoogleDrive-yanickw@gmail.com/My Drive/09_Programming/FinTech_Workspace/sabot3/Contracts/MoneyToCurve.sol\":4362:4384  uint256 withdrawShares */\n      0x00\n        /* \"Users/yanickwilisky/Library/CloudStorage/GoogleDrive-yanickw@gmail.com/My Drive/09_Programming/FinTech_Workspace/sabot3/Contracts/MoneyToCurve.sol\":4387:4413  calculateShares(nWithdraw) */\n      tag_157\n        /* \"Users/yanickwilisky/Library/CloudStorage/GoogleDrive-yanickw@gmail.com/My Drive/09_Programming/FinTech_Workspace/sabot3/Contracts/MoneyToCurve.sol\":4403:4412  nWithdraw */\n      dup4\n        /* \"Users/yanickwilisky/Library/CloudStorage/GoogleDrive-yanickw@gmail.com/My Drive/09_Programming/FinTech_Workspace/sabot3/Contracts/MoneyToCurve.sol\":4387:4402  calculateShares */\n      tag_158\n        /* \"Users/yanickwilisky/Library/CloudStorage/GoogleDrive-yanickw@gmail.com/My Drive/09_Programming/FinTech_Workspace/sabot3/Contracts/MoneyToCurve.sol\":4387:4413  calculateShares(nWithdraw) */\n      jump\t// in\n    tag_157:\n        /* \"Users/yanickwilisky/Library/CloudStorage/GoogleDrive-yanickw@gmail.com/My Drive/09_Programming/FinTech_Workspace/sabot3/Contracts/MoneyToCurve.sol\":4362:4413  uint256 withdrawShares = calculateShares(nWithdraw) */\n      swap1\n      pop\n        /* \"Users/yanickwilisky/Library/CloudStorage/GoogleDrive-yanickw@gmail.com/My Drive/09_Programming/FinTech_Workspace/sabot3/Contracts/MoneyToCurve.sol\":4477:4494  uint256 notStaked */\n      0x00\n        /* \"Users/yanickwilisky/Library/CloudStorage/GoogleDrive-yanickw@gmail.com/My Drive/09_Programming/FinTech_Workspace/sabot3/Contracts/MoneyToCurve.sol\":4497:4519  curveLPTokenUnstaked() */\n      tag_159\n        /* \"Users/yanickwilisky/Library/CloudStorage/GoogleDrive-yanickw@gmail.com/My Drive/09_Programming/FinTech_Workspace/sabot3/Contracts/MoneyToCurve.sol\":4497:4517  curveLPTokenUnstaked */\n      tag_65\n        /* \"Users/yanickwilisky/Library/CloudStorage/GoogleDrive-yanickw@gmail.com/My Drive/09_Programming/FinTech_Workspace/sabot3/Contracts/MoneyToCurve.sol\":4497:4519  curveLPTokenUnstaked() */\n      jump\t// in\n    tag_159:\n        /* \"Users/yanickwilisky/Library/CloudStorage/GoogleDrive-yanickw@gmail.com/My Drive/09_Programming/FinTech_Workspace/sabot3/Contracts/MoneyToCurve.sol\":4477:4519  uint256 notStaked = curveLPTokenUnstaked() */\n      swap1\n      pop\n        /* \"Users/yanickwilisky/Library/CloudStorage/GoogleDrive-yanickw@gmail.com/My Drive/09_Programming/FinTech_Workspace/sabot3/Contracts/MoneyToCurve.sol\":4545:4546  0 */\n      0x00\n        /* \"Users/yanickwilisky/Library/CloudStorage/GoogleDrive-yanickw@gmail.com/My Drive/09_Programming/FinTech_Workspace/sabot3/Contracts/MoneyToCurve.sol\":4533:4542  notStaked */\n      dup2\n        /* \"Users/yanickwilisky/Library/CloudStorage/GoogleDrive-yanickw@gmail.com/My Drive/09_Programming/FinTech_Workspace/sabot3/Contracts/MoneyToCurve.sol\":4533:4546  notStaked > 0 */\n      gt\n        /* \"Users/yanickwilisky/Library/CloudStorage/GoogleDrive-yanickw@gmail.com/My Drive/09_Programming/FinTech_Workspace/sabot3/Contracts/MoneyToCurve.sol\":4529:4619  if (notStaked > 0) {... */\n      iszero\n      tag_160\n      jumpi\n        /* \"Users/yanickwilisky/Library/CloudStorage/GoogleDrive-yanickw@gmail.com/My Drive/09_Programming/FinTech_Workspace/sabot3/Contracts/MoneyToCurve.sol\":4579:4608  withdrawShares.sub(notStaked) */\n      tag_161\n        /* \"Users/yanickwilisky/Library/CloudStorage/GoogleDrive-yanickw@gmail.com/My Drive/09_Programming/FinTech_Workspace/sabot3/Contracts/MoneyToCurve.sol\":4598:4607  notStaked */\n      dup2\n        /* \"Users/yanickwilisky/Library/CloudStorage/GoogleDrive-yanickw@gmail.com/My Drive/09_Programming/FinTech_Workspace/sabot3/Contracts/MoneyToCurve.sol\":4579:4593  withdrawShares */\n      dup4\n        /* \"Users/yanickwilisky/Library/CloudStorage/GoogleDrive-yanickw@gmail.com/My Drive/09_Programming/FinTech_Workspace/sabot3/Contracts/MoneyToCurve.sol\":4579:4597  withdrawShares.sub */\n      tag_162\n      swap1\n        /* \"Users/yanickwilisky/Library/CloudStorage/GoogleDrive-yanickw@gmail.com/My Drive/09_Programming/FinTech_Workspace/sabot3/Contracts/MoneyToCurve.sol\":4579:4608  withdrawShares.sub(notStaked) */\n      swap2\n      swap1\n      0xffffffff\n      and\n      jump\t// in\n    tag_161:\n        /* \"Users/yanickwilisky/Library/CloudStorage/GoogleDrive-yanickw@gmail.com/My Drive/09_Programming/FinTech_Workspace/sabot3/Contracts/MoneyToCurve.sol\":4562:4608  withdrawShares = withdrawShares.sub(notStaked) */\n      swap2\n      pop\n        /* \"Users/yanickwilisky/Library/CloudStorage/GoogleDrive-yanickw@gmail.com/My Drive/09_Programming/FinTech_Workspace/sabot3/Contracts/MoneyToCurve.sol\":4529:4619  if (notStaked > 0) {... */\n    tag_160:\n        /* \"Users/yanickwilisky/Library/CloudStorage/GoogleDrive-yanickw@gmail.com/My Drive/09_Programming/FinTech_Workspace/sabot3/Contracts/MoneyToCurve.sol\":4698:4713  curveFi_LPGauge */\n      0x37\n      0x00\n      swap1\n      sload\n      swap1\n      0x0100\n      exp\n      swap1\n      div\n      0xffffffffffffffffffffffffffffffffffffffff\n      and\n        /* \"Users/yanickwilisky/Library/CloudStorage/GoogleDrive-yanickw@gmail.com/My Drive/09_Programming/FinTech_Workspace/sabot3/Contracts/MoneyToCurve.sol\":4683:4723  ICurveFi_Gauge(curveFi_LPGauge).withdraw */\n      0xffffffffffffffffffffffffffffffffffffffff\n      and\n      0x2e1a7d4d\n        /* \"Users/yanickwilisky/Library/CloudStorage/GoogleDrive-yanickw@gmail.com/My Drive/09_Programming/FinTech_Workspace/sabot3/Contracts/MoneyToCurve.sol\":4724:4738  withdrawShares */\n      dup4\n        /* \"Users/yanickwilisky/Library/CloudStorage/GoogleDrive-yanickw@gmail.com/My Drive/09_Programming/FinTech_Workspace/sabot3/Contracts/MoneyToCurve.sol\":4683:4739  ICurveFi_Gauge(curveFi_LPGauge).withdraw(withdrawShares) */\n      mload(0x40)\n      dup3\n      0xffffffff\n      and\n      0xe0\n      shl\n      dup2\n      mstore\n      0x04\n      add\n      dup1\n      dup3\n      dup2\n      mstore\n      0x20\n      add\n      swap2\n      pop\n      pop\n      0x00\n      mload(0x40)\n      dup1\n      dup4\n      sub\n      dup2\n      0x00\n      dup8\n      dup1\n      extcodesize\n      iszero\n        /* \"--CODEGEN--\":8:17   */\n      dup1\n        /* \"--CODEGEN--\":5:7   */\n      iszero\n      tag_163\n      jumpi\n        /* \"--CODEGEN--\":30:31   */\n      0x00\n        /* \"--CODEGEN--\":27:28   */\n      dup1\n        /* \"--CODEGEN--\":20:32   */\n      revert\n        /* \"--CODEGEN--\":5:7   */\n    tag_163:\n        /* \"Users/yanickwilisky/Library/CloudStorage/GoogleDrive-yanickw@gmail.com/My Drive/09_Programming/FinTech_Workspace/sabot3/Contracts/MoneyToCurve.sol\":4683:4739  ICurveFi_Gauge(curveFi_LPGauge).withdraw(withdrawShares) */\n      pop\n      gas\n      call\n      iszero\n        /* \"--CODEGEN--\":8:17   */\n      dup1\n        /* \"--CODEGEN--\":5:7   */\n      iszero\n      tag_164\n      jumpi\n        /* \"--CODEGEN--\":45:61   */\n      returndatasize\n        /* \"--CODEGEN--\":42:43   */\n      0x00\n        /* \"--CODEGEN--\":39:40   */\n      dup1\n        /* \"--CODEGEN--\":24:62   */\n      returndatacopy\n        /* \"--CODEGEN--\":77:93   */\n      returndatasize\n        /* \"--CODEGEN--\":74:75   */\n      0x00\n        /* \"--CODEGEN--\":67:94   */\n      revert\n        /* \"--CODEGEN--\":5:7   */\n    tag_164:\n        /* \"Users/yanickwilisky/Library/CloudStorage/GoogleDrive-yanickw@gmail.com/My Drive/09_Programming/FinTech_Workspace/sabot3/Contracts/MoneyToCurve.sol\":4683:4739  ICurveFi_Gauge(curveFi_LPGauge).withdraw(withdrawShares) */\n      pop\n      pop\n      pop\n      pop\n        /* \"Users/yanickwilisky/Library/CloudStorage/GoogleDrive-yanickw@gmail.com/My Drive/09_Programming/FinTech_Workspace/sabot3/Contracts/MoneyToCurve.sol\":4812:4880  IERC20(curveFi_LPToken).safeApprove(curveFi_Deposit, withdrawShares) */\n      tag_165\n        /* \"Users/yanickwilisky/Library/CloudStorage/GoogleDrive-yanickw@gmail.com/My Drive/09_Programming/FinTech_Workspace/sabot3/Contracts/MoneyToCurve.sol\":4848:4863  curveFi_Deposit */\n      0x34\n      0x00\n      swap1\n      sload\n      swap1\n      0x0100\n      exp\n      swap1\n      div\n      0xffffffffffffffffffffffffffffffffffffffff\n      and\n        /* \"Users/yanickwilisky/Library/CloudStorage/GoogleDrive-yanickw@gmail.com/My Drive/09_Programming/FinTech_Workspace/sabot3/Contracts/MoneyToCurve.sol\":4865:4879  withdrawShares */\n      dup4\n        /* \"Users/yanickwilisky/Library/CloudStorage/GoogleDrive-yanickw@gmail.com/My Drive/09_Programming/FinTech_Workspace/sabot3/Contracts/MoneyToCurve.sol\":4819:4834  curveFi_LPToken */\n      0x36\n      0x00\n      swap1\n      sload\n      swap1\n      0x0100\n      exp\n      swap1\n      div\n      0xffffffffffffffffffffffffffffffffffffffff\n      and\n        /* \"Users/yanickwilisky/Library/CloudStorage/GoogleDrive-yanickw@gmail.com/My Drive/09_Programming/FinTech_Workspace/sabot3/Contracts/MoneyToCurve.sol\":4812:4847  IERC20(curveFi_LPToken).safeApprove */\n      0xffffffffffffffffffffffffffffffffffffffff\n      and\n      tag_92\n      swap1\n        /* \"Users/yanickwilisky/Library/CloudStorage/GoogleDrive-yanickw@gmail.com/My Drive/09_Programming/FinTech_Workspace/sabot3/Contracts/MoneyToCurve.sol\":4812:4880  IERC20(curveFi_LPToken).safeApprove(curveFi_Deposit, withdrawShares) */\n      swap3\n      swap2\n      swap1\n      0xffffffff\n      and\n      jump\t// in\n    tag_165:\n        /* \"Users/yanickwilisky/Library/CloudStorage/GoogleDrive-yanickw@gmail.com/My Drive/09_Programming/FinTech_Workspace/sabot3/Contracts/MoneyToCurve.sol\":4908:4923  curveFi_Deposit */\n      0x34\n      0x00\n      swap1\n      sload\n      swap1\n      0x0100\n      exp\n      swap1\n      div\n      0xffffffffffffffffffffffffffffffffffffffff\n      and\n        /* \"Users/yanickwilisky/Library/CloudStorage/GoogleDrive-yanickw@gmail.com/My Drive/09_Programming/FinTech_Workspace/sabot3/Contracts/MoneyToCurve.sol\":4890:4951  ICurveFi_DepositY(curveFi_Deposit).remove_liquidity_imbalance */\n      0xffffffffffffffffffffffffffffffffffffffff\n      and\n      0x18a7bd76\n        /* \"Users/yanickwilisky/Library/CloudStorage/GoogleDrive-yanickw@gmail.com/My Drive/09_Programming/FinTech_Workspace/sabot3/Contracts/MoneyToCurve.sol\":4952:4960  _amounts */\n      dup8\n        /* \"Users/yanickwilisky/Library/CloudStorage/GoogleDrive-yanickw@gmail.com/My Drive/09_Programming/FinTech_Workspace/sabot3/Contracts/MoneyToCurve.sol\":4962:4976  withdrawShares */\n      dup5\n        /* \"Users/yanickwilisky/Library/CloudStorage/GoogleDrive-yanickw@gmail.com/My Drive/09_Programming/FinTech_Workspace/sabot3/Contracts/MoneyToCurve.sol\":4890:4977  ICurveFi_DepositY(curveFi_Deposit).remove_liquidity_imbalance(_amounts, withdrawShares) */\n      mload(0x40)\n      dup4\n      0xffffffff\n      and\n      0xe0\n      shl\n      dup2\n      mstore\n      0x04\n      add\n      dup1\n      dup4\n      mul(0x20, 0x04)\n      dup1\n      dup4\n      dup4\n        /* \"--CODEGEN--\":23:24   */\n      0x00\n        /* \"--CODEGEN--\":8:108   */\n    tag_166:\n        /* \"--CODEGEN--\":33:36   */\n      dup4\n        /* \"--CODEGEN--\":30:31   */\n      dup2\n        /* \"--CODEGEN--\":27:37   */\n      lt\n        /* \"--CODEGEN--\":8:108   */\n      iszero\n      tag_168\n      jumpi\n        /* \"--CODEGEN--\":99:100   */\n      dup1\n        /* \"--CODEGEN--\":94:97   */\n      dup3\n        /* \"--CODEGEN--\":90:101   */\n      add\n        /* \"--CODEGEN--\":84:102   */\n      mload\n        /* \"--CODEGEN--\":80:81   */\n      dup2\n        /* \"--CODEGEN--\":75:78   */\n      dup5\n        /* \"--CODEGEN--\":71:82   */\n      add\n        /* \"--CODEGEN--\":64:103   */\n      mstore\n        /* \"--CODEGEN--\":52:54   */\n      0x20\n        /* \"--CODEGEN--\":49:50   */\n      dup2\n        /* \"--CODEGEN--\":45:55   */\n      add\n        /* \"--CODEGEN--\":40:55   */\n      swap1\n      pop\n        /* \"--CODEGEN--\":8:108   */\n      jump(tag_166)\n    tag_168:\n        /* \"--CODEGEN--\":12:26   */\n      pop\n        /* \"Users/yanickwilisky/Library/CloudStorage/GoogleDrive-yanickw@gmail.com/My Drive/09_Programming/FinTech_Workspace/sabot3/Contracts/MoneyToCurve.sol\":4890:4977  ICurveFi_DepositY(curveFi_Deposit).remove_liquidity_imbalance(_amounts, withdrawShares) */\n      pop\n      pop\n      pop\n      swap1\n      pop\n      add\n      dup3\n      dup2\n      mstore\n      0x20\n      add\n      swap3\n      pop\n      pop\n      pop\n      0x00\n      mload(0x40)\n      dup1\n      dup4\n      sub\n      dup2\n      0x00\n      dup8\n      dup1\n      extcodesize\n      iszero\n        /* \"--CODEGEN--\":8:17   */\n      dup1\n        /* \"--CODEGEN--\":5:7   */\n      iszero\n      tag_169\n      jumpi\n        /* \"--CODEGEN--\":30:31   */\n      0x00\n        /* \"--CODEGEN--\":27:28   */\n      dup1\n        /* \"--CODEGEN--\":20:32   */\n      revert\n        /* \"--CODEGEN--\":5:7   */\n    tag_169:\n        /* \"Users/yanickwilisky/Library/CloudStorage/GoogleDrive-yanickw@gmail.com/My Drive/09_Programming/FinTech_Workspace/sabot3/Contracts/MoneyToCurve.sol\":4890:4977  ICurveFi_DepositY(curveFi_Deposit).remove_liquidity_imbalance(_amounts, withdrawShares) */\n      pop\n      gas\n      call\n      iszero\n        /* \"--CODEGEN--\":8:17   */\n      dup1\n        /* \"--CODEGEN--\":5:7   */\n      iszero\n      tag_170\n      jumpi\n        /* \"--CODEGEN--\":45:61   */\n      returndatasize\n        /* \"--CODEGEN--\":42:43   */\n      0x00\n        /* \"--CODEGEN--\":39:40   */\n      dup1\n        /* \"--CODEGEN--\":24:62   */\n      returndatacopy\n        /* \"--CODEGEN--\":77:93   */\n      returndatasize\n        /* \"--CODEGEN--\":74:75   */\n      0x00\n        /* \"--CODEGEN--\":67:94   */\n      revert\n        /* \"--CODEGEN--\":5:7   */\n    tag_170:\n        /* \"Users/yanickwilisky/Library/CloudStorage/GoogleDrive-yanickw@gmail.com/My Drive/09_Programming/FinTech_Workspace/sabot3/Contracts/MoneyToCurve.sol\":4890:4977  ICurveFi_DepositY(curveFi_Deposit).remove_liquidity_imbalance(_amounts, withdrawShares) */\n      pop\n      pop\n      pop\n      pop\n        /* \"Users/yanickwilisky/Library/CloudStorage/GoogleDrive-yanickw@gmail.com/My Drive/09_Programming/FinTech_Workspace/sabot3/Contracts/MoneyToCurve.sol\":5058:5059  0 */\n      0x00\n        /* \"Users/yanickwilisky/Library/CloudStorage/GoogleDrive-yanickw@gmail.com/My Drive/09_Programming/FinTech_Workspace/sabot3/Contracts/MoneyToCurve.sol\":5054:5059  i = 0 */\n      swap3\n      pop\n        /* \"Users/yanickwilisky/Library/CloudStorage/GoogleDrive-yanickw@gmail.com/My Drive/09_Programming/FinTech_Workspace/sabot3/Contracts/MoneyToCurve.sol\":5049:5387  for (i = 0; i <  stablecoins.length; i++){... */\n    tag_171:\n        /* \"Users/yanickwilisky/Library/CloudStorage/GoogleDrive-yanickw@gmail.com/My Drive/09_Programming/FinTech_Workspace/sabot3/Contracts/MoneyToCurve.sol\":5066:5084  stablecoins.length */\n      0x04\n        /* \"Users/yanickwilisky/Library/CloudStorage/GoogleDrive-yanickw@gmail.com/My Drive/09_Programming/FinTech_Workspace/sabot3/Contracts/MoneyToCurve.sol\":5061:5062  i */\n      dup4\n        /* \"Users/yanickwilisky/Library/CloudStorage/GoogleDrive-yanickw@gmail.com/My Drive/09_Programming/FinTech_Workspace/sabot3/Contracts/MoneyToCurve.sol\":5061:5084  i <  stablecoins.length */\n      lt\n        /* \"Users/yanickwilisky/Library/CloudStorage/GoogleDrive-yanickw@gmail.com/My Drive/09_Programming/FinTech_Workspace/sabot3/Contracts/MoneyToCurve.sol\":5049:5387  for (i = 0; i <  stablecoins.length; i++){... */\n      iszero\n      tag_172\n      jumpi\n        /* \"Users/yanickwilisky/Library/CloudStorage/GoogleDrive-yanickw@gmail.com/My Drive/09_Programming/FinTech_Workspace/sabot3/Contracts/MoneyToCurve.sol\":5104:5121  IERC20 stablecoin */\n      0x00\n        /* \"Users/yanickwilisky/Library/CloudStorage/GoogleDrive-yanickw@gmail.com/My Drive/09_Programming/FinTech_Workspace/sabot3/Contracts/MoneyToCurve.sol\":5131:5142  stablecoins */\n      dup6\n        /* \"Users/yanickwilisky/Library/CloudStorage/GoogleDrive-yanickw@gmail.com/My Drive/09_Programming/FinTech_Workspace/sabot3/Contracts/MoneyToCurve.sol\":5143:5144  i */\n      dup5\n        /* \"Users/yanickwilisky/Library/CloudStorage/GoogleDrive-yanickw@gmail.com/My Drive/09_Programming/FinTech_Workspace/sabot3/Contracts/MoneyToCurve.sol\":5131:5145  stablecoins[i] */\n      0x04\n      dup2\n      lt\n      tag_174\n      jumpi\n      invalid\n    tag_174:\n      0x20\n      mul\n      add\n      mload\n        /* \"Users/yanickwilisky/Library/CloudStorage/GoogleDrive-yanickw@gmail.com/My Drive/09_Programming/FinTech_Workspace/sabot3/Contracts/MoneyToCurve.sol\":5104:5146  IERC20 stablecoin = IERC20(stablecoins[i]) */\n      swap1\n      pop\n        /* \"Users/yanickwilisky/Library/CloudStorage/GoogleDrive-yanickw@gmail.com/My Drive/09_Programming/FinTech_Workspace/sabot3/Contracts/MoneyToCurve.sol\":5160:5175  uint256 balance */\n      0x00\n        /* \"Users/yanickwilisky/Library/CloudStorage/GoogleDrive-yanickw@gmail.com/My Drive/09_Programming/FinTech_Workspace/sabot3/Contracts/MoneyToCurve.sol\":5178:5188  stablecoin */\n      dup2\n        /* \"Users/yanickwilisky/Library/CloudStorage/GoogleDrive-yanickw@gmail.com/My Drive/09_Programming/FinTech_Workspace/sabot3/Contracts/MoneyToCurve.sol\":5178:5198  stablecoin.balanceOf */\n      0xffffffffffffffffffffffffffffffffffffffff\n      and\n      0x70a08231\n        /* \"Users/yanickwilisky/Library/CloudStorage/GoogleDrive-yanickw@gmail.com/My Drive/09_Programming/FinTech_Workspace/sabot3/Contracts/MoneyToCurve.sol\":5207:5211  this */\n      address\n        /* \"Users/yanickwilisky/Library/CloudStorage/GoogleDrive-yanickw@gmail.com/My Drive/09_Programming/FinTech_Workspace/sabot3/Contracts/MoneyToCurve.sol\":5178:5213  stablecoin.balanceOf(address(this)) */\n      mload(0x40)\n      dup3\n      0xffffffff\n      and\n      0xe0\n      shl\n      dup2\n      mstore\n      0x04\n      add\n      dup1\n      dup3\n      0xffffffffffffffffffffffffffffffffffffffff\n      and\n      0xffffffffffffffffffffffffffffffffffffffff\n      and\n      dup2\n      mstore\n      0x20\n      add\n      swap2\n      pop\n      pop\n      0x20\n      mload(0x40)\n      dup1\n      dup4\n      sub\n      dup2\n      dup7\n      dup1\n      extcodesize\n      iszero\n        /* \"--CODEGEN--\":8:17   */\n      dup1\n        /* \"--CODEGEN--\":5:7   */\n      iszero\n      tag_175\n      jumpi\n        /* \"--CODEGEN--\":30:31   */\n      0x00\n        /* \"--CODEGEN--\":27:28   */\n      dup1\n        /* \"--CODEGEN--\":20:32   */\n      revert\n        /* \"--CODEGEN--\":5:7   */\n    tag_175:\n        /* \"Users/yanickwilisky/Library/CloudStorage/GoogleDrive-yanickw@gmail.com/My Drive/09_Programming/FinTech_Workspace/sabot3/Contracts/MoneyToCurve.sol\":5178:5213  stablecoin.balanceOf(address(this)) */\n      pop\n      gas\n      staticcall\n      iszero\n        /* \"--CODEGEN--\":8:17   */\n      dup1\n        /* \"--CODEGEN--\":5:7   */\n      iszero\n      tag_176\n      jumpi\n        /* \"--CODEGEN--\":45:61   */\n      returndatasize\n        /* \"--CODEGEN--\":42:43   */\n      0x00\n        /* \"--CODEGEN--\":39:40   */\n      dup1\n        /* \"--CODEGEN--\":24:62   */\n      returndatacopy\n        /* \"--CODEGEN--\":77:93   */\n      returndatasize\n        /* \"--CODEGEN--\":74:75   */\n      0x00\n        /* \"--CODEGEN--\":67:94   */\n      revert\n        /* \"--CODEGEN--\":5:7   */\n    tag_176:\n        /* \"Users/yanickwilisky/Library/CloudStorage/GoogleDrive-yanickw@gmail.com/My Drive/09_Programming/FinTech_Workspace/sabot3/Contracts/MoneyToCurve.sol\":5178:5213  stablecoin.balanceOf(address(this)) */\n      pop\n      pop\n      pop\n      pop\n      mload(0x40)\n      returndatasize\n        /* \"--CODEGEN--\":13:15   */\n      0x20\n        /* \"--CODEGEN--\":8:11   */\n      dup2\n        /* \"--CODEGEN--\":5:16   */\n      lt\n        /* \"--CODEGEN--\":2:4   */\n      iszero\n      tag_177\n      jumpi\n        /* \"--CODEGEN--\":29:30   */\n      0x00\n        /* \"--CODEGEN--\":26:27   */\n      dup1\n        /* \"--CODEGEN--\":19:31   */\n      revert\n        /* \"--CODEGEN--\":2:4   */\n    tag_177:\n        /* \"Users/yanickwilisky/Library/CloudStorage/GoogleDrive-yanickw@gmail.com/My Drive/09_Programming/FinTech_Workspace/sabot3/Contracts/MoneyToCurve.sol\":5178:5213  stablecoin.balanceOf(address(this)) */\n      dup2\n      add\n      swap1\n      dup1\n      dup1\n      mload\n      swap1\n      0x20\n      add\n      swap1\n      swap3\n      swap2\n      swap1\n      pop\n      pop\n      pop\n        /* \"Users/yanickwilisky/Library/CloudStorage/GoogleDrive-yanickw@gmail.com/My Drive/09_Programming/FinTech_Workspace/sabot3/Contracts/MoneyToCurve.sol\":5160:5213  uint256 balance = stablecoin.balanceOf(address(this)) */\n      swap1\n      pop\n        /* \"Users/yanickwilisky/Library/CloudStorage/GoogleDrive-yanickw@gmail.com/My Drive/09_Programming/FinTech_Workspace/sabot3/Contracts/MoneyToCurve.sol\":5227:5241  uint256 amount */\n      0x00\n        /* \"Users/yanickwilisky/Library/CloudStorage/GoogleDrive-yanickw@gmail.com/My Drive/09_Programming/FinTech_Workspace/sabot3/Contracts/MoneyToCurve.sol\":5256:5264  _amounts */\n      dup9\n        /* \"Users/yanickwilisky/Library/CloudStorage/GoogleDrive-yanickw@gmail.com/My Drive/09_Programming/FinTech_Workspace/sabot3/Contracts/MoneyToCurve.sol\":5265:5266  i */\n      dup7\n        /* \"Users/yanickwilisky/Library/CloudStorage/GoogleDrive-yanickw@gmail.com/My Drive/09_Programming/FinTech_Workspace/sabot3/Contracts/MoneyToCurve.sol\":5256:5267  _amounts[i] */\n      0x04\n      dup2\n      lt\n      tag_178\n      jumpi\n      invalid\n    tag_178:\n      0x20\n      mul\n      add\n      mload\n        /* \"Users/yanickwilisky/Library/CloudStorage/GoogleDrive-yanickw@gmail.com/My Drive/09_Programming/FinTech_Workspace/sabot3/Contracts/MoneyToCurve.sol\":5245:5252  balance */\n      dup3\n        /* \"Users/yanickwilisky/Library/CloudStorage/GoogleDrive-yanickw@gmail.com/My Drive/09_Programming/FinTech_Workspace/sabot3/Contracts/MoneyToCurve.sol\":5245:5267  balance <= _amounts[i] */\n      gt\n      iszero\n        /* \"Users/yanickwilisky/Library/CloudStorage/GoogleDrive-yanickw@gmail.com/My Drive/09_Programming/FinTech_Workspace/sabot3/Contracts/MoneyToCurve.sol\":5244:5292  (balance <= _amounts[i]) ? balance : _amounts[i] */\n      tag_179\n      jumpi\n        /* \"Users/yanickwilisky/Library/CloudStorage/GoogleDrive-yanickw@gmail.com/My Drive/09_Programming/FinTech_Workspace/sabot3/Contracts/MoneyToCurve.sol\":5281:5289  _amounts */\n      dup9\n        /* \"Users/yanickwilisky/Library/CloudStorage/GoogleDrive-yanickw@gmail.com/My Drive/09_Programming/FinTech_Workspace/sabot3/Contracts/MoneyToCurve.sol\":5290:5291  i */\n      dup7\n        /* \"Users/yanickwilisky/Library/CloudStorage/GoogleDrive-yanickw@gmail.com/My Drive/09_Programming/FinTech_Workspace/sabot3/Contracts/MoneyToCurve.sol\":5281:5292  _amounts[i] */\n      0x04\n      dup2\n      lt\n      tag_180\n      jumpi\n      invalid\n    tag_180:\n      0x20\n      mul\n      add\n      mload\n        /* \"Users/yanickwilisky/Library/CloudStorage/GoogleDrive-yanickw@gmail.com/My Drive/09_Programming/FinTech_Workspace/sabot3/Contracts/MoneyToCurve.sol\":5244:5292  (balance <= _amounts[i]) ? balance : _amounts[i] */\n      jump(tag_181)\n    tag_179:\n        /* \"Users/yanickwilisky/Library/CloudStorage/GoogleDrive-yanickw@gmail.com/My Drive/09_Programming/FinTech_Workspace/sabot3/Contracts/MoneyToCurve.sol\":5271:5278  balance */\n      dup2\n        /* \"Users/yanickwilisky/Library/CloudStorage/GoogleDrive-yanickw@gmail.com/My Drive/09_Programming/FinTech_Workspace/sabot3/Contracts/MoneyToCurve.sol\":5244:5292  (balance <= _amounts[i]) ? balance : _amounts[i] */\n    tag_181:\n        /* \"Users/yanickwilisky/Library/CloudStorage/GoogleDrive-yanickw@gmail.com/My Drive/09_Programming/FinTech_Workspace/sabot3/Contracts/MoneyToCurve.sol\":5227:5292  uint256 amount = (balance <= _amounts[i]) ? balance : _amounts[i] */\n      swap1\n      pop\n        /* \"Users/yanickwilisky/Library/CloudStorage/GoogleDrive-yanickw@gmail.com/My Drive/09_Programming/FinTech_Workspace/sabot3/Contracts/MoneyToCurve.sol\":5331:5376  stablecoin.safeTransfer(_msgSender(), amount) */\n      tag_182\n        /* \"Users/yanickwilisky/Library/CloudStorage/GoogleDrive-yanickw@gmail.com/My Drive/09_Programming/FinTech_Workspace/sabot3/Contracts/MoneyToCurve.sol\":5355:5367  _msgSender() */\n      tag_183\n        /* \"Users/yanickwilisky/Library/CloudStorage/GoogleDrive-yanickw@gmail.com/My Drive/09_Programming/FinTech_Workspace/sabot3/Contracts/MoneyToCurve.sol\":5355:5365  _msgSender */\n      tag_85\n        /* \"Users/yanickwilisky/Library/CloudStorage/GoogleDrive-yanickw@gmail.com/My Drive/09_Programming/FinTech_Workspace/sabot3/Contracts/MoneyToCurve.sol\":5355:5367  _msgSender() */\n      jump\t// in\n    tag_183:\n        /* \"Users/yanickwilisky/Library/CloudStorage/GoogleDrive-yanickw@gmail.com/My Drive/09_Programming/FinTech_Workspace/sabot3/Contracts/MoneyToCurve.sol\":5369:5375  amount */\n      dup3\n        /* \"Users/yanickwilisky/Library/CloudStorage/GoogleDrive-yanickw@gmail.com/My Drive/09_Programming/FinTech_Workspace/sabot3/Contracts/MoneyToCurve.sol\":5331:5341  stablecoin */\n      dup6\n        /* \"Users/yanickwilisky/Library/CloudStorage/GoogleDrive-yanickw@gmail.com/My Drive/09_Programming/FinTech_Workspace/sabot3/Contracts/MoneyToCurve.sol\":5331:5354  stablecoin.safeTransfer */\n      0xffffffffffffffffffffffffffffffffffffffff\n      and\n      tag_111\n      swap1\n        /* \"Users/yanickwilisky/Library/CloudStorage/GoogleDrive-yanickw@gmail.com/My Drive/09_Programming/FinTech_Workspace/sabot3/Contracts/MoneyToCurve.sol\":5331:5376  stablecoin.safeTransfer(_msgSender(), amount) */\n      swap3\n      swap2\n      swap1\n      0xffffffff\n      and\n      jump\t// in\n    tag_182:\n        /* \"Users/yanickwilisky/Library/CloudStorage/GoogleDrive-yanickw@gmail.com/My Drive/09_Programming/FinTech_Workspace/sabot3/Contracts/MoneyToCurve.sol\":5049:5387  for (i = 0; i <  stablecoins.length; i++){... */\n      pop\n      pop\n      pop\n        /* \"Users/yanickwilisky/Library/CloudStorage/GoogleDrive-yanickw@gmail.com/My Drive/09_Programming/FinTech_Workspace/sabot3/Contracts/MoneyToCurve.sol\":5086:5089  i++ */\n      dup3\n      dup1\n      0x01\n      add\n      swap4\n      pop\n      pop\n        /* \"Users/yanickwilisky/Library/CloudStorage/GoogleDrive-yanickw@gmail.com/My Drive/09_Programming/FinTech_Workspace/sabot3/Contracts/MoneyToCurve.sol\":5049:5387  for (i = 0; i <  stablecoins.length; i++){... */\n      jump(tag_171)\n    tag_172:\n        /* \"Users/yanickwilisky/Library/CloudStorage/GoogleDrive-yanickw@gmail.com/My Drive/09_Programming/FinTech_Workspace/sabot3/Contracts/MoneyToCurve.sol\":3941:5393  function multiStepWithdraw(uint256[4] memory _amounts) public {... */\n      pop\n      pop\n      pop\n      pop\n      pop\n      pop\n      jump\t// out\n        /* \"Users/yanickwilisky/Library/CloudStorage/GoogleDrive-yanickw@gmail.com/My Drive/09_Programming/FinTech_Workspace/sabot3/Contracts/MoneyToCurve.sol\":5482:5621  function curveLPTokenStaked() public view returns(uint256) {... */\n    tag_42:\n        /* \"Users/yanickwilisky/Library/CloudStorage/GoogleDrive-yanickw@gmail.com/My Drive/09_Programming/FinTech_Workspace/sabot3/Contracts/MoneyToCurve.sol\":5532:5539  uint256 */\n      0x00\n        /* \"Users/yanickwilisky/Library/CloudStorage/GoogleDrive-yanickw@gmail.com/My Drive/09_Programming/FinTech_Workspace/sabot3/Contracts/MoneyToCurve.sol\":5573:5588  curveFi_LPGauge */\n      0x37\n      0x00\n      swap1\n      sload\n      swap1\n      0x0100\n      exp\n      swap1\n      div\n      0xffffffffffffffffffffffffffffffffffffffff\n      and\n        /* \"Users/yanickwilisky/Library/CloudStorage/GoogleDrive-yanickw@gmail.com/My Drive/09_Programming/FinTech_Workspace/sabot3/Contracts/MoneyToCurve.sol\":5558:5599  ICurveFi_Gauge(curveFi_LPGauge).balanceOf */\n      0xffffffffffffffffffffffffffffffffffffffff\n      and\n      0x70a08231\n        /* \"Users/yanickwilisky/Library/CloudStorage/GoogleDrive-yanickw@gmail.com/My Drive/09_Programming/FinTech_Workspace/sabot3/Contracts/MoneyToCurve.sol\":5608:5612  this */\n      address\n        /* \"Users/yanickwilisky/Library/CloudStorage/GoogleDrive-yanickw@gmail.com/My Drive/09_Programming/FinTech_Workspace/sabot3/Contracts/MoneyToCurve.sol\":5558:5614  ICurveFi_Gauge(curveFi_LPGauge).balanceOf(address(this)) */\n      mload(0x40)\n      dup3\n      0xffffffff\n      and\n      0xe0\n      shl\n      dup2\n      mstore\n      0x04\n      add\n      dup1\n      dup3\n      0xffffffffffffffffffffffffffffffffffffffff\n      and\n      0xffffffffffffffffffffffffffffffffffffffff\n      and\n      dup2\n      mstore\n      0x20\n      add\n      swap2\n      pop\n      pop\n      0x20\n      mload(0x40)\n      dup1\n      dup4\n      sub\n      dup2\n      dup7\n      dup1\n      extcodesize\n      iszero\n        /* \"--CODEGEN--\":8:17   */\n      dup1\n        /* \"--CODEGEN--\":5:7   */\n      iszero\n      tag_185\n      jumpi\n        /* \"--CODEGEN--\":30:31   */\n      0x00\n        /* \"--CODEGEN--\":27:28   */\n      dup1\n        /* \"--CODEGEN--\":20:32   */\n      revert\n        /* \"--CODEGEN--\":5:7   */\n    tag_185:\n        /* \"Users/yanickwilisky/Library/CloudStorage/GoogleDrive-yanickw@gmail.com/My Drive/09_Programming/FinTech_Workspace/sabot3/Contracts/MoneyToCurve.sol\":5558:5614  ICurveFi_Gauge(curveFi_LPGauge).balanceOf(address(this)) */\n      pop\n      gas\n      staticcall\n      iszero\n        /* \"--CODEGEN--\":8:17   */\n      dup1\n        /* \"--CODEGEN--\":5:7   */\n      iszero\n      tag_186\n      jumpi\n        /* \"--CODEGEN--\":45:61   */\n      returndatasize\n        /* \"--CODEGEN--\":42:43   */\n      0x00\n        /* \"--CODEGEN--\":39:40   */\n      dup1\n        /* \"--CODEGEN--\":24:62   */\n      returndatacopy\n        /* \"--CODEGEN--\":77:93   */\n      returndatasize\n        /* \"--CODEGEN--\":74:75   */\n      0x00\n        /* \"--CODEGEN--\":67:94   */\n      revert\n        /* \"--CODEGEN--\":5:7   */\n    tag_186:\n        /* \"Users/yanickwilisky/Library/CloudStorage/GoogleDrive-yanickw@gmail.com/My Drive/09_Programming/FinTech_Workspace/sabot3/Contracts/MoneyToCurve.sol\":5558:5614  ICurveFi_Gauge(curveFi_LPGauge).balanceOf(address(this)) */\n      pop\n      pop\n      pop\n      pop\n      mload(0x40)\n      returndatasize\n        /* \"--CODEGEN--\":13:15   */\n      0x20\n        /* \"--CODEGEN--\":8:11   */\n      dup2\n        /* \"--CODEGEN--\":5:16   */\n      lt\n        /* \"--CODEGEN--\":2:4   */\n      iszero\n      tag_187\n      jumpi\n        /* \"--CODEGEN--\":29:30   */\n      0x00\n        /* \"--CODEGEN--\":26:27   */\n      dup1\n        /* \"--CODEGEN--\":19:31   */\n      revert\n        /* \"--CODEGEN--\":2:4   */\n    tag_187:\n        /* \"Users/yanickwilisky/Library/CloudStorage/GoogleDrive-yanickw@gmail.com/My Drive/09_Programming/FinTech_Workspace/sabot3/Contracts/MoneyToCurve.sol\":5558:5614  ICurveFi_Gauge(curveFi_LPGauge).balanceOf(address(this)) */\n      dup2\n      add\n      swap1\n      dup1\n      dup1\n      mload\n      swap1\n      0x20\n      add\n      swap1\n      swap3\n      swap2\n      swap1\n      pop\n      pop\n      pop\n        /* \"Users/yanickwilisky/Library/CloudStorage/GoogleDrive-yanickw@gmail.com/My Drive/09_Programming/FinTech_Workspace/sabot3/Contracts/MoneyToCurve.sol\":5551:5614  return ICurveFi_Gauge(curveFi_LPGauge).balanceOf(address(this)) */\n      swap1\n      pop\n        /* \"Users/yanickwilisky/Library/CloudStorage/GoogleDrive-yanickw@gmail.com/My Drive/09_Programming/FinTech_Workspace/sabot3/Contracts/MoneyToCurve.sol\":5482:5621  function curveLPTokenStaked() public view returns(uint256) {... */\n      swap1\n      jump\t// out\n        /* \"Users/yanickwilisky/Library/CloudStorage/GoogleDrive-yanickw@gmail.com/My Drive/09_Programming/FinTech_Workspace/sabot3/Contracts/MoneyToCurve.sol\":8027:8419  function normalizedBalance() public view returns(uint256) {... */\n    tag_44:\n        /* \"Users/yanickwilisky/Library/CloudStorage/GoogleDrive-yanickw@gmail.com/My Drive/09_Programming/FinTech_Workspace/sabot3/Contracts/MoneyToCurve.sol\":8076:8083  uint256 */\n      0x00\n        /* \"Users/yanickwilisky/Library/CloudStorage/GoogleDrive-yanickw@gmail.com/My Drive/09_Programming/FinTech_Workspace/sabot3/Contracts/MoneyToCurve.sol\":8095:8124  address[4] memory stablecoins */\n      tag_189\n      tag_76\n      jump\t// in\n    tag_189:\n        /* \"Users/yanickwilisky/Library/CloudStorage/GoogleDrive-yanickw@gmail.com/My Drive/09_Programming/FinTech_Workspace/sabot3/Contracts/MoneyToCurve.sol\":8145:8160  curveFi_Deposit */\n      0x34\n      0x00\n      swap1\n      sload\n      swap1\n      0x0100\n      exp\n      swap1\n      div\n      0xffffffffffffffffffffffffffffffffffffffff\n      and\n        /* \"Users/yanickwilisky/Library/CloudStorage/GoogleDrive-yanickw@gmail.com/My Drive/09_Programming/FinTech_Workspace/sabot3/Contracts/MoneyToCurve.sol\":8127:8178  ICurveFi_DepositY(curveFi_Deposit).underlying_coins */\n      0xffffffffffffffffffffffffffffffffffffffff\n      and\n      0xfb6d3a89\n        /* \"Users/yanickwilisky/Library/CloudStorage/GoogleDrive-yanickw@gmail.com/My Drive/09_Programming/FinTech_Workspace/sabot3/Contracts/MoneyToCurve.sol\":8127:8180  ICurveFi_DepositY(curveFi_Deposit).underlying_coins() */\n      mload(0x40)\n      dup2\n      0xffffffff\n      and\n      0xe0\n      shl\n      dup2\n      mstore\n      0x04\n      add\n      0x80\n      mload(0x40)\n      dup1\n      dup4\n      sub\n      dup2\n      dup7\n      dup1\n      extcodesize\n      iszero\n        /* \"--CODEGEN--\":8:17   */\n      dup1\n        /* \"--CODEGEN--\":5:7   */\n      iszero\n      tag_190\n      jumpi\n        /* \"--CODEGEN--\":30:31   */\n      0x00\n        /* \"--CODEGEN--\":27:28   */\n      dup1\n        /* \"--CODEGEN--\":20:32   */\n      revert\n        /* \"--CODEGEN--\":5:7   */\n    tag_190:\n        /* \"Users/yanickwilisky/Library/CloudStorage/GoogleDrive-yanickw@gmail.com/My Drive/09_Programming/FinTech_Workspace/sabot3/Contracts/MoneyToCurve.sol\":8127:8180  ICurveFi_DepositY(curveFi_Deposit).underlying_coins() */\n      pop\n      gas\n      staticcall\n      iszero\n        /* \"--CODEGEN--\":8:17   */\n      dup1\n        /* \"--CODEGEN--\":5:7   */\n      iszero\n      tag_191\n      jumpi\n        /* \"--CODEGEN--\":45:61   */\n      returndatasize\n        /* \"--CODEGEN--\":42:43   */\n      0x00\n        /* \"--CODEGEN--\":39:40   */\n      dup1\n        /* \"--CODEGEN--\":24:62   */\n      returndatacopy\n        /* \"--CODEGEN--\":77:93   */\n      returndatasize\n        /* \"--CODEGEN--\":74:75   */\n      0x00\n        /* \"--CODEGEN--\":67:94   */\n      revert\n        /* \"--CODEGEN--\":5:7   */\n    tag_191:\n        /* \"Users/yanickwilisky/Library/CloudStorage/GoogleDrive-yanickw@gmail.com/My Drive/09_Programming/FinTech_Workspace/sabot3/Contracts/MoneyToCurve.sol\":8127:8180  ICurveFi_DepositY(curveFi_Deposit).underlying_coins() */\n      pop\n      pop\n      pop\n      pop\n      mload(0x40)\n      returndatasize\n        /* \"--CODEGEN--\":101:105   */\n      0x1f\n        /* \"--CODEGEN--\":97:106   */\n      not\n        /* \"--CODEGEN--\":90:94   */\n      0x1f\n        /* \"--CODEGEN--\":84:88   */\n      dup3\n        /* \"--CODEGEN--\":80:95   */\n      add\n        /* \"--CODEGEN--\":76:107   */\n      and\n        /* \"--CODEGEN--\":69:74   */\n      dup3\n        /* \"--CODEGEN--\":65:108   */\n      add\n        /* \"--CODEGEN--\":126:132   */\n      dup1\n        /* \"--CODEGEN--\":120:124   */\n      0x40\n        /* \"--CODEGEN--\":113:133   */\n      mstore\n        /* \"--CODEGEN--\":0:138   */\n      pop\n        /* \"--CODEGEN--\":13:16   */\n      0x80\n        /* \"--CODEGEN--\":8:11   */\n      dup2\n        /* \"--CODEGEN--\":5:17   */\n      lt\n        /* \"--CODEGEN--\":2:4   */\n      iszero\n      tag_192\n      jumpi\n        /* \"--CODEGEN--\":30:31   */\n      0x00\n        /* \"--CODEGEN--\":27:28   */\n      dup1\n        /* \"--CODEGEN--\":20:32   */\n      revert\n        /* \"--CODEGEN--\":2:4   */\n    tag_192:\n        /* \"Users/yanickwilisky/Library/CloudStorage/GoogleDrive-yanickw@gmail.com/My Drive/09_Programming/FinTech_Workspace/sabot3/Contracts/MoneyToCurve.sol\":8127:8180  ICurveFi_DepositY(curveFi_Deposit).underlying_coins() */\n      dup2\n      add\n      swap1\n      dup1\n      swap2\n      swap1\n      pop\n      pop\n        /* \"Users/yanickwilisky/Library/CloudStorage/GoogleDrive-yanickw@gmail.com/My Drive/09_Programming/FinTech_Workspace/sabot3/Contracts/MoneyToCurve.sol\":8095:8180  address[4] memory stablecoins = ICurveFi_DepositY(curveFi_Deposit).underlying_coins() */\n      swap1\n      pop\n        /* \"Users/yanickwilisky/Library/CloudStorage/GoogleDrive-yanickw@gmail.com/My Drive/09_Programming/FinTech_Workspace/sabot3/Contracts/MoneyToCurve.sol\":8190:8216  uint256[4] memory balances */\n      tag_193\n      tag_113\n      jump\t// in\n    tag_193:\n        /* \"Users/yanickwilisky/Library/CloudStorage/GoogleDrive-yanickw@gmail.com/My Drive/09_Programming/FinTech_Workspace/sabot3/Contracts/MoneyToCurve.sol\":8219:8233  balanceOfAll() */\n      tag_194\n        /* \"Users/yanickwilisky/Library/CloudStorage/GoogleDrive-yanickw@gmail.com/My Drive/09_Programming/FinTech_Workspace/sabot3/Contracts/MoneyToCurve.sol\":8219:8231  balanceOfAll */\n      tag_34\n        /* \"Users/yanickwilisky/Library/CloudStorage/GoogleDrive-yanickw@gmail.com/My Drive/09_Programming/FinTech_Workspace/sabot3/Contracts/MoneyToCurve.sol\":8219:8233  balanceOfAll() */\n      jump\t// in\n    tag_194:\n        /* \"Users/yanickwilisky/Library/CloudStorage/GoogleDrive-yanickw@gmail.com/My Drive/09_Programming/FinTech_Workspace/sabot3/Contracts/MoneyToCurve.sol\":8190:8233  uint256[4] memory balances = balanceOfAll() */\n      swap1\n      pop\n        /* \"Users/yanickwilisky/Library/CloudStorage/GoogleDrive-yanickw@gmail.com/My Drive/09_Programming/FinTech_Workspace/sabot3/Contracts/MoneyToCurve.sol\":8244:8256  uint256 summ */\n      0x00\n        /* \"Users/yanickwilisky/Library/CloudStorage/GoogleDrive-yanickw@gmail.com/My Drive/09_Programming/FinTech_Workspace/sabot3/Contracts/MoneyToCurve.sol\":8271:8280  uint256 i */\n      dup1\n        /* \"Users/yanickwilisky/Library/CloudStorage/GoogleDrive-yanickw@gmail.com/My Drive/09_Programming/FinTech_Workspace/sabot3/Contracts/MoneyToCurve.sol\":8281:8282  0 */\n      0x00\n        /* \"Users/yanickwilisky/Library/CloudStorage/GoogleDrive-yanickw@gmail.com/My Drive/09_Programming/FinTech_Workspace/sabot3/Contracts/MoneyToCurve.sol\":8271:8282  uint256 i=0 */\n      swap1\n      pop\n        /* \"Users/yanickwilisky/Library/CloudStorage/GoogleDrive-yanickw@gmail.com/My Drive/09_Programming/FinTech_Workspace/sabot3/Contracts/MoneyToCurve.sol\":8266:8392  for (uint256 i=0; i < stablecoins.length; i++){... */\n    tag_195:\n        /* \"Users/yanickwilisky/Library/CloudStorage/GoogleDrive-yanickw@gmail.com/My Drive/09_Programming/FinTech_Workspace/sabot3/Contracts/MoneyToCurve.sol\":8288:8306  stablecoins.length */\n      0x04\n        /* \"Users/yanickwilisky/Library/CloudStorage/GoogleDrive-yanickw@gmail.com/My Drive/09_Programming/FinTech_Workspace/sabot3/Contracts/MoneyToCurve.sol\":8284:8285  i */\n      dup2\n        /* \"Users/yanickwilisky/Library/CloudStorage/GoogleDrive-yanickw@gmail.com/My Drive/09_Programming/FinTech_Workspace/sabot3/Contracts/MoneyToCurve.sol\":8284:8306  i < stablecoins.length */\n      lt\n        /* \"Users/yanickwilisky/Library/CloudStorage/GoogleDrive-yanickw@gmail.com/My Drive/09_Programming/FinTech_Workspace/sabot3/Contracts/MoneyToCurve.sol\":8266:8392  for (uint256 i=0; i < stablecoins.length; i++){... */\n      iszero\n      tag_196\n      jumpi\n        /* \"Users/yanickwilisky/Library/CloudStorage/GoogleDrive-yanickw@gmail.com/My Drive/09_Programming/FinTech_Workspace/sabot3/Contracts/MoneyToCurve.sol\":8333:8381  summ.add(normalize(stablecoins[i], balances[i])) */\n      tag_198\n        /* \"Users/yanickwilisky/Library/CloudStorage/GoogleDrive-yanickw@gmail.com/My Drive/09_Programming/FinTech_Workspace/sabot3/Contracts/MoneyToCurve.sol\":8342:8380  normalize(stablecoins[i], balances[i]) */\n      tag_199\n        /* \"Users/yanickwilisky/Library/CloudStorage/GoogleDrive-yanickw@gmail.com/My Drive/09_Programming/FinTech_Workspace/sabot3/Contracts/MoneyToCurve.sol\":8352:8363  stablecoins */\n      dup6\n        /* \"Users/yanickwilisky/Library/CloudStorage/GoogleDrive-yanickw@gmail.com/My Drive/09_Programming/FinTech_Workspace/sabot3/Contracts/MoneyToCurve.sol\":8364:8365  i */\n      dup4\n        /* \"Users/yanickwilisky/Library/CloudStorage/GoogleDrive-yanickw@gmail.com/My Drive/09_Programming/FinTech_Workspace/sabot3/Contracts/MoneyToCurve.sol\":8352:8366  stablecoins[i] */\n      0x04\n      dup2\n      lt\n      tag_200\n      jumpi\n      invalid\n    tag_200:\n      0x20\n      mul\n      add\n      mload\n        /* \"Users/yanickwilisky/Library/CloudStorage/GoogleDrive-yanickw@gmail.com/My Drive/09_Programming/FinTech_Workspace/sabot3/Contracts/MoneyToCurve.sol\":8368:8376  balances */\n      dup6\n        /* \"Users/yanickwilisky/Library/CloudStorage/GoogleDrive-yanickw@gmail.com/My Drive/09_Programming/FinTech_Workspace/sabot3/Contracts/MoneyToCurve.sol\":8377:8378  i */\n      dup5\n        /* \"Users/yanickwilisky/Library/CloudStorage/GoogleDrive-yanickw@gmail.com/My Drive/09_Programming/FinTech_Workspace/sabot3/Contracts/MoneyToCurve.sol\":8368:8379  balances[i] */\n      0x04\n      dup2\n      lt\n      tag_201\n      jumpi\n      invalid\n    tag_201:\n      0x20\n      mul\n      add\n      mload\n        /* \"Users/yanickwilisky/Library/CloudStorage/GoogleDrive-yanickw@gmail.com/My Drive/09_Programming/FinTech_Workspace/sabot3/Contracts/MoneyToCurve.sol\":8342:8351  normalize */\n      tag_155\n        /* \"Users/yanickwilisky/Library/CloudStorage/GoogleDrive-yanickw@gmail.com/My Drive/09_Programming/FinTech_Workspace/sabot3/Contracts/MoneyToCurve.sol\":8342:8380  normalize(stablecoins[i], balances[i]) */\n      jump\t// in\n    tag_199:\n        /* \"Users/yanickwilisky/Library/CloudStorage/GoogleDrive-yanickw@gmail.com/My Drive/09_Programming/FinTech_Workspace/sabot3/Contracts/MoneyToCurve.sol\":8333:8337  summ */\n      dup4\n        /* \"Users/yanickwilisky/Library/CloudStorage/GoogleDrive-yanickw@gmail.com/My Drive/09_Programming/FinTech_Workspace/sabot3/Contracts/MoneyToCurve.sol\":8333:8341  summ.add */\n      tag_156\n      swap1\n        /* \"Users/yanickwilisky/Library/CloudStorage/GoogleDrive-yanickw@gmail.com/My Drive/09_Programming/FinTech_Workspace/sabot3/Contracts/MoneyToCurve.sol\":8333:8381  summ.add(normalize(stablecoins[i], balances[i])) */\n      swap2\n      swap1\n      0xffffffff\n      and\n      jump\t// in\n    tag_198:\n        /* \"Users/yanickwilisky/Library/CloudStorage/GoogleDrive-yanickw@gmail.com/My Drive/09_Programming/FinTech_Workspace/sabot3/Contracts/MoneyToCurve.sol\":8326:8381  summ = summ.add(normalize(stablecoins[i], balances[i])) */\n      swap2\n      pop\n        /* \"Users/yanickwilisky/Library/CloudStorage/GoogleDrive-yanickw@gmail.com/My Drive/09_Programming/FinTech_Workspace/sabot3/Contracts/MoneyToCurve.sol\":8308:8311  i++ */\n      dup1\n      dup1\n      0x01\n      add\n      swap2\n      pop\n      pop\n        /* \"Users/yanickwilisky/Library/CloudStorage/GoogleDrive-yanickw@gmail.com/My Drive/09_Programming/FinTech_Workspace/sabot3/Contracts/MoneyToCurve.sol\":8266:8392  for (uint256 i=0; i < stablecoins.length; i++){... */\n      jump(tag_195)\n    tag_196:\n      pop\n        /* \"Users/yanickwilisky/Library/CloudStorage/GoogleDrive-yanickw@gmail.com/My Drive/09_Programming/FinTech_Workspace/sabot3/Contracts/MoneyToCurve.sol\":8408:8412  summ */\n      dup1\n        /* \"Users/yanickwilisky/Library/CloudStorage/GoogleDrive-yanickw@gmail.com/My Drive/09_Programming/FinTech_Workspace/sabot3/Contracts/MoneyToCurve.sol\":8401:8412  return summ */\n      swap4\n      pop\n      pop\n      pop\n      pop\n        /* \"Users/yanickwilisky/Library/CloudStorage/GoogleDrive-yanickw@gmail.com/My Drive/09_Programming/FinTech_Workspace/sabot3/Contracts/MoneyToCurve.sol\":8027:8419  function normalizedBalance() public view returns(uint256) {... */\n      swap1\n      jump\t// out\n        /* \"https://github.com/OpenZeppelin/openzeppelin-contracts/blob/release-v2.5.0/contracts/ownership/Ownable.sol\":1684:1821  function renounceOwnership() public onlyOwner {... */\n    tag_46:\n        /* \"https://github.com/OpenZeppelin/openzeppelin-contracts/blob/release-v2.5.0/contracts/ownership/Ownable.sol\":1103:1112  isOwner() */\n      tag_203\n        /* \"https://github.com/OpenZeppelin/openzeppelin-contracts/blob/release-v2.5.0/contracts/ownership/Ownable.sol\":1103:1110  isOwner */\n      tag_57\n        /* \"https://github.com/OpenZeppelin/openzeppelin-contracts/blob/release-v2.5.0/contracts/ownership/Ownable.sol\":1103:1112  isOwner() */\n      jump\t// in\n    tag_203:\n        /* \"https://github.com/OpenZeppelin/openzeppelin-contracts/blob/release-v2.5.0/contracts/ownership/Ownable.sol\":1095:1149  require(isOwner(), \"Ownable: caller is not the owner\") */\n      tag_204\n      jumpi\n      mload(0x40)\n      0x08c379a000000000000000000000000000000000000000000000000000000000\n      dup2\n      mstore\n      0x04\n      add\n      dup1\n      dup1\n      0x20\n      add\n      dup3\n      dup2\n      sub\n      dup3\n      mstore\n      0x20\n      dup2\n      mstore\n      0x20\n      add\n      dup1\n      0x4f776e61626c653a2063616c6c6572206973206e6f7420746865206f776e6572\n      dup2\n      mstore\n      pop\n      0x20\n      add\n      swap2\n      pop\n      pop\n      mload(0x40)\n      dup1\n      swap2\n      sub\n      swap1\n      revert\n    tag_204:\n        /* \"https://github.com/OpenZeppelin/openzeppelin-contracts/blob/release-v2.5.0/contracts/ownership/Ownable.sol\":1782:1783  0 */\n      0x00\n        /* \"https://github.com/OpenZeppelin/openzeppelin-contracts/blob/release-v2.5.0/contracts/ownership/Ownable.sol\":1745:1785  OwnershipTransferred(_owner, address(0)) */\n      0xffffffffffffffffffffffffffffffffffffffff\n      and\n        /* \"https://github.com/OpenZeppelin/openzeppelin-contracts/blob/release-v2.5.0/contracts/ownership/Ownable.sol\":1766:1772  _owner */\n      0x33\n      0x00\n      swap1\n      sload\n      swap1\n      0x0100\n      exp\n      swap1\n      div\n      0xffffffffffffffffffffffffffffffffffffffff\n      and\n        /* \"https://github.com/OpenZeppelin/openzeppelin-contracts/blob/release-v2.5.0/contracts/ownership/Ownable.sol\":1745:1785  OwnershipTransferred(_owner, address(0)) */\n      0xffffffffffffffffffffffffffffffffffffffff\n      and\n      0x8be0079c531659141344cd1fd0a4f28419497f9722a3daafe3b4186f6b6457e0\n      mload(0x40)\n      mload(0x40)\n      dup1\n      swap2\n      sub\n      swap1\n      log3\n        /* \"https://github.com/OpenZeppelin/openzeppelin-contracts/blob/release-v2.5.0/contracts/ownership/Ownable.sol\":1812:1813  0 */\n      0x00\n        /* \"https://github.com/OpenZeppelin/openzeppelin-contracts/blob/release-v2.5.0/contracts/ownership/Ownable.sol\":1795:1801  _owner */\n      0x33\n      0x00\n        /* \"https://github.com/OpenZeppelin/openzeppelin-contracts/blob/release-v2.5.0/contracts/ownership/Ownable.sol\":1795:1814  _owner = address(0) */\n      0x0100\n      exp\n      dup2\n      sload\n      dup2\n      0xffffffffffffffffffffffffffffffffffffffff\n      mul\n      not\n      and\n      swap1\n      dup4\n      0xffffffffffffffffffffffffffffffffffffffff\n      and\n      mul\n      or\n      swap1\n      sstore\n      pop\n        /* \"https://github.com/OpenZeppelin/openzeppelin-contracts/blob/release-v2.5.0/contracts/ownership/Ownable.sol\":1684:1821  function renounceOwnership() public onlyOwner {... */\n      jump\t// out\n        /* \"Users/yanickwilisky/Library/CloudStorage/GoogleDrive-yanickw@gmail.com/My Drive/09_Programming/FinTech_Workspace/sabot3/Contracts/MoneyToCurve.sol\":1737:2414  function setup(address _depositContract, address _gaugeContract, address _minterContract) external onlyOwner {... */\n    tag_49:\n        /* \"https://github.com/OpenZeppelin/openzeppelin-contracts/blob/release-v2.5.0/contracts/ownership/Ownable.sol\":1103:1112  isOwner() */\n      tag_207\n        /* \"https://github.com/OpenZeppelin/openzeppelin-contracts/blob/release-v2.5.0/contracts/ownership/Ownable.sol\":1103:1110  isOwner */\n      tag_57\n        /* \"https://github.com/OpenZeppelin/openzeppelin-contracts/blob/release-v2.5.0/contracts/ownership/Ownable.sol\":1103:1112  isOwner() */\n      jump\t// in\n    tag_207:\n        /* \"https://github.com/OpenZeppelin/openzeppelin-contracts/blob/release-v2.5.0/contracts/ownership/Ownable.sol\":1095:1149  require(isOwner(), \"Ownable: caller is not the owner\") */\n      tag_208\n      jumpi\n      mload(0x40)\n      0x08c379a000000000000000000000000000000000000000000000000000000000\n      dup2\n      mstore\n      0x04\n      add\n      dup1\n      dup1\n      0x20\n      add\n      dup3\n      dup2\n      sub\n      dup3\n      mstore\n      0x20\n      dup2\n      mstore\n      0x20\n      add\n      dup1\n      0x4f776e61626c653a2063616c6c6572206973206e6f7420746865206f776e6572\n      dup2\n      mstore\n      pop\n      0x20\n      add\n      swap2\n      pop\n      pop\n      mload(0x40)\n      dup1\n      swap2\n      sub\n      swap1\n      revert\n    tag_208:\n        /* \"Users/yanickwilisky/Library/CloudStorage/GoogleDrive-yanickw@gmail.com/My Drive/09_Programming/FinTech_Workspace/sabot3/Contracts/MoneyToCurve.sol\":1892:1893  0 */\n      0x00\n        /* \"Users/yanickwilisky/Library/CloudStorage/GoogleDrive-yanickw@gmail.com/My Drive/09_Programming/FinTech_Workspace/sabot3/Contracts/MoneyToCurve.sol\":1864:1894  _depositContract != address(0) */\n      0xffffffffffffffffffffffffffffffffffffffff\n      and\n        /* \"Users/yanickwilisky/Library/CloudStorage/GoogleDrive-yanickw@gmail.com/My Drive/09_Programming/FinTech_Workspace/sabot3/Contracts/MoneyToCurve.sol\":1864:1880  _depositContract */\n      dup4\n        /* \"Users/yanickwilisky/Library/CloudStorage/GoogleDrive-yanickw@gmail.com/My Drive/09_Programming/FinTech_Workspace/sabot3/Contracts/MoneyToCurve.sol\":1864:1894  _depositContract != address(0) */\n      0xffffffffffffffffffffffffffffffffffffffff\n      and\n      eq\n      iszero\n        /* \"Users/yanickwilisky/Library/CloudStorage/GoogleDrive-yanickw@gmail.com/My Drive/09_Programming/FinTech_Workspace/sabot3/Contracts/MoneyToCurve.sol\":1856:1933  require(_depositContract != address(0), \"Incorrect deposit contract address\") */\n      tag_210\n      jumpi\n      mload(0x40)\n      0x08c379a000000000000000000000000000000000000000000000000000000000\n      dup2\n      mstore\n      0x04\n      add\n      dup1\n      dup1\n      0x20\n      add\n      dup3\n      dup2\n      sub\n      dup3\n      mstore\n      0x22\n      dup2\n      mstore\n      0x20\n      add\n      dup1\n      data_02c2cde26d907edef0275dd60c1d3730b459d629aea5e0144e75833e4ac66b41\n      0x22\n      swap2\n      codecopy\n      0x40\n      add\n      swap2\n      pop\n      pop\n      mload(0x40)\n      dup1\n      swap2\n      sub\n      swap1\n      revert\n    tag_210:\n        /* \"Users/yanickwilisky/Library/CloudStorage/GoogleDrive-yanickw@gmail.com/My Drive/09_Programming/FinTech_Workspace/sabot3/Contracts/MoneyToCurve.sol\":1962:1978  _depositContract */\n      dup3\n        /* \"Users/yanickwilisky/Library/CloudStorage/GoogleDrive-yanickw@gmail.com/My Drive/09_Programming/FinTech_Workspace/sabot3/Contracts/MoneyToCurve.sol\":1944:1959  curveFi_Deposit */\n      0x34\n      0x00\n        /* \"Users/yanickwilisky/Library/CloudStorage/GoogleDrive-yanickw@gmail.com/My Drive/09_Programming/FinTech_Workspace/sabot3/Contracts/MoneyToCurve.sol\":1944:1978  curveFi_Deposit = _depositContract */\n      0x0100\n      exp\n      dup2\n      sload\n      dup2\n      0xffffffffffffffffffffffffffffffffffffffff\n      mul\n      not\n      and\n      swap1\n      dup4\n      0xffffffffffffffffffffffffffffffffffffffff\n      and\n      mul\n      or\n      swap1\n      sstore\n      pop\n        /* \"Users/yanickwilisky/Library/CloudStorage/GoogleDrive-yanickw@gmail.com/My Drive/09_Programming/FinTech_Workspace/sabot3/Contracts/MoneyToCurve.sol\":2021:2036  curveFi_Deposit */\n      0x34\n      0x00\n      swap1\n      sload\n      swap1\n      0x0100\n      exp\n      swap1\n      div\n      0xffffffffffffffffffffffffffffffffffffffff\n      and\n        /* \"Users/yanickwilisky/Library/CloudStorage/GoogleDrive-yanickw@gmail.com/My Drive/09_Programming/FinTech_Workspace/sabot3/Contracts/MoneyToCurve.sol\":2003:2043  ICurveFi_DepositY(curveFi_Deposit).curve */\n      0xffffffffffffffffffffffffffffffffffffffff\n      and\n      0x7165485d\n        /* \"Users/yanickwilisky/Library/CloudStorage/GoogleDrive-yanickw@gmail.com/My Drive/09_Programming/FinTech_Workspace/sabot3/Contracts/MoneyToCurve.sol\":2003:2045  ICurveFi_DepositY(curveFi_Deposit).curve() */\n      mload(0x40)\n      dup2\n      0xffffffff\n      and\n      0xe0\n      shl\n      dup2\n      mstore\n      0x04\n      add\n      0x20\n      mload(0x40)\n      dup1\n      dup4\n      sub\n      dup2\n      dup7\n      dup1\n      extcodesize\n      iszero\n        /* \"--CODEGEN--\":8:17   */\n      dup1\n        /* \"--CODEGEN--\":5:7   */\n      iszero\n      tag_211\n      jumpi\n        /* \"--CODEGEN--\":30:31   */\n      0x00\n        /* \"--CODEGEN--\":27:28   */\n      dup1\n        /* \"--CODEGEN--\":20:32   */\n      revert\n        /* \"--CODEGEN--\":5:7   */\n    tag_211:\n        /* \"Users/yanickwilisky/Library/CloudStorage/GoogleDrive-yanickw@gmail.com/My Drive/09_Programming/FinTech_Workspace/sabot3/Contracts/MoneyToCurve.sol\":2003:2045  ICurveFi_DepositY(curveFi_Deposit).curve() */\n      pop\n      gas\n      staticcall\n      iszero\n        /* \"--CODEGEN--\":8:17   */\n      dup1\n        /* \"--CODEGEN--\":5:7   */\n      iszero\n      tag_212\n      jumpi\n        /* \"--CODEGEN--\":45:61   */\n      returndatasize\n        /* \"--CODEGEN--\":42:43   */\n      0x00\n        /* \"--CODEGEN--\":39:40   */\n      dup1\n        /* \"--CODEGEN--\":24:62   */\n      returndatacopy\n        /* \"--CODEGEN--\":77:93   */\n      returndatasize\n        /* \"--CODEGEN--\":74:75   */\n      0x00\n        /* \"--CODEGEN--\":67:94   */\n      revert\n        /* \"--CODEGEN--\":5:7   */\n    tag_212:\n        /* \"Users/yanickwilisky/Library/CloudStorage/GoogleDrive-yanickw@gmail.com/My Drive/09_Programming/FinTech_Workspace/sabot3/Contracts/MoneyToCurve.sol\":2003:2045  ICurveFi_DepositY(curveFi_Deposit).curve() */\n      pop\n      pop\n      pop\n      pop\n      mload(0x40)\n      returndatasize\n        /* \"--CODEGEN--\":13:15   */\n      0x20\n        /* \"--CODEGEN--\":8:11   */\n      dup2\n        /* \"--CODEGEN--\":5:16   */\n      lt\n        /* \"--CODEGEN--\":2:4   */\n      iszero\n      tag_213\n      jumpi\n        /* \"--CODEGEN--\":29:30   */\n      0x00\n        /* \"--CODEGEN--\":26:27   */\n      dup1\n        /* \"--CODEGEN--\":19:31   */\n      revert\n        /* \"--CODEGEN--\":2:4   */\n    tag_213:\n        /* \"Users/yanickwilisky/Library/CloudStorage/GoogleDrive-yanickw@gmail.com/My Drive/09_Programming/FinTech_Workspace/sabot3/Contracts/MoneyToCurve.sol\":2003:2045  ICurveFi_DepositY(curveFi_Deposit).curve() */\n      dup2\n      add\n      swap1\n      dup1\n      dup1\n      mload\n      swap1\n      0x20\n      add\n      swap1\n      swap3\n      swap2\n      swap1\n      pop\n      pop\n      pop\n        /* \"Users/yanickwilisky/Library/CloudStorage/GoogleDrive-yanickw@gmail.com/My Drive/09_Programming/FinTech_Workspace/sabot3/Contracts/MoneyToCurve.sol\":1988:2000  curveFi_Swap */\n      0x35\n      0x00\n        /* \"Users/yanickwilisky/Library/CloudStorage/GoogleDrive-yanickw@gmail.com/My Drive/09_Programming/FinTech_Workspace/sabot3/Contracts/MoneyToCurve.sol\":1988:2045  curveFi_Swap = ICurveFi_DepositY(curveFi_Deposit).curve() */\n      0x0100\n      exp\n      dup2\n      sload\n      dup2\n      0xffffffffffffffffffffffffffffffffffffffff\n      mul\n      not\n      and\n      swap1\n      dup4\n      0xffffffffffffffffffffffffffffffffffffffff\n      and\n      mul\n      or\n      swap1\n      sstore\n      pop\n        /* \"Users/yanickwilisky/Library/CloudStorage/GoogleDrive-yanickw@gmail.com/My Drive/09_Programming/FinTech_Workspace/sabot3/Contracts/MoneyToCurve.sol\":2073:2087  _gaugeContract */\n      dup2\n        /* \"Users/yanickwilisky/Library/CloudStorage/GoogleDrive-yanickw@gmail.com/My Drive/09_Programming/FinTech_Workspace/sabot3/Contracts/MoneyToCurve.sol\":2055:2070  curveFi_LPGauge */\n      0x37\n      0x00\n        /* \"Users/yanickwilisky/Library/CloudStorage/GoogleDrive-yanickw@gmail.com/My Drive/09_Programming/FinTech_Workspace/sabot3/Contracts/MoneyToCurve.sol\":2055:2087  curveFi_LPGauge = _gaugeContract */\n      0x0100\n      exp\n      dup2\n      sload\n      dup2\n      0xffffffffffffffffffffffffffffffffffffffff\n      mul\n      not\n      and\n      swap1\n      dup4\n      0xffffffffffffffffffffffffffffffffffffffff\n      and\n      mul\n      or\n      swap1\n      sstore\n      pop\n        /* \"Users/yanickwilisky/Library/CloudStorage/GoogleDrive-yanickw@gmail.com/My Drive/09_Programming/FinTech_Workspace/sabot3/Contracts/MoneyToCurve.sol\":2133:2148  curveFi_Deposit */\n      0x34\n      0x00\n      swap1\n      sload\n      swap1\n      0x0100\n      exp\n      swap1\n      div\n      0xffffffffffffffffffffffffffffffffffffffff\n      and\n        /* \"Users/yanickwilisky/Library/CloudStorage/GoogleDrive-yanickw@gmail.com/My Drive/09_Programming/FinTech_Workspace/sabot3/Contracts/MoneyToCurve.sol\":2115:2155  ICurveFi_DepositY(curveFi_Deposit).token */\n      0xffffffffffffffffffffffffffffffffffffffff\n      and\n      0xfc0c546a\n        /* \"Users/yanickwilisky/Library/CloudStorage/GoogleDrive-yanickw@gmail.com/My Drive/09_Programming/FinTech_Workspace/sabot3/Contracts/MoneyToCurve.sol\":2115:2157  ICurveFi_DepositY(curveFi_Deposit).token() */\n      mload(0x40)\n      dup2\n      0xffffffff\n      and\n      0xe0\n      shl\n      dup2\n      mstore\n      0x04\n      add\n      0x20\n      mload(0x40)\n      dup1\n      dup4\n      sub\n      dup2\n      dup7\n      dup1\n      extcodesize\n      iszero\n        /* \"--CODEGEN--\":8:17   */\n      dup1\n        /* \"--CODEGEN--\":5:7   */\n      iszero\n      tag_214\n      jumpi\n        /* \"--CODEGEN--\":30:31   */\n      0x00\n        /* \"--CODEGEN--\":27:28   */\n      dup1\n        /* \"--CODEGEN--\":20:32   */\n      revert\n        /* \"--CODEGEN--\":5:7   */\n    tag_214:\n        /* \"Users/yanickwilisky/Library/CloudStorage/GoogleDrive-yanickw@gmail.com/My Drive/09_Programming/FinTech_Workspace/sabot3/Contracts/MoneyToCurve.sol\":2115:2157  ICurveFi_DepositY(curveFi_Deposit).token() */\n      pop\n      gas\n      staticcall\n      iszero\n        /* \"--CODEGEN--\":8:17   */\n      dup1\n        /* \"--CODEGEN--\":5:7   */\n      iszero\n      tag_215\n      jumpi\n        /* \"--CODEGEN--\":45:61   */\n      returndatasize\n        /* \"--CODEGEN--\":42:43   */\n      0x00\n        /* \"--CODEGEN--\":39:40   */\n      dup1\n        /* \"--CODEGEN--\":24:62   */\n      returndatacopy\n        /* \"--CODEGEN--\":77:93   */\n      returndatasize\n        /* \"--CODEGEN--\":74:75   */\n      0x00\n        /* \"--CODEGEN--\":67:94   */\n      revert\n        /* \"--CODEGEN--\":5:7   */\n    tag_215:\n        /* \"Users/yanickwilisky/Library/CloudStorage/GoogleDrive-yanickw@gmail.com/My Drive/09_Programming/FinTech_Workspace/sabot3/Contracts/MoneyToCurve.sol\":2115:2157  ICurveFi_DepositY(curveFi_Deposit).token() */\n      pop\n      pop\n      pop\n      pop\n      mload(0x40)\n      returndatasize\n        /* \"--CODEGEN--\":13:15   */\n      0x20\n        /* \"--CODEGEN--\":8:11   */\n      dup2\n        /* \"--CODEGEN--\":5:16   */\n      lt\n        /* \"--CODEGEN--\":2:4   */\n      iszero\n      tag_216\n      jumpi\n        /* \"--CODEGEN--\":29:30   */\n      0x00\n        /* \"--CODEGEN--\":26:27   */\n      dup1\n        /* \"--CODEGEN--\":19:31   */\n      revert\n        /* \"--CODEGEN--\":2:4   */\n    tag_216:\n        /* \"Users/yanickwilisky/Library/CloudStorage/GoogleDrive-yanickw@gmail.com/My Drive/09_Programming/FinTech_Workspace/sabot3/Contracts/MoneyToCurve.sol\":2115:2157  ICurveFi_DepositY(curveFi_Deposit).token() */\n      dup2\n      add\n      swap1\n      dup1\n      dup1\n      mload\n      swap1\n      0x20\n      add\n      swap1\n      swap3\n      swap2\n      swap1\n      pop\n      pop\n      pop\n        /* \"Users/yanickwilisky/Library/CloudStorage/GoogleDrive-yanickw@gmail.com/My Drive/09_Programming/FinTech_Workspace/sabot3/Contracts/MoneyToCurve.sol\":2097:2112  curveFi_LPToken */\n      0x36\n      0x00\n        /* \"Users/yanickwilisky/Library/CloudStorage/GoogleDrive-yanickw@gmail.com/My Drive/09_Programming/FinTech_Workspace/sabot3/Contracts/MoneyToCurve.sol\":2097:2157  curveFi_LPToken = ICurveFi_DepositY(curveFi_Deposit).token() */\n      0x0100\n      exp\n      dup2\n      sload\n      dup2\n      0xffffffffffffffffffffffffffffffffffffffff\n      mul\n      not\n      and\n      swap1\n      dup4\n      0xffffffffffffffffffffffffffffffffffffffff\n      and\n      mul\n      or\n      swap1\n      sstore\n      pop\n        /* \"Users/yanickwilisky/Library/CloudStorage/GoogleDrive-yanickw@gmail.com/My Drive/09_Programming/FinTech_Workspace/sabot3/Contracts/MoneyToCurve.sol\":2230:2245  curveFi_LPToken */\n      0x36\n      0x00\n      swap1\n      sload\n      swap1\n      0x0100\n      exp\n      swap1\n      div\n      0xffffffffffffffffffffffffffffffffffffffff\n      and\n        /* \"Users/yanickwilisky/Library/CloudStorage/GoogleDrive-yanickw@gmail.com/My Drive/09_Programming/FinTech_Workspace/sabot3/Contracts/MoneyToCurve.sol\":2176:2246  ICurveFi_Gauge(curveFi_LPGauge).lp_token() == address(curveFi_LPToken) */\n      0xffffffffffffffffffffffffffffffffffffffff\n      and\n        /* \"Users/yanickwilisky/Library/CloudStorage/GoogleDrive-yanickw@gmail.com/My Drive/09_Programming/FinTech_Workspace/sabot3/Contracts/MoneyToCurve.sol\":2191:2206  curveFi_LPGauge */\n      0x37\n      0x00\n      swap1\n      sload\n      swap1\n      0x0100\n      exp\n      swap1\n      div\n      0xffffffffffffffffffffffffffffffffffffffff\n      and\n        /* \"Users/yanickwilisky/Library/CloudStorage/GoogleDrive-yanickw@gmail.com/My Drive/09_Programming/FinTech_Workspace/sabot3/Contracts/MoneyToCurve.sol\":2176:2216  ICurveFi_Gauge(curveFi_LPGauge).lp_token */\n      0xffffffffffffffffffffffffffffffffffffffff\n      and\n      0x82c63066\n        /* \"Users/yanickwilisky/Library/CloudStorage/GoogleDrive-yanickw@gmail.com/My Drive/09_Programming/FinTech_Workspace/sabot3/Contracts/MoneyToCurve.sol\":2176:2218  ICurveFi_Gauge(curveFi_LPGauge).lp_token() */\n      mload(0x40)\n      dup2\n      0xffffffff\n      and\n      0xe0\n      shl\n      dup2\n      mstore\n      0x04\n      add\n      0x20\n      mload(0x40)\n      dup1\n      dup4\n      sub\n      dup2\n      dup7\n      dup1\n      extcodesize\n      iszero\n        /* \"--CODEGEN--\":8:17   */\n      dup1\n        /* \"--CODEGEN--\":5:7   */\n      iszero\n      tag_217\n      jumpi\n        /* \"--CODEGEN--\":30:31   */\n      0x00\n        /* \"--CODEGEN--\":27:28   */\n      dup1\n        /* \"--CODEGEN--\":20:32   */\n      revert\n        /* \"--CODEGEN--\":5:7   */\n    tag_217:\n        /* \"Users/yanickwilisky/Library/CloudStorage/GoogleDrive-yanickw@gmail.com/My Drive/09_Programming/FinTech_Workspace/sabot3/Contracts/MoneyToCurve.sol\":2176:2218  ICurveFi_Gauge(curveFi_LPGauge).lp_token() */\n      pop\n      gas\n      staticcall\n      iszero\n        /* \"--CODEGEN--\":8:17   */\n      dup1\n        /* \"--CODEGEN--\":5:7   */\n      iszero\n      tag_218\n      jumpi\n        /* \"--CODEGEN--\":45:61   */\n      returndatasize\n        /* \"--CODEGEN--\":42:43   */\n      0x00\n        /* \"--CODEGEN--\":39:40   */\n      dup1\n        /* \"--CODEGEN--\":24:62   */\n      returndatacopy\n        /* \"--CODEGEN--\":77:93   */\n      returndatasize\n        /* \"--CODEGEN--\":74:75   */\n      0x00\n        /* \"--CODEGEN--\":67:94   */\n      revert\n        /* \"--CODEGEN--\":5:7   */\n    tag_218:\n        /* \"Users/yanickwilisky/Library/CloudStorage/GoogleDrive-yanickw@gmail.com/My Drive/09_Programming/FinTech_Workspace/sabot3/Contracts/MoneyToCurve.sol\":2176:2218  ICurveFi_Gauge(curveFi_LPGauge).lp_token() */\n      pop\n      pop\n      pop\n      pop\n      mload(0x40)\n      returndatasize\n        /* \"--CODEGEN--\":13:15   */\n      0x20\n        /* \"--CODEGEN--\":8:11   */\n      dup2\n        /* \"--CODEGEN--\":5:16   */\n      lt\n        /* \"--CODEGEN--\":2:4   */\n      iszero\n      tag_219\n      jumpi\n        /* \"--CODEGEN--\":29:30   */\n      0x00\n        /* \"--CODEGEN--\":26:27   */\n      dup1\n        /* \"--CODEGEN--\":19:31   */\n      revert\n        /* \"--CODEGEN--\":2:4   */\n    tag_219:\n        /* \"Users/yanickwilisky/Library/CloudStorage/GoogleDrive-yanickw@gmail.com/My Drive/09_Programming/FinTech_Workspace/sabot3/Contracts/MoneyToCurve.sol\":2176:2218  ICurveFi_Gauge(curveFi_LPGauge).lp_token() */\n      dup2\n      add\n      swap1\n      dup1\n      dup1\n      mload\n      swap1\n      0x20\n      add\n      swap1\n      swap3\n      swap2\n      swap1\n      pop\n      pop\n      pop\n        /* \"Users/yanickwilisky/Library/CloudStorage/GoogleDrive-yanickw@gmail.com/My Drive/09_Programming/FinTech_Workspace/sabot3/Contracts/MoneyToCurve.sol\":2176:2246  ICurveFi_Gauge(curveFi_LPGauge).lp_token() == address(curveFi_LPToken) */\n      0xffffffffffffffffffffffffffffffffffffffff\n      and\n      eq\n        /* \"Users/yanickwilisky/Library/CloudStorage/GoogleDrive-yanickw@gmail.com/My Drive/09_Programming/FinTech_Workspace/sabot3/Contracts/MoneyToCurve.sol\":2168:2281  require(ICurveFi_Gauge(curveFi_LPGauge).lp_token() == address(curveFi_LPToken), \"CurveFi LP tokens do not match\") */\n      tag_220\n      jumpi\n      mload(0x40)\n      0x08c379a000000000000000000000000000000000000000000000000000000000\n      dup2\n      mstore\n      0x04\n      add\n      dup1\n      dup1\n      0x20\n      add\n      dup3\n      dup2\n      sub\n      dup3\n      mstore\n      0x1e\n      dup2\n      mstore\n      0x20\n      add\n      dup1\n      0x43757276654669204c5020746f6b656e7320646f206e6f74206d617463680000\n      dup2\n      mstore\n      pop\n      0x20\n      add\n      swap2\n      pop\n      pop\n      mload(0x40)\n      dup1\n      swap2\n      sub\n      swap1\n      revert\n    tag_220:\n        /* \"Users/yanickwilisky/Library/CloudStorage/GoogleDrive-yanickw@gmail.com/My Drive/09_Programming/FinTech_Workspace/sabot3/Contracts/MoneyToCurve.sol\":2320:2335  _minterContract */\n      dup1\n        /* \"Users/yanickwilisky/Library/CloudStorage/GoogleDrive-yanickw@gmail.com/My Drive/09_Programming/FinTech_Workspace/sabot3/Contracts/MoneyToCurve.sol\":2300:2317  curveFi_CRVMinter */\n      0x38\n      0x00\n        /* \"Users/yanickwilisky/Library/CloudStorage/GoogleDrive-yanickw@gmail.com/My Drive/09_Programming/FinTech_Workspace/sabot3/Contracts/MoneyToCurve.sol\":2300:2335  curveFi_CRVMinter = _minterContract */\n      0x0100\n      exp\n      dup2\n      sload\n      dup2\n      0xffffffffffffffffffffffffffffffffffffffff\n      mul\n      not\n      and\n      swap1\n      dup4\n      0xffffffffffffffffffffffffffffffffffffffff\n      and\n      mul\n      or\n      swap1\n      sstore\n      pop\n        /* \"Users/yanickwilisky/Library/CloudStorage/GoogleDrive-yanickw@gmail.com/My Drive/09_Programming/FinTech_Workspace/sabot3/Contracts/MoneyToCurve.sol\":2379:2394  curveFi_LPGauge */\n      0x37\n      0x00\n      swap1\n      sload\n      swap1\n      0x0100\n      exp\n      swap1\n      div\n      0xffffffffffffffffffffffffffffffffffffffff\n      and\n        /* \"Users/yanickwilisky/Library/CloudStorage/GoogleDrive-yanickw@gmail.com/My Drive/09_Programming/FinTech_Workspace/sabot3/Contracts/MoneyToCurve.sol\":2364:2405  ICurveFi_Gauge(curveFi_LPGauge).crv_token */\n      0xffffffffffffffffffffffffffffffffffffffff\n      and\n      0x76d8b117\n        /* \"Users/yanickwilisky/Library/CloudStorage/GoogleDrive-yanickw@gmail.com/My Drive/09_Programming/FinTech_Workspace/sabot3/Contracts/MoneyToCurve.sol\":2364:2407  ICurveFi_Gauge(curveFi_LPGauge).crv_token() */\n      mload(0x40)\n      dup2\n      0xffffffff\n      and\n      0xe0\n      shl\n      dup2\n      mstore\n      0x04\n      add\n      0x20\n      mload(0x40)\n      dup1\n      dup4\n      sub\n      dup2\n      dup7\n      dup1\n      extcodesize\n      iszero\n        /* \"--CODEGEN--\":8:17   */\n      dup1\n        /* \"--CODEGEN--\":5:7   */\n      iszero\n      tag_221\n      jumpi\n        /* \"--CODEGEN--\":30:31   */\n      0x00\n        /* \"--CODEGEN--\":27:28   */\n      dup1\n        /* \"--CODEGEN--\":20:32   */\n      revert\n        /* \"--CODEGEN--\":5:7   */\n    tag_221:\n        /* \"Users/yanickwilisky/Library/CloudStorage/GoogleDrive-yanickw@gmail.com/My Drive/09_Programming/FinTech_Workspace/sabot3/Contracts/MoneyToCurve.sol\":2364:2407  ICurveFi_Gauge(curveFi_LPGauge).crv_token() */\n      pop\n      gas\n      staticcall\n      iszero\n        /* \"--CODEGEN--\":8:17   */\n      dup1\n        /* \"--CODEGEN--\":5:7   */\n      iszero\n      tag_222\n      jumpi\n        /* \"--CODEGEN--\":45:61   */\n      returndatasize\n        /* \"--CODEGEN--\":42:43   */\n      0x00\n        /* \"--CODEGEN--\":39:40   */\n      dup1\n        /* \"--CODEGEN--\":24:62   */\n      returndatacopy\n        /* \"--CODEGEN--\":77:93   */\n      returndatasize\n        /* \"--CODEGEN--\":74:75   */\n      0x00\n        /* \"--CODEGEN--\":67:94   */\n      revert\n        /* \"--CODEGEN--\":5:7   */\n    tag_222:\n        /* \"Users/yanickwilisky/Library/CloudStorage/GoogleDrive-yanickw@gmail.com/My Drive/09_Programming/FinTech_Workspace/sabot3/Contracts/MoneyToCurve.sol\":2364:2407  ICurveFi_Gauge(curveFi_LPGauge).crv_token() */\n      pop\n      pop\n      pop\n      pop\n      mload(0x40)\n      returndatasize\n        /* \"--CODEGEN--\":13:15   */\n      0x20\n        /* \"--CODEGEN--\":8:11   */\n      dup2\n        /* \"--CODEGEN--\":5:16   */\n      lt\n        /* \"--CODEGEN--\":2:4   */\n      iszero\n      tag_223\n      jumpi\n        /* \"--CODEGEN--\":29:30   */\n      0x00\n        /* \"--CODEGEN--\":26:27   */\n      dup1\n        /* \"--CODEGEN--\":19:31   */\n      revert\n        /* \"--CODEGEN--\":2:4   */\n    tag_223:\n        /* \"Users/yanickwilisky/Library/CloudStorage/GoogleDrive-yanickw@gmail.com/My Drive/09_Programming/FinTech_Workspace/sabot3/Contracts/MoneyToCurve.sol\":2364:2407  ICurveFi_Gauge(curveFi_LPGauge).crv_token() */\n      dup2\n      add\n      swap1\n      dup1\n      dup1\n      mload\n      swap1\n      0x20\n      add\n      swap1\n      swap3\n      swap2\n      swap1\n      pop\n      pop\n      pop\n        /* \"Users/yanickwilisky/Library/CloudStorage/GoogleDrive-yanickw@gmail.com/My Drive/09_Programming/FinTech_Workspace/sabot3/Contracts/MoneyToCurve.sol\":2345:2361  curveFi_CRVToken */\n      0x39\n      0x00\n        /* \"Users/yanickwilisky/Library/CloudStorage/GoogleDrive-yanickw@gmail.com/My Drive/09_Programming/FinTech_Workspace/sabot3/Contracts/MoneyToCurve.sol\":2345:2407  curveFi_CRVToken = ICurveFi_Gauge(curveFi_LPGauge).crv_token() */\n      0x0100\n      exp\n      dup2\n      sload\n      dup2\n      0xffffffffffffffffffffffffffffffffffffffff\n      mul\n      not\n      and\n      swap1\n      dup4\n      0xffffffffffffffffffffffffffffffffffffffff\n      and\n      mul\n      or\n      swap1\n      sstore\n      pop\n        /* \"Users/yanickwilisky/Library/CloudStorage/GoogleDrive-yanickw@gmail.com/My Drive/09_Programming/FinTech_Workspace/sabot3/Contracts/MoneyToCurve.sol\":1737:2414  function setup(address _depositContract, address _gaugeContract, address _minterContract) external onlyOwner {... */\n      pop\n      pop\n      pop\n      jump\t// out\n        /* \"Users/yanickwilisky/Library/CloudStorage/GoogleDrive-yanickw@gmail.com/My Drive/09_Programming/FinTech_Workspace/sabot3/Contracts/MoneyToCurve.sol\":1313:1345  address public curveFi_CRVMinter */\n    tag_51:\n      0x38\n      0x00\n      swap1\n      sload\n      swap1\n      0x0100\n      exp\n      swap1\n      div\n      0xffffffffffffffffffffffffffffffffffffffff\n      and\n      dup2\n      jump\t// out\n        /* \"Users/yanickwilisky/Library/CloudStorage/GoogleDrive-yanickw@gmail.com/My Drive/09_Programming/FinTech_Workspace/sabot3/Contracts/MoneyToCurve.sol\":1351:1382  address public curveFi_CRVToken */\n    tag_53:\n      0x39\n      0x00\n      swap1\n      sload\n      swap1\n      0x0100\n      exp\n      swap1\n      div\n      0xffffffffffffffffffffffffffffffffffffffff\n      and\n      dup2\n      jump\t// out\n        /* \"https://github.com/OpenZeppelin/openzeppelin-contracts/blob/release-v2.5.0/contracts/ownership/Ownable.sol\":899:976  function owner() public view returns (address) {... */\n    tag_55:\n        /* \"https://github.com/OpenZeppelin/openzeppelin-contracts/blob/release-v2.5.0/contracts/ownership/Ownable.sol\":937:944  address */\n      0x00\n        /* \"https://github.com/OpenZeppelin/openzeppelin-contracts/blob/release-v2.5.0/contracts/ownership/Ownable.sol\":963:969  _owner */\n      0x33\n      0x00\n      swap1\n      sload\n      swap1\n      0x0100\n      exp\n      swap1\n      div\n      0xffffffffffffffffffffffffffffffffffffffff\n      and\n        /* \"https://github.com/OpenZeppelin/openzeppelin-contracts/blob/release-v2.5.0/contracts/ownership/Ownable.sol\":956:969  return _owner */\n      swap1\n      pop\n        /* \"https://github.com/OpenZeppelin/openzeppelin-contracts/blob/release-v2.5.0/contracts/ownership/Ownable.sol\":899:976  function owner() public view returns (address) {... */\n      swap1\n      jump\t// out\n        /* \"https://github.com/OpenZeppelin/openzeppelin-contracts/blob/release-v2.5.0/contracts/ownership/Ownable.sol\":1250:1342  function isOwner() public view returns (bool) {... */\n    tag_57:\n        /* \"https://github.com/OpenZeppelin/openzeppelin-contracts/blob/release-v2.5.0/contracts/ownership/Ownable.sol\":1290:1294  bool */\n      0x00\n        /* \"https://github.com/OpenZeppelin/openzeppelin-contracts/blob/release-v2.5.0/contracts/ownership/Ownable.sol\":1329:1335  _owner */\n      0x33\n      0x00\n      swap1\n      sload\n      swap1\n      0x0100\n      exp\n      swap1\n      div\n      0xffffffffffffffffffffffffffffffffffffffff\n      and\n        /* \"https://github.com/OpenZeppelin/openzeppelin-contracts/blob/release-v2.5.0/contracts/ownership/Ownable.sol\":1313:1335  _msgSender() == _owner */\n      0xffffffffffffffffffffffffffffffffffffffff\n      and\n        /* \"https://github.com/OpenZeppelin/openzeppelin-contracts/blob/release-v2.5.0/contracts/ownership/Ownable.sol\":1313:1325  _msgSender() */\n      tag_226\n        /* \"https://github.com/OpenZeppelin/openzeppelin-contracts/blob/release-v2.5.0/contracts/ownership/Ownable.sol\":1313:1323  _msgSender */\n      tag_85\n        /* \"https://github.com/OpenZeppelin/openzeppelin-contracts/blob/release-v2.5.0/contracts/ownership/Ownable.sol\":1313:1325  _msgSender() */\n      jump\t// in\n    tag_226:\n        /* \"https://github.com/OpenZeppelin/openzeppelin-contracts/blob/release-v2.5.0/contracts/ownership/Ownable.sol\":1313:1335  _msgSender() == _owner */\n      0xffffffffffffffffffffffffffffffffffffffff\n      and\n      eq\n        /* \"https://github.com/OpenZeppelin/openzeppelin-contracts/blob/release-v2.5.0/contracts/ownership/Ownable.sol\":1306:1335  return _msgSender() == _owner */\n      swap1\n      pop\n        /* \"https://github.com/OpenZeppelin/openzeppelin-contracts/blob/release-v2.5.0/contracts/ownership/Ownable.sol\":1250:1342  function isOwner() public view returns (bool) {... */\n      swap1\n      jump\t// out\n        /* \"Users/yanickwilisky/Library/CloudStorage/GoogleDrive-yanickw@gmail.com/My Drive/09_Programming/FinTech_Workspace/sabot3/Contracts/MoneyToCurve.sol\":5965:6167  function curveLPTokenBalance() public view returns(uint256) {... */\n    tag_59:\n        /* \"Users/yanickwilisky/Library/CloudStorage/GoogleDrive-yanickw@gmail.com/My Drive/09_Programming/FinTech_Workspace/sabot3/Contracts/MoneyToCurve.sol\":6016:6023  uint256 */\n      0x00\n        /* \"Users/yanickwilisky/Library/CloudStorage/GoogleDrive-yanickw@gmail.com/My Drive/09_Programming/FinTech_Workspace/sabot3/Contracts/MoneyToCurve.sol\":6035:6049  uint256 staked */\n      dup1\n        /* \"Users/yanickwilisky/Library/CloudStorage/GoogleDrive-yanickw@gmail.com/My Drive/09_Programming/FinTech_Workspace/sabot3/Contracts/MoneyToCurve.sol\":6052:6072  curveLPTokenStaked() */\n      tag_228\n        /* \"Users/yanickwilisky/Library/CloudStorage/GoogleDrive-yanickw@gmail.com/My Drive/09_Programming/FinTech_Workspace/sabot3/Contracts/MoneyToCurve.sol\":6052:6070  curveLPTokenStaked */\n      tag_42\n        /* \"Users/yanickwilisky/Library/CloudStorage/GoogleDrive-yanickw@gmail.com/My Drive/09_Programming/FinTech_Workspace/sabot3/Contracts/MoneyToCurve.sol\":6052:6072  curveLPTokenStaked() */\n      jump\t// in\n    tag_228:\n        /* \"Users/yanickwilisky/Library/CloudStorage/GoogleDrive-yanickw@gmail.com/My Drive/09_Programming/FinTech_Workspace/sabot3/Contracts/MoneyToCurve.sol\":6035:6072  uint256 staked = curveLPTokenStaked() */\n      swap1\n      pop\n        /* \"Users/yanickwilisky/Library/CloudStorage/GoogleDrive-yanickw@gmail.com/My Drive/09_Programming/FinTech_Workspace/sabot3/Contracts/MoneyToCurve.sol\":6082:6098  uint256 unstaked */\n      0x00\n        /* \"Users/yanickwilisky/Library/CloudStorage/GoogleDrive-yanickw@gmail.com/My Drive/09_Programming/FinTech_Workspace/sabot3/Contracts/MoneyToCurve.sol\":6101:6123  curveLPTokenUnstaked() */\n      tag_229\n        /* \"Users/yanickwilisky/Library/CloudStorage/GoogleDrive-yanickw@gmail.com/My Drive/09_Programming/FinTech_Workspace/sabot3/Contracts/MoneyToCurve.sol\":6101:6121  curveLPTokenUnstaked */\n      tag_65\n        /* \"Users/yanickwilisky/Library/CloudStorage/GoogleDrive-yanickw@gmail.com/My Drive/09_Programming/FinTech_Workspace/sabot3/Contracts/MoneyToCurve.sol\":6101:6123  curveLPTokenUnstaked() */\n      jump\t// in\n    tag_229:\n        /* \"Users/yanickwilisky/Library/CloudStorage/GoogleDrive-yanickw@gmail.com/My Drive/09_Programming/FinTech_Workspace/sabot3/Contracts/MoneyToCurve.sol\":6082:6123  uint256 unstaked = curveLPTokenUnstaked() */\n      swap1\n      pop\n        /* \"Users/yanickwilisky/Library/CloudStorage/GoogleDrive-yanickw@gmail.com/My Drive/09_Programming/FinTech_Workspace/sabot3/Contracts/MoneyToCurve.sol\":6140:6160  unstaked.add(staked) */\n      tag_230\n        /* \"Users/yanickwilisky/Library/CloudStorage/GoogleDrive-yanickw@gmail.com/My Drive/09_Programming/FinTech_Workspace/sabot3/Contracts/MoneyToCurve.sol\":6153:6159  staked */\n      dup3\n        /* \"Users/yanickwilisky/Library/CloudStorage/GoogleDrive-yanickw@gmail.com/My Drive/09_Programming/FinTech_Workspace/sabot3/Contracts/MoneyToCurve.sol\":6140:6148  unstaked */\n      dup3\n        /* \"Users/yanickwilisky/Library/CloudStorage/GoogleDrive-yanickw@gmail.com/My Drive/09_Programming/FinTech_Workspace/sabot3/Contracts/MoneyToCurve.sol\":6140:6152  unstaked.add */\n      tag_156\n      swap1\n        /* \"Users/yanickwilisky/Library/CloudStorage/GoogleDrive-yanickw@gmail.com/My Drive/09_Programming/FinTech_Workspace/sabot3/Contracts/MoneyToCurve.sol\":6140:6160  unstaked.add(staked) */\n      swap2\n      swap1\n      0xffffffff\n      and\n      jump\t// in\n    tag_230:\n        /* \"Users/yanickwilisky/Library/CloudStorage/GoogleDrive-yanickw@gmail.com/My Drive/09_Programming/FinTech_Workspace/sabot3/Contracts/MoneyToCurve.sol\":6133:6160  return unstaked.add(staked) */\n      swap3\n      pop\n      pop\n      pop\n        /* \"Users/yanickwilisky/Library/CloudStorage/GoogleDrive-yanickw@gmail.com/My Drive/09_Programming/FinTech_Workspace/sabot3/Contracts/MoneyToCurve.sol\":5965:6167  function curveLPTokenBalance() public view returns(uint256) {... */\n      swap1\n      jump\t// out\n        /* \"Users/yanickwilisky/Library/CloudStorage/GoogleDrive-yanickw@gmail.com/My Drive/09_Programming/FinTech_Workspace/sabot3/Contracts/MoneyToCurve.sol\":1241:1271  address public curveFi_LPToken */\n    tag_61:\n      0x36\n      0x00\n      swap1\n      sload\n      swap1\n      0x0100\n      exp\n      swap1\n      div\n      0xffffffffffffffffffffffffffffffffffffffff\n      and\n      dup2\n      jump\t// out\n        /* \"Users/yanickwilisky/Library/CloudStorage/GoogleDrive-yanickw@gmail.com/My Drive/09_Programming/FinTech_Workspace/sabot3/Contracts/MoneyToCurve.sol\":1172:1202  address public curveFi_Deposit */\n    tag_63:\n      0x34\n      0x00\n      swap1\n      sload\n      swap1\n      0x0100\n      exp\n      swap1\n      div\n      0xffffffffffffffffffffffffffffffffffffffff\n      and\n      dup2\n      jump\t// out\n        /* \"Users/yanickwilisky/Library/CloudStorage/GoogleDrive-yanickw@gmail.com/My Drive/09_Programming/FinTech_Workspace/sabot3/Contracts/MoneyToCurve.sol\":5732:5865  function curveLPTokenUnstaked() public view returns(uint256) {... */\n    tag_65:\n        /* \"Users/yanickwilisky/Library/CloudStorage/GoogleDrive-yanickw@gmail.com/My Drive/09_Programming/FinTech_Workspace/sabot3/Contracts/MoneyToCurve.sol\":5784:5791  uint256 */\n      0x00\n        /* \"Users/yanickwilisky/Library/CloudStorage/GoogleDrive-yanickw@gmail.com/My Drive/09_Programming/FinTech_Workspace/sabot3/Contracts/MoneyToCurve.sol\":5817:5832  curveFi_LPToken */\n      0x36\n      0x00\n      swap1\n      sload\n      swap1\n      0x0100\n      exp\n      swap1\n      div\n      0xffffffffffffffffffffffffffffffffffffffff\n      and\n        /* \"Users/yanickwilisky/Library/CloudStorage/GoogleDrive-yanickw@gmail.com/My Drive/09_Programming/FinTech_Workspace/sabot3/Contracts/MoneyToCurve.sol\":5810:5843  IERC20(curveFi_LPToken).balanceOf */\n      0xffffffffffffffffffffffffffffffffffffffff\n      and\n      0x70a08231\n        /* \"Users/yanickwilisky/Library/CloudStorage/GoogleDrive-yanickw@gmail.com/My Drive/09_Programming/FinTech_Workspace/sabot3/Contracts/MoneyToCurve.sol\":5852:5856  this */\n      address\n        /* \"Users/yanickwilisky/Library/CloudStorage/GoogleDrive-yanickw@gmail.com/My Drive/09_Programming/FinTech_Workspace/sabot3/Contracts/MoneyToCurve.sol\":5810:5858  IERC20(curveFi_LPToken).balanceOf(address(this)) */\n      mload(0x40)\n      dup3\n      0xffffffff\n      and\n      0xe0\n      shl\n      dup2\n      mstore\n      0x04\n      add\n      dup1\n      dup3\n      0xffffffffffffffffffffffffffffffffffffffff\n      and\n      0xffffffffffffffffffffffffffffffffffffffff\n      and\n      dup2\n      mstore\n      0x20\n      add\n      swap2\n      pop\n      pop\n      0x20\n      mload(0x40)\n      dup1\n      dup4\n      sub\n      dup2\n      dup7\n      dup1\n      extcodesize\n      iszero\n        /* \"--CODEGEN--\":8:17   */\n      dup1\n        /* \"--CODEGEN--\":5:7   */\n      iszero\n      tag_232\n      jumpi\n        /* \"--CODEGEN--\":30:31   */\n      0x00\n        /* \"--CODEGEN--\":27:28   */\n      dup1\n        /* \"--CODEGEN--\":20:32   */\n      revert\n        /* \"--CODEGEN--\":5:7   */\n    tag_232:\n        /* \"Users/yanickwilisky/Library/CloudStorage/GoogleDrive-yanickw@gmail.com/My Drive/09_Programming/FinTech_Workspace/sabot3/Contracts/MoneyToCurve.sol\":5810:5858  IERC20(curveFi_LPToken).balanceOf(address(this)) */\n      pop\n      gas\n      staticcall\n      iszero\n        /* \"--CODEGEN--\":8:17   */\n      dup1\n        /* \"--CODEGEN--\":5:7   */\n      iszero\n      tag_233\n      jumpi\n        /* \"--CODEGEN--\":45:61   */\n      returndatasize\n        /* \"--CODEGEN--\":42:43   */\n      0x00\n        /* \"--CODEGEN--\":39:40   */\n      dup1\n        /* \"--CODEGEN--\":24:62   */\n      returndatacopy\n        /* \"--CODEGEN--\":77:93   */\n      returndatasize\n        /* \"--CODEGEN--\":74:75   */\n      0x00\n        /* \"--CODEGEN--\":67:94   */\n      revert\n        /* \"--CODEGEN--\":5:7   */\n    tag_233:\n        /* \"Users/yanickwilisky/Library/CloudStorage/GoogleDrive-yanickw@gmail.com/My Drive/09_Programming/FinTech_Workspace/sabot3/Contracts/MoneyToCurve.sol\":5810:5858  IERC20(curveFi_LPToken).balanceOf(address(this)) */\n      pop\n      pop\n      pop\n      pop\n      mload(0x40)\n      returndatasize\n        /* \"--CODEGEN--\":13:15   */\n      0x20\n        /* \"--CODEGEN--\":8:11   */\n      dup2\n        /* \"--CODEGEN--\":5:16   */\n      lt\n        /* \"--CODEGEN--\":2:4   */\n      iszero\n      tag_234\n      jumpi\n        /* \"--CODEGEN--\":29:30   */\n      0x00\n        /* \"--CODEGEN--\":26:27   */\n      dup1\n        /* \"--CODEGEN--\":19:31   */\n      revert\n        /* \"--CODEGEN--\":2:4   */\n    tag_234:\n        /* \"Users/yanickwilisky/Library/CloudStorage/GoogleDrive-yanickw@gmail.com/My Drive/09_Programming/FinTech_Workspace/sabot3/Contracts/MoneyToCurve.sol\":5810:5858  IERC20(curveFi_LPToken).balanceOf(address(this)) */\n      dup2\n      add\n      swap1\n      dup1\n      dup1\n      mload\n      swap1\n      0x20\n      add\n      swap1\n      swap3\n      swap2\n      swap1\n      pop\n      pop\n      pop\n        /* \"Users/yanickwilisky/Library/CloudStorage/GoogleDrive-yanickw@gmail.com/My Drive/09_Programming/FinTech_Workspace/sabot3/Contracts/MoneyToCurve.sol\":5803:5858  return IERC20(curveFi_LPToken).balanceOf(address(this)) */\n      swap1\n      pop\n        /* \"Users/yanickwilisky/Library/CloudStorage/GoogleDrive-yanickw@gmail.com/My Drive/09_Programming/FinTech_Workspace/sabot3/Contracts/MoneyToCurve.sol\":5732:5865  function curveLPTokenUnstaked() public view returns(uint256) {... */\n      swap1\n      jump\t// out\n        /* \"Users/yanickwilisky/Library/CloudStorage/GoogleDrive-yanickw@gmail.com/My Drive/09_Programming/FinTech_Workspace/sabot3/Contracts/MoneyToCurve.sol\":1277:1307  address public curveFi_LPGauge */\n    tag_67:\n      0x37\n      0x00\n      swap1\n      sload\n      swap1\n      0x0100\n      exp\n      swap1\n      div\n      0xffffffffffffffffffffffffffffffffffffffff\n      and\n      dup2\n      jump\t// out\n        /* \"https://github.com/OpenZeppelin/openzeppelin-contracts/blob/release-v2.5.0/contracts/ownership/Ownable.sol\":1970:2077  function transferOwnership(address newOwner) public onlyOwner {... */\n    tag_70:\n        /* \"https://github.com/OpenZeppelin/openzeppelin-contracts/blob/release-v2.5.0/contracts/ownership/Ownable.sol\":1103:1112  isOwner() */\n      tag_236\n        /* \"https://github.com/OpenZeppelin/openzeppelin-contracts/blob/release-v2.5.0/contracts/ownership/Ownable.sol\":1103:1110  isOwner */\n      tag_57\n        /* \"https://github.com/OpenZeppelin/openzeppelin-contracts/blob/release-v2.5.0/contracts/ownership/Ownable.sol\":1103:1112  isOwner() */\n      jump\t// in\n    tag_236:\n        /* \"https://github.com/OpenZeppelin/openzeppelin-contracts/blob/release-v2.5.0/contracts/ownership/Ownable.sol\":1095:1149  require(isOwner(), \"Ownable: caller is not the owner\") */\n      tag_237\n      jumpi\n      mload(0x40)\n      0x08c379a000000000000000000000000000000000000000000000000000000000\n      dup2\n      mstore\n      0x04\n      add\n      dup1\n      dup1\n      0x20\n      add\n      dup3\n      dup2\n      sub\n      dup3\n      mstore\n      0x20\n      dup2\n      mstore\n      0x20\n      add\n      dup1\n      0x4f776e61626c653a2063616c6c6572206973206e6f7420746865206f776e6572\n      dup2\n      mstore\n      pop\n      0x20\n      add\n      swap2\n      pop\n      pop\n      mload(0x40)\n      dup1\n      swap2\n      sub\n      swap1\n      revert\n    tag_237:\n        /* \"https://github.com/OpenZeppelin/openzeppelin-contracts/blob/release-v2.5.0/contracts/ownership/Ownable.sol\":2042:2070  _transferOwnership(newOwner) */\n      tag_239\n        /* \"https://github.com/OpenZeppelin/openzeppelin-contracts/blob/release-v2.5.0/contracts/ownership/Ownable.sol\":2061:2069  newOwner */\n      dup2\n        /* \"https://github.com/OpenZeppelin/openzeppelin-contracts/blob/release-v2.5.0/contracts/ownership/Ownable.sol\":2042:2060  _transferOwnership */\n      tag_240\n        /* \"https://github.com/OpenZeppelin/openzeppelin-contracts/blob/release-v2.5.0/contracts/ownership/Ownable.sol\":2042:2070  _transferOwnership(newOwner) */\n      jump\t// in\n    tag_239:\n        /* \"https://github.com/OpenZeppelin/openzeppelin-contracts/blob/release-v2.5.0/contracts/ownership/Ownable.sol\":1970:2077  function transferOwnership(address newOwner) public onlyOwner {... */\n      pop\n      jump\t// out\n        /* \"Users/yanickwilisky/Library/CloudStorage/GoogleDrive-yanickw@gmail.com/My Drive/09_Programming/FinTech_Workspace/sabot3/Contracts/MoneyToCurve.sol\":1415:1489  function initialize(uint256 _x) public initializer {... */\n    tag_73:\n        /* \"https://github.com/OpenZeppelin/openzeppelin-upgrades/blob/master/packages/core/contracts/Initializable.sol\":1253:1265  initializing */\n      0x00\n      0x01\n      swap1\n      sload\n      swap1\n      0x0100\n      exp\n      swap1\n      div\n      0xff\n      and\n        /* \"https://github.com/OpenZeppelin/openzeppelin-upgrades/blob/master/packages/core/contracts/Initializable.sol\":1253:1284  initializing || isConstructor() */\n      dup1\n      tag_242\n      jumpi\n      pop\n        /* \"https://github.com/OpenZeppelin/openzeppelin-upgrades/blob/master/packages/core/contracts/Initializable.sol\":1269:1284  isConstructor() */\n      tag_243\n        /* \"https://github.com/OpenZeppelin/openzeppelin-upgrades/blob/master/packages/core/contracts/Initializable.sol\":1269:1282  isConstructor */\n      tag_244\n        /* \"https://github.com/OpenZeppelin/openzeppelin-upgrades/blob/master/packages/core/contracts/Initializable.sol\":1269:1284  isConstructor() */\n      jump\t// in\n    tag_243:\n        /* \"https://github.com/OpenZeppelin/openzeppelin-upgrades/blob/master/packages/core/contracts/Initializable.sol\":1253:1284  initializing || isConstructor() */\n    tag_242:\n        /* \"https://github.com/OpenZeppelin/openzeppelin-upgrades/blob/master/packages/core/contracts/Initializable.sol\":1253:1300  initializing || isConstructor() || !initialized */\n      dup1\n      tag_245\n      jumpi\n      pop\n        /* \"https://github.com/OpenZeppelin/openzeppelin-upgrades/blob/master/packages/core/contracts/Initializable.sol\":1289:1300  initialized */\n      0x00\n      dup1\n      swap1\n      sload\n      swap1\n      0x0100\n      exp\n      swap1\n      div\n      0xff\n      and\n        /* \"https://github.com/OpenZeppelin/openzeppelin-upgrades/blob/master/packages/core/contracts/Initializable.sol\":1288:1300  !initialized */\n      iszero\n        /* \"https://github.com/OpenZeppelin/openzeppelin-upgrades/blob/master/packages/core/contracts/Initializable.sol\":1253:1300  initializing || isConstructor() || !initialized */\n    tag_245:\n        /* \"https://github.com/OpenZeppelin/openzeppelin-upgrades/blob/master/packages/core/contracts/Initializable.sol\":1245:1351  require(initializing || isConstructor() || !initialized, \"Contract instance has already been initialized\") */\n      tag_246\n      jumpi\n      mload(0x40)\n      0x08c379a000000000000000000000000000000000000000000000000000000000\n      dup2\n      mstore\n      0x04\n      add\n      dup1\n      dup1\n      0x20\n      add\n      dup3\n      dup2\n      sub\n      dup3\n      mstore\n      0x2e\n      dup2\n      mstore\n      0x20\n      add\n      dup1\n      data_9fbba6c4dcac9134893b633b9564f36435b3f927c1d5fa152c5c14b20cecb1a4\n      0x2e\n      swap2\n      codecopy\n      0x40\n      add\n      swap2\n      pop\n      pop\n      mload(0x40)\n      dup1\n      swap2\n      sub\n      swap1\n      revert\n    tag_246:\n        /* \"https://github.com/OpenZeppelin/openzeppelin-upgrades/blob/master/packages/core/contracts/Initializable.sol\":1358:1377  bool isTopLevelCall */\n      0x00\n        /* \"https://github.com/OpenZeppelin/openzeppelin-upgrades/blob/master/packages/core/contracts/Initializable.sol\":1381:1393  initializing */\n      dup1\n      0x01\n      swap1\n      sload\n      swap1\n      0x0100\n      exp\n      swap1\n      div\n      0xff\n      and\n        /* \"https://github.com/OpenZeppelin/openzeppelin-upgrades/blob/master/packages/core/contracts/Initializable.sol\":1380:1393  !initializing */\n      iszero\n        /* \"https://github.com/OpenZeppelin/openzeppelin-upgrades/blob/master/packages/core/contracts/Initializable.sol\":1358:1393  bool isTopLevelCall = !initializing */\n      swap1\n      pop\n        /* \"https://github.com/OpenZeppelin/openzeppelin-upgrades/blob/master/packages/core/contracts/Initializable.sol\":1403:1417  isTopLevelCall */\n      dup1\n        /* \"https://github.com/OpenZeppelin/openzeppelin-upgrades/blob/master/packages/core/contracts/Initializable.sol\":1399:1479  if (isTopLevelCall) {... */\n      iszero\n      tag_247\n      jumpi\n        /* \"https://github.com/OpenZeppelin/openzeppelin-upgrades/blob/master/packages/core/contracts/Initializable.sol\":1442:1446  true */\n      0x01\n        /* \"https://github.com/OpenZeppelin/openzeppelin-upgrades/blob/master/packages/core/contracts/Initializable.sol\":1427:1439  initializing */\n      0x00\n      0x01\n        /* \"https://github.com/OpenZeppelin/openzeppelin-upgrades/blob/master/packages/core/contracts/Initializable.sol\":1427:1446  initializing = true */\n      0x0100\n      exp\n      dup2\n      sload\n      dup2\n      0xff\n      mul\n      not\n      and\n      swap1\n      dup4\n      iszero\n      iszero\n      mul\n      or\n      swap1\n      sstore\n      pop\n        /* \"https://github.com/OpenZeppelin/openzeppelin-upgrades/blob/master/packages/core/contracts/Initializable.sol\":1468:1472  true */\n      0x01\n        /* \"https://github.com/OpenZeppelin/openzeppelin-upgrades/blob/master/packages/core/contracts/Initializable.sol\":1454:1465  initialized */\n      0x00\n      dup1\n        /* \"https://github.com/OpenZeppelin/openzeppelin-upgrades/blob/master/packages/core/contracts/Initializable.sol\":1454:1472  initialized = true */\n      0x0100\n      exp\n      dup2\n      sload\n      dup2\n      0xff\n      mul\n      not\n      and\n      swap1\n      dup4\n      iszero\n      iszero\n      mul\n      or\n      swap1\n      sstore\n      pop\n        /* \"https://github.com/OpenZeppelin/openzeppelin-upgrades/blob/master/packages/core/contracts/Initializable.sol\":1399:1479  if (isTopLevelCall) {... */\n    tag_247:\n        /* \"Users/yanickwilisky/Library/CloudStorage/GoogleDrive-yanickw@gmail.com/My Drive/09_Programming/FinTech_Workspace/sabot3/Contracts/MoneyToCurve.sol\":1480:1482  _x */\n      dup2\n        /* \"Users/yanickwilisky/Library/CloudStorage/GoogleDrive-yanickw@gmail.com/My Drive/09_Programming/FinTech_Workspace/sabot3/Contracts/MoneyToCurve.sol\":1476:1477  x */\n      0x3a\n        /* \"Users/yanickwilisky/Library/CloudStorage/GoogleDrive-yanickw@gmail.com/My Drive/09_Programming/FinTech_Workspace/sabot3/Contracts/MoneyToCurve.sol\":1476:1482  x = _x */\n      dup2\n      swap1\n      sstore\n      pop\n        /* \"https://github.com/OpenZeppelin/openzeppelin-upgrades/blob/master/packages/core/contracts/Initializable.sol\":1497:1511  isTopLevelCall */\n      dup1\n        /* \"https://github.com/OpenZeppelin/openzeppelin-upgrades/blob/master/packages/core/contracts/Initializable.sol\":1493:1548  if (isTopLevelCall) {... */\n      iszero\n      tag_249\n      jumpi\n        /* \"https://github.com/OpenZeppelin/openzeppelin-upgrades/blob/master/packages/core/contracts/Initializable.sol\":1536:1541  false */\n      0x00\n        /* \"https://github.com/OpenZeppelin/openzeppelin-upgrades/blob/master/packages/core/contracts/Initializable.sol\":1521:1533  initializing */\n      dup1\n      0x01\n        /* \"https://github.com/OpenZeppelin/openzeppelin-upgrades/blob/master/packages/core/contracts/Initializable.sol\":1521:1541  initializing = false */\n      0x0100\n      exp\n      dup2\n      sload\n      dup2\n      0xff\n      mul\n      not\n      and\n      swap1\n      dup4\n      iszero\n      iszero\n      mul\n      or\n      swap1\n      sstore\n      pop\n        /* \"https://github.com/OpenZeppelin/openzeppelin-upgrades/blob/master/packages/core/contracts/Initializable.sol\":1493:1548  if (isTopLevelCall) {... */\n    tag_249:\n        /* \"Users/yanickwilisky/Library/CloudStorage/GoogleDrive-yanickw@gmail.com/My Drive/09_Programming/FinTech_Workspace/sabot3/Contracts/MoneyToCurve.sol\":1415:1489  function initialize(uint256 _x) public initializer {... */\n      pop\n      pop\n      jump\t// out\n        /* \"https://github.com/OpenZeppelin/openzeppelin-contracts/blob/release-v2.5.0/contracts/GSN/Context.sol\":788:884  function _msgSender() internal view returns (address payable) {... */\n    tag_85:\n        /* \"https://github.com/OpenZeppelin/openzeppelin-contracts/blob/release-v2.5.0/contracts/GSN/Context.sol\":833:848  address payable */\n      0x00\n        /* \"https://github.com/OpenZeppelin/openzeppelin-contracts/blob/release-v2.5.0/contracts/GSN/Context.sol\":867:877  msg.sender */\n      caller\n        /* \"https://github.com/OpenZeppelin/openzeppelin-contracts/blob/release-v2.5.0/contracts/GSN/Context.sol\":860:877  return msg.sender */\n      swap1\n      pop\n        /* \"https://github.com/OpenZeppelin/openzeppelin-contracts/blob/release-v2.5.0/contracts/GSN/Context.sol\":788:884  function _msgSender() internal view returns (address payable) {... */\n      swap1\n      jump\t// out\n        /* \"https://github.com/OpenZeppelin/openzeppelin-contracts/blob/release-v2.5.0/contracts/token/ERC20/SafeERC20.sol\":842:1044  function safeTransferFrom(IERC20 token, address from, address to, uint256 value) internal {... */\n    tag_88:\n        /* \"https://github.com/OpenZeppelin/openzeppelin-contracts/blob/release-v2.5.0/contracts/token/ERC20/SafeERC20.sol\":942:1037  callOptionalReturn(token, abi.encodeWithSelector(token.transferFrom.selector, from, to, value)) */\n      tag_252\n        /* \"https://github.com/OpenZeppelin/openzeppelin-contracts/blob/release-v2.5.0/contracts/token/ERC20/SafeERC20.sol\":961:966  token */\n      dup5\n        /* \"https://github.com/OpenZeppelin/openzeppelin-contracts/blob/release-v2.5.0/contracts/token/ERC20/SafeERC20.sol\":991:996  token */\n      dup6\n        /* \"https://github.com/OpenZeppelin/openzeppelin-contracts/blob/release-v2.5.0/contracts/token/ERC20/SafeERC20.sol\":991:1009  token.transferFrom */\n      0xffffffffffffffffffffffffffffffffffffffff\n      and\n      0x23b872dd\n        /* \"https://github.com/OpenZeppelin/openzeppelin-contracts/blob/release-v2.5.0/contracts/token/ERC20/SafeERC20.sol\":991:1018  token.transferFrom.selector */\n      swap1\n      pop\n      0xe0\n      shl\n        /* \"https://github.com/OpenZeppelin/openzeppelin-contracts/blob/release-v2.5.0/contracts/token/ERC20/SafeERC20.sol\":1020:1024  from */\n      dup6\n        /* \"https://github.com/OpenZeppelin/openzeppelin-contracts/blob/release-v2.5.0/contracts/token/ERC20/SafeERC20.sol\":1026:1028  to */\n      dup6\n        /* \"https://github.com/OpenZeppelin/openzeppelin-contracts/blob/release-v2.5.0/contracts/token/ERC20/SafeERC20.sol\":1030:1035  value */\n      dup6\n        /* \"https://github.com/OpenZeppelin/openzeppelin-contracts/blob/release-v2.5.0/contracts/token/ERC20/SafeERC20.sol\":968:1036  abi.encodeWithSelector(token.transferFrom.selector, from, to, value) */\n      add(0x24, mload(0x40))\n      dup1\n      dup5\n      0xffffffffffffffffffffffffffffffffffffffff\n      and\n      0xffffffffffffffffffffffffffffffffffffffff\n      and\n      dup2\n      mstore\n      0x20\n      add\n      dup4\n      0xffffffffffffffffffffffffffffffffffffffff\n      and\n      0xffffffffffffffffffffffffffffffffffffffff\n      and\n      dup2\n      mstore\n      0x20\n      add\n      dup3\n      dup2\n      mstore\n      0x20\n      add\n      swap4\n      pop\n      pop\n      pop\n      pop\n      mload(0x40)\n        /* \"--CODEGEN--\":49:53   */\n      0x20\n        /* \"--CODEGEN--\":39:46   */\n      dup2\n        /* \"--CODEGEN--\":30:37   */\n      dup4\n        /* \"--CODEGEN--\":26:47   */\n      sub\n        /* \"--CODEGEN--\":22:54   */\n      sub\n        /* \"--CODEGEN--\":13:20   */\n      dup2\n        /* \"--CODEGEN--\":6:55   */\n      mstore\n        /* \"https://github.com/OpenZeppelin/openzeppelin-contracts/blob/release-v2.5.0/contracts/token/ERC20/SafeERC20.sol\":968:1036  abi.encodeWithSelector(token.transferFrom.selector, from, to, value) */\n      swap1\n      0x40\n      mstore\n      swap1\n      not(0xffffffffffffffffffffffffffffffffffffffffffffffffffffffff)\n      and\n        /* \"--CODEGEN--\":38:42   */\n      0x20\n        /* \"--CODEGEN--\":29:36   */\n      dup3\n        /* \"--CODEGEN--\":25:43   */\n      add\n        /* \"--CODEGEN--\":67:77   */\n      dup1\n        /* \"--CODEGEN--\":61:78   */\n      mload\n        /* \"--CODEGEN--\":96:154   */\n      0xffffffffffffffffffffffffffffffffffffffffffffffffffffffff\n        /* \"--CODEGEN--\":199:207   */\n      dup4\n        /* \"--CODEGEN--\":192:196   */\n      dup2\n        /* \"--CODEGEN--\":186:190   */\n      dup4\n        /* \"--CODEGEN--\":182:197   */\n      and\n        /* \"--CODEGEN--\":179:208   */\n      or\n        /* \"--CODEGEN--\":167:177   */\n      dup4\n        /* \"--CODEGEN--\":160:209   */\n      mstore\n        /* \"--CODEGEN--\":0:215   */\n      pop\n      pop\n      pop\n        /* \"https://github.com/OpenZeppelin/openzeppelin-contracts/blob/release-v2.5.0/contracts/token/ERC20/SafeERC20.sol\":968:1036  abi.encodeWithSelector(token.transferFrom.selector, from, to, value) */\n      pop\n        /* \"https://github.com/OpenZeppelin/openzeppelin-contracts/blob/release-v2.5.0/contracts/token/ERC20/SafeERC20.sol\":942:960  callOptionalReturn */\n      tag_253\n        /* \"https://github.com/OpenZeppelin/openzeppelin-contracts/blob/release-v2.5.0/contracts/token/ERC20/SafeERC20.sol\":942:1037  callOptionalReturn(token, abi.encodeWithSelector(token.transferFrom.selector, from, to, value)) */\n      jump\t// in\n    tag_252:\n        /* \"https://github.com/OpenZeppelin/openzeppelin-contracts/blob/release-v2.5.0/contracts/token/ERC20/SafeERC20.sol\":842:1044  function safeTransferFrom(IERC20 token, address from, address to, uint256 value) internal {... */\n      pop\n      pop\n      pop\n      pop\n      jump\t// out\n        /* \"https://github.com/OpenZeppelin/openzeppelin-contracts/blob/release-v2.5.0/contracts/token/ERC20/SafeERC20.sol\":1050:1662  function safeApprove(IERC20 token, address spender, uint256 value) internal {... */\n    tag_92:\n        /* \"https://github.com/OpenZeppelin/openzeppelin-contracts/blob/release-v2.5.0/contracts/token/ERC20/SafeERC20.sol\":1424:1425  0 */\n      0x00\n        /* \"https://github.com/OpenZeppelin/openzeppelin-contracts/blob/release-v2.5.0/contracts/token/ERC20/SafeERC20.sol\":1415:1420  value */\n      dup2\n        /* \"https://github.com/OpenZeppelin/openzeppelin-contracts/blob/release-v2.5.0/contracts/token/ERC20/SafeERC20.sol\":1415:1425  value == 0 */\n      eq\n        /* \"https://github.com/OpenZeppelin/openzeppelin-contracts/blob/release-v2.5.0/contracts/token/ERC20/SafeERC20.sol\":1414:1476  (value == 0) || (token.allowance(address(this), spender) == 0) */\n      dup1\n      tag_255\n      jumpi\n      pop\n        /* \"https://github.com/OpenZeppelin/openzeppelin-contracts/blob/release-v2.5.0/contracts/token/ERC20/SafeERC20.sol\":1474:1475  0 */\n      0x00\n        /* \"https://github.com/OpenZeppelin/openzeppelin-contracts/blob/release-v2.5.0/contracts/token/ERC20/SafeERC20.sol\":1431:1436  token */\n      dup4\n        /* \"https://github.com/OpenZeppelin/openzeppelin-contracts/blob/release-v2.5.0/contracts/token/ERC20/SafeERC20.sol\":1431:1446  token.allowance */\n      0xffffffffffffffffffffffffffffffffffffffff\n      and\n      0xdd62ed3e\n        /* \"https://github.com/OpenZeppelin/openzeppelin-contracts/blob/release-v2.5.0/contracts/token/ERC20/SafeERC20.sol\":1455:1459  this */\n      address\n        /* \"https://github.com/OpenZeppelin/openzeppelin-contracts/blob/release-v2.5.0/contracts/token/ERC20/SafeERC20.sol\":1462:1469  spender */\n      dup6\n        /* \"https://github.com/OpenZeppelin/openzeppelin-contracts/blob/release-v2.5.0/contracts/token/ERC20/SafeERC20.sol\":1431:1470  token.allowance(address(this), spender) */\n      mload(0x40)\n      dup4\n      0xffffffff\n      and\n      0xe0\n      shl\n      dup2\n      mstore\n      0x04\n      add\n      dup1\n      dup4\n      0xffffffffffffffffffffffffffffffffffffffff\n      and\n      0xffffffffffffffffffffffffffffffffffffffff\n      and\n      dup2\n      mstore\n      0x20\n      add\n      dup3\n      0xffffffffffffffffffffffffffffffffffffffff\n      and\n      0xffffffffffffffffffffffffffffffffffffffff\n      and\n      dup2\n      mstore\n      0x20\n      add\n      swap3\n      pop\n      pop\n      pop\n      0x20\n      mload(0x40)\n      dup1\n      dup4\n      sub\n      dup2\n      dup7\n      dup1\n      extcodesize\n      iszero\n        /* \"--CODEGEN--\":8:17   */\n      dup1\n        /* \"--CODEGEN--\":5:7   */\n      iszero\n      tag_256\n      jumpi\n        /* \"--CODEGEN--\":30:31   */\n      0x00\n        /* \"--CODEGEN--\":27:28   */\n      dup1\n        /* \"--CODEGEN--\":20:32   */\n      revert\n        /* \"--CODEGEN--\":5:7   */\n    tag_256:\n        /* \"https://github.com/OpenZeppelin/openzeppelin-contracts/blob/release-v2.5.0/contracts/token/ERC20/SafeERC20.sol\":1431:1470  token.allowance(address(this), spender) */\n      pop\n      gas\n      staticcall\n      iszero\n        /* \"--CODEGEN--\":8:17   */\n      dup1\n        /* \"--CODEGEN--\":5:7   */\n      iszero\n      tag_257\n      jumpi\n        /* \"--CODEGEN--\":45:61   */\n      returndatasize\n        /* \"--CODEGEN--\":42:43   */\n      0x00\n        /* \"--CODEGEN--\":39:40   */\n      dup1\n        /* \"--CODEGEN--\":24:62   */\n      returndatacopy\n        /* \"--CODEGEN--\":77:93   */\n      returndatasize\n        /* \"--CODEGEN--\":74:75   */\n      0x00\n        /* \"--CODEGEN--\":67:94   */\n      revert\n        /* \"--CODEGEN--\":5:7   */\n    tag_257:\n        /* \"https://github.com/OpenZeppelin/openzeppelin-contracts/blob/release-v2.5.0/contracts/token/ERC20/SafeERC20.sol\":1431:1470  token.allowance(address(this), spender) */\n      pop\n      pop\n      pop\n      pop\n      mload(0x40)\n      returndatasize\n        /* \"--CODEGEN--\":13:15   */\n      0x20\n        /* \"--CODEGEN--\":8:11   */\n      dup2\n        /* \"--CODEGEN--\":5:16   */\n      lt\n        /* \"--CODEGEN--\":2:4   */\n      iszero\n      tag_258\n      jumpi\n        /* \"--CODEGEN--\":29:30   */\n      0x00\n        /* \"--CODEGEN--\":26:27   */\n      dup1\n        /* \"--CODEGEN--\":19:31   */\n      revert\n        /* \"--CODEGEN--\":2:4   */\n    tag_258:\n        /* \"https://github.com/OpenZeppelin/openzeppelin-contracts/blob/release-v2.5.0/contracts/token/ERC20/SafeERC20.sol\":1431:1470  token.allowance(address(this), spender) */\n      dup2\n      add\n      swap1\n      dup1\n      dup1\n      mload\n      swap1\n      0x20\n      add\n      swap1\n      swap3\n      swap2\n      swap1\n      pop\n      pop\n      pop\n        /* \"https://github.com/OpenZeppelin/openzeppelin-contracts/blob/release-v2.5.0/contracts/token/ERC20/SafeERC20.sol\":1431:1475  token.allowance(address(this), spender) == 0 */\n      eq\n        /* \"https://github.com/OpenZeppelin/openzeppelin-contracts/blob/release-v2.5.0/contracts/token/ERC20/SafeERC20.sol\":1414:1476  (value == 0) || (token.allowance(address(this), spender) == 0) */\n    tag_255:\n        /* \"https://github.com/OpenZeppelin/openzeppelin-contracts/blob/release-v2.5.0/contracts/token/ERC20/SafeERC20.sol\":1406:1556  require((value == 0) || (token.allowance(address(this), spender) == 0),... */\n      tag_259\n      jumpi\n      mload(0x40)\n      0x08c379a000000000000000000000000000000000000000000000000000000000\n      dup2\n      mstore\n      0x04\n      add\n      dup1\n      dup1\n      0x20\n      add\n      dup3\n      dup2\n      sub\n      dup3\n      mstore\n      0x36\n      dup2\n      mstore\n      0x20\n      add\n      dup1\n      data_ef945ddb1bfdc0da870feb4560d868b047642b4ac7f2fb7f8b7c51cb4a411e25\n      0x36\n      swap2\n      codecopy\n      0x40\n      add\n      swap2\n      pop\n      pop\n      mload(0x40)\n      dup1\n      swap2\n      sub\n      swap1\n      revert\n    tag_259:\n        /* \"https://github.com/OpenZeppelin/openzeppelin-contracts/blob/release-v2.5.0/contracts/token/ERC20/SafeERC20.sol\":1566:1655  callOptionalReturn(token, abi.encodeWithSelector(token.approve.selector, spender, value)) */\n      tag_260\n        /* \"https://github.com/OpenZeppelin/openzeppelin-contracts/blob/release-v2.5.0/contracts/token/ERC20/SafeERC20.sol\":1585:1590  token */\n      dup4\n        /* \"https://github.com/OpenZeppelin/openzeppelin-contracts/blob/release-v2.5.0/contracts/token/ERC20/SafeERC20.sol\":1615:1620  token */\n      dup5\n        /* \"https://github.com/OpenZeppelin/openzeppelin-contracts/blob/release-v2.5.0/contracts/token/ERC20/SafeERC20.sol\":1615:1628  token.approve */\n      0xffffffffffffffffffffffffffffffffffffffff\n      and\n      0x095ea7b3\n        /* \"https://github.com/OpenZeppelin/openzeppelin-contracts/blob/release-v2.5.0/contracts/token/ERC20/SafeERC20.sol\":1615:1637  token.approve.selector */\n      swap1\n      pop\n      0xe0\n      shl\n        /* \"https://github.com/OpenZeppelin/openzeppelin-contracts/blob/release-v2.5.0/contracts/token/ERC20/SafeERC20.sol\":1639:1646  spender */\n      dup5\n        /* \"https://github.com/OpenZeppelin/openzeppelin-contracts/blob/release-v2.5.0/contracts/token/ERC20/SafeERC20.sol\":1648:1653  value */\n      dup5\n        /* \"https://github.com/OpenZeppelin/openzeppelin-contracts/blob/release-v2.5.0/contracts/token/ERC20/SafeERC20.sol\":1592:1654  abi.encodeWithSelector(token.approve.selector, spender, value) */\n      add(0x24, mload(0x40))\n      dup1\n      dup4\n      0xffffffffffffffffffffffffffffffffffffffff\n      and\n      0xffffffffffffffffffffffffffffffffffffffff\n      and\n      dup2\n      mstore\n      0x20\n      add\n      dup3\n      dup2\n      mstore\n      0x20\n      add\n      swap3\n      pop\n      pop\n      pop\n      mload(0x40)\n        /* \"--CODEGEN--\":49:53   */\n      0x20\n        /* \"--CODEGEN--\":39:46   */\n      dup2\n        /* \"--CODEGEN--\":30:37   */\n      dup4\n        /* \"--CODEGEN--\":26:47   */\n      sub\n        /* \"--CODEGEN--\":22:54   */\n      sub\n        /* \"--CODEGEN--\":13:20   */\n      dup2\n        /* \"--CODEGEN--\":6:55   */\n      mstore\n        /* \"https://github.com/OpenZeppelin/openzeppelin-contracts/blob/release-v2.5.0/contracts/token/ERC20/SafeERC20.sol\":1592:1654  abi.encodeWithSelector(token.approve.selector, spender, value) */\n      swap1\n      0x40\n      mstore\n      swap1\n      not(0xffffffffffffffffffffffffffffffffffffffffffffffffffffffff)\n      and\n        /* \"--CODEGEN--\":38:42   */\n      0x20\n        /* \"--CODEGEN--\":29:36   */\n      dup3\n        /* \"--CODEGEN--\":25:43   */\n      add\n        /* \"--CODEGEN--\":67:77   */\n      dup1\n        /* \"--CODEGEN--\":61:78   */\n      mload\n        /* \"--CODEGEN--\":96:154   */\n      0xffffffffffffffffffffffffffffffffffffffffffffffffffffffff\n        /* \"--CODEGEN--\":199:207   */\n      dup4\n        /* \"--CODEGEN--\":192:196   */\n      dup2\n        /* \"--CODEGEN--\":186:190   */\n      dup4\n        /* \"--CODEGEN--\":182:197   */\n      and\n        /* \"--CODEGEN--\":179:208   */\n      or\n        /* \"--CODEGEN--\":167:177   */\n      dup4\n        /* \"--CODEGEN--\":160:209   */\n      mstore\n        /* \"--CODEGEN--\":0:215   */\n      pop\n      pop\n      pop\n        /* \"https://github.com/OpenZeppelin/openzeppelin-contracts/blob/release-v2.5.0/contracts/token/ERC20/SafeERC20.sol\":1592:1654  abi.encodeWithSelector(token.approve.selector, spender, value) */\n      pop\n        /* \"https://github.com/OpenZeppelin/openzeppelin-contracts/blob/release-v2.5.0/contracts/token/ERC20/SafeERC20.sol\":1566:1584  callOptionalReturn */\n      tag_253\n        /* \"https://github.com/OpenZeppelin/openzeppelin-contracts/blob/release-v2.5.0/contracts/token/ERC20/SafeERC20.sol\":1566:1655  callOptionalReturn(token, abi.encodeWithSelector(token.approve.selector, spender, value)) */\n      jump\t// in\n    tag_260:\n        /* \"https://github.com/OpenZeppelin/openzeppelin-contracts/blob/release-v2.5.0/contracts/token/ERC20/SafeERC20.sol\":1050:1662  function safeApprove(IERC20 token, address spender, uint256 value) internal {... */\n      pop\n      pop\n      pop\n      jump\t// out\n        /* \"Users/yanickwilisky/Library/CloudStorage/GoogleDrive-yanickw@gmail.com/My Drive/09_Programming/FinTech_Workspace/sabot3/Contracts/MoneyToCurve.sol\":6221:6328  function crvTokenClaim() internal {... */\n    tag_105:\n        /* \"Users/yanickwilisky/Library/CloudStorage/GoogleDrive-yanickw@gmail.com/My Drive/09_Programming/FinTech_Workspace/sabot3/Contracts/MoneyToCurve.sol\":6281:6298  curveFi_CRVMinter */\n      0x38\n      0x00\n      swap1\n      sload\n      swap1\n      0x0100\n      exp\n      swap1\n      div\n      0xffffffffffffffffffffffffffffffffffffffff\n      and\n        /* \"Users/yanickwilisky/Library/CloudStorage/GoogleDrive-yanickw@gmail.com/My Drive/09_Programming/FinTech_Workspace/sabot3/Contracts/MoneyToCurve.sol\":6265:6304  ICurveFi_Minter(curveFi_CRVMinter).mint */\n      0xffffffffffffffffffffffffffffffffffffffff\n      and\n      0x6a627842\n        /* \"Users/yanickwilisky/Library/CloudStorage/GoogleDrive-yanickw@gmail.com/My Drive/09_Programming/FinTech_Workspace/sabot3/Contracts/MoneyToCurve.sol\":6305:6320  curveFi_LPGauge */\n      0x37\n      0x00\n      swap1\n      sload\n      swap1\n      0x0100\n      exp\n      swap1\n      div\n      0xffffffffffffffffffffffffffffffffffffffff\n      and\n        /* \"Users/yanickwilisky/Library/CloudStorage/GoogleDrive-yanickw@gmail.com/My Drive/09_Programming/FinTech_Workspace/sabot3/Contracts/MoneyToCurve.sol\":6265:6321  ICurveFi_Minter(curveFi_CRVMinter).mint(curveFi_LPGauge) */\n      mload(0x40)\n      dup3\n      0xffffffff\n      and\n      0xe0\n      shl\n      dup2\n      mstore\n      0x04\n      add\n      dup1\n      dup3\n      0xffffffffffffffffffffffffffffffffffffffff\n      and\n      0xffffffffffffffffffffffffffffffffffffffff\n      and\n      dup2\n      mstore\n      0x20\n      add\n      swap2\n      pop\n      pop\n      0x00\n      mload(0x40)\n      dup1\n      dup4\n      sub\n      dup2\n      0x00\n      dup8\n      dup1\n      extcodesize\n      iszero\n        /* \"--CODEGEN--\":8:17   */\n      dup1\n        /* \"--CODEGEN--\":5:7   */\n      iszero\n      tag_262\n      jumpi\n        /* \"--CODEGEN--\":30:31   */\n      0x00\n        /* \"--CODEGEN--\":27:28   */\n      dup1\n        /* \"--CODEGEN--\":20:32   */\n      revert\n        /* \"--CODEGEN--\":5:7   */\n    tag_262:\n        /* \"Users/yanickwilisky/Library/CloudStorage/GoogleDrive-yanickw@gmail.com/My Drive/09_Programming/FinTech_Workspace/sabot3/Contracts/MoneyToCurve.sol\":6265:6321  ICurveFi_Minter(curveFi_CRVMinter).mint(curveFi_LPGauge) */\n      pop\n      gas\n      call\n      iszero\n        /* \"--CODEGEN--\":8:17   */\n      dup1\n        /* \"--CODEGEN--\":5:7   */\n      iszero\n      tag_263\n      jumpi\n        /* \"--CODEGEN--\":45:61   */\n      returndatasize\n        /* \"--CODEGEN--\":42:43   */\n      0x00\n        /* \"--CODEGEN--\":39:40   */\n      dup1\n        /* \"--CODEGEN--\":24:62   */\n      returndatacopy\n        /* \"--CODEGEN--\":77:93   */\n      returndatasize\n        /* \"--CODEGEN--\":74:75   */\n      0x00\n        /* \"--CODEGEN--\":67:94   */\n      revert\n        /* \"--CODEGEN--\":5:7   */\n    tag_263:\n        /* \"Users/yanickwilisky/Library/CloudStorage/GoogleDrive-yanickw@gmail.com/My Drive/09_Programming/FinTech_Workspace/sabot3/Contracts/MoneyToCurve.sol\":6265:6321  ICurveFi_Minter(curveFi_CRVMinter).mint(curveFi_LPGauge) */\n      pop\n      pop\n      pop\n      pop\n        /* \"Users/yanickwilisky/Library/CloudStorage/GoogleDrive-yanickw@gmail.com/My Drive/09_Programming/FinTech_Workspace/sabot3/Contracts/MoneyToCurve.sol\":6221:6328  function crvTokenClaim() internal {... */\n      jump\t// out\n        /* \"https://github.com/OpenZeppelin/openzeppelin-contracts/blob/release-v2.5.0/contracts/token/ERC20/SafeERC20.sol\":662:836  function safeTransfer(IERC20 token, address to, uint256 value) internal {... */\n    tag_111:\n        /* \"https://github.com/OpenZeppelin/openzeppelin-contracts/blob/release-v2.5.0/contracts/token/ERC20/SafeERC20.sol\":744:829  callOptionalReturn(token, abi.encodeWithSelector(token.transfer.selector, to, value)) */\n      tag_265\n        /* \"https://github.com/OpenZeppelin/openzeppelin-contracts/blob/release-v2.5.0/contracts/token/ERC20/SafeERC20.sol\":763:768  token */\n      dup4\n        /* \"https://github.com/OpenZeppelin/openzeppelin-contracts/blob/release-v2.5.0/contracts/token/ERC20/SafeERC20.sol\":793:798  token */\n      dup5\n        /* \"https://github.com/OpenZeppelin/openzeppelin-contracts/blob/release-v2.5.0/contracts/token/ERC20/SafeERC20.sol\":793:807  token.transfer */\n      0xffffffffffffffffffffffffffffffffffffffff\n      and\n      0xa9059cbb\n        /* \"https://github.com/OpenZeppelin/openzeppelin-contracts/blob/release-v2.5.0/contracts/token/ERC20/SafeERC20.sol\":793:816  token.transfer.selector */\n      swap1\n      pop\n      0xe0\n      shl\n        /* \"https://github.com/OpenZeppelin/openzeppelin-contracts/blob/release-v2.5.0/contracts/token/ERC20/SafeERC20.sol\":818:820  to */\n      dup5\n        /* \"https://github.com/OpenZeppelin/openzeppelin-contracts/blob/release-v2.5.0/contracts/token/ERC20/SafeERC20.sol\":822:827  value */\n      dup5\n        /* \"https://github.com/OpenZeppelin/openzeppelin-contracts/blob/release-v2.5.0/contracts/token/ERC20/SafeERC20.sol\":770:828  abi.encodeWithSelector(token.transfer.selector, to, value) */\n      add(0x24, mload(0x40))\n      dup1\n      dup4\n      0xffffffffffffffffffffffffffffffffffffffff\n      and\n      0xffffffffffffffffffffffffffffffffffffffff\n      and\n      dup2\n      mstore\n      0x20\n      add\n      dup3\n      dup2\n      mstore\n      0x20\n      add\n      swap3\n      pop\n      pop\n      pop\n      mload(0x40)\n        /* \"--CODEGEN--\":49:53   */\n      0x20\n        /* \"--CODEGEN--\":39:46   */\n      dup2\n        /* \"--CODEGEN--\":30:37   */\n      dup4\n        /* \"--CODEGEN--\":26:47   */\n      sub\n        /* \"--CODEGEN--\":22:54   */\n      sub\n        /* \"--CODEGEN--\":13:20   */\n      dup2\n        /* \"--CODEGEN--\":6:55   */\n      mstore\n        /* \"https://github.com/OpenZeppelin/openzeppelin-contracts/blob/release-v2.5.0/contracts/token/ERC20/SafeERC20.sol\":770:828  abi.encodeWithSelector(token.transfer.selector, to, value) */\n      swap1\n      0x40\n      mstore\n      swap1\n      not(0xffffffffffffffffffffffffffffffffffffffffffffffffffffffff)\n      and\n        /* \"--CODEGEN--\":38:42   */\n      0x20\n        /* \"--CODEGEN--\":29:36   */\n      dup3\n        /* \"--CODEGEN--\":25:43   */\n      add\n        /* \"--CODEGEN--\":67:77   */\n      dup1\n        /* \"--CODEGEN--\":61:78   */\n      mload\n        /* \"--CODEGEN--\":96:154   */\n      0xffffffffffffffffffffffffffffffffffffffffffffffffffffffff\n        /* \"--CODEGEN--\":199:207   */\n      dup4\n        /* \"--CODEGEN--\":192:196   */\n      dup2\n        /* \"--CODEGEN--\":186:190   */\n      dup4\n        /* \"--CODEGEN--\":182:197   */\n      and\n        /* \"--CODEGEN--\":179:208   */\n      or\n        /* \"--CODEGEN--\":167:177   */\n      dup4\n        /* \"--CODEGEN--\":160:209   */\n      mstore\n        /* \"--CODEGEN--\":0:215   */\n      pop\n      pop\n      pop\n        /* \"https://github.com/OpenZeppelin/openzeppelin-contracts/blob/release-v2.5.0/contracts/token/ERC20/SafeERC20.sol\":770:828  abi.encodeWithSelector(token.transfer.selector, to, value) */\n      pop\n        /* \"https://github.com/OpenZeppelin/openzeppelin-contracts/blob/release-v2.5.0/contracts/token/ERC20/SafeERC20.sol\":744:762  callOptionalReturn */\n      tag_253\n        /* \"https://github.com/OpenZeppelin/openzeppelin-contracts/blob/release-v2.5.0/contracts/token/ERC20/SafeERC20.sol\":744:829  callOptionalReturn(token, abi.encodeWithSelector(token.transfer.selector, to, value)) */\n      jump\t// in\n    tag_265:\n        /* \"https://github.com/OpenZeppelin/openzeppelin-contracts/blob/release-v2.5.0/contracts/token/ERC20/SafeERC20.sol\":662:836  function safeTransfer(IERC20 token, address to, uint256 value) internal {... */\n      pop\n      pop\n      pop\n      jump\t// out\n        /* \"https://github.com/OpenZeppelin/openzeppelin-contracts/blob/release-v2.5.0/contracts/math/SafeMath.sol\":2159:2618  function mul(uint256 a, uint256 b) internal pure returns (uint256) {... */\n    tag_135:\n        /* \"https://github.com/OpenZeppelin/openzeppelin-contracts/blob/release-v2.5.0/contracts/math/SafeMath.sol\":2217:2224  uint256 */\n      0x00\n        /* \"https://github.com/OpenZeppelin/openzeppelin-contracts/blob/release-v2.5.0/contracts/math/SafeMath.sol\":2463:2464  0 */\n      dup1\n        /* \"https://github.com/OpenZeppelin/openzeppelin-contracts/blob/release-v2.5.0/contracts/math/SafeMath.sol\":2458:2459  a */\n      dup4\n        /* \"https://github.com/OpenZeppelin/openzeppelin-contracts/blob/release-v2.5.0/contracts/math/SafeMath.sol\":2458:2464  a == 0 */\n      eq\n        /* \"https://github.com/OpenZeppelin/openzeppelin-contracts/blob/release-v2.5.0/contracts/math/SafeMath.sol\":2454:2499  if (a == 0) {... */\n      iszero\n      tag_267\n      jumpi\n        /* \"https://github.com/OpenZeppelin/openzeppelin-contracts/blob/release-v2.5.0/contracts/math/SafeMath.sol\":2487:2488  0 */\n      0x00\n        /* \"https://github.com/OpenZeppelin/openzeppelin-contracts/blob/release-v2.5.0/contracts/math/SafeMath.sol\":2480:2488  return 0 */\n      swap1\n      pop\n      jump(tag_266)\n        /* \"https://github.com/OpenZeppelin/openzeppelin-contracts/blob/release-v2.5.0/contracts/math/SafeMath.sol\":2454:2499  if (a == 0) {... */\n    tag_267:\n        /* \"https://github.com/OpenZeppelin/openzeppelin-contracts/blob/release-v2.5.0/contracts/math/SafeMath.sol\":2509:2518  uint256 c */\n      0x00\n        /* \"https://github.com/OpenZeppelin/openzeppelin-contracts/blob/release-v2.5.0/contracts/math/SafeMath.sol\":2525:2526  b */\n      dup3\n        /* \"https://github.com/OpenZeppelin/openzeppelin-contracts/blob/release-v2.5.0/contracts/math/SafeMath.sol\":2521:2522  a */\n      dup5\n        /* \"https://github.com/OpenZeppelin/openzeppelin-contracts/blob/release-v2.5.0/contracts/math/SafeMath.sol\":2521:2526  a * b */\n      mul\n        /* \"https://github.com/OpenZeppelin/openzeppelin-contracts/blob/release-v2.5.0/contracts/math/SafeMath.sol\":2509:2526  uint256 c = a * b */\n      swap1\n      pop\n        /* \"https://github.com/OpenZeppelin/openzeppelin-contracts/blob/release-v2.5.0/contracts/math/SafeMath.sol\":2553:2554  b */\n      dup3\n        /* \"https://github.com/OpenZeppelin/openzeppelin-contracts/blob/release-v2.5.0/contracts/math/SafeMath.sol\":2548:2549  a */\n      dup5\n        /* \"https://github.com/OpenZeppelin/openzeppelin-contracts/blob/release-v2.5.0/contracts/math/SafeMath.sol\":2544:2545  c */\n      dup3\n        /* \"https://github.com/OpenZeppelin/openzeppelin-contracts/blob/release-v2.5.0/contracts/math/SafeMath.sol\":2544:2549  c / a */\n      dup2\n      tag_268\n      jumpi\n      invalid\n    tag_268:\n      div\n        /* \"https://github.com/OpenZeppelin/openzeppelin-contracts/blob/release-v2.5.0/contracts/math/SafeMath.sol\":2544:2554  c / a == b */\n      eq\n        /* \"https://github.com/OpenZeppelin/openzeppelin-contracts/blob/release-v2.5.0/contracts/math/SafeMath.sol\":2536:2592  require(c / a == b, \"SafeMath: multiplication overflow\") */\n      tag_269\n      jumpi\n      mload(0x40)\n      0x08c379a000000000000000000000000000000000000000000000000000000000\n      dup2\n      mstore\n      0x04\n      add\n      dup1\n      dup1\n      0x20\n      add\n      dup3\n      dup2\n      sub\n      dup3\n      mstore\n      0x21\n      dup2\n      mstore\n      0x20\n      add\n      dup1\n      data_9113bb53c2876a3805b2c9242029423fc540a728243ce887ab24c82cf119fba3\n      0x21\n      swap2\n      codecopy\n      0x40\n      add\n      swap2\n      pop\n      pop\n      mload(0x40)\n      dup1\n      swap2\n      sub\n      swap1\n      revert\n    tag_269:\n        /* \"https://github.com/OpenZeppelin/openzeppelin-contracts/blob/release-v2.5.0/contracts/math/SafeMath.sol\":2610:2611  c */\n      dup1\n        /* \"https://github.com/OpenZeppelin/openzeppelin-contracts/blob/release-v2.5.0/contracts/math/SafeMath.sol\":2603:2611  return c */\n      swap2\n      pop\n      pop\n        /* \"https://github.com/OpenZeppelin/openzeppelin-contracts/blob/release-v2.5.0/contracts/math/SafeMath.sol\":2159:2618  function mul(uint256 a, uint256 b) internal pure returns (uint256) {... */\n    tag_266:\n      swap3\n      swap2\n      pop\n      pop\n      jump\t// out\n        /* \"https://github.com/OpenZeppelin/openzeppelin-contracts/blob/release-v2.5.0/contracts/math/SafeMath.sol\":3073:3203  function div(uint256 a, uint256 b) internal pure returns (uint256) {... */\n    tag_136:\n        /* \"https://github.com/OpenZeppelin/openzeppelin-contracts/blob/release-v2.5.0/contracts/math/SafeMath.sol\":3131:3138  uint256 */\n      0x00\n        /* \"https://github.com/OpenZeppelin/openzeppelin-contracts/blob/release-v2.5.0/contracts/math/SafeMath.sol\":3157:3196  div(a, b, \"SafeMath: division by zero\") */\n      tag_271\n        /* \"https://github.com/OpenZeppelin/openzeppelin-contracts/blob/release-v2.5.0/contracts/math/SafeMath.sol\":3161:3162  a */\n      dup4\n        /* \"https://github.com/OpenZeppelin/openzeppelin-contracts/blob/release-v2.5.0/contracts/math/SafeMath.sol\":3164:3165  b */\n      dup4\n        /* \"https://github.com/OpenZeppelin/openzeppelin-contracts/blob/release-v2.5.0/contracts/math/SafeMath.sol\":3157:3196  div(a, b, \"SafeMath: division by zero\") */\n      mload(0x40)\n      dup1\n      0x40\n      add\n      0x40\n      mstore\n      dup1\n      0x1a\n      dup2\n      mstore\n      0x20\n      add\n      0x536166654d6174683a206469766973696f6e206279207a65726f000000000000\n      dup2\n      mstore\n      pop\n        /* \"https://github.com/OpenZeppelin/openzeppelin-contracts/blob/release-v2.5.0/contracts/math/SafeMath.sol\":3157:3160  div */\n      tag_272\n        /* \"https://github.com/OpenZeppelin/openzeppelin-contracts/blob/release-v2.5.0/contracts/math/SafeMath.sol\":3157:3196  div(a, b, \"SafeMath: division by zero\") */\n      jump\t// in\n    tag_271:\n        /* \"https://github.com/OpenZeppelin/openzeppelin-contracts/blob/release-v2.5.0/contracts/math/SafeMath.sol\":3150:3196  return div(a, b, \"SafeMath: division by zero\") */\n      swap1\n      pop\n        /* \"https://github.com/OpenZeppelin/openzeppelin-contracts/blob/release-v2.5.0/contracts/math/SafeMath.sol\":3073:3203  function div(uint256 a, uint256 b) internal pure returns (uint256) {... */\n      swap3\n      swap2\n      pop\n      pop\n      jump\t// out\n        /* \"Users/yanickwilisky/Library/CloudStorage/GoogleDrive-yanickw@gmail.com/My Drive/09_Programming/FinTech_Workspace/sabot3/Contracts/MoneyToCurve.sol\":8500:8903  function normalize(address coin, uint256 amount) internal view returns(uint256) {... */\n    tag_155:\n        /* \"Users/yanickwilisky/Library/CloudStorage/GoogleDrive-yanickw@gmail.com/My Drive/09_Programming/FinTech_Workspace/sabot3/Contracts/MoneyToCurve.sol\":8571:8578  uint256 */\n      0x00\n        /* \"Users/yanickwilisky/Library/CloudStorage/GoogleDrive-yanickw@gmail.com/My Drive/09_Programming/FinTech_Workspace/sabot3/Contracts/MoneyToCurve.sol\":8590:8604  uint8 decimals */\n      dup1\n        /* \"Users/yanickwilisky/Library/CloudStorage/GoogleDrive-yanickw@gmail.com/My Drive/09_Programming/FinTech_Workspace/sabot3/Contracts/MoneyToCurve.sol\":8621:8625  coin */\n      dup4\n        /* \"Users/yanickwilisky/Library/CloudStorage/GoogleDrive-yanickw@gmail.com/My Drive/09_Programming/FinTech_Workspace/sabot3/Contracts/MoneyToCurve.sol\":8607:8635  ERC20Detailed(coin).decimals */\n      0xffffffffffffffffffffffffffffffffffffffff\n      and\n      0x313ce567\n        /* \"Users/yanickwilisky/Library/CloudStorage/GoogleDrive-yanickw@gmail.com/My Drive/09_Programming/FinTech_Workspace/sabot3/Contracts/MoneyToCurve.sol\":8607:8637  ERC20Detailed(coin).decimals() */\n      mload(0x40)\n      dup2\n      0xffffffff\n      and\n      0xe0\n      shl\n      dup2\n      mstore\n      0x04\n      add\n      0x20\n      mload(0x40)\n      dup1\n      dup4\n      sub\n      dup2\n      dup7\n      dup1\n      extcodesize\n      iszero\n        /* \"--CODEGEN--\":8:17   */\n      dup1\n        /* \"--CODEGEN--\":5:7   */\n      iszero\n      tag_274\n      jumpi\n        /* \"--CODEGEN--\":30:31   */\n      0x00\n        /* \"--CODEGEN--\":27:28   */\n      dup1\n        /* \"--CODEGEN--\":20:32   */\n      revert\n        /* \"--CODEGEN--\":5:7   */\n    tag_274:\n        /* \"Users/yanickwilisky/Library/CloudStorage/GoogleDrive-yanickw@gmail.com/My Drive/09_Programming/FinTech_Workspace/sabot3/Contracts/MoneyToCurve.sol\":8607:8637  ERC20Detailed(coin).decimals() */\n      pop\n      gas\n      staticcall\n      iszero\n        /* \"--CODEGEN--\":8:17   */\n      dup1\n        /* \"--CODEGEN--\":5:7   */\n      iszero\n      tag_275\n      jumpi\n        /* \"--CODEGEN--\":45:61   */\n      returndatasize\n        /* \"--CODEGEN--\":42:43   */\n      0x00\n        /* \"--CODEGEN--\":39:40   */\n      dup1\n        /* \"--CODEGEN--\":24:62   */\n      returndatacopy\n        /* \"--CODEGEN--\":77:93   */\n      returndatasize\n        /* \"--CODEGEN--\":74:75   */\n      0x00\n        /* \"--CODEGEN--\":67:94   */\n      revert\n        /* \"--CODEGEN--\":5:7   */\n    tag_275:\n        /* \"Users/yanickwilisky/Library/CloudStorage/GoogleDrive-yanickw@gmail.com/My Drive/09_Programming/FinTech_Workspace/sabot3/Contracts/MoneyToCurve.sol\":8607:8637  ERC20Detailed(coin).decimals() */\n      pop\n      pop\n      pop\n      pop\n      mload(0x40)\n      returndatasize\n        /* \"--CODEGEN--\":13:15   */\n      0x20\n        /* \"--CODEGEN--\":8:11   */\n      dup2\n        /* \"--CODEGEN--\":5:16   */\n      lt\n        /* \"--CODEGEN--\":2:4   */\n      iszero\n      tag_276\n      jumpi\n        /* \"--CODEGEN--\":29:30   */\n      0x00\n        /* \"--CODEGEN--\":26:27   */\n      dup1\n        /* \"--CODEGEN--\":19:31   */\n      revert\n        /* \"--CODEGEN--\":2:4   */\n    tag_276:\n        /* \"Users/yanickwilisky/Library/CloudStorage/GoogleDrive-yanickw@gmail.com/My Drive/09_Programming/FinTech_Workspace/sabot3/Contracts/MoneyToCurve.sol\":8607:8637  ERC20Detailed(coin).decimals() */\n      dup2\n      add\n      swap1\n      dup1\n      dup1\n      mload\n      swap1\n      0x20\n      add\n      swap1\n      swap3\n      swap2\n      swap1\n      pop\n      pop\n      pop\n        /* \"Users/yanickwilisky/Library/CloudStorage/GoogleDrive-yanickw@gmail.com/My Drive/09_Programming/FinTech_Workspace/sabot3/Contracts/MoneyToCurve.sol\":8590:8637  uint8 decimals = ERC20Detailed(coin).decimals() */\n      swap1\n      pop\n        /* \"Users/yanickwilisky/Library/CloudStorage/GoogleDrive-yanickw@gmail.com/My Drive/09_Programming/FinTech_Workspace/sabot3/Contracts/MoneyToCurve.sol\":8663:8665  18 */\n      0x12\n        /* \"Users/yanickwilisky/Library/CloudStorage/GoogleDrive-yanickw@gmail.com/My Drive/09_Programming/FinTech_Workspace/sabot3/Contracts/MoneyToCurve.sol\":8651:8659  decimals */\n      dup2\n        /* \"Users/yanickwilisky/Library/CloudStorage/GoogleDrive-yanickw@gmail.com/My Drive/09_Programming/FinTech_Workspace/sabot3/Contracts/MoneyToCurve.sol\":8651:8665  decimals == 18 */\n      0xff\n      and\n      eq\n        /* \"Users/yanickwilisky/Library/CloudStorage/GoogleDrive-yanickw@gmail.com/My Drive/09_Programming/FinTech_Workspace/sabot3/Contracts/MoneyToCurve.sol\":8647:8897  if (decimals == 18) {... */\n      iszero\n      tag_277\n      jumpi\n        /* \"Users/yanickwilisky/Library/CloudStorage/GoogleDrive-yanickw@gmail.com/My Drive/09_Programming/FinTech_Workspace/sabot3/Contracts/MoneyToCurve.sol\":8688:8694  amount */\n      dup3\n        /* \"Users/yanickwilisky/Library/CloudStorage/GoogleDrive-yanickw@gmail.com/My Drive/09_Programming/FinTech_Workspace/sabot3/Contracts/MoneyToCurve.sol\":8681:8694  return amount */\n      swap2\n      pop\n      pop\n      jump(tag_273)\n        /* \"Users/yanickwilisky/Library/CloudStorage/GoogleDrive-yanickw@gmail.com/My Drive/09_Programming/FinTech_Workspace/sabot3/Contracts/MoneyToCurve.sol\":8647:8897  if (decimals == 18) {... */\n    tag_277:\n        /* \"Users/yanickwilisky/Library/CloudStorage/GoogleDrive-yanickw@gmail.com/My Drive/09_Programming/FinTech_Workspace/sabot3/Contracts/MoneyToCurve.sol\":8726:8728  18 */\n      0x12\n        /* \"Users/yanickwilisky/Library/CloudStorage/GoogleDrive-yanickw@gmail.com/My Drive/09_Programming/FinTech_Workspace/sabot3/Contracts/MoneyToCurve.sol\":8715:8723  decimals */\n      dup2\n        /* \"Users/yanickwilisky/Library/CloudStorage/GoogleDrive-yanickw@gmail.com/My Drive/09_Programming/FinTech_Workspace/sabot3/Contracts/MoneyToCurve.sol\":8715:8728  decimals > 18 */\n      0xff\n      and\n      gt\n        /* \"Users/yanickwilisky/Library/CloudStorage/GoogleDrive-yanickw@gmail.com/My Drive/09_Programming/FinTech_Workspace/sabot3/Contracts/MoneyToCurve.sol\":8711:8897  if (decimals > 18) {... */\n      iszero\n      tag_279\n      jumpi\n        /* \"Users/yanickwilisky/Library/CloudStorage/GoogleDrive-yanickw@gmail.com/My Drive/09_Programming/FinTech_Workspace/sabot3/Contracts/MoneyToCurve.sol\":8751:8789  amount.div(uint256(10)**(decimals-18)) */\n      tag_280\n        /* \"Users/yanickwilisky/Library/CloudStorage/GoogleDrive-yanickw@gmail.com/My Drive/09_Programming/FinTech_Workspace/sabot3/Contracts/MoneyToCurve.sol\":8785:8787  18 */\n      0x12\n        /* \"Users/yanickwilisky/Library/CloudStorage/GoogleDrive-yanickw@gmail.com/My Drive/09_Programming/FinTech_Workspace/sabot3/Contracts/MoneyToCurve.sol\":8776:8784  decimals */\n      dup3\n        /* \"Users/yanickwilisky/Library/CloudStorage/GoogleDrive-yanickw@gmail.com/My Drive/09_Programming/FinTech_Workspace/sabot3/Contracts/MoneyToCurve.sol\":8776:8787  decimals-18 */\n      sub\n        /* \"Users/yanickwilisky/Library/CloudStorage/GoogleDrive-yanickw@gmail.com/My Drive/09_Programming/FinTech_Workspace/sabot3/Contracts/MoneyToCurve.sol\":8762:8788  uint256(10)**(decimals-18) */\n      0xff\n      and\n        /* \"Users/yanickwilisky/Library/CloudStorage/GoogleDrive-yanickw@gmail.com/My Drive/09_Programming/FinTech_Workspace/sabot3/Contracts/MoneyToCurve.sol\":8770:8772  10 */\n      0x0a\n        /* \"Users/yanickwilisky/Library/CloudStorage/GoogleDrive-yanickw@gmail.com/My Drive/09_Programming/FinTech_Workspace/sabot3/Contracts/MoneyToCurve.sol\":8762:8788  uint256(10)**(decimals-18) */\n      exp\n        /* \"Users/yanickwilisky/Library/CloudStorage/GoogleDrive-yanickw@gmail.com/My Drive/09_Programming/FinTech_Workspace/sabot3/Contracts/MoneyToCurve.sol\":8751:8757  amount */\n      dup5\n        /* \"Users/yanickwilisky/Library/CloudStorage/GoogleDrive-yanickw@gmail.com/My Drive/09_Programming/FinTech_Workspace/sabot3/Contracts/MoneyToCurve.sol\":8751:8761  amount.div */\n      tag_136\n      swap1\n        /* \"Users/yanickwilisky/Library/CloudStorage/GoogleDrive-yanickw@gmail.com/My Drive/09_Programming/FinTech_Workspace/sabot3/Contracts/MoneyToCurve.sol\":8751:8789  amount.div(uint256(10)**(decimals-18)) */\n      swap2\n      swap1\n      0xffffffff\n      and\n      jump\t// in\n    tag_280:\n        /* \"Users/yanickwilisky/Library/CloudStorage/GoogleDrive-yanickw@gmail.com/My Drive/09_Programming/FinTech_Workspace/sabot3/Contracts/MoneyToCurve.sol\":8744:8789  return amount.div(uint256(10)**(decimals-18)) */\n      swap2\n      pop\n      pop\n      jump(tag_273)\n        /* \"Users/yanickwilisky/Library/CloudStorage/GoogleDrive-yanickw@gmail.com/My Drive/09_Programming/FinTech_Workspace/sabot3/Contracts/MoneyToCurve.sol\":8711:8897  if (decimals > 18) {... */\n    tag_279:\n        /* \"Users/yanickwilisky/Library/CloudStorage/GoogleDrive-yanickw@gmail.com/My Drive/09_Programming/FinTech_Workspace/sabot3/Contracts/MoneyToCurve.sol\":8821:8823  18 */\n      0x12\n        /* \"Users/yanickwilisky/Library/CloudStorage/GoogleDrive-yanickw@gmail.com/My Drive/09_Programming/FinTech_Workspace/sabot3/Contracts/MoneyToCurve.sol\":8810:8818  decimals */\n      dup2\n        /* \"Users/yanickwilisky/Library/CloudStorage/GoogleDrive-yanickw@gmail.com/My Drive/09_Programming/FinTech_Workspace/sabot3/Contracts/MoneyToCurve.sol\":8810:8823  decimals < 18 */\n      0xff\n      and\n      lt\n        /* \"Users/yanickwilisky/Library/CloudStorage/GoogleDrive-yanickw@gmail.com/My Drive/09_Programming/FinTech_Workspace/sabot3/Contracts/MoneyToCurve.sol\":8806:8897  if (decimals < 18) {... */\n      iszero\n      tag_282\n      jumpi\n        /* \"Users/yanickwilisky/Library/CloudStorage/GoogleDrive-yanickw@gmail.com/My Drive/09_Programming/FinTech_Workspace/sabot3/Contracts/MoneyToCurve.sol\":8846:8886  amount.mul(uint256(10)**(18 - decimals)) */\n      tag_283\n        /* \"Users/yanickwilisky/Library/CloudStorage/GoogleDrive-yanickw@gmail.com/My Drive/09_Programming/FinTech_Workspace/sabot3/Contracts/MoneyToCurve.sol\":8876:8884  decimals */\n      dup2\n        /* \"Users/yanickwilisky/Library/CloudStorage/GoogleDrive-yanickw@gmail.com/My Drive/09_Programming/FinTech_Workspace/sabot3/Contracts/MoneyToCurve.sol\":8871:8873  18 */\n      0x12\n        /* \"Users/yanickwilisky/Library/CloudStorage/GoogleDrive-yanickw@gmail.com/My Drive/09_Programming/FinTech_Workspace/sabot3/Contracts/MoneyToCurve.sol\":8871:8884  18 - decimals */\n      sub\n        /* \"Users/yanickwilisky/Library/CloudStorage/GoogleDrive-yanickw@gmail.com/My Drive/09_Programming/FinTech_Workspace/sabot3/Contracts/MoneyToCurve.sol\":8857:8885  uint256(10)**(18 - decimals) */\n      0xff\n      and\n        /* \"Users/yanickwilisky/Library/CloudStorage/GoogleDrive-yanickw@gmail.com/My Drive/09_Programming/FinTech_Workspace/sabot3/Contracts/MoneyToCurve.sol\":8865:8867  10 */\n      0x0a\n        /* \"Users/yanickwilisky/Library/CloudStorage/GoogleDrive-yanickw@gmail.com/My Drive/09_Programming/FinTech_Workspace/sabot3/Contracts/MoneyToCurve.sol\":8857:8885  uint256(10)**(18 - decimals) */\n      exp\n        /* \"Users/yanickwilisky/Library/CloudStorage/GoogleDrive-yanickw@gmail.com/My Drive/09_Programming/FinTech_Workspace/sabot3/Contracts/MoneyToCurve.sol\":8846:8852  amount */\n      dup5\n        /* \"Users/yanickwilisky/Library/CloudStorage/GoogleDrive-yanickw@gmail.com/My Drive/09_Programming/FinTech_Workspace/sabot3/Contracts/MoneyToCurve.sol\":8846:8856  amount.mul */\n      tag_135\n      swap1\n        /* \"Users/yanickwilisky/Library/CloudStorage/GoogleDrive-yanickw@gmail.com/My Drive/09_Programming/FinTech_Workspace/sabot3/Contracts/MoneyToCurve.sol\":8846:8886  amount.mul(uint256(10)**(18 - decimals)) */\n      swap2\n      swap1\n      0xffffffff\n      and\n      jump\t// in\n    tag_283:\n        /* \"Users/yanickwilisky/Library/CloudStorage/GoogleDrive-yanickw@gmail.com/My Drive/09_Programming/FinTech_Workspace/sabot3/Contracts/MoneyToCurve.sol\":8839:8886  return amount.mul(uint256(10)**(18 - decimals)) */\n      swap2\n      pop\n      pop\n      jump(tag_273)\n        /* \"Users/yanickwilisky/Library/CloudStorage/GoogleDrive-yanickw@gmail.com/My Drive/09_Programming/FinTech_Workspace/sabot3/Contracts/MoneyToCurve.sol\":8806:8897  if (decimals < 18) {... */\n    tag_282:\n        /* \"Users/yanickwilisky/Library/CloudStorage/GoogleDrive-yanickw@gmail.com/My Drive/09_Programming/FinTech_Workspace/sabot3/Contracts/MoneyToCurve.sol\":8500:8903  function normalize(address coin, uint256 amount) internal view returns(uint256) {... */\n      pop\n    tag_273:\n      swap3\n      swap2\n      pop\n      pop\n      jump\t// out\n        /* \"https://github.com/OpenZeppelin/openzeppelin-contracts/blob/release-v2.5.0/contracts/math/SafeMath.sol\":834:1010  function add(uint256 a, uint256 b) internal pure returns (uint256) {... */\n    tag_156:\n        /* \"https://github.com/OpenZeppelin/openzeppelin-contracts/blob/release-v2.5.0/contracts/math/SafeMath.sol\":892:899  uint256 */\n      0x00\n        /* \"https://github.com/OpenZeppelin/openzeppelin-contracts/blob/release-v2.5.0/contracts/math/SafeMath.sol\":911:920  uint256 c */\n      dup1\n        /* \"https://github.com/OpenZeppelin/openzeppelin-contracts/blob/release-v2.5.0/contracts/math/SafeMath.sol\":927:928  b */\n      dup3\n        /* \"https://github.com/OpenZeppelin/openzeppelin-contracts/blob/release-v2.5.0/contracts/math/SafeMath.sol\":923:924  a */\n      dup5\n        /* \"https://github.com/OpenZeppelin/openzeppelin-contracts/blob/release-v2.5.0/contracts/math/SafeMath.sol\":923:928  a + b */\n      add\n        /* \"https://github.com/OpenZeppelin/openzeppelin-contracts/blob/release-v2.5.0/contracts/math/SafeMath.sol\":911:928  uint256 c = a + b */\n      swap1\n      pop\n        /* \"https://github.com/OpenZeppelin/openzeppelin-contracts/blob/release-v2.5.0/contracts/math/SafeMath.sol\":951:952  a */\n      dup4\n        /* \"https://github.com/OpenZeppelin/openzeppelin-contracts/blob/release-v2.5.0/contracts/math/SafeMath.sol\":946:947  c */\n      dup2\n        /* \"https://github.com/OpenZeppelin/openzeppelin-contracts/blob/release-v2.5.0/contracts/math/SafeMath.sol\":946:952  c >= a */\n      lt\n      iszero\n        /* \"https://github.com/OpenZeppelin/openzeppelin-contracts/blob/release-v2.5.0/contracts/math/SafeMath.sol\":938:984  require(c >= a, \"SafeMath: addition overflow\") */\n      tag_285\n      jumpi\n      mload(0x40)\n      0x08c379a000000000000000000000000000000000000000000000000000000000\n      dup2\n      mstore\n      0x04\n      add\n      dup1\n      dup1\n      0x20\n      add\n      dup3\n      dup2\n      sub\n      dup3\n      mstore\n      0x1b\n      dup2\n      mstore\n      0x20\n      add\n      dup1\n      0x536166654d6174683a206164646974696f6e206f766572666c6f770000000000\n      dup2\n      mstore\n      pop\n      0x20\n      add\n      swap2\n      pop\n      pop\n      mload(0x40)\n      dup1\n      swap2\n      sub\n      swap1\n      revert\n    tag_285:\n        /* \"https://github.com/OpenZeppelin/openzeppelin-contracts/blob/release-v2.5.0/contracts/math/SafeMath.sol\":1002:1003  c */\n      dup1\n        /* \"https://github.com/OpenZeppelin/openzeppelin-contracts/blob/release-v2.5.0/contracts/math/SafeMath.sol\":995:1003  return c */\n      swap2\n      pop\n      pop\n        /* \"https://github.com/OpenZeppelin/openzeppelin-contracts/blob/release-v2.5.0/contracts/math/SafeMath.sol\":834:1010  function add(uint256 a, uint256 b) internal pure returns (uint256) {... */\n      swap3\n      swap2\n      pop\n      pop\n      jump\t// out\n        /* \"Users/yanickwilisky/Library/CloudStorage/GoogleDrive-yanickw@gmail.com/My Drive/09_Programming/FinTech_Workspace/sabot3/Contracts/MoneyToCurve.sol\":6525:6790  function calculateShares(uint256 normalizedWithdraw) internal view returns(uint256) {... */\n    tag_158:\n        /* \"Users/yanickwilisky/Library/CloudStorage/GoogleDrive-yanickw@gmail.com/My Drive/09_Programming/FinTech_Workspace/sabot3/Contracts/MoneyToCurve.sol\":6600:6607  uint256 */\n      0x00\n        /* \"Users/yanickwilisky/Library/CloudStorage/GoogleDrive-yanickw@gmail.com/My Drive/09_Programming/FinTech_Workspace/sabot3/Contracts/MoneyToCurve.sol\":6619:6635  uint256 nBalance */\n      dup1\n        /* \"Users/yanickwilisky/Library/CloudStorage/GoogleDrive-yanickw@gmail.com/My Drive/09_Programming/FinTech_Workspace/sabot3/Contracts/MoneyToCurve.sol\":6638:6657  normalizedBalance() */\n      tag_287\n        /* \"Users/yanickwilisky/Library/CloudStorage/GoogleDrive-yanickw@gmail.com/My Drive/09_Programming/FinTech_Workspace/sabot3/Contracts/MoneyToCurve.sol\":6638:6655  normalizedBalance */\n      tag_44\n        /* \"Users/yanickwilisky/Library/CloudStorage/GoogleDrive-yanickw@gmail.com/My Drive/09_Programming/FinTech_Workspace/sabot3/Contracts/MoneyToCurve.sol\":6638:6657  normalizedBalance() */\n      jump\t// in\n    tag_287:\n        /* \"Users/yanickwilisky/Library/CloudStorage/GoogleDrive-yanickw@gmail.com/My Drive/09_Programming/FinTech_Workspace/sabot3/Contracts/MoneyToCurve.sol\":6619:6657  uint256 nBalance = normalizedBalance() */\n      swap1\n      pop\n        /* \"Users/yanickwilisky/Library/CloudStorage/GoogleDrive-yanickw@gmail.com/My Drive/09_Programming/FinTech_Workspace/sabot3/Contracts/MoneyToCurve.sol\":6667:6685  uint256 poolShares */\n      0x00\n        /* \"Users/yanickwilisky/Library/CloudStorage/GoogleDrive-yanickw@gmail.com/My Drive/09_Programming/FinTech_Workspace/sabot3/Contracts/MoneyToCurve.sol\":6688:6709  curveLPTokenBalance() */\n      tag_288\n        /* \"Users/yanickwilisky/Library/CloudStorage/GoogleDrive-yanickw@gmail.com/My Drive/09_Programming/FinTech_Workspace/sabot3/Contracts/MoneyToCurve.sol\":6688:6707  curveLPTokenBalance */\n      tag_59\n        /* \"Users/yanickwilisky/Library/CloudStorage/GoogleDrive-yanickw@gmail.com/My Drive/09_Programming/FinTech_Workspace/sabot3/Contracts/MoneyToCurve.sol\":6688:6709  curveLPTokenBalance() */\n      jump\t// in\n    tag_288:\n        /* \"Users/yanickwilisky/Library/CloudStorage/GoogleDrive-yanickw@gmail.com/My Drive/09_Programming/FinTech_Workspace/sabot3/Contracts/MoneyToCurve.sol\":6667:6709  uint256 poolShares = curveLPTokenBalance() */\n      swap1\n      pop\n        /* \"Users/yanickwilisky/Library/CloudStorage/GoogleDrive-yanickw@gmail.com/My Drive/09_Programming/FinTech_Workspace/sabot3/Contracts/MoneyToCurve.sol\":6735:6783  poolShares.mul(normalizedWithdraw).div(nBalance) */\n      tag_289\n        /* \"Users/yanickwilisky/Library/CloudStorage/GoogleDrive-yanickw@gmail.com/My Drive/09_Programming/FinTech_Workspace/sabot3/Contracts/MoneyToCurve.sol\":6774:6782  nBalance */\n      dup3\n        /* \"Users/yanickwilisky/Library/CloudStorage/GoogleDrive-yanickw@gmail.com/My Drive/09_Programming/FinTech_Workspace/sabot3/Contracts/MoneyToCurve.sol\":6735:6769  poolShares.mul(normalizedWithdraw) */\n      tag_290\n        /* \"Users/yanickwilisky/Library/CloudStorage/GoogleDrive-yanickw@gmail.com/My Drive/09_Programming/FinTech_Workspace/sabot3/Contracts/MoneyToCurve.sol\":6750:6768  normalizedWithdraw */\n      dup7\n        /* \"Users/yanickwilisky/Library/CloudStorage/GoogleDrive-yanickw@gmail.com/My Drive/09_Programming/FinTech_Workspace/sabot3/Contracts/MoneyToCurve.sol\":6735:6745  poolShares */\n      dup5\n        /* \"Users/yanickwilisky/Library/CloudStorage/GoogleDrive-yanickw@gmail.com/My Drive/09_Programming/FinTech_Workspace/sabot3/Contracts/MoneyToCurve.sol\":6735:6749  poolShares.mul */\n      tag_135\n      swap1\n        /* \"Users/yanickwilisky/Library/CloudStorage/GoogleDrive-yanickw@gmail.com/My Drive/09_Programming/FinTech_Workspace/sabot3/Contracts/MoneyToCurve.sol\":6735:6769  poolShares.mul(normalizedWithdraw) */\n      swap2\n      swap1\n      0xffffffff\n      and\n      jump\t// in\n    tag_290:\n        /* \"Users/yanickwilisky/Library/CloudStorage/GoogleDrive-yanickw@gmail.com/My Drive/09_Programming/FinTech_Workspace/sabot3/Contracts/MoneyToCurve.sol\":6735:6773  poolShares.mul(normalizedWithdraw).div */\n      tag_136\n      swap1\n        /* \"Users/yanickwilisky/Library/CloudStorage/GoogleDrive-yanickw@gmail.com/My Drive/09_Programming/FinTech_Workspace/sabot3/Contracts/MoneyToCurve.sol\":6735:6783  poolShares.mul(normalizedWithdraw).div(nBalance) */\n      swap2\n      swap1\n      0xffffffff\n      and\n      jump\t// in\n    tag_289:\n        /* \"Users/yanickwilisky/Library/CloudStorage/GoogleDrive-yanickw@gmail.com/My Drive/09_Programming/FinTech_Workspace/sabot3/Contracts/MoneyToCurve.sol\":6728:6783  return poolShares.mul(normalizedWithdraw).div(nBalance) */\n      swap3\n      pop\n      pop\n      pop\n        /* \"Users/yanickwilisky/Library/CloudStorage/GoogleDrive-yanickw@gmail.com/My Drive/09_Programming/FinTech_Workspace/sabot3/Contracts/MoneyToCurve.sol\":6525:6790  function calculateShares(uint256 normalizedWithdraw) internal view returns(uint256) {... */\n      swap2\n      swap1\n      pop\n      jump\t// out\n        /* \"https://github.com/OpenZeppelin/openzeppelin-contracts/blob/release-v2.5.0/contracts/math/SafeMath.sol\":1274:1408  function sub(uint256 a, uint256 b) internal pure returns (uint256) {... */\n    tag_162:\n        /* \"https://github.com/OpenZeppelin/openzeppelin-contracts/blob/release-v2.5.0/contracts/math/SafeMath.sol\":1332:1339  uint256 */\n      0x00\n        /* \"https://github.com/OpenZeppelin/openzeppelin-contracts/blob/release-v2.5.0/contracts/math/SafeMath.sol\":1358:1401  sub(a, b, \"SafeMath: subtraction overflow\") */\n      tag_292\n        /* \"https://github.com/OpenZeppelin/openzeppelin-contracts/blob/release-v2.5.0/contracts/math/SafeMath.sol\":1362:1363  a */\n      dup4\n        /* \"https://github.com/OpenZeppelin/openzeppelin-contracts/blob/release-v2.5.0/contracts/math/SafeMath.sol\":1365:1366  b */\n      dup4\n        /* \"https://github.com/OpenZeppelin/openzeppelin-contracts/blob/release-v2.5.0/contracts/math/SafeMath.sol\":1358:1401  sub(a, b, \"SafeMath: subtraction overflow\") */\n      mload(0x40)\n      dup1\n      0x40\n      add\n      0x40\n      mstore\n      dup1\n      0x1e\n      dup2\n      mstore\n      0x20\n      add\n      0x536166654d6174683a207375627472616374696f6e206f766572666c6f770000\n      dup2\n      mstore\n      pop\n        /* \"https://github.com/OpenZeppelin/openzeppelin-contracts/blob/release-v2.5.0/contracts/math/SafeMath.sol\":1358:1361  sub */\n      tag_293\n        /* \"https://github.com/OpenZeppelin/openzeppelin-contracts/blob/release-v2.5.0/contracts/math/SafeMath.sol\":1358:1401  sub(a, b, \"SafeMath: subtraction overflow\") */\n      jump\t// in\n    tag_292:\n        /* \"https://github.com/OpenZeppelin/openzeppelin-contracts/blob/release-v2.5.0/contracts/math/SafeMath.sol\":1351:1401  return sub(a, b, \"SafeMath: subtraction overflow\") */\n      swap1\n      pop\n        /* \"https://github.com/OpenZeppelin/openzeppelin-contracts/blob/release-v2.5.0/contracts/math/SafeMath.sol\":1274:1408  function sub(uint256 a, uint256 b) internal pure returns (uint256) {... */\n      swap3\n      swap2\n      pop\n      pop\n      jump\t// out\n        /* \"https://github.com/OpenZeppelin/openzeppelin-contracts/blob/release-v2.5.0/contracts/ownership/Ownable.sol\":2178:2403  function _transferOwnership(address newOwner) internal {... */\n    tag_240:\n        /* \"https://github.com/OpenZeppelin/openzeppelin-contracts/blob/release-v2.5.0/contracts/ownership/Ownable.sol\":2271:2272  0 */\n      0x00\n        /* \"https://github.com/OpenZeppelin/openzeppelin-contracts/blob/release-v2.5.0/contracts/ownership/Ownable.sol\":2251:2273  newOwner != address(0) */\n      0xffffffffffffffffffffffffffffffffffffffff\n      and\n        /* \"https://github.com/OpenZeppelin/openzeppelin-contracts/blob/release-v2.5.0/contracts/ownership/Ownable.sol\":2251:2259  newOwner */\n      dup2\n        /* \"https://github.com/OpenZeppelin/openzeppelin-contracts/blob/release-v2.5.0/contracts/ownership/Ownable.sol\":2251:2273  newOwner != address(0) */\n      0xffffffffffffffffffffffffffffffffffffffff\n      and\n      eq\n      iszero\n        /* \"https://github.com/OpenZeppelin/openzeppelin-contracts/blob/release-v2.5.0/contracts/ownership/Ownable.sol\":2243:2316  require(newOwner != address(0), \"Ownable: new owner is the zero address\") */\n      tag_295\n      jumpi\n      mload(0x40)\n      0x08c379a000000000000000000000000000000000000000000000000000000000\n      dup2\n      mstore\n      0x04\n      add\n      dup1\n      dup1\n      0x20\n      add\n      dup3\n      dup2\n      sub\n      dup3\n      mstore\n      0x26\n      dup2\n      mstore\n      0x20\n      add\n      dup1\n      data_245f15ff17f551913a7a18385165551503906a406f905ac1c2437281a7cd0cfe\n      0x26\n      swap2\n      codecopy\n      0x40\n      add\n      swap2\n      pop\n      pop\n      mload(0x40)\n      dup1\n      swap2\n      sub\n      swap1\n      revert\n    tag_295:\n        /* \"https://github.com/OpenZeppelin/openzeppelin-contracts/blob/release-v2.5.0/contracts/ownership/Ownable.sol\":2360:2368  newOwner */\n      dup1\n        /* \"https://github.com/OpenZeppelin/openzeppelin-contracts/blob/release-v2.5.0/contracts/ownership/Ownable.sol\":2331:2369  OwnershipTransferred(_owner, newOwner) */\n      0xffffffffffffffffffffffffffffffffffffffff\n      and\n        /* \"https://github.com/OpenZeppelin/openzeppelin-contracts/blob/release-v2.5.0/contracts/ownership/Ownable.sol\":2352:2358  _owner */\n      0x33\n      0x00\n      swap1\n      sload\n      swap1\n      0x0100\n      exp\n      swap1\n      div\n      0xffffffffffffffffffffffffffffffffffffffff\n      and\n        /* \"https://github.com/OpenZeppelin/openzeppelin-contracts/blob/release-v2.5.0/contracts/ownership/Ownable.sol\":2331:2369  OwnershipTransferred(_owner, newOwner) */\n      0xffffffffffffffffffffffffffffffffffffffff\n      and\n      0x8be0079c531659141344cd1fd0a4f28419497f9722a3daafe3b4186f6b6457e0\n      mload(0x40)\n      mload(0x40)\n      dup1\n      swap2\n      sub\n      swap1\n      log3\n        /* \"https://github.com/OpenZeppelin/openzeppelin-contracts/blob/release-v2.5.0/contracts/ownership/Ownable.sol\":2388:2396  newOwner */\n      dup1\n        /* \"https://github.com/OpenZeppelin/openzeppelin-contracts/blob/release-v2.5.0/contracts/ownership/Ownable.sol\":2379:2385  _owner */\n      0x33\n      0x00\n        /* \"https://github.com/OpenZeppelin/openzeppelin-contracts/blob/release-v2.5.0/contracts/ownership/Ownable.sol\":2379:2396  _owner = newOwner */\n      0x0100\n      exp\n      dup2\n      sload\n      dup2\n      0xffffffffffffffffffffffffffffffffffffffff\n      mul\n      not\n      and\n      swap1\n      dup4\n      0xffffffffffffffffffffffffffffffffffffffff\n      and\n      mul\n      or\n      swap1\n      sstore\n      pop\n        /* \"https://github.com/OpenZeppelin/openzeppelin-contracts/blob/release-v2.5.0/contracts/ownership/Ownable.sol\":2178:2403  function _transferOwnership(address newOwner) internal {... */\n      pop\n      jump\t// out\n        /* \"https://github.com/OpenZeppelin/openzeppelin-upgrades/blob/master/packages/core/contracts/Initializable.sol\":1638:2136  function isConstructor() private view returns (bool) {... */\n    tag_244:\n        /* \"https://github.com/OpenZeppelin/openzeppelin-upgrades/blob/master/packages/core/contracts/Initializable.sol\":1685:1689  bool */\n      0x00\n        /* \"https://github.com/OpenZeppelin/openzeppelin-upgrades/blob/master/packages/core/contracts/Initializable.sol\":2026:2038  address self */\n      dup1\n        /* \"https://github.com/OpenZeppelin/openzeppelin-upgrades/blob/master/packages/core/contracts/Initializable.sol\":2049:2053  this */\n      address\n        /* \"https://github.com/OpenZeppelin/openzeppelin-upgrades/blob/master/packages/core/contracts/Initializable.sol\":2026:2054  address self = address(this) */\n      swap1\n      pop\n        /* \"https://github.com/OpenZeppelin/openzeppelin-upgrades/blob/master/packages/core/contracts/Initializable.sol\":2060:2070  uint256 cs */\n      0x00\n        /* \"https://github.com/OpenZeppelin/openzeppelin-upgrades/blob/master/packages/core/contracts/Initializable.sol\":2105:2109  self */\n      dup2\n        /* \"https://github.com/OpenZeppelin/openzeppelin-upgrades/blob/master/packages/core/contracts/Initializable.sol\":2093:2110  extcodesize(self) */\n      extcodesize\n        /* \"https://github.com/OpenZeppelin/openzeppelin-upgrades/blob/master/packages/core/contracts/Initializable.sol\":2087:2110  cs := extcodesize(self) */\n      swap1\n      pop\n        /* \"https://github.com/OpenZeppelin/openzeppelin-upgrades/blob/master/packages/core/contracts/Initializable.sol\":2130:2131  0 */\n      0x00\n        /* \"https://github.com/OpenZeppelin/openzeppelin-upgrades/blob/master/packages/core/contracts/Initializable.sol\":2124:2126  cs */\n      dup2\n        /* \"https://github.com/OpenZeppelin/openzeppelin-upgrades/blob/master/packages/core/contracts/Initializable.sol\":2124:2131  cs == 0 */\n      eq\n        /* \"https://github.com/OpenZeppelin/openzeppelin-upgrades/blob/master/packages/core/contracts/Initializable.sol\":2117:2131  return cs == 0 */\n      swap3\n      pop\n      pop\n      pop\n        /* \"https://github.com/OpenZeppelin/openzeppelin-upgrades/blob/master/packages/core/contracts/Initializable.sol\":1638:2136  function isConstructor() private view returns (bool) {... */\n      swap1\n      jump\t// out\n        /* \"https://github.com/OpenZeppelin/openzeppelin-contracts/blob/release-v2.5.0/contracts/token/ERC20/SafeERC20.sol\":2666:3761  function callOptionalReturn(IERC20 token, bytes memory data) private {... */\n    tag_253:\n        /* \"https://github.com/OpenZeppelin/openzeppelin-contracts/blob/release-v2.5.0/contracts/token/ERC20/SafeERC20.sol\":3261:3288  address(token).isContract() */\n      tag_298\n        /* \"https://github.com/OpenZeppelin/openzeppelin-contracts/blob/release-v2.5.0/contracts/token/ERC20/SafeERC20.sol\":3269:3274  token */\n      dup3\n        /* \"https://github.com/OpenZeppelin/openzeppelin-contracts/blob/release-v2.5.0/contracts/token/ERC20/SafeERC20.sol\":3261:3286  address(token).isContract */\n      0xffffffffffffffffffffffffffffffffffffffff\n      and\n      tag_299\n        /* \"https://github.com/OpenZeppelin/openzeppelin-contracts/blob/release-v2.5.0/contracts/token/ERC20/SafeERC20.sol\":3261:3288  address(token).isContract() */\n      jump\t// in\n    tag_298:\n        /* \"https://github.com/OpenZeppelin/openzeppelin-contracts/blob/release-v2.5.0/contracts/token/ERC20/SafeERC20.sol\":3253:3324  require(address(token).isContract(), \"SafeERC20: call to non-contract\") */\n      tag_300\n      jumpi\n      mload(0x40)\n      0x08c379a000000000000000000000000000000000000000000000000000000000\n      dup2\n      mstore\n      0x04\n      add\n      dup1\n      dup1\n      0x20\n      add\n      dup3\n      dup2\n      sub\n      dup3\n      mstore\n      0x1f\n      dup2\n      mstore\n      0x20\n      add\n      dup1\n      0x5361666545524332303a2063616c6c20746f206e6f6e2d636f6e747261637400\n      dup2\n      mstore\n      pop\n      0x20\n      add\n      swap2\n      pop\n      pop\n      mload(0x40)\n      dup1\n      swap2\n      sub\n      swap1\n      revert\n    tag_300:\n        /* \"https://github.com/OpenZeppelin/openzeppelin-contracts/blob/release-v2.5.0/contracts/token/ERC20/SafeERC20.sol\":3395:3407  bool success */\n      0x00\n        /* \"https://github.com/OpenZeppelin/openzeppelin-contracts/blob/release-v2.5.0/contracts/token/ERC20/SafeERC20.sol\":3409:3432  bytes memory returndata */\n      0x60\n        /* \"https://github.com/OpenZeppelin/openzeppelin-contracts/blob/release-v2.5.0/contracts/token/ERC20/SafeERC20.sol\":3444:3449  token */\n      dup4\n        /* \"https://github.com/OpenZeppelin/openzeppelin-contracts/blob/release-v2.5.0/contracts/token/ERC20/SafeERC20.sol\":3436:3455  address(token).call */\n      0xffffffffffffffffffffffffffffffffffffffff\n      and\n        /* \"https://github.com/OpenZeppelin/openzeppelin-contracts/blob/release-v2.5.0/contracts/token/ERC20/SafeERC20.sol\":3456:3460  data */\n      dup4\n        /* \"https://github.com/OpenZeppelin/openzeppelin-contracts/blob/release-v2.5.0/contracts/token/ERC20/SafeERC20.sol\":3436:3461  address(token).call(data) */\n      mload(0x40)\n      dup1\n      dup3\n      dup1\n      mload\n      swap1\n      0x20\n      add\n      swap1\n      dup1\n      dup4\n      dup4\n        /* \"--CODEGEN--\":36:189   */\n    tag_301:\n        /* \"--CODEGEN--\":66:68   */\n      0x20\n        /* \"--CODEGEN--\":61:64   */\n      dup4\n        /* \"--CODEGEN--\":58:69   */\n      lt\n        /* \"--CODEGEN--\":36:189   */\n      tag_303\n      jumpi\n        /* \"--CODEGEN--\":182:185   */\n      dup1\n        /* \"--CODEGEN--\":176:186   */\n      mload\n        /* \"--CODEGEN--\":171:174   */\n      dup3\n        /* \"--CODEGEN--\":164:187   */\n      mstore\n        /* \"--CODEGEN--\":98:100   */\n      0x20\n        /* \"--CODEGEN--\":93:96   */\n      dup3\n        /* \"--CODEGEN--\":89:101   */\n      add\n        /* \"--CODEGEN--\":82:101   */\n      swap2\n      pop\n        /* \"--CODEGEN--\":123:125   */\n      0x20\n        /* \"--CODEGEN--\":118:121   */\n      dup2\n        /* \"--CODEGEN--\":114:126   */\n      add\n        /* \"--CODEGEN--\":107:126   */\n      swap1\n      pop\n        /* \"--CODEGEN--\":148:150   */\n      0x20\n        /* \"--CODEGEN--\":143:146   */\n      dup4\n        /* \"--CODEGEN--\":139:151   */\n      sub\n        /* \"--CODEGEN--\":132:151   */\n      swap3\n      pop\n        /* \"--CODEGEN--\":36:189   */\n      jump(tag_301)\n    tag_303:\n        /* \"--CODEGEN--\":274:275   */\n      0x01\n        /* \"--CODEGEN--\":267:270   */\n      dup4\n        /* \"--CODEGEN--\":263:265   */\n      0x20\n        /* \"--CODEGEN--\":259:271   */\n      sub\n        /* \"--CODEGEN--\":254:257   */\n      0x0100\n        /* \"--CODEGEN--\":250:272   */\n      exp\n        /* \"--CODEGEN--\":246:276   */\n      sub\n        /* \"--CODEGEN--\":315:319   */\n      dup1\n        /* \"--CODEGEN--\":311:320   */\n      not\n        /* \"--CODEGEN--\":305:308   */\n      dup3\n        /* \"--CODEGEN--\":299:309   */\n      mload\n        /* \"--CODEGEN--\":295:321   */\n      and\n        /* \"--CODEGEN--\":356:360   */\n      dup2\n        /* \"--CODEGEN--\":350:353   */\n      dup5\n        /* \"--CODEGEN--\":344:354   */\n      mload\n        /* \"--CODEGEN--\":340:361   */\n      and\n        /* \"--CODEGEN--\":389:396   */\n      dup1\n        /* \"--CODEGEN--\":380:387   */\n      dup3\n        /* \"--CODEGEN--\":377:397   */\n      or\n        /* \"--CODEGEN--\":372:375   */\n      dup6\n        /* \"--CODEGEN--\":365:398   */\n      mstore\n        /* \"--CODEGEN--\":3:402   */\n      pop\n      pop\n      pop\n        /* \"https://github.com/OpenZeppelin/openzeppelin-contracts/blob/release-v2.5.0/contracts/token/ERC20/SafeERC20.sol\":3436:3461  address(token).call(data) */\n      pop\n      pop\n      pop\n      swap1\n      pop\n      add\n      swap2\n      pop\n      pop\n      0x00\n      mload(0x40)\n      dup1\n      dup4\n      sub\n      dup2\n      0x00\n      dup7\n      gas\n      call\n      swap2\n      pop\n      pop\n      returndatasize\n        /* \"--CODEGEN--\":14:15   */\n      dup1\n        /* \"--CODEGEN--\":21:22   */\n      0x00\n        /* \"--CODEGEN--\":16:47   */\n      dup2\n      eq\n      tag_305\n      jumpi\n        /* \"--CODEGEN--\":75:79   */\n      0x40\n        /* \"--CODEGEN--\":69:80   */\n      mload\n        /* \"--CODEGEN--\":64:80   */\n      swap2\n      pop\n        /* \"--CODEGEN--\":144:148   */\n      0x1f\n        /* \"--CODEGEN--\":140:149   */\n      not\n        /* \"--CODEGEN--\":133:137   */\n      0x3f\n        /* \"--CODEGEN--\":115:131   */\n      returndatasize\n        /* \"--CODEGEN--\":111:138   */\n      add\n        /* \"--CODEGEN--\":107:150   */\n      and\n        /* \"--CODEGEN--\":104:105   */\n      dup3\n        /* \"--CODEGEN--\":100:151   */\n      add\n        /* \"--CODEGEN--\":94:98   */\n      0x40\n        /* \"--CODEGEN--\":87:152   */\n      mstore\n        /* \"--CODEGEN--\":169:185   */\n      returndatasize\n        /* \"--CODEGEN--\":166:167   */\n      dup3\n        /* \"--CODEGEN--\":159:186   */\n      mstore\n        /* \"--CODEGEN--\":225:241   */\n      returndatasize\n        /* \"--CODEGEN--\":222:223   */\n      0x00\n        /* \"--CODEGEN--\":215:219   */\n      0x20\n        /* \"--CODEGEN--\":212:213   */\n      dup5\n        /* \"--CODEGEN--\":208:220   */\n      add\n        /* \"--CODEGEN--\":193:242   */\n      returndatacopy\n        /* \"--CODEGEN--\":7:249   */\n      jump(tag_304)\n        /* \"--CODEGEN--\":16:47   */\n    tag_305:\n        /* \"--CODEGEN--\":36:40   */\n      0x60\n        /* \"--CODEGEN--\":31:40   */\n      swap2\n      pop\n        /* \"--CODEGEN--\":7:249   */\n    tag_304:\n      pop\n        /* \"https://github.com/OpenZeppelin/openzeppelin-contracts/blob/release-v2.5.0/contracts/token/ERC20/SafeERC20.sol\":3394:3461  (bool success, bytes memory returndata) = address(token).call(data) */\n      swap2\n      pop\n      swap2\n      pop\n        /* \"https://github.com/OpenZeppelin/openzeppelin-contracts/blob/release-v2.5.0/contracts/token/ERC20/SafeERC20.sol\":3479:3486  success */\n      dup2\n        /* \"https://github.com/OpenZeppelin/openzeppelin-contracts/blob/release-v2.5.0/contracts/token/ERC20/SafeERC20.sol\":3471:3523  require(success, \"SafeERC20: low-level call failed\") */\n      tag_306\n      jumpi\n      mload(0x40)\n      0x08c379a000000000000000000000000000000000000000000000000000000000\n      dup2\n      mstore\n      0x04\n      add\n      dup1\n      dup1\n      0x20\n      add\n      dup3\n      dup2\n      sub\n      dup3\n      mstore\n      0x20\n      dup2\n      mstore\n      0x20\n      add\n      dup1\n      0x5361666545524332303a206c6f772d6c6576656c2063616c6c206661696c6564\n      dup2\n      mstore\n      pop\n      0x20\n      add\n      swap2\n      pop\n      pop\n      mload(0x40)\n      dup1\n      swap2\n      sub\n      swap1\n      revert\n    tag_306:\n        /* \"https://github.com/OpenZeppelin/openzeppelin-contracts/blob/release-v2.5.0/contracts/token/ERC20/SafeERC20.sol\":3558:3559  0 */\n      0x00\n        /* \"https://github.com/OpenZeppelin/openzeppelin-contracts/blob/release-v2.5.0/contracts/token/ERC20/SafeERC20.sol\":3538:3548  returndata */\n      dup2\n        /* \"https://github.com/OpenZeppelin/openzeppelin-contracts/blob/release-v2.5.0/contracts/token/ERC20/SafeERC20.sol\":3538:3555  returndata.length */\n      mload\n        /* \"https://github.com/OpenZeppelin/openzeppelin-contracts/blob/release-v2.5.0/contracts/token/ERC20/SafeERC20.sol\":3538:3559  returndata.length > 0 */\n      gt\n        /* \"https://github.com/OpenZeppelin/openzeppelin-contracts/blob/release-v2.5.0/contracts/token/ERC20/SafeERC20.sol\":3534:3755  if (returndata.length > 0) { // Return data is optional... */\n      iszero\n      tag_307\n      jumpi\n        /* \"https://github.com/OpenZeppelin/openzeppelin-contracts/blob/release-v2.5.0/contracts/token/ERC20/SafeERC20.sol\":3678:3688  returndata */\n      dup1\n        /* \"https://github.com/OpenZeppelin/openzeppelin-contracts/blob/release-v2.5.0/contracts/token/ERC20/SafeERC20.sol\":3667:3697  abi.decode(returndata, (bool)) */\n      dup1\n      0x20\n      add\n      swap1\n      mload\n        /* \"--CODEGEN--\":13:15   */\n      0x20\n        /* \"--CODEGEN--\":8:11   */\n      dup2\n        /* \"--CODEGEN--\":5:16   */\n      lt\n        /* \"--CODEGEN--\":2:4   */\n      iszero\n      tag_308\n      jumpi\n        /* \"--CODEGEN--\":29:30   */\n      0x00\n        /* \"--CODEGEN--\":26:27   */\n      dup1\n        /* \"--CODEGEN--\":19:31   */\n      revert\n        /* \"--CODEGEN--\":2:4   */\n    tag_308:\n        /* \"https://github.com/OpenZeppelin/openzeppelin-contracts/blob/release-v2.5.0/contracts/token/ERC20/SafeERC20.sol\":3667:3697  abi.decode(returndata, (bool)) */\n      dup2\n      add\n      swap1\n      dup1\n      dup1\n      mload\n      swap1\n      0x20\n      add\n      swap1\n      swap3\n      swap2\n      swap1\n      pop\n      pop\n      pop\n        /* \"https://github.com/OpenZeppelin/openzeppelin-contracts/blob/release-v2.5.0/contracts/token/ERC20/SafeERC20.sol\":3659:3744  require(abi.decode(returndata, (bool)), \"SafeERC20: ERC20 operation did not succeed\") */\n      tag_309\n      jumpi\n      mload(0x40)\n      0x08c379a000000000000000000000000000000000000000000000000000000000\n      dup2\n      mstore\n      0x04\n      add\n      dup1\n      dup1\n      0x20\n      add\n      dup3\n      dup2\n      sub\n      dup3\n      mstore\n      0x2a\n      dup2\n      mstore\n      0x20\n      add\n      dup1\n      data_e11ad79d1e4a7f2e5f376964cb99e8e8f7904e3fc16a109f7a7ecb9aa7956dcd\n      0x2a\n      swap2\n      codecopy\n      0x40\n      add\n      swap2\n      pop\n      pop\n      mload(0x40)\n      dup1\n      swap2\n      sub\n      swap1\n      revert\n    tag_309:\n        /* \"https://github.com/OpenZeppelin/openzeppelin-contracts/blob/release-v2.5.0/contracts/token/ERC20/SafeERC20.sol\":3534:3755  if (returndata.length > 0) { // Return data is optional... */\n    tag_307:\n        /* \"https://github.com/OpenZeppelin/openzeppelin-contracts/blob/release-v2.5.0/contracts/token/ERC20/SafeERC20.sol\":2666:3761  function callOptionalReturn(IERC20 token, bytes memory data) private {... */\n      pop\n      pop\n      pop\n      pop\n      jump\t// out\n        /* \"https://github.com/OpenZeppelin/openzeppelin-contracts/blob/release-v2.5.0/contracts/math/SafeMath.sol\":3718:4056  function div(uint256 a, uint256 b, string memory errorMessage) internal pure returns (uint256) {... */\n    tag_272:\n        /* \"https://github.com/OpenZeppelin/openzeppelin-contracts/blob/release-v2.5.0/contracts/math/SafeMath.sol\":3804:3811  uint256 */\n      0x00\n        /* \"https://github.com/OpenZeppelin/openzeppelin-contracts/blob/release-v2.5.0/contracts/math/SafeMath.sol\":3901:3902  0 */\n      dup1\n        /* \"https://github.com/OpenZeppelin/openzeppelin-contracts/blob/release-v2.5.0/contracts/math/SafeMath.sol\":3897:3898  b */\n      dup4\n        /* \"https://github.com/OpenZeppelin/openzeppelin-contracts/blob/release-v2.5.0/contracts/math/SafeMath.sol\":3897:3902  b > 0 */\n      gt\n        /* \"https://github.com/OpenZeppelin/openzeppelin-contracts/blob/release-v2.5.0/contracts/math/SafeMath.sol\":3904:3916  errorMessage */\n      dup3\n        /* \"https://github.com/OpenZeppelin/openzeppelin-contracts/blob/release-v2.5.0/contracts/math/SafeMath.sol\":3889:3917  require(b > 0, errorMessage) */\n      swap1\n      tag_311\n      jumpi\n      mload(0x40)\n      0x08c379a000000000000000000000000000000000000000000000000000000000\n      dup2\n      mstore\n      0x04\n      add\n      dup1\n      dup1\n      0x20\n      add\n      dup3\n      dup2\n      sub\n      dup3\n      mstore\n      dup4\n      dup2\n      dup2\n      mload\n      dup2\n      mstore\n      0x20\n      add\n      swap2\n      pop\n      dup1\n      mload\n      swap1\n      0x20\n      add\n      swap1\n      dup1\n      dup4\n      dup4\n        /* \"--CODEGEN--\":23:24   */\n      0x00\n        /* \"--CODEGEN--\":8:108   */\n    tag_312:\n        /* \"--CODEGEN--\":33:36   */\n      dup4\n        /* \"--CODEGEN--\":30:31   */\n      dup2\n        /* \"--CODEGEN--\":27:37   */\n      lt\n        /* \"--CODEGEN--\":8:108   */\n      iszero\n      tag_314\n      jumpi\n        /* \"--CODEGEN--\":99:100   */\n      dup1\n        /* \"--CODEGEN--\":94:97   */\n      dup3\n        /* \"--CODEGEN--\":90:101   */\n      add\n        /* \"--CODEGEN--\":84:102   */\n      mload\n        /* \"--CODEGEN--\":80:81   */\n      dup2\n        /* \"--CODEGEN--\":75:78   */\n      dup5\n        /* \"--CODEGEN--\":71:82   */\n      add\n        /* \"--CODEGEN--\":64:103   */\n      mstore\n        /* \"--CODEGEN--\":52:54   */\n      0x20\n        /* \"--CODEGEN--\":49:50   */\n      dup2\n        /* \"--CODEGEN--\":45:55   */\n      add\n        /* \"--CODEGEN--\":40:55   */\n      swap1\n      pop\n        /* \"--CODEGEN--\":8:108   */\n      jump(tag_312)\n    tag_314:\n        /* \"--CODEGEN--\":12:26   */\n      pop\n        /* \"https://github.com/OpenZeppelin/openzeppelin-contracts/blob/release-v2.5.0/contracts/math/SafeMath.sol\":3889:3917  require(b > 0, errorMessage) */\n      pop\n      pop\n      pop\n      swap1\n      pop\n      swap1\n      dup2\n      add\n      swap1\n      0x1f\n      and\n      dup1\n      iszero\n      tag_315\n      jumpi\n      dup1\n      dup3\n      sub\n      dup1\n      mload\n      0x01\n      dup4\n      0x20\n      sub\n      0x0100\n      exp\n      sub\n      not\n      and\n      dup2\n      mstore\n      0x20\n      add\n      swap2\n      pop\n    tag_315:\n      pop\n      swap3\n      pop\n      pop\n      pop\n      mload(0x40)\n      dup1\n      swap2\n      sub\n      swap1\n      revert\n    tag_311:\n      pop\n        /* \"https://github.com/OpenZeppelin/openzeppelin-contracts/blob/release-v2.5.0/contracts/math/SafeMath.sol\":3927:3936  uint256 c */\n      0x00\n        /* \"https://github.com/OpenZeppelin/openzeppelin-contracts/blob/release-v2.5.0/contracts/math/SafeMath.sol\":3943:3944  b */\n      dup4\n        /* \"https://github.com/OpenZeppelin/openzeppelin-contracts/blob/release-v2.5.0/contracts/math/SafeMath.sol\":3939:3940  a */\n      dup6\n        /* \"https://github.com/OpenZeppelin/openzeppelin-contracts/blob/release-v2.5.0/contracts/math/SafeMath.sol\":3939:3944  a / b */\n      dup2\n      tag_316\n      jumpi\n      invalid\n    tag_316:\n      div\n        /* \"https://github.com/OpenZeppelin/openzeppelin-contracts/blob/release-v2.5.0/contracts/math/SafeMath.sol\":3927:3944  uint256 c = a / b */\n      swap1\n      pop\n        /* \"https://github.com/OpenZeppelin/openzeppelin-contracts/blob/release-v2.5.0/contracts/math/SafeMath.sol\":4048:4049  c */\n      dup1\n        /* \"https://github.com/OpenZeppelin/openzeppelin-contracts/blob/release-v2.5.0/contracts/math/SafeMath.sol\":4041:4049  return c */\n      swap2\n      pop\n      pop\n        /* \"https://github.com/OpenZeppelin/openzeppelin-contracts/blob/release-v2.5.0/contracts/math/SafeMath.sol\":3718:4056  function div(uint256 a, uint256 b, string memory errorMessage) internal pure returns (uint256) {... */\n      swap4\n      swap3\n      pop\n      pop\n      pop\n      jump\t// out\n        /* \"https://github.com/OpenZeppelin/openzeppelin-contracts/blob/release-v2.5.0/contracts/math/SafeMath.sol\":1732:1919  function sub(uint256 a, uint256 b, string memory errorMessage) internal pure returns (uint256) {... */\n    tag_293:\n        /* \"https://github.com/OpenZeppelin/openzeppelin-contracts/blob/release-v2.5.0/contracts/math/SafeMath.sol\":1818:1825  uint256 */\n      0x00\n        /* \"https://github.com/OpenZeppelin/openzeppelin-contracts/blob/release-v2.5.0/contracts/math/SafeMath.sol\":1850:1851  a */\n      dup4\n        /* \"https://github.com/OpenZeppelin/openzeppelin-contracts/blob/release-v2.5.0/contracts/math/SafeMath.sol\":1845:1846  b */\n      dup4\n        /* \"https://github.com/OpenZeppelin/openzeppelin-contracts/blob/release-v2.5.0/contracts/math/SafeMath.sol\":1845:1851  b <= a */\n      gt\n      iszero\n        /* \"https://github.com/OpenZeppelin/openzeppelin-contracts/blob/release-v2.5.0/contracts/math/SafeMath.sol\":1853:1865  errorMessage */\n      dup3\n        /* \"https://github.com/OpenZeppelin/openzeppelin-contracts/blob/release-v2.5.0/contracts/math/SafeMath.sol\":1837:1866  require(b <= a, errorMessage) */\n      swap1\n      tag_318\n      jumpi\n      mload(0x40)\n      0x08c379a000000000000000000000000000000000000000000000000000000000\n      dup2\n      mstore\n      0x04\n      add\n      dup1\n      dup1\n      0x20\n      add\n      dup3\n      dup2\n      sub\n      dup3\n      mstore\n      dup4\n      dup2\n      dup2\n      mload\n      dup2\n      mstore\n      0x20\n      add\n      swap2\n      pop\n      dup1\n      mload\n      swap1\n      0x20\n      add\n      swap1\n      dup1\n      dup4\n      dup4\n        /* \"--CODEGEN--\":23:24   */\n      0x00\n        /* \"--CODEGEN--\":8:108   */\n    tag_319:\n        /* \"--CODEGEN--\":33:36   */\n      dup4\n        /* \"--CODEGEN--\":30:31   */\n      dup2\n        /* \"--CODEGEN--\":27:37   */\n      lt\n        /* \"--CODEGEN--\":8:108   */\n      iszero\n      tag_321\n      jumpi\n        /* \"--CODEGEN--\":99:100   */\n      dup1\n        /* \"--CODEGEN--\":94:97   */\n      dup3\n        /* \"--CODEGEN--\":90:101   */\n      add\n        /* \"--CODEGEN--\":84:102   */\n      mload\n        /* \"--CODEGEN--\":80:81   */\n      dup2\n        /* \"--CODEGEN--\":75:78   */\n      dup5\n        /* \"--CODEGEN--\":71:82   */\n      add\n        /* \"--CODEGEN--\":64:103   */\n      mstore\n        /* \"--CODEGEN--\":52:54   */\n      0x20\n        /* \"--CODEGEN--\":49:50   */\n      dup2\n        /* \"--CODEGEN--\":45:55   */\n      add\n        /* \"--CODEGEN--\":40:55   */\n      swap1\n      pop\n        /* \"--CODEGEN--\":8:108   */\n      jump(tag_319)\n    tag_321:\n        /* \"--CODEGEN--\":12:26   */\n      pop\n        /* \"https://github.com/OpenZeppelin/openzeppelin-contracts/blob/release-v2.5.0/contracts/math/SafeMath.sol\":1837:1866  require(b <= a, errorMessage) */\n      pop\n      pop\n      pop\n      swap1\n      pop\n      swap1\n      dup2\n      add\n      swap1\n      0x1f\n      and\n      dup1\n      iszero\n      tag_322\n      jumpi\n      dup1\n      dup3\n      sub\n      dup1\n      mload\n      0x01\n      dup4\n      0x20\n      sub\n      0x0100\n      exp\n      sub\n      not\n      and\n      dup2\n      mstore\n      0x20\n      add\n      swap2\n      pop\n    tag_322:\n      pop\n      swap3\n      pop\n      pop\n      pop\n      mload(0x40)\n      dup1\n      swap2\n      sub\n      swap1\n      revert\n    tag_318:\n      pop\n        /* \"https://github.com/OpenZeppelin/openzeppelin-contracts/blob/release-v2.5.0/contracts/math/SafeMath.sol\":1876:1885  uint256 c */\n      0x00\n        /* \"https://github.com/OpenZeppelin/openzeppelin-contracts/blob/release-v2.5.0/contracts/math/SafeMath.sol\":1892:1893  b */\n      dup4\n        /* \"https://github.com/OpenZeppelin/openzeppelin-contracts/blob/release-v2.5.0/contracts/math/SafeMath.sol\":1888:1889  a */\n      dup6\n        /* \"https://github.com/OpenZeppelin/openzeppelin-contracts/blob/release-v2.5.0/contracts/math/SafeMath.sol\":1888:1893  a - b */\n      sub\n        /* \"https://github.com/OpenZeppelin/openzeppelin-contracts/blob/release-v2.5.0/contracts/math/SafeMath.sol\":1876:1893  uint256 c = a - b */\n      swap1\n      pop\n        /* \"https://github.com/OpenZeppelin/openzeppelin-contracts/blob/release-v2.5.0/contracts/math/SafeMath.sol\":1911:1912  c */\n      dup1\n        /* \"https://github.com/OpenZeppelin/openzeppelin-contracts/blob/release-v2.5.0/contracts/math/SafeMath.sol\":1904:1912  return c */\n      swap2\n      pop\n      pop\n        /* \"https://github.com/OpenZeppelin/openzeppelin-contracts/blob/release-v2.5.0/contracts/math/SafeMath.sol\":1732:1919  function sub(uint256 a, uint256 b, string memory errorMessage) internal pure returns (uint256) {... */\n      swap4\n      swap3\n      pop\n      pop\n      pop\n      jump\t// out\n        /* \"https://github.com/OpenZeppelin/openzeppelin-contracts/blob/release-v2.5.0/contracts/utils/Address.sol\":686:1296  function isContract(address account) internal view returns (bool) {... */\n    tag_299:\n        /* \"https://github.com/OpenZeppelin/openzeppelin-contracts/blob/release-v2.5.0/contracts/utils/Address.sol\":746:750  bool */\n      0x00\n        /* \"https://github.com/OpenZeppelin/openzeppelin-contracts/blob/release-v2.5.0/contracts/utils/Address.sol\":1004:1020  bytes32 codehash */\n      dup1\n        /* \"https://github.com/OpenZeppelin/openzeppelin-contracts/blob/release-v2.5.0/contracts/utils/Address.sol\":1030:1049  bytes32 accountHash */\n      0x00\n        /* \"https://github.com/OpenZeppelin/openzeppelin-contracts/blob/release-v2.5.0/contracts/utils/Address.sol\":1052:1118  0xc5d2460186f7233c927e7db2dcc703c0e500b653ca82273b7bfad8045d85a470 */\n      0xc5d2460186f7233c927e7db2dcc703c0e500b653ca82273b7bfad8045d85a470\n        /* \"https://github.com/OpenZeppelin/openzeppelin-contracts/blob/release-v2.5.0/contracts/utils/Address.sol\":1030:1118  bytes32 accountHash = 0xc5d2460186f7233c927e7db2dcc703c0e500b653ca82273b7bfad8045d85a470 */\n      0x00\n      shl\n      swap1\n      pop\n        /* \"https://github.com/OpenZeppelin/openzeppelin-contracts/blob/release-v2.5.0/contracts/utils/Address.sol\":1219:1226  account */\n      dup4\n        /* \"https://github.com/OpenZeppelin/openzeppelin-contracts/blob/release-v2.5.0/contracts/utils/Address.sol\":1207:1227  extcodehash(account) */\n      extcodehash\n        /* \"https://github.com/OpenZeppelin/openzeppelin-contracts/blob/release-v2.5.0/contracts/utils/Address.sol\":1195:1227  codehash := extcodehash(account) */\n      swap2\n      pop\n        /* \"https://github.com/OpenZeppelin/openzeppelin-contracts/blob/release-v2.5.0/contracts/utils/Address.sol\":1258:1269  accountHash */\n      dup1\n        /* \"https://github.com/OpenZeppelin/openzeppelin-contracts/blob/release-v2.5.0/contracts/utils/Address.sol\":1246:1254  codehash */\n      dup3\n        /* \"https://github.com/OpenZeppelin/openzeppelin-contracts/blob/release-v2.5.0/contracts/utils/Address.sol\":1246:1269  codehash != accountHash */\n      eq\n      iszero\n        /* \"https://github.com/OpenZeppelin/openzeppelin-contracts/blob/release-v2.5.0/contracts/utils/Address.sol\":1246:1288  codehash != accountHash && codehash != 0x0 */\n      dup1\n      iszero\n      tag_324\n      jumpi\n      pop\n        /* \"https://github.com/OpenZeppelin/openzeppelin-contracts/blob/release-v2.5.0/contracts/utils/Address.sol\":1285:1288  0x0 */\n      0x00\n        /* \"https://github.com/OpenZeppelin/openzeppelin-contracts/blob/release-v2.5.0/contracts/utils/Address.sol\":1273:1288  codehash != 0x0 */\n      dup1\n      shl\n        /* \"https://github.com/OpenZeppelin/openzeppelin-contracts/blob/release-v2.5.0/contracts/utils/Address.sol\":1273:1281  codehash */\n      dup3\n        /* \"https://github.com/OpenZeppelin/openzeppelin-contracts/blob/release-v2.5.0/contracts/utils/Address.sol\":1273:1288  codehash != 0x0 */\n      eq\n      iszero\n        /* \"https://github.com/OpenZeppelin/openzeppelin-contracts/blob/release-v2.5.0/contracts/utils/Address.sol\":1246:1288  codehash != accountHash && codehash != 0x0 */\n    tag_324:\n        /* \"https://github.com/OpenZeppelin/openzeppelin-contracts/blob/release-v2.5.0/contracts/utils/Address.sol\":1238:1289  return (codehash != accountHash && codehash != 0x0) */\n      swap3\n      pop\n      pop\n      pop\n        /* \"https://github.com/OpenZeppelin/openzeppelin-contracts/blob/release-v2.5.0/contracts/utils/Address.sol\":686:1296  function isContract(address account) internal view returns (bool) {... */\n      swap2\n      swap1\n      pop\n      jump\t// out\n        /* \"Users/yanickwilisky/Library/CloudStorage/GoogleDrive-yanickw@gmail.com/My Drive/09_Programming/FinTech_Workspace/sabot3/Contracts/MoneyToCurve.sol\":1044:8905  contract MoneyToCurve is Initializable, Context, Ownable {... */\n    tag_76:\n      mload(0x40)\n      dup1\n      0x80\n      add\n      0x40\n      mstore\n      dup1\n      0x04\n      swap1\n        /* \"--CODEGEN--\":29:31   */\n      0x20\n        /* \"--CODEGEN--\":21:27   */\n      dup3\n        /* \"--CODEGEN--\":17:32   */\n      mul\n        /* \"--CODEGEN--\":117:121   */\n      dup1\n        /* \"--CODEGEN--\":105:115   */\n      codesize\n        /* \"--CODEGEN--\":97:103   */\n      dup4\n        /* \"--CODEGEN--\":88:122   */\n      codecopy\n        /* \"--CODEGEN--\":148:152   */\n      dup1\n        /* \"--CODEGEN--\":140:146   */\n      dup3\n        /* \"--CODEGEN--\":136:153   */\n      add\n        /* \"--CODEGEN--\":126:153   */\n      swap2\n      pop\n        /* \"--CODEGEN--\":0:157   */\n      pop\n        /* \"Users/yanickwilisky/Library/CloudStorage/GoogleDrive-yanickw@gmail.com/My Drive/09_Programming/FinTech_Workspace/sabot3/Contracts/MoneyToCurve.sol\":1044:8905  contract MoneyToCurve is Initializable, Context, Ownable {... */\n      swap1\n      pop\n      pop\n      swap1\n      jump\t// out\n    tag_113:\n      mload(0x40)\n      dup1\n      0x80\n      add\n      0x40\n      mstore\n      dup1\n      0x04\n      swap1\n        /* \"--CODEGEN--\":29:31   */\n      0x20\n        /* \"--CODEGEN--\":21:27   */\n      dup3\n        /* \"--CODEGEN--\":17:32   */\n      mul\n        /* \"--CODEGEN--\":117:121   */\n      dup1\n        /* \"--CODEGEN--\":105:115   */\n      codesize\n        /* \"--CODEGEN--\":97:103   */\n      dup4\n        /* \"--CODEGEN--\":88:122   */\n      codecopy\n        /* \"--CODEGEN--\":148:152   */\n      dup1\n        /* \"--CODEGEN--\":140:146   */\n      dup3\n        /* \"--CODEGEN--\":136:153   */\n      add\n        /* \"--CODEGEN--\":126:153   */\n      swap2\n      pop\n        /* \"--CODEGEN--\":0:157   */\n      pop\n        /* \"Users/yanickwilisky/Library/CloudStorage/GoogleDrive-yanickw@gmail.com/My Drive/09_Programming/FinTech_Workspace/sabot3/Contracts/MoneyToCurve.sol\":1044:8905  contract MoneyToCurve is Initializable, Context, Ownable {... */\n      swap1\n      pop\n      pop\n      swap1\n      jump\t// out\n    stop\n    data_02c2cde26d907edef0275dd60c1d3730b459d629aea5e0144e75833e4ac66b41 496e636f7272656374206465706f73697420636f6e74726163742061646472657373\n    data_245f15ff17f551913a7a18385165551503906a406f905ac1c2437281a7cd0cfe 4f776e61626c653a206e6577206f776e657220697320746865207a65726f2061646472657373\n    data_9113bb53c2876a3805b2c9242029423fc540a728243ce887ab24c82cf119fba3 536166654d6174683a206d756c7469706c69636174696f6e206f766572666c6f77\n    data_9fbba6c4dcac9134893b633b9564f36435b3f927c1d5fa152c5c14b20cecb1a4 436f6e747261637420696e7374616e63652068617320616c7265616479206265656e20696e697469616c697a6564\n    data_e11ad79d1e4a7f2e5f376964cb99e8e8f7904e3fc16a109f7a7ecb9aa7956dcd 5361666545524332303a204552433230206f7065726174696f6e20646964206e6f742073756363656564\n    data_ef945ddb1bfdc0da870feb4560d868b047642b4ac7f2fb7f8b7c51cb4a411e25 5361666545524332303a20617070726f76652066726f6d206e6f6e2d7a65726f20746f206e6f6e2d7a65726f20616c6c6f77616e6365\n\n    auxdata: 0xa265627a7a7231582012f905a18eea472128bb3c4baa48cab580ae113d3a2388f02b98b27ca93d23ae64736f6c634300050c0032\n}\n",
				"bytecode": {
					"linkReferences": {},
					"object": "608060405260006100146100b860201b60201c565b905080603360006101000a81548173ffffffffffffffffffffffffffffffffffffffff021916908373ffffffffffffffffffffffffffffffffffffffff1602179055508073ffffffffffffffffffffffffffffffffffffffff16600073ffffffffffffffffffffffffffffffffffffffff167f8be0079c531659141344cd1fd0a4f28419497f9722a3daafe3b4186f6b6457e060405160405180910390a3506100c0565b600033905090565b613014806100cf6000396000f3fe608060405234801561001057600080fd5b506004361061012c5760003560e01c80638141d266116100ad578063be873f5011610071578063be873f50146104db578063dfda714a14610525578063e011262a14610543578063f2fde38b1461058d578063fe4b84df146105d15761012c565b80638141d266146103bd5780638da5cb5b146104075780638f32d59b1461045157806397aa80d514610473578063a3477c36146104915761012c565b806344f9c395116100f457806344f9c395146102a9578063628cb95e146102c7578063715018a6146102e557806377b8b1c7146102ef5780637c241146146103735761012c565b80630c55699c1461013157806314a19aec1461014f5780631c600416146101b4578063208e509f146101fe57806338eda37014610244575b600080fd5b6101396105ff565b6040518082815260200191505060405180910390f35b6101b26004803603608081101561016557600080fd5b8101908080608001906004806020026040519081016040528092919082600460200280828437600081840152601f19601f8201169050808301925050505050509192919290505050610605565b005b6101bc610b6e565b604051808273ffffffffffffffffffffffffffffffffffffffff1673ffffffffffffffffffffffffffffffffffffffff16815260200191505060405180910390f35b610206610b94565b6040518082600460200280838360005b83811015610231578082015181840152602081019050610216565b5050505090500191505060405180910390f35b6102a76004803603608081101561025a57600080fd5b8101908080608001906004806020026040519081016040528092919082600460200280828437600081840152601f19601f8201169050808301925050505050509192919290505050610fff565b005b6102b161145c565b6040518082815260200191505060405180910390f35b6102cf61153d565b6040518082815260200191505060405180910390f35b6102ed61166a565b005b6103716004803603606081101561030557600080fd5b81019080803573ffffffffffffffffffffffffffffffffffffffff169060200190929190803573ffffffffffffffffffffffffffffffffffffffff169060200190929190803573ffffffffffffffffffffffffffffffffffffffff1690602001909291905050506117a5565b005b61037b611d7b565b604051808273ffffffffffffffffffffffffffffffffffffffff1673ffffffffffffffffffffffffffffffffffffffff16815260200191505060405180910390f35b6103c5611da1565b604051808273ffffffffffffffffffffffffffffffffffffffff1673ffffffffffffffffffffffffffffffffffffffff16815260200191505060405180910390f35b61040f611dc7565b604051808273ffffffffffffffffffffffffffffffffffffffff1673ffffffffffffffffffffffffffffffffffffffff16815260200191505060405180910390f35b610459611df1565b604051808215151515815260200191505060405180910390f35b61047b611e50565b6040518082815260200191505060405180910390f35b610499611e83565b604051808273ffffffffffffffffffffffffffffffffffffffff1673ffffffffffffffffffffffffffffffffffffffff16815260200191505060405180910390f35b6104e3611ea9565b604051808273ffffffffffffffffffffffffffffffffffffffff1673ffffffffffffffffffffffffffffffffffffffff16815260200191505060405180910390f35b61052d611ecf565b6040518082815260200191505060405180910390f35b61054b611fb0565b604051808273ffffffffffffffffffffffffffffffffffffffff1673ffffffffffffffffffffffffffffffffffffffff16815260200191505060405180910390f35b6105cf600480360360208110156105a357600080fd5b81019080803573ffffffffffffffffffffffffffffffffffffffff169060200190929190505050611fd6565b005b6105fd600480360360208110156105e757600080fd5b810190808035906020019092919050505061205c565b005b603a5481565b61060d612ea4565b603460009054906101000a900473ffffffffffffffffffffffffffffffffffffffff1673ffffffffffffffffffffffffffffffffffffffff1663fb6d3a896040518163ffffffff1660e01b815260040160806040518083038186803b15801561067557600080fd5b505afa158015610689573d6000803e3d6000fd5b505050506040513d601f19601f8201168201806040525060808110156106ae57600080fd5b8101908091905050905060008090505b60048110156107955761071b6106d2612163565b308584600481106106df57fe5b60200201518585600481106106f057fe5b602002015173ffffffffffffffffffffffffffffffffffffffff1661216b909392919063ffffffff16565b610788603460009054906101000a900473ffffffffffffffffffffffffffffffffffffffff1684836004811061074d57fe5b602002015184846004811061075e57fe5b602002015173ffffffffffffffffffffffffffffffffffffffff166122719092919063ffffffff16565b80806001019150506106be565b50603460009054906101000a900473ffffffffffffffffffffffffffffffffffffffff1673ffffffffffffffffffffffffffffffffffffffff1663029b2f348360006040518363ffffffff1660e01b81526004018083600460200280838360005b838110156108115780820151818401526020810190506107f6565b5050505090500182815260200192505050600060405180830381600087803b15801561083c57600080fd5b505af1158015610850573d6000803e3d6000fd5b505050506000603660009054906101000a900473ffffffffffffffffffffffffffffffffffffffff1673ffffffffffffffffffffffffffffffffffffffff166370a08231306040518263ffffffff1660e01b8152600401808273ffffffffffffffffffffffffffffffffffffffff1673ffffffffffffffffffffffffffffffffffffffff16815260200191505060206040518083038186803b1580156108f557600080fd5b505afa158015610909573d6000803e3d6000fd5b505050506040513d602081101561091f57600080fd5b810190808051906020019092919050505090506109a1603760009054906101000a900473ffffffffffffffffffffffffffffffffffffffff1682603660009054906101000a900473ffffffffffffffffffffffffffffffffffffffff1673ffffffffffffffffffffffffffffffffffffffff166122719092919063ffffffff16565b603760009054906101000a900473ffffffffffffffffffffffffffffffffffffffff1673ffffffffffffffffffffffffffffffffffffffff1663b6b55f25826040518263ffffffff1660e01b815260040180828152602001915050600060405180830381600087803b158015610a1657600080fd5b505af1158015610a2a573d6000803e3d6000fd5b50505050610a36612491565b6000603960009054906101000a900473ffffffffffffffffffffffffffffffffffffffff1673ffffffffffffffffffffffffffffffffffffffff166370a08231306040518263ffffffff1660e01b8152600401808273ffffffffffffffffffffffffffffffffffffffff1673ffffffffffffffffffffffffffffffffffffffff16815260200191505060206040518083038186803b158015610ad757600080fd5b505afa158015610aeb573d6000803e3d6000fd5b505050506040513d6020811015610b0157600080fd5b81019080805190602001909291905050509050610b68610b1f612163565b82603960009054906101000a900473ffffffffffffffffffffffffffffffffffffffff1673ffffffffffffffffffffffffffffffffffffffff1661256e9092919063ffffffff16565b50505050565b603560009054906101000a900473ffffffffffffffffffffffffffffffffffffffff1681565b610b9c612ec6565b610ba4612ea4565b603460009054906101000a900473ffffffffffffffffffffffffffffffffffffffff1673ffffffffffffffffffffffffffffffffffffffff1663fb6d3a896040518163ffffffff1660e01b815260040160806040518083038186803b158015610c0c57600080fd5b505afa158015610c20573d6000803e3d6000fd5b505050506040513d601f19601f820116820180604052506080811015610c4557600080fd5b810190809190505090506000610c59611e50565b90506000603660009054906101000a900473ffffffffffffffffffffffffffffffffffffffff1673ffffffffffffffffffffffffffffffffffffffff166318160ddd6040518163ffffffff1660e01b815260040160206040518083038186803b158015610cc557600080fd5b505afa158015610cd9573d6000803e3d6000fd5b505050506040513d6020811015610cef57600080fd5b8101908080519060200190929190505050905060008111610d78576040517f08c379a00000000000000000000000000000000000000000000000000000000081526004018080602001828103825260198152602001807f4e6f204375727665204c5020746f6b656e73206d696e7465640000000000000081525060200191505060405180910390fd5b60008090505b6004811015610ff8576000603560009054906101000a900473ffffffffffffffffffffffffffffffffffffffff1673ffffffffffffffffffffffffffffffffffffffff1663065a80d8836040518263ffffffff1660e01b81526004018082600f0b600f0b815260200191505060206040518083038186803b158015610e0257600080fd5b505afa158015610e16573d6000803e3d6000fd5b505050506040513d6020811015610e2c57600080fd5b810190808051906020019092919050505090506000603560009054906101000a900473ffffffffffffffffffffffffffffffffffffffff1673ffffffffffffffffffffffffffffffffffffffff166323746eb8846040518263ffffffff1660e01b81526004018082600f0b600f0b815260200191505060206040518083038186803b158015610eba57600080fd5b505afa158015610ece573d6000803e3d6000fd5b505050506040513d6020811015610ee457600080fd5b810190808051906020019092919050505090506000610f1e85610f10888661263f90919063ffffffff16565b6126c590919063ffffffff16565b905060008273ffffffffffffffffffffffffffffffffffffffff166377c7b8fc6040518163ffffffff1660e01b815260040160206040518083038186803b158015610f6857600080fd5b505afa158015610f7c573d6000803e3d6000fd5b505050506040513d6020811015610f9257600080fd5b81019080805190602001909291905050509050610fd2670de0b6b3a7640000610fc4848461263f90919063ffffffff16565b6126c590919063ffffffff16565b898660048110610fde57fe5b602002018181525050505050508080600101915050610d7e565b5050505090565b611007612ea4565b603460009054906101000a900473ffffffffffffffffffffffffffffffffffffffff1673ffffffffffffffffffffffffffffffffffffffff1663fb6d3a896040518163ffffffff1660e01b815260040160806040518083038186803b15801561106f57600080fd5b505afa158015611083573d6000803e3d6000fd5b505050506040513d601f19601f8201168201806040525060808110156110a857600080fd5b81019080919050509050600080600090505b600481101561110e576110ff6110f08483600481106110d557fe5b60200201518684600481106110e657fe5b602002015161270f565b8361281290919063ffffffff16565b915080806001019150506110ba565b60006111198361289a565b90506000611125611ecf565b905060008111156111465761114381836128e190919063ffffffff16565b91505b603760009054906101000a900473ffffffffffffffffffffffffffffffffffffffff1673ffffffffffffffffffffffffffffffffffffffff16632e1a7d4d836040518263ffffffff1660e01b815260040180828152602001915050600060405180830381600087803b1580156111bb57600080fd5b505af11580156111cf573d6000803e3d6000fd5b50505050611242603460009054906101000a900473ffffffffffffffffffffffffffffffffffffffff1683603660009054906101000a900473ffffffffffffffffffffffffffffffffffffffff1673ffffffffffffffffffffffffffffffffffffffff166122719092919063ffffffff16565b603460009054906101000a900473ffffffffffffffffffffffffffffffffffffffff1673ffffffffffffffffffffffffffffffffffffffff166318a7bd7687846040518363ffffffff1660e01b81526004018083600460200280838360005b838110156112bc5780820151818401526020810190506112a1565b5050505090500182815260200192505050600060405180830381600087803b1580156112e757600080fd5b505af11580156112fb573d6000803e3d6000fd5b50505050600092505b600483101561145457600085846004811061131b57fe5b6020020151905060008173ffffffffffffffffffffffffffffffffffffffff166370a08231306040518263ffffffff1660e01b8152600401808273ffffffffffffffffffffffffffffffffffffffff1673ffffffffffffffffffffffffffffffffffffffff16815260200191505060206040518083038186803b1580156113a157600080fd5b505afa1580156113b5573d6000803e3d6000fd5b505050506040513d60208110156113cb57600080fd5b8101908080519060200190929190505050905060008886600481106113ec57fe5b602002015182111561140e5788866004811061140457fe5b6020020151611410565b815b905061144461141d612163565b828573ffffffffffffffffffffffffffffffffffffffff1661256e9092919063ffffffff16565b5050508280600101935050611304565b505050505050565b6000603760009054906101000a900473ffffffffffffffffffffffffffffffffffffffff1673ffffffffffffffffffffffffffffffffffffffff166370a08231306040518263ffffffff1660e01b8152600401808273ffffffffffffffffffffffffffffffffffffffff1673ffffffffffffffffffffffffffffffffffffffff16815260200191505060206040518083038186803b1580156114fd57600080fd5b505afa158015611511573d6000803e3d6000fd5b505050506040513d602081101561152757600080fd5b8101908080519060200190929190505050905090565b6000611547612ea4565b603460009054906101000a900473ffffffffffffffffffffffffffffffffffffffff1673ffffffffffffffffffffffffffffffffffffffff1663fb6d3a896040518163ffffffff1660e01b815260040160806040518083038186803b1580156115af57600080fd5b505afa1580156115c3573d6000803e3d6000fd5b505050506040513d601f19601f8201168201806040525060808110156115e857600080fd5b810190809190505090506115fa612ec6565b611602610b94565b9050600080600090505b60048110156116605761165161164285836004811061162757fe5b602002015185846004811061163857fe5b602002015161270f565b8361281290919063ffffffff16565b9150808060010191505061160c565b5080935050505090565b611672611df1565b6116e4576040517f08c379a00000000000000000000000000000000000000000000000000000000081526004018080602001828103825260208152602001807f4f776e61626c653a2063616c6c6572206973206e6f7420746865206f776e657281525060200191505060405180910390fd5b600073ffffffffffffffffffffffffffffffffffffffff16603360009054906101000a900473ffffffffffffffffffffffffffffffffffffffff1673ffffffffffffffffffffffffffffffffffffffff167f8be0079c531659141344cd1fd0a4f28419497f9722a3daafe3b4186f6b6457e060405160405180910390a36000603360006101000a81548173ffffffffffffffffffffffffffffffffffffffff021916908373ffffffffffffffffffffffffffffffffffffffff160217905550565b6117ad611df1565b61181f576040517f08c379a00000000000000000000000000000000000000000000000000000000081526004018080602001828103825260208152602001807f4f776e61626c653a2063616c6c6572206973206e6f7420746865206f776e657281525060200191505060405180910390fd5b600073ffffffffffffffffffffffffffffffffffffffff168373ffffffffffffffffffffffffffffffffffffffff1614156118a5576040517f08c379a0000000000000000000000000000000000000000000000000000000008152600401808060200182810382526022815260200180612ee96022913960400191505060405180910390fd5b82603460006101000a81548173ffffffffffffffffffffffffffffffffffffffff021916908373ffffffffffffffffffffffffffffffffffffffff160217905550603460009054906101000a900473ffffffffffffffffffffffffffffffffffffffff1673ffffffffffffffffffffffffffffffffffffffff16637165485d6040518163ffffffff1660e01b815260040160206040518083038186803b15801561194e57600080fd5b505afa158015611962573d6000803e3d6000fd5b505050506040513d602081101561197857600080fd5b8101908080519060200190929190505050603560006101000a81548173ffffffffffffffffffffffffffffffffffffffff021916908373ffffffffffffffffffffffffffffffffffffffff16021790555081603760006101000a81548173ffffffffffffffffffffffffffffffffffffffff021916908373ffffffffffffffffffffffffffffffffffffffff160217905550603460009054906101000a900473ffffffffffffffffffffffffffffffffffffffff1673ffffffffffffffffffffffffffffffffffffffff1663fc0c546a6040518163ffffffff1660e01b815260040160206040518083038186803b158015611a7257600080fd5b505afa158015611a86573d6000803e3d6000fd5b505050506040513d6020811015611a9c57600080fd5b8101908080519060200190929190505050603660006101000a81548173ffffffffffffffffffffffffffffffffffffffff021916908373ffffffffffffffffffffffffffffffffffffffff160217905550603660009054906101000a900473ffffffffffffffffffffffffffffffffffffffff1673ffffffffffffffffffffffffffffffffffffffff16603760009054906101000a900473ffffffffffffffffffffffffffffffffffffffff1673ffffffffffffffffffffffffffffffffffffffff166382c630666040518163ffffffff1660e01b815260040160206040518083038186803b158015611b8e57600080fd5b505afa158015611ba2573d6000803e3d6000fd5b505050506040513d6020811015611bb857600080fd5b810190808051906020019092919050505073ffffffffffffffffffffffffffffffffffffffff1614611c52576040517f08c379a000000000000000000000000000000000000000000000000000000000815260040180806020018281038252601e8152602001807f43757276654669204c5020746f6b656e7320646f206e6f74206d61746368000081525060200191505060405180910390fd5b80603860006101000a81548173ffffffffffffffffffffffffffffffffffffffff021916908373ffffffffffffffffffffffffffffffffffffffff160217905550603760009054906101000a900473ffffffffffffffffffffffffffffffffffffffff1673ffffffffffffffffffffffffffffffffffffffff166376d8b1176040518163ffffffff1660e01b815260040160206040518083038186803b158015611cfb57600080fd5b505afa158015611d0f573d6000803e3d6000fd5b505050506040513d6020811015611d2557600080fd5b8101908080519060200190929190505050603960006101000a81548173ffffffffffffffffffffffffffffffffffffffff021916908373ffffffffffffffffffffffffffffffffffffffff160217905550505050565b603860009054906101000a900473ffffffffffffffffffffffffffffffffffffffff1681565b603960009054906101000a900473ffffffffffffffffffffffffffffffffffffffff1681565b6000603360009054906101000a900473ffffffffffffffffffffffffffffffffffffffff16905090565b6000603360009054906101000a900473ffffffffffffffffffffffffffffffffffffffff1673ffffffffffffffffffffffffffffffffffffffff16611e34612163565b73ffffffffffffffffffffffffffffffffffffffff1614905090565b600080611e5b61145c565b90506000611e67611ecf565b9050611e7c828261281290919063ffffffff16565b9250505090565b603660009054906101000a900473ffffffffffffffffffffffffffffffffffffffff1681565b603460009054906101000a900473ffffffffffffffffffffffffffffffffffffffff1681565b6000603660009054906101000a900473ffffffffffffffffffffffffffffffffffffffff1673ffffffffffffffffffffffffffffffffffffffff166370a08231306040518263ffffffff1660e01b8152600401808273ffffffffffffffffffffffffffffffffffffffff1673ffffffffffffffffffffffffffffffffffffffff16815260200191505060206040518083038186803b158015611f7057600080fd5b505afa158015611f84573d6000803e3d6000fd5b505050506040513d6020811015611f9a57600080fd5b8101908080519060200190929190505050905090565b603760009054906101000a900473ffffffffffffffffffffffffffffffffffffffff1681565b611fde611df1565b612050576040517f08c379a00000000000000000000000000000000000000000000000000000000081526004018080602001828103825260208152602001807f4f776e61626c653a2063616c6c6572206973206e6f7420746865206f776e657281525060200191505060405180910390fd5b6120598161292b565b50565b600060019054906101000a900460ff168061207b575061207a612a71565b5b8061209257506000809054906101000a900460ff16155b6120e7576040517f08c379a000000000000000000000000000000000000000000000000000000000815260040180806020018281038252602e815260200180612f52602e913960400191505060405180910390fd5b60008060019054906101000a900460ff161590508015612137576001600060016101000a81548160ff02191690831515021790555060016000806101000a81548160ff0219169083151502179055505b81603a81905550801561215f5760008060016101000a81548160ff0219169083151502179055505b5050565b600033905090565b61226b848573ffffffffffffffffffffffffffffffffffffffff166323b872dd905060e01b858585604051602401808473ffffffffffffffffffffffffffffffffffffffff1673ffffffffffffffffffffffffffffffffffffffff1681526020018373ffffffffffffffffffffffffffffffffffffffff1673ffffffffffffffffffffffffffffffffffffffff1681526020018281526020019350505050604051602081830303815290604052907bffffffffffffffffffffffffffffffffffffffffffffffffffffffff19166020820180517bffffffffffffffffffffffffffffffffffffffffffffffffffffffff8381831617835250505050612a88565b50505050565b600081148061236b575060008373ffffffffffffffffffffffffffffffffffffffff1663dd62ed3e30856040518363ffffffff1660e01b8152600401808373ffffffffffffffffffffffffffffffffffffffff1673ffffffffffffffffffffffffffffffffffffffff1681526020018273ffffffffffffffffffffffffffffffffffffffff1673ffffffffffffffffffffffffffffffffffffffff1681526020019250505060206040518083038186803b15801561232e57600080fd5b505afa158015612342573d6000803e3d6000fd5b505050506040513d602081101561235857600080fd5b8101908080519060200190929190505050145b6123c0576040517f08c379a0000000000000000000000000000000000000000000000000000000008152600401808060200182810382526036815260200180612faa6036913960400191505060405180910390fd5b61248c838473ffffffffffffffffffffffffffffffffffffffff1663095ea7b3905060e01b8484604051602401808373ffffffffffffffffffffffffffffffffffffffff1673ffffffffffffffffffffffffffffffffffffffff16815260200182815260200192505050604051602081830303815290604052907bffffffffffffffffffffffffffffffffffffffffffffffffffffffff19166020820180517bffffffffffffffffffffffffffffffffffffffffffffffffffffffff8381831617835250505050612a88565b505050565b603860009054906101000a900473ffffffffffffffffffffffffffffffffffffffff1673ffffffffffffffffffffffffffffffffffffffff16636a627842603760009054906101000a900473ffffffffffffffffffffffffffffffffffffffff166040518263ffffffff1660e01b8152600401808273ffffffffffffffffffffffffffffffffffffffff1673ffffffffffffffffffffffffffffffffffffffff168152602001915050600060405180830381600087803b15801561255457600080fd5b505af1158015612568573d6000803e3d6000fd5b50505050565b61263a838473ffffffffffffffffffffffffffffffffffffffff1663a9059cbb905060e01b8484604051602401808373ffffffffffffffffffffffffffffffffffffffff1673ffffffffffffffffffffffffffffffffffffffff16815260200182815260200192505050604051602081830303815290604052907bffffffffffffffffffffffffffffffffffffffffffffffffffffffff19166020820180517bffffffffffffffffffffffffffffffffffffffffffffffffffffffff8381831617835250505050612a88565b505050565b60008083141561265257600090506126bf565b600082840290508284828161266357fe5b04146126ba576040517f08c379a0000000000000000000000000000000000000000000000000000000008152600401808060200182810382526021815260200180612f316021913960400191505060405180910390fd5b809150505b92915050565b600061270783836040518060400160405280601a81526020017f536166654d6174683a206469766973696f6e206279207a65726f000000000000815250612cd3565b905092915050565b6000808373ffffffffffffffffffffffffffffffffffffffff1663313ce5676040518163ffffffff1660e01b815260040160206040518083038186803b15801561275857600080fd5b505afa15801561276c573d6000803e3d6000fd5b505050506040513d602081101561278257600080fd5b8101908080519060200190929190505050905060128160ff1614156127aa578291505061280c565b60128160ff1611156127da576127d26012820360ff16600a0a846126c590919063ffffffff16565b91505061280c565b60128160ff16101561280a576128028160120360ff16600a0a8461263f90919063ffffffff16565b91505061280c565b505b92915050565b600080828401905083811015612890576040517f08c379a000000000000000000000000000000000000000000000000000000000815260040180806020018281038252601b8152602001807f536166654d6174683a206164646974696f6e206f766572666c6f77000000000081525060200191505060405180910390fd5b8091505092915050565b6000806128a561153d565b905060006128b1611e50565b90506128d8826128ca868461263f90919063ffffffff16565b6126c590919063ffffffff16565b92505050919050565b600061292383836040518060400160405280601e81526020017f536166654d6174683a207375627472616374696f6e206f766572666c6f770000815250612d99565b905092915050565b600073ffffffffffffffffffffffffffffffffffffffff168173ffffffffffffffffffffffffffffffffffffffff1614156129b1576040517f08c379a0000000000000000000000000000000000000000000000000000000008152600401808060200182810382526026815260200180612f0b6026913960400191505060405180910390fd5b8073ffffffffffffffffffffffffffffffffffffffff16603360009054906101000a900473ffffffffffffffffffffffffffffffffffffffff1673ffffffffffffffffffffffffffffffffffffffff167f8be0079c531659141344cd1fd0a4f28419497f9722a3daafe3b4186f6b6457e060405160405180910390a380603360006101000a81548173ffffffffffffffffffffffffffffffffffffffff021916908373ffffffffffffffffffffffffffffffffffffffff16021790555050565b6000803090506000813b9050600081149250505090565b612aa78273ffffffffffffffffffffffffffffffffffffffff16612e59565b612b19576040517f08c379a000000000000000000000000000000000000000000000000000000000815260040180806020018281038252601f8152602001807f5361666545524332303a2063616c6c20746f206e6f6e2d636f6e74726163740081525060200191505060405180910390fd5b600060608373ffffffffffffffffffffffffffffffffffffffff16836040518082805190602001908083835b60208310612b685780518252602082019150602081019050602083039250612b45565b6001836020036101000a0380198251168184511680821785525050505050509050019150506000604051808303816000865af19150503d8060008114612bca576040519150601f19603f3d011682016040523d82523d6000602084013e612bcf565b606091505b509150915081612c47576040517f08c379a00000000000000000000000000000000000000000000000000000000081526004018080602001828103825260208152602001807f5361666545524332303a206c6f772d6c6576656c2063616c6c206661696c656481525060200191505060405180910390fd5b600081511115612ccd57808060200190516020811015612c6657600080fd5b8101908080519060200190929190505050612ccc576040517f08c379a000000000000000000000000000000000000000000000000000000000815260040180806020018281038252602a815260200180612f80602a913960400191505060405180910390fd5b5b50505050565b60008083118290612d7f576040517f08c379a00000000000000000000000000000000000000000000000000000000081526004018080602001828103825283818151815260200191508051906020019080838360005b83811015612d44578082015181840152602081019050612d29565b50505050905090810190601f168015612d715780820380516001836020036101000a031916815260200191505b509250505060405180910390fd5b506000838581612d8b57fe5b049050809150509392505050565b6000838311158290612e46576040517f08c379a00000000000000000000000000000000000000000000000000000000081526004018080602001828103825283818151815260200191508051906020019080838360005b83811015612e0b578082015181840152602081019050612df0565b50505050905090810190601f168015612e385780820380516001836020036101000a031916815260200191505b509250505060405180910390fd5b5060008385039050809150509392505050565b60008060007fc5d2460186f7233c927e7db2dcc703c0e500b653ca82273b7bfad8045d85a47060001b9050833f9150808214158015612e9b57506000801b8214155b92505050919050565b6040518060800160405280600490602082028038833980820191505090505090565b604051806080016040528060049060208202803883398082019150509050509056fe496e636f7272656374206465706f73697420636f6e747261637420616464726573734f776e61626c653a206e6577206f776e657220697320746865207a65726f2061646472657373536166654d6174683a206d756c7469706c69636174696f6e206f766572666c6f77436f6e747261637420696e7374616e63652068617320616c7265616479206265656e20696e697469616c697a65645361666545524332303a204552433230206f7065726174696f6e20646964206e6f7420737563636565645361666545524332303a20617070726f76652066726f6d206e6f6e2d7a65726f20746f206e6f6e2d7a65726f20616c6c6f77616e6365a265627a7a7231582012f905a18eea472128bb3c4baa48cab580ae113d3a2388f02b98b27ca93d23ae64736f6c634300050c0032",
					"opcodes": "PUSH1 0x80 PUSH1 0x40 MSTORE PUSH1 0x0 PUSH2 0x14 PUSH2 0xB8 PUSH1 0x20 SHL PUSH1 0x20 SHR JUMP JUMPDEST SWAP1 POP DUP1 PUSH1 0x33 PUSH1 0x0 PUSH2 0x100 EXP DUP2 SLOAD DUP2 PUSH20 0xFFFFFFFFFFFFFFFFFFFFFFFFFFFFFFFFFFFFFFFF MUL NOT AND SWAP1 DUP4 PUSH20 0xFFFFFFFFFFFFFFFFFFFFFFFFFFFFFFFFFFFFFFFF AND MUL OR SWAP1 SSTORE POP DUP1 PUSH20 0xFFFFFFFFFFFFFFFFFFFFFFFFFFFFFFFFFFFFFFFF AND PUSH1 0x0 PUSH20 0xFFFFFFFFFFFFFFFFFFFFFFFFFFFFFFFFFFFFFFFF AND PUSH32 0x8BE0079C531659141344CD1FD0A4F28419497F9722A3DAAFE3B4186F6B6457E0 PUSH1 0x40 MLOAD PUSH1 0x40 MLOAD DUP1 SWAP2 SUB SWAP1 LOG3 POP PUSH2 0xC0 JUMP JUMPDEST PUSH1 0x0 CALLER SWAP1 POP SWAP1 JUMP JUMPDEST PUSH2 0x3014 DUP1 PUSH2 0xCF PUSH1 0x0 CODECOPY PUSH1 0x0 RETURN INVALID PUSH1 0x80 PUSH1 0x40 MSTORE CALLVALUE DUP1 ISZERO PUSH2 0x10 JUMPI PUSH1 0x0 DUP1 REVERT JUMPDEST POP PUSH1 0x4 CALLDATASIZE LT PUSH2 0x12C JUMPI PUSH1 0x0 CALLDATALOAD PUSH1 0xE0 SHR DUP1 PUSH4 0x8141D266 GT PUSH2 0xAD JUMPI DUP1 PUSH4 0xBE873F50 GT PUSH2 0x71 JUMPI DUP1 PUSH4 0xBE873F50 EQ PUSH2 0x4DB JUMPI DUP1 PUSH4 0xDFDA714A EQ PUSH2 0x525 JUMPI DUP1 PUSH4 0xE011262A EQ PUSH2 0x543 JUMPI DUP1 PUSH4 0xF2FDE38B EQ PUSH2 0x58D JUMPI DUP1 PUSH4 0xFE4B84DF EQ PUSH2 0x5D1 JUMPI PUSH2 0x12C JUMP JUMPDEST DUP1 PUSH4 0x8141D266 EQ PUSH2 0x3BD JUMPI DUP1 PUSH4 0x8DA5CB5B EQ PUSH2 0x407 JUMPI DUP1 PUSH4 0x8F32D59B EQ PUSH2 0x451 JUMPI DUP1 PUSH4 0x97AA80D5 EQ PUSH2 0x473 JUMPI DUP1 PUSH4 0xA3477C36 EQ PUSH2 0x491 JUMPI PUSH2 0x12C JUMP JUMPDEST DUP1 PUSH4 0x44F9C395 GT PUSH2 0xF4 JUMPI DUP1 PUSH4 0x44F9C395 EQ PUSH2 0x2A9 JUMPI DUP1 PUSH4 0x628CB95E EQ PUSH2 0x2C7 JUMPI DUP1 PUSH4 0x715018A6 EQ PUSH2 0x2E5 JUMPI DUP1 PUSH4 0x77B8B1C7 EQ PUSH2 0x2EF JUMPI DUP1 PUSH4 0x7C241146 EQ PUSH2 0x373 JUMPI PUSH2 0x12C JUMP JUMPDEST DUP1 PUSH4 0xC55699C EQ PUSH2 0x131 JUMPI DUP1 PUSH4 0x14A19AEC EQ PUSH2 0x14F JUMPI DUP1 PUSH4 0x1C600416 EQ PUSH2 0x1B4 JUMPI DUP1 PUSH4 0x208E509F EQ PUSH2 0x1FE JUMPI DUP1 PUSH4 0x38EDA370 EQ PUSH2 0x244 JUMPI JUMPDEST PUSH1 0x0 DUP1 REVERT JUMPDEST PUSH2 0x139 PUSH2 0x5FF JUMP JUMPDEST PUSH1 0x40 MLOAD DUP1 DUP3 DUP2 MSTORE PUSH1 0x20 ADD SWAP2 POP POP PUSH1 0x40 MLOAD DUP1 SWAP2 SUB SWAP1 RETURN JUMPDEST PUSH2 0x1B2 PUSH1 0x4 DUP1 CALLDATASIZE SUB PUSH1 0x80 DUP2 LT ISZERO PUSH2 0x165 JUMPI PUSH1 0x0 DUP1 REVERT JUMPDEST DUP2 ADD SWAP1 DUP1 DUP1 PUSH1 0x80 ADD SWAP1 PUSH1 0x4 DUP1 PUSH1 0x20 MUL PUSH1 0x40 MLOAD SWAP1 DUP2 ADD PUSH1 0x40 MSTORE DUP1 SWAP3 SWAP2 SWAP1 DUP3 PUSH1 0x4 PUSH1 0x20 MUL DUP1 DUP3 DUP5 CALLDATACOPY PUSH1 0x0 DUP2 DUP5 ADD MSTORE PUSH1 0x1F NOT PUSH1 0x1F DUP3 ADD AND SWAP1 POP DUP1 DUP4 ADD SWAP3 POP POP POP POP POP POP SWAP2 SWAP3 SWAP2 SWAP3 SWAP1 POP POP POP PUSH2 0x605 JUMP JUMPDEST STOP JUMPDEST PUSH2 0x1BC PUSH2 0xB6E JUMP JUMPDEST PUSH1 0x40 MLOAD DUP1 DUP3 PUSH20 0xFFFFFFFFFFFFFFFFFFFFFFFFFFFFFFFFFFFFFFFF AND PUSH20 0xFFFFFFFFFFFFFFFFFFFFFFFFFFFFFFFFFFFFFFFF AND DUP2 MSTORE PUSH1 0x20 ADD SWAP2 POP POP PUSH1 0x40 MLOAD DUP1 SWAP2 SUB SWAP1 RETURN JUMPDEST PUSH2 0x206 PUSH2 0xB94 JUMP JUMPDEST PUSH1 0x40 MLOAD DUP1 DUP3 PUSH1 0x4 PUSH1 0x20 MUL DUP1 DUP4 DUP4 PUSH1 0x0 JUMPDEST DUP4 DUP2 LT ISZERO PUSH2 0x231 JUMPI DUP1 DUP3 ADD MLOAD DUP2 DUP5 ADD MSTORE PUSH1 0x20 DUP2 ADD SWAP1 POP PUSH2 0x216 JUMP JUMPDEST POP POP POP POP SWAP1 POP ADD SWAP2 POP POP PUSH1 0x40 MLOAD DUP1 SWAP2 SUB SWAP1 RETURN JUMPDEST PUSH2 0x2A7 PUSH1 0x4 DUP1 CALLDATASIZE SUB PUSH1 0x80 DUP2 LT ISZERO PUSH2 0x25A JUMPI PUSH1 0x0 DUP1 REVERT JUMPDEST DUP2 ADD SWAP1 DUP1 DUP1 PUSH1 0x80 ADD SWAP1 PUSH1 0x4 DUP1 PUSH1 0x20 MUL PUSH1 0x40 MLOAD SWAP1 DUP2 ADD PUSH1 0x40 MSTORE DUP1 SWAP3 SWAP2 SWAP1 DUP3 PUSH1 0x4 PUSH1 0x20 MUL DUP1 DUP3 DUP5 CALLDATACOPY PUSH1 0x0 DUP2 DUP5 ADD MSTORE PUSH1 0x1F NOT PUSH1 0x1F DUP3 ADD AND SWAP1 POP DUP1 DUP4 ADD SWAP3 POP POP POP POP POP POP SWAP2 SWAP3 SWAP2 SWAP3 SWAP1 POP POP POP PUSH2 0xFFF JUMP JUMPDEST STOP JUMPDEST PUSH2 0x2B1 PUSH2 0x145C JUMP JUMPDEST PUSH1 0x40 MLOAD DUP1 DUP3 DUP2 MSTORE PUSH1 0x20 ADD SWAP2 POP POP PUSH1 0x40 MLOAD DUP1 SWAP2 SUB SWAP1 RETURN JUMPDEST PUSH2 0x2CF PUSH2 0x153D JUMP JUMPDEST PUSH1 0x40 MLOAD DUP1 DUP3 DUP2 MSTORE PUSH1 0x20 ADD SWAP2 POP POP PUSH1 0x40 MLOAD DUP1 SWAP2 SUB SWAP1 RETURN JUMPDEST PUSH2 0x2ED PUSH2 0x166A JUMP JUMPDEST STOP JUMPDEST PUSH2 0x371 PUSH1 0x4 DUP1 CALLDATASIZE SUB PUSH1 0x60 DUP2 LT ISZERO PUSH2 0x305 JUMPI PUSH1 0x0 DUP1 REVERT JUMPDEST DUP2 ADD SWAP1 DUP1 DUP1 CALLDATALOAD PUSH20 0xFFFFFFFFFFFFFFFFFFFFFFFFFFFFFFFFFFFFFFFF AND SWAP1 PUSH1 0x20 ADD SWAP1 SWAP3 SWAP2 SWAP1 DUP1 CALLDATALOAD PUSH20 0xFFFFFFFFFFFFFFFFFFFFFFFFFFFFFFFFFFFFFFFF AND SWAP1 PUSH1 0x20 ADD SWAP1 SWAP3 SWAP2 SWAP1 DUP1 CALLDATALOAD PUSH20 0xFFFFFFFFFFFFFFFFFFFFFFFFFFFFFFFFFFFFFFFF AND SWAP1 PUSH1 0x20 ADD SWAP1 SWAP3 SWAP2 SWAP1 POP POP POP PUSH2 0x17A5 JUMP JUMPDEST STOP JUMPDEST PUSH2 0x37B PUSH2 0x1D7B JUMP JUMPDEST PUSH1 0x40 MLOAD DUP1 DUP3 PUSH20 0xFFFFFFFFFFFFFFFFFFFFFFFFFFFFFFFFFFFFFFFF AND PUSH20 0xFFFFFFFFFFFFFFFFFFFFFFFFFFFFFFFFFFFFFFFF AND DUP2 MSTORE PUSH1 0x20 ADD SWAP2 POP POP PUSH1 0x40 MLOAD DUP1 SWAP2 SUB SWAP1 RETURN JUMPDEST PUSH2 0x3C5 PUSH2 0x1DA1 JUMP JUMPDEST PUSH1 0x40 MLOAD DUP1 DUP3 PUSH20 0xFFFFFFFFFFFFFFFFFFFFFFFFFFFFFFFFFFFFFFFF AND PUSH20 0xFFFFFFFFFFFFFFFFFFFFFFFFFFFFFFFFFFFFFFFF AND DUP2 MSTORE PUSH1 0x20 ADD SWAP2 POP POP PUSH1 0x40 MLOAD DUP1 SWAP2 SUB SWAP1 RETURN JUMPDEST PUSH2 0x40F PUSH2 0x1DC7 JUMP JUMPDEST PUSH1 0x40 MLOAD DUP1 DUP3 PUSH20 0xFFFFFFFFFFFFFFFFFFFFFFFFFFFFFFFFFFFFFFFF AND PUSH20 0xFFFFFFFFFFFFFFFFFFFFFFFFFFFFFFFFFFFFFFFF AND DUP2 MSTORE PUSH1 0x20 ADD SWAP2 POP POP PUSH1 0x40 MLOAD DUP1 SWAP2 SUB SWAP1 RETURN JUMPDEST PUSH2 0x459 PUSH2 0x1DF1 JUMP JUMPDEST PUSH1 0x40 MLOAD DUP1 DUP3 ISZERO ISZERO ISZERO ISZERO DUP2 MSTORE PUSH1 0x20 ADD SWAP2 POP POP PUSH1 0x40 MLOAD DUP1 SWAP2 SUB SWAP1 RETURN JUMPDEST PUSH2 0x47B PUSH2 0x1E50 JUMP JUMPDEST PUSH1 0x40 MLOAD DUP1 DUP3 DUP2 MSTORE PUSH1 0x20 ADD SWAP2 POP POP PUSH1 0x40 MLOAD DUP1 SWAP2 SUB SWAP1 RETURN JUMPDEST PUSH2 0x499 PUSH2 0x1E83 JUMP JUMPDEST PUSH1 0x40 MLOAD DUP1 DUP3 PUSH20 0xFFFFFFFFFFFFFFFFFFFFFFFFFFFFFFFFFFFFFFFF AND PUSH20 0xFFFFFFFFFFFFFFFFFFFFFFFFFFFFFFFFFFFFFFFF AND DUP2 MSTORE PUSH1 0x20 ADD SWAP2 POP POP PUSH1 0x40 MLOAD DUP1 SWAP2 SUB SWAP1 RETURN JUMPDEST PUSH2 0x4E3 PUSH2 0x1EA9 JUMP JUMPDEST PUSH1 0x40 MLOAD DUP1 DUP3 PUSH20 0xFFFFFFFFFFFFFFFFFFFFFFFFFFFFFFFFFFFFFFFF AND PUSH20 0xFFFFFFFFFFFFFFFFFFFFFFFFFFFFFFFFFFFFFFFF AND DUP2 MSTORE PUSH1 0x20 ADD SWAP2 POP POP PUSH1 0x40 MLOAD DUP1 SWAP2 SUB SWAP1 RETURN JUMPDEST PUSH2 0x52D PUSH2 0x1ECF JUMP JUMPDEST PUSH1 0x40 MLOAD DUP1 DUP3 DUP2 MSTORE PUSH1 0x20 ADD SWAP2 POP POP PUSH1 0x40 MLOAD DUP1 SWAP2 SUB SWAP1 RETURN JUMPDEST PUSH2 0x54B PUSH2 0x1FB0 JUMP JUMPDEST PUSH1 0x40 MLOAD DUP1 DUP3 PUSH20 0xFFFFFFFFFFFFFFFFFFFFFFFFFFFFFFFFFFFFFFFF AND PUSH20 0xFFFFFFFFFFFFFFFFFFFFFFFFFFFFFFFFFFFFFFFF AND DUP2 MSTORE PUSH1 0x20 ADD SWAP2 POP POP PUSH1 0x40 MLOAD DUP1 SWAP2 SUB SWAP1 RETURN JUMPDEST PUSH2 0x5CF PUSH1 0x4 DUP1 CALLDATASIZE SUB PUSH1 0x20 DUP2 LT ISZERO PUSH2 0x5A3 JUMPI PUSH1 0x0 DUP1 REVERT JUMPDEST DUP2 ADD SWAP1 DUP1 DUP1 CALLDATALOAD PUSH20 0xFFFFFFFFFFFFFFFFFFFFFFFFFFFFFFFFFFFFFFFF AND SWAP1 PUSH1 0x20 ADD SWAP1 SWAP3 SWAP2 SWAP1 POP POP POP PUSH2 0x1FD6 JUMP JUMPDEST STOP JUMPDEST PUSH2 0x5FD PUSH1 0x4 DUP1 CALLDATASIZE SUB PUSH1 0x20 DUP2 LT ISZERO PUSH2 0x5E7 JUMPI PUSH1 0x0 DUP1 REVERT JUMPDEST DUP2 ADD SWAP1 DUP1 DUP1 CALLDATALOAD SWAP1 PUSH1 0x20 ADD SWAP1 SWAP3 SWAP2 SWAP1 POP POP POP PUSH2 0x205C JUMP JUMPDEST STOP JUMPDEST PUSH1 0x3A SLOAD DUP2 JUMP JUMPDEST PUSH2 0x60D PUSH2 0x2EA4 JUMP JUMPDEST PUSH1 0x34 PUSH1 0x0 SWAP1 SLOAD SWAP1 PUSH2 0x100 EXP SWAP1 DIV PUSH20 0xFFFFFFFFFFFFFFFFFFFFFFFFFFFFFFFFFFFFFFFF AND PUSH20 0xFFFFFFFFFFFFFFFFFFFFFFFFFFFFFFFFFFFFFFFF AND PUSH4 0xFB6D3A89 PUSH1 0x40 MLOAD DUP2 PUSH4 0xFFFFFFFF AND PUSH1 0xE0 SHL DUP2 MSTORE PUSH1 0x4 ADD PUSH1 0x80 PUSH1 0x40 MLOAD DUP1 DUP4 SUB DUP2 DUP7 DUP1 EXTCODESIZE ISZERO DUP1 ISZERO PUSH2 0x675 JUMPI PUSH1 0x0 DUP1 REVERT JUMPDEST POP GAS STATICCALL ISZERO DUP1 ISZERO PUSH2 0x689 JUMPI RETURNDATASIZE PUSH1 0x0 DUP1 RETURNDATACOPY RETURNDATASIZE PUSH1 0x0 REVERT JUMPDEST POP POP POP POP PUSH1 0x40 MLOAD RETURNDATASIZE PUSH1 0x1F NOT PUSH1 0x1F DUP3 ADD AND DUP3 ADD DUP1 PUSH1 0x40 MSTORE POP PUSH1 0x80 DUP2 LT ISZERO PUSH2 0x6AE JUMPI PUSH1 0x0 DUP1 REVERT JUMPDEST DUP2 ADD SWAP1 DUP1 SWAP2 SWAP1 POP POP SWAP1 POP PUSH1 0x0 DUP1 SWAP1 POP JUMPDEST PUSH1 0x4 DUP2 LT ISZERO PUSH2 0x795 JUMPI PUSH2 0x71B PUSH2 0x6D2 PUSH2 0x2163 JUMP JUMPDEST ADDRESS DUP6 DUP5 PUSH1 0x4 DUP2 LT PUSH2 0x6DF JUMPI INVALID JUMPDEST PUSH1 0x20 MUL ADD MLOAD DUP6 DUP6 PUSH1 0x4 DUP2 LT PUSH2 0x6F0 JUMPI INVALID JUMPDEST PUSH1 0x20 MUL ADD MLOAD PUSH20 0xFFFFFFFFFFFFFFFFFFFFFFFFFFFFFFFFFFFFFFFF AND PUSH2 0x216B SWAP1 SWAP4 SWAP3 SWAP2 SWAP1 PUSH4 0xFFFFFFFF AND JUMP JUMPDEST PUSH2 0x788 PUSH1 0x34 PUSH1 0x0 SWAP1 SLOAD SWAP1 PUSH2 0x100 EXP SWAP1 DIV PUSH20 0xFFFFFFFFFFFFFFFFFFFFFFFFFFFFFFFFFFFFFFFF AND DUP5 DUP4 PUSH1 0x4 DUP2 LT PUSH2 0x74D JUMPI INVALID JUMPDEST PUSH1 0x20 MUL ADD MLOAD DUP5 DUP5 PUSH1 0x4 DUP2 LT PUSH2 0x75E JUMPI INVALID JUMPDEST PUSH1 0x20 MUL ADD MLOAD PUSH20 0xFFFFFFFFFFFFFFFFFFFFFFFFFFFFFFFFFFFFFFFF AND PUSH2 0x2271 SWAP1 SWAP3 SWAP2 SWAP1 PUSH4 0xFFFFFFFF AND JUMP JUMPDEST DUP1 DUP1 PUSH1 0x1 ADD SWAP2 POP POP PUSH2 0x6BE JUMP JUMPDEST POP PUSH1 0x34 PUSH1 0x0 SWAP1 SLOAD SWAP1 PUSH2 0x100 EXP SWAP1 DIV PUSH20 0xFFFFFFFFFFFFFFFFFFFFFFFFFFFFFFFFFFFFFFFF AND PUSH20 0xFFFFFFFFFFFFFFFFFFFFFFFFFFFFFFFFFFFFFFFF AND PUSH4 0x29B2F34 DUP4 PUSH1 0x0 PUSH1 0x40 MLOAD DUP4 PUSH4 0xFFFFFFFF AND PUSH1 0xE0 SHL DUP2 MSTORE PUSH1 0x4 ADD DUP1 DUP4 PUSH1 0x4 PUSH1 0x20 MUL DUP1 DUP4 DUP4 PUSH1 0x0 JUMPDEST DUP4 DUP2 LT ISZERO PUSH2 0x811 JUMPI DUP1 DUP3 ADD MLOAD DUP2 DUP5 ADD MSTORE PUSH1 0x20 DUP2 ADD SWAP1 POP PUSH2 0x7F6 JUMP JUMPDEST POP POP POP POP SWAP1 POP ADD DUP3 DUP2 MSTORE PUSH1 0x20 ADD SWAP3 POP POP POP PUSH1 0x0 PUSH1 0x40 MLOAD DUP1 DUP4 SUB DUP2 PUSH1 0x0 DUP8 DUP1 EXTCODESIZE ISZERO DUP1 ISZERO PUSH2 0x83C JUMPI PUSH1 0x0 DUP1 REVERT JUMPDEST POP GAS CALL ISZERO DUP1 ISZERO PUSH2 0x850 JUMPI RETURNDATASIZE PUSH1 0x0 DUP1 RETURNDATACOPY RETURNDATASIZE PUSH1 0x0 REVERT JUMPDEST POP POP POP POP PUSH1 0x0 PUSH1 0x36 PUSH1 0x0 SWAP1 SLOAD SWAP1 PUSH2 0x100 EXP SWAP1 DIV PUSH20 0xFFFFFFFFFFFFFFFFFFFFFFFFFFFFFFFFFFFFFFFF AND PUSH20 0xFFFFFFFFFFFFFFFFFFFFFFFFFFFFFFFFFFFFFFFF AND PUSH4 0x70A08231 ADDRESS PUSH1 0x40 MLOAD DUP3 PUSH4 0xFFFFFFFF AND PUSH1 0xE0 SHL DUP2 MSTORE PUSH1 0x4 ADD DUP1 DUP3 PUSH20 0xFFFFFFFFFFFFFFFFFFFFFFFFFFFFFFFFFFFFFFFF AND PUSH20 0xFFFFFFFFFFFFFFFFFFFFFFFFFFFFFFFFFFFFFFFF AND DUP2 MSTORE PUSH1 0x20 ADD SWAP2 POP POP PUSH1 0x20 PUSH1 0x40 MLOAD DUP1 DUP4 SUB DUP2 DUP7 DUP1 EXTCODESIZE ISZERO DUP1 ISZERO PUSH2 0x8F5 JUMPI PUSH1 0x0 DUP1 REVERT JUMPDEST POP GAS STATICCALL ISZERO DUP1 ISZERO PUSH2 0x909 JUMPI RETURNDATASIZE PUSH1 0x0 DUP1 RETURNDATACOPY RETURNDATASIZE PUSH1 0x0 REVERT JUMPDEST POP POP POP POP PUSH1 0x40 MLOAD RETURNDATASIZE PUSH1 0x20 DUP2 LT ISZERO PUSH2 0x91F JUMPI PUSH1 0x0 DUP1 REVERT JUMPDEST DUP2 ADD SWAP1 DUP1 DUP1 MLOAD SWAP1 PUSH1 0x20 ADD SWAP1 SWAP3 SWAP2 SWAP1 POP POP POP SWAP1 POP PUSH2 0x9A1 PUSH1 0x37 PUSH1 0x0 SWAP1 SLOAD SWAP1 PUSH2 0x100 EXP SWAP1 DIV PUSH20 0xFFFFFFFFFFFFFFFFFFFFFFFFFFFFFFFFFFFFFFFF AND DUP3 PUSH1 0x36 PUSH1 0x0 SWAP1 SLOAD SWAP1 PUSH2 0x100 EXP SWAP1 DIV PUSH20 0xFFFFFFFFFFFFFFFFFFFFFFFFFFFFFFFFFFFFFFFF AND PUSH20 0xFFFFFFFFFFFFFFFFFFFFFFFFFFFFFFFFFFFFFFFF AND PUSH2 0x2271 SWAP1 SWAP3 SWAP2 SWAP1 PUSH4 0xFFFFFFFF AND JUMP JUMPDEST PUSH1 0x37 PUSH1 0x0 SWAP1 SLOAD SWAP1 PUSH2 0x100 EXP SWAP1 DIV PUSH20 0xFFFFFFFFFFFFFFFFFFFFFFFFFFFFFFFFFFFFFFFF AND PUSH20 0xFFFFFFFFFFFFFFFFFFFFFFFFFFFFFFFFFFFFFFFF AND PUSH4 0xB6B55F25 DUP3 PUSH1 0x40 MLOAD DUP3 PUSH4 0xFFFFFFFF AND PUSH1 0xE0 SHL DUP2 MSTORE PUSH1 0x4 ADD DUP1 DUP3 DUP2 MSTORE PUSH1 0x20 ADD SWAP2 POP POP PUSH1 0x0 PUSH1 0x40 MLOAD DUP1 DUP4 SUB DUP2 PUSH1 0x0 DUP8 DUP1 EXTCODESIZE ISZERO DUP1 ISZERO PUSH2 0xA16 JUMPI PUSH1 0x0 DUP1 REVERT JUMPDEST POP GAS CALL ISZERO DUP1 ISZERO PUSH2 0xA2A JUMPI RETURNDATASIZE PUSH1 0x0 DUP1 RETURNDATACOPY RETURNDATASIZE PUSH1 0x0 REVERT JUMPDEST POP POP POP POP PUSH2 0xA36 PUSH2 0x2491 JUMP JUMPDEST PUSH1 0x0 PUSH1 0x39 PUSH1 0x0 SWAP1 SLOAD SWAP1 PUSH2 0x100 EXP SWAP1 DIV PUSH20 0xFFFFFFFFFFFFFFFFFFFFFFFFFFFFFFFFFFFFFFFF AND PUSH20 0xFFFFFFFFFFFFFFFFFFFFFFFFFFFFFFFFFFFFFFFF AND PUSH4 0x70A08231 ADDRESS PUSH1 0x40 MLOAD DUP3 PUSH4 0xFFFFFFFF AND PUSH1 0xE0 SHL DUP2 MSTORE PUSH1 0x4 ADD DUP1 DUP3 PUSH20 0xFFFFFFFFFFFFFFFFFFFFFFFFFFFFFFFFFFFFFFFF AND PUSH20 0xFFFFFFFFFFFFFFFFFFFFFFFFFFFFFFFFFFFFFFFF AND DUP2 MSTORE PUSH1 0x20 ADD SWAP2 POP POP PUSH1 0x20 PUSH1 0x40 MLOAD DUP1 DUP4 SUB DUP2 DUP7 DUP1 EXTCODESIZE ISZERO DUP1 ISZERO PUSH2 0xAD7 JUMPI PUSH1 0x0 DUP1 REVERT JUMPDEST POP GAS STATICCALL ISZERO DUP1 ISZERO PUSH2 0xAEB JUMPI RETURNDATASIZE PUSH1 0x0 DUP1 RETURNDATACOPY RETURNDATASIZE PUSH1 0x0 REVERT JUMPDEST POP POP POP POP PUSH1 0x40 MLOAD RETURNDATASIZE PUSH1 0x20 DUP2 LT ISZERO PUSH2 0xB01 JUMPI PUSH1 0x0 DUP1 REVERT JUMPDEST DUP2 ADD SWAP1 DUP1 DUP1 MLOAD SWAP1 PUSH1 0x20 ADD SWAP1 SWAP3 SWAP2 SWAP1 POP POP POP SWAP1 POP PUSH2 0xB68 PUSH2 0xB1F PUSH2 0x2163 JUMP JUMPDEST DUP3 PUSH1 0x39 PUSH1 0x0 SWAP1 SLOAD SWAP1 PUSH2 0x100 EXP SWAP1 DIV PUSH20 0xFFFFFFFFFFFFFFFFFFFFFFFFFFFFFFFFFFFFFFFF AND PUSH20 0xFFFFFFFFFFFFFFFFFFFFFFFFFFFFFFFFFFFFFFFF AND PUSH2 0x256E SWAP1 SWAP3 SWAP2 SWAP1 PUSH4 0xFFFFFFFF AND JUMP JUMPDEST POP POP POP POP JUMP JUMPDEST PUSH1 0x35 PUSH1 0x0 SWAP1 SLOAD SWAP1 PUSH2 0x100 EXP SWAP1 DIV PUSH20 0xFFFFFFFFFFFFFFFFFFFFFFFFFFFFFFFFFFFFFFFF AND DUP2 JUMP JUMPDEST PUSH2 0xB9C PUSH2 0x2EC6 JUMP JUMPDEST PUSH2 0xBA4 PUSH2 0x2EA4 JUMP JUMPDEST PUSH1 0x34 PUSH1 0x0 SWAP1 SLOAD SWAP1 PUSH2 0x100 EXP SWAP1 DIV PUSH20 0xFFFFFFFFFFFFFFFFFFFFFFFFFFFFFFFFFFFFFFFF AND PUSH20 0xFFFFFFFFFFFFFFFFFFFFFFFFFFFFFFFFFFFFFFFF AND PUSH4 0xFB6D3A89 PUSH1 0x40 MLOAD DUP2 PUSH4 0xFFFFFFFF AND PUSH1 0xE0 SHL DUP2 MSTORE PUSH1 0x4 ADD PUSH1 0x80 PUSH1 0x40 MLOAD DUP1 DUP4 SUB DUP2 DUP7 DUP1 EXTCODESIZE ISZERO DUP1 ISZERO PUSH2 0xC0C JUMPI PUSH1 0x0 DUP1 REVERT JUMPDEST POP GAS STATICCALL ISZERO DUP1 ISZERO PUSH2 0xC20 JUMPI RETURNDATASIZE PUSH1 0x0 DUP1 RETURNDATACOPY RETURNDATASIZE PUSH1 0x0 REVERT JUMPDEST POP POP POP POP PUSH1 0x40 MLOAD RETURNDATASIZE PUSH1 0x1F NOT PUSH1 0x1F DUP3 ADD AND DUP3 ADD DUP1 PUSH1 0x40 MSTORE POP PUSH1 0x80 DUP2 LT ISZERO PUSH2 0xC45 JUMPI PUSH1 0x0 DUP1 REVERT JUMPDEST DUP2 ADD SWAP1 DUP1 SWAP2 SWAP1 POP POP SWAP1 POP PUSH1 0x0 PUSH2 0xC59 PUSH2 0x1E50 JUMP JUMPDEST SWAP1 POP PUSH1 0x0 PUSH1 0x36 PUSH1 0x0 SWAP1 SLOAD SWAP1 PUSH2 0x100 EXP SWAP1 DIV PUSH20 0xFFFFFFFFFFFFFFFFFFFFFFFFFFFFFFFFFFFFFFFF AND PUSH20 0xFFFFFFFFFFFFFFFFFFFFFFFFFFFFFFFFFFFFFFFF AND PUSH4 0x18160DDD PUSH1 0x40 MLOAD DUP2 PUSH4 0xFFFFFFFF AND PUSH1 0xE0 SHL DUP2 MSTORE PUSH1 0x4 ADD PUSH1 0x20 PUSH1 0x40 MLOAD DUP1 DUP4 SUB DUP2 DUP7 DUP1 EXTCODESIZE ISZERO DUP1 ISZERO PUSH2 0xCC5 JUMPI PUSH1 0x0 DUP1 REVERT JUMPDEST POP GAS STATICCALL ISZERO DUP1 ISZERO PUSH2 0xCD9 JUMPI RETURNDATASIZE PUSH1 0x0 DUP1 RETURNDATACOPY RETURNDATASIZE PUSH1 0x0 REVERT JUMPDEST POP POP POP POP PUSH1 0x40 MLOAD RETURNDATASIZE PUSH1 0x20 DUP2 LT ISZERO PUSH2 0xCEF JUMPI PUSH1 0x0 DUP1 REVERT JUMPDEST DUP2 ADD SWAP1 DUP1 DUP1 MLOAD SWAP1 PUSH1 0x20 ADD SWAP1 SWAP3 SWAP2 SWAP1 POP POP POP SWAP1 POP PUSH1 0x0 DUP2 GT PUSH2 0xD78 JUMPI PUSH1 0x40 MLOAD PUSH32 0x8C379A000000000000000000000000000000000000000000000000000000000 DUP2 MSTORE PUSH1 0x4 ADD DUP1 DUP1 PUSH1 0x20 ADD DUP3 DUP2 SUB DUP3 MSTORE PUSH1 0x19 DUP2 MSTORE PUSH1 0x20 ADD DUP1 PUSH32 0x4E6F204375727665204C5020746F6B656E73206D696E74656400000000000000 DUP2 MSTORE POP PUSH1 0x20 ADD SWAP2 POP POP PUSH1 0x40 MLOAD DUP1 SWAP2 SUB SWAP1 REVERT JUMPDEST PUSH1 0x0 DUP1 SWAP1 POP JUMPDEST PUSH1 0x4 DUP2 LT ISZERO PUSH2 0xFF8 JUMPI PUSH1 0x0 PUSH1 0x35 PUSH1 0x0 SWAP1 SLOAD SWAP1 PUSH2 0x100 EXP SWAP1 DIV PUSH20 0xFFFFFFFFFFFFFFFFFFFFFFFFFFFFFFFFFFFFFFFF AND PUSH20 0xFFFFFFFFFFFFFFFFFFFFFFFFFFFFFFFFFFFFFFFF AND PUSH4 0x65A80D8 DUP4 PUSH1 0x40 MLOAD DUP3 PUSH4 0xFFFFFFFF AND PUSH1 0xE0 SHL DUP2 MSTORE PUSH1 0x4 ADD DUP1 DUP3 PUSH1 0xF SIGNEXTEND PUSH1 0xF SIGNEXTEND DUP2 MSTORE PUSH1 0x20 ADD SWAP2 POP POP PUSH1 0x20 PUSH1 0x40 MLOAD DUP1 DUP4 SUB DUP2 DUP7 DUP1 EXTCODESIZE ISZERO DUP1 ISZERO PUSH2 0xE02 JUMPI PUSH1 0x0 DUP1 REVERT JUMPDEST POP GAS STATICCALL ISZERO DUP1 ISZERO PUSH2 0xE16 JUMPI RETURNDATASIZE PUSH1 0x0 DUP1 RETURNDATACOPY RETURNDATASIZE PUSH1 0x0 REVERT JUMPDEST POP POP POP POP PUSH1 0x40 MLOAD RETURNDATASIZE PUSH1 0x20 DUP2 LT ISZERO PUSH2 0xE2C JUMPI PUSH1 0x0 DUP1 REVERT JUMPDEST DUP2 ADD SWAP1 DUP1 DUP1 MLOAD SWAP1 PUSH1 0x20 ADD SWAP1 SWAP3 SWAP2 SWAP1 POP POP POP SWAP1 POP PUSH1 0x0 PUSH1 0x35 PUSH1 0x0 SWAP1 SLOAD SWAP1 PUSH2 0x100 EXP SWAP1 DIV PUSH20 0xFFFFFFFFFFFFFFFFFFFFFFFFFFFFFFFFFFFFFFFF AND PUSH20 0xFFFFFFFFFFFFFFFFFFFFFFFFFFFFFFFFFFFFFFFF AND PUSH4 0x23746EB8 DUP5 PUSH1 0x40 MLOAD DUP3 PUSH4 0xFFFFFFFF AND PUSH1 0xE0 SHL DUP2 MSTORE PUSH1 0x4 ADD DUP1 DUP3 PUSH1 0xF SIGNEXTEND PUSH1 0xF SIGNEXTEND DUP2 MSTORE PUSH1 0x20 ADD SWAP2 POP POP PUSH1 0x20 PUSH1 0x40 MLOAD DUP1 DUP4 SUB DUP2 DUP7 DUP1 EXTCODESIZE ISZERO DUP1 ISZERO PUSH2 0xEBA JUMPI PUSH1 0x0 DUP1 REVERT JUMPDEST POP GAS STATICCALL ISZERO DUP1 ISZERO PUSH2 0xECE JUMPI RETURNDATASIZE PUSH1 0x0 DUP1 RETURNDATACOPY RETURNDATASIZE PUSH1 0x0 REVERT JUMPDEST POP POP POP POP PUSH1 0x40 MLOAD RETURNDATASIZE PUSH1 0x20 DUP2 LT ISZERO PUSH2 0xEE4 JUMPI PUSH1 0x0 DUP1 REVERT JUMPDEST DUP2 ADD SWAP1 DUP1 DUP1 MLOAD SWAP1 PUSH1 0x20 ADD SWAP1 SWAP3 SWAP2 SWAP1 POP POP POP SWAP1 POP PUSH1 0x0 PUSH2 0xF1E DUP6 PUSH2 0xF10 DUP9 DUP7 PUSH2 0x263F SWAP1 SWAP2 SWAP1 PUSH4 0xFFFFFFFF AND JUMP JUMPDEST PUSH2 0x26C5 SWAP1 SWAP2 SWAP1 PUSH4 0xFFFFFFFF AND JUMP JUMPDEST SWAP1 POP PUSH1 0x0 DUP3 PUSH20 0xFFFFFFFFFFFFFFFFFFFFFFFFFFFFFFFFFFFFFFFF AND PUSH4 0x77C7B8FC PUSH1 0x40 MLOAD DUP2 PUSH4 0xFFFFFFFF AND PUSH1 0xE0 SHL DUP2 MSTORE PUSH1 0x4 ADD PUSH1 0x20 PUSH1 0x40 MLOAD DUP1 DUP4 SUB DUP2 DUP7 DUP1 EXTCODESIZE ISZERO DUP1 ISZERO PUSH2 0xF68 JUMPI PUSH1 0x0 DUP1 REVERT JUMPDEST POP GAS STATICCALL ISZERO DUP1 ISZERO PUSH2 0xF7C JUMPI RETURNDATASIZE PUSH1 0x0 DUP1 RETURNDATACOPY RETURNDATASIZE PUSH1 0x0 REVERT JUMPDEST POP POP POP POP PUSH1 0x40 MLOAD RETURNDATASIZE PUSH1 0x20 DUP2 LT ISZERO PUSH2 0xF92 JUMPI PUSH1 0x0 DUP1 REVERT JUMPDEST DUP2 ADD SWAP1 DUP1 DUP1 MLOAD SWAP1 PUSH1 0x20 ADD SWAP1 SWAP3 SWAP2 SWAP1 POP POP POP SWAP1 POP PUSH2 0xFD2 PUSH8 0xDE0B6B3A7640000 PUSH2 0xFC4 DUP5 DUP5 PUSH2 0x263F SWAP1 SWAP2 SWAP1 PUSH4 0xFFFFFFFF AND JUMP JUMPDEST PUSH2 0x26C5 SWAP1 SWAP2 SWAP1 PUSH4 0xFFFFFFFF AND JUMP JUMPDEST DUP10 DUP7 PUSH1 0x4 DUP2 LT PUSH2 0xFDE JUMPI INVALID JUMPDEST PUSH1 0x20 MUL ADD DUP2 DUP2 MSTORE POP POP POP POP POP POP DUP1 DUP1 PUSH1 0x1 ADD SWAP2 POP POP PUSH2 0xD7E JUMP JUMPDEST POP POP POP POP SWAP1 JUMP JUMPDEST PUSH2 0x1007 PUSH2 0x2EA4 JUMP JUMPDEST PUSH1 0x34 PUSH1 0x0 SWAP1 SLOAD SWAP1 PUSH2 0x100 EXP SWAP1 DIV PUSH20 0xFFFFFFFFFFFFFFFFFFFFFFFFFFFFFFFFFFFFFFFF AND PUSH20 0xFFFFFFFFFFFFFFFFFFFFFFFFFFFFFFFFFFFFFFFF AND PUSH4 0xFB6D3A89 PUSH1 0x40 MLOAD DUP2 PUSH4 0xFFFFFFFF AND PUSH1 0xE0 SHL DUP2 MSTORE PUSH1 0x4 ADD PUSH1 0x80 PUSH1 0x40 MLOAD DUP1 DUP4 SUB DUP2 DUP7 DUP1 EXTCODESIZE ISZERO DUP1 ISZERO PUSH2 0x106F JUMPI PUSH1 0x0 DUP1 REVERT JUMPDEST POP GAS STATICCALL ISZERO DUP1 ISZERO PUSH2 0x1083 JUMPI RETURNDATASIZE PUSH1 0x0 DUP1 RETURNDATACOPY RETURNDATASIZE PUSH1 0x0 REVERT JUMPDEST POP POP POP POP PUSH1 0x40 MLOAD RETURNDATASIZE PUSH1 0x1F NOT PUSH1 0x1F DUP3 ADD AND DUP3 ADD DUP1 PUSH1 0x40 MSTORE POP PUSH1 0x80 DUP2 LT ISZERO PUSH2 0x10A8 JUMPI PUSH1 0x0 DUP1 REVERT JUMPDEST DUP2 ADD SWAP1 DUP1 SWAP2 SWAP1 POP POP SWAP1 POP PUSH1 0x0 DUP1 PUSH1 0x0 SWAP1 POP JUMPDEST PUSH1 0x4 DUP2 LT ISZERO PUSH2 0x110E JUMPI PUSH2 0x10FF PUSH2 0x10F0 DUP5 DUP4 PUSH1 0x4 DUP2 LT PUSH2 0x10D5 JUMPI INVALID JUMPDEST PUSH1 0x20 MUL ADD MLOAD DUP7 DUP5 PUSH1 0x4 DUP2 LT PUSH2 0x10E6 JUMPI INVALID JUMPDEST PUSH1 0x20 MUL ADD MLOAD PUSH2 0x270F JUMP JUMPDEST DUP4 PUSH2 0x2812 SWAP1 SWAP2 SWAP1 PUSH4 0xFFFFFFFF AND JUMP JUMPDEST SWAP2 POP DUP1 DUP1 PUSH1 0x1 ADD SWAP2 POP POP PUSH2 0x10BA JUMP JUMPDEST PUSH1 0x0 PUSH2 0x1119 DUP4 PUSH2 0x289A JUMP JUMPDEST SWAP1 POP PUSH1 0x0 PUSH2 0x1125 PUSH2 0x1ECF JUMP JUMPDEST SWAP1 POP PUSH1 0x0 DUP2 GT ISZERO PUSH2 0x1146 JUMPI PUSH2 0x1143 DUP2 DUP4 PUSH2 0x28E1 SWAP1 SWAP2 SWAP1 PUSH4 0xFFFFFFFF AND JUMP JUMPDEST SWAP2 POP JUMPDEST PUSH1 0x37 PUSH1 0x0 SWAP1 SLOAD SWAP1 PUSH2 0x100 EXP SWAP1 DIV PUSH20 0xFFFFFFFFFFFFFFFFFFFFFFFFFFFFFFFFFFFFFFFF AND PUSH20 0xFFFFFFFFFFFFFFFFFFFFFFFFFFFFFFFFFFFFFFFF AND PUSH4 0x2E1A7D4D DUP4 PUSH1 0x40 MLOAD DUP3 PUSH4 0xFFFFFFFF AND PUSH1 0xE0 SHL DUP2 MSTORE PUSH1 0x4 ADD DUP1 DUP3 DUP2 MSTORE PUSH1 0x20 ADD SWAP2 POP POP PUSH1 0x0 PUSH1 0x40 MLOAD DUP1 DUP4 SUB DUP2 PUSH1 0x0 DUP8 DUP1 EXTCODESIZE ISZERO DUP1 ISZERO PUSH2 0x11BB JUMPI PUSH1 0x0 DUP1 REVERT JUMPDEST POP GAS CALL ISZERO DUP1 ISZERO PUSH2 0x11CF JUMPI RETURNDATASIZE PUSH1 0x0 DUP1 RETURNDATACOPY RETURNDATASIZE PUSH1 0x0 REVERT JUMPDEST POP POP POP POP PUSH2 0x1242 PUSH1 0x34 PUSH1 0x0 SWAP1 SLOAD SWAP1 PUSH2 0x100 EXP SWAP1 DIV PUSH20 0xFFFFFFFFFFFFFFFFFFFFFFFFFFFFFFFFFFFFFFFF AND DUP4 PUSH1 0x36 PUSH1 0x0 SWAP1 SLOAD SWAP1 PUSH2 0x100 EXP SWAP1 DIV PUSH20 0xFFFFFFFFFFFFFFFFFFFFFFFFFFFFFFFFFFFFFFFF AND PUSH20 0xFFFFFFFFFFFFFFFFFFFFFFFFFFFFFFFFFFFFFFFF AND PUSH2 0x2271 SWAP1 SWAP3 SWAP2 SWAP1 PUSH4 0xFFFFFFFF AND JUMP JUMPDEST PUSH1 0x34 PUSH1 0x0 SWAP1 SLOAD SWAP1 PUSH2 0x100 EXP SWAP1 DIV PUSH20 0xFFFFFFFFFFFFFFFFFFFFFFFFFFFFFFFFFFFFFFFF AND PUSH20 0xFFFFFFFFFFFFFFFFFFFFFFFFFFFFFFFFFFFFFFFF AND PUSH4 0x18A7BD76 DUP8 DUP5 PUSH1 0x40 MLOAD DUP4 PUSH4 0xFFFFFFFF AND PUSH1 0xE0 SHL DUP2 MSTORE PUSH1 0x4 ADD DUP1 DUP4 PUSH1 0x4 PUSH1 0x20 MUL DUP1 DUP4 DUP4 PUSH1 0x0 JUMPDEST DUP4 DUP2 LT ISZERO PUSH2 0x12BC JUMPI DUP1 DUP3 ADD MLOAD DUP2 DUP5 ADD MSTORE PUSH1 0x20 DUP2 ADD SWAP1 POP PUSH2 0x12A1 JUMP JUMPDEST POP POP POP POP SWAP1 POP ADD DUP3 DUP2 MSTORE PUSH1 0x20 ADD SWAP3 POP POP POP PUSH1 0x0 PUSH1 0x40 MLOAD DUP1 DUP4 SUB DUP2 PUSH1 0x0 DUP8 DUP1 EXTCODESIZE ISZERO DUP1 ISZERO PUSH2 0x12E7 JUMPI PUSH1 0x0 DUP1 REVERT JUMPDEST POP GAS CALL ISZERO DUP1 ISZERO PUSH2 0x12FB JUMPI RETURNDATASIZE PUSH1 0x0 DUP1 RETURNDATACOPY RETURNDATASIZE PUSH1 0x0 REVERT JUMPDEST POP POP POP POP PUSH1 0x0 SWAP3 POP JUMPDEST PUSH1 0x4 DUP4 LT ISZERO PUSH2 0x1454 JUMPI PUSH1 0x0 DUP6 DUP5 PUSH1 0x4 DUP2 LT PUSH2 0x131B JUMPI INVALID JUMPDEST PUSH1 0x20 MUL ADD MLOAD SWAP1 POP PUSH1 0x0 DUP2 PUSH20 0xFFFFFFFFFFFFFFFFFFFFFFFFFFFFFFFFFFFFFFFF AND PUSH4 0x70A08231 ADDRESS PUSH1 0x40 MLOAD DUP3 PUSH4 0xFFFFFFFF AND PUSH1 0xE0 SHL DUP2 MSTORE PUSH1 0x4 ADD DUP1 DUP3 PUSH20 0xFFFFFFFFFFFFFFFFFFFFFFFFFFFFFFFFFFFFFFFF AND PUSH20 0xFFFFFFFFFFFFFFFFFFFFFFFFFFFFFFFFFFFFFFFF AND DUP2 MSTORE PUSH1 0x20 ADD SWAP2 POP POP PUSH1 0x20 PUSH1 0x40 MLOAD DUP1 DUP4 SUB DUP2 DUP7 DUP1 EXTCODESIZE ISZERO DUP1 ISZERO PUSH2 0x13A1 JUMPI PUSH1 0x0 DUP1 REVERT JUMPDEST POP GAS STATICCALL ISZERO DUP1 ISZERO PUSH2 0x13B5 JUMPI RETURNDATASIZE PUSH1 0x0 DUP1 RETURNDATACOPY RETURNDATASIZE PUSH1 0x0 REVERT JUMPDEST POP POP POP POP PUSH1 0x40 MLOAD RETURNDATASIZE PUSH1 0x20 DUP2 LT ISZERO PUSH2 0x13CB JUMPI PUSH1 0x0 DUP1 REVERT JUMPDEST DUP2 ADD SWAP1 DUP1 DUP1 MLOAD SWAP1 PUSH1 0x20 ADD SWAP1 SWAP3 SWAP2 SWAP1 POP POP POP SWAP1 POP PUSH1 0x0 DUP9 DUP7 PUSH1 0x4 DUP2 LT PUSH2 0x13EC JUMPI INVALID JUMPDEST PUSH1 0x20 MUL ADD MLOAD DUP3 GT ISZERO PUSH2 0x140E JUMPI DUP9 DUP7 PUSH1 0x4 DUP2 LT PUSH2 0x1404 JUMPI INVALID JUMPDEST PUSH1 0x20 MUL ADD MLOAD PUSH2 0x1410 JUMP JUMPDEST DUP2 JUMPDEST SWAP1 POP PUSH2 0x1444 PUSH2 0x141D PUSH2 0x2163 JUMP JUMPDEST DUP3 DUP6 PUSH20 0xFFFFFFFFFFFFFFFFFFFFFFFFFFFFFFFFFFFFFFFF AND PUSH2 0x256E SWAP1 SWAP3 SWAP2 SWAP1 PUSH4 0xFFFFFFFF AND JUMP JUMPDEST POP POP POP DUP3 DUP1 PUSH1 0x1 ADD SWAP4 POP POP PUSH2 0x1304 JUMP JUMPDEST POP POP POP POP POP POP JUMP JUMPDEST PUSH1 0x0 PUSH1 0x37 PUSH1 0x0 SWAP1 SLOAD SWAP1 PUSH2 0x100 EXP SWAP1 DIV PUSH20 0xFFFFFFFFFFFFFFFFFFFFFFFFFFFFFFFFFFFFFFFF AND PUSH20 0xFFFFFFFFFFFFFFFFFFFFFFFFFFFFFFFFFFFFFFFF AND PUSH4 0x70A08231 ADDRESS PUSH1 0x40 MLOAD DUP3 PUSH4 0xFFFFFFFF AND PUSH1 0xE0 SHL DUP2 MSTORE PUSH1 0x4 ADD DUP1 DUP3 PUSH20 0xFFFFFFFFFFFFFFFFFFFFFFFFFFFFFFFFFFFFFFFF AND PUSH20 0xFFFFFFFFFFFFFFFFFFFFFFFFFFFFFFFFFFFFFFFF AND DUP2 MSTORE PUSH1 0x20 ADD SWAP2 POP POP PUSH1 0x20 PUSH1 0x40 MLOAD DUP1 DUP4 SUB DUP2 DUP7 DUP1 EXTCODESIZE ISZERO DUP1 ISZERO PUSH2 0x14FD JUMPI PUSH1 0x0 DUP1 REVERT JUMPDEST POP GAS STATICCALL ISZERO DUP1 ISZERO PUSH2 0x1511 JUMPI RETURNDATASIZE PUSH1 0x0 DUP1 RETURNDATACOPY RETURNDATASIZE PUSH1 0x0 REVERT JUMPDEST POP POP POP POP PUSH1 0x40 MLOAD RETURNDATASIZE PUSH1 0x20 DUP2 LT ISZERO PUSH2 0x1527 JUMPI PUSH1 0x0 DUP1 REVERT JUMPDEST DUP2 ADD SWAP1 DUP1 DUP1 MLOAD SWAP1 PUSH1 0x20 ADD SWAP1 SWAP3 SWAP2 SWAP1 POP POP POP SWAP1 POP SWAP1 JUMP JUMPDEST PUSH1 0x0 PUSH2 0x1547 PUSH2 0x2EA4 JUMP JUMPDEST PUSH1 0x34 PUSH1 0x0 SWAP1 SLOAD SWAP1 PUSH2 0x100 EXP SWAP1 DIV PUSH20 0xFFFFFFFFFFFFFFFFFFFFFFFFFFFFFFFFFFFFFFFF AND PUSH20 0xFFFFFFFFFFFFFFFFFFFFFFFFFFFFFFFFFFFFFFFF AND PUSH4 0xFB6D3A89 PUSH1 0x40 MLOAD DUP2 PUSH4 0xFFFFFFFF AND PUSH1 0xE0 SHL DUP2 MSTORE PUSH1 0x4 ADD PUSH1 0x80 PUSH1 0x40 MLOAD DUP1 DUP4 SUB DUP2 DUP7 DUP1 EXTCODESIZE ISZERO DUP1 ISZERO PUSH2 0x15AF JUMPI PUSH1 0x0 DUP1 REVERT JUMPDEST POP GAS STATICCALL ISZERO DUP1 ISZERO PUSH2 0x15C3 JUMPI RETURNDATASIZE PUSH1 0x0 DUP1 RETURNDATACOPY RETURNDATASIZE PUSH1 0x0 REVERT JUMPDEST POP POP POP POP PUSH1 0x40 MLOAD RETURNDATASIZE PUSH1 0x1F NOT PUSH1 0x1F DUP3 ADD AND DUP3 ADD DUP1 PUSH1 0x40 MSTORE POP PUSH1 0x80 DUP2 LT ISZERO PUSH2 0x15E8 JUMPI PUSH1 0x0 DUP1 REVERT JUMPDEST DUP2 ADD SWAP1 DUP1 SWAP2 SWAP1 POP POP SWAP1 POP PUSH2 0x15FA PUSH2 0x2EC6 JUMP JUMPDEST PUSH2 0x1602 PUSH2 0xB94 JUMP JUMPDEST SWAP1 POP PUSH1 0x0 DUP1 PUSH1 0x0 SWAP1 POP JUMPDEST PUSH1 0x4 DUP2 LT ISZERO PUSH2 0x1660 JUMPI PUSH2 0x1651 PUSH2 0x1642 DUP6 DUP4 PUSH1 0x4 DUP2 LT PUSH2 0x1627 JUMPI INVALID JUMPDEST PUSH1 0x20 MUL ADD MLOAD DUP6 DUP5 PUSH1 0x4 DUP2 LT PUSH2 0x1638 JUMPI INVALID JUMPDEST PUSH1 0x20 MUL ADD MLOAD PUSH2 0x270F JUMP JUMPDEST DUP4 PUSH2 0x2812 SWAP1 SWAP2 SWAP1 PUSH4 0xFFFFFFFF AND JUMP JUMPDEST SWAP2 POP DUP1 DUP1 PUSH1 0x1 ADD SWAP2 POP POP PUSH2 0x160C JUMP JUMPDEST POP DUP1 SWAP4 POP POP POP POP SWAP1 JUMP JUMPDEST PUSH2 0x1672 PUSH2 0x1DF1 JUMP JUMPDEST PUSH2 0x16E4 JUMPI PUSH1 0x40 MLOAD PUSH32 0x8C379A000000000000000000000000000000000000000000000000000000000 DUP2 MSTORE PUSH1 0x4 ADD DUP1 DUP1 PUSH1 0x20 ADD DUP3 DUP2 SUB DUP3 MSTORE PUSH1 0x20 DUP2 MSTORE PUSH1 0x20 ADD DUP1 PUSH32 0x4F776E61626C653A2063616C6C6572206973206E6F7420746865206F776E6572 DUP2 MSTORE POP PUSH1 0x20 ADD SWAP2 POP POP PUSH1 0x40 MLOAD DUP1 SWAP2 SUB SWAP1 REVERT JUMPDEST PUSH1 0x0 PUSH20 0xFFFFFFFFFFFFFFFFFFFFFFFFFFFFFFFFFFFFFFFF AND PUSH1 0x33 PUSH1 0x0 SWAP1 SLOAD SWAP1 PUSH2 0x100 EXP SWAP1 DIV PUSH20 0xFFFFFFFFFFFFFFFFFFFFFFFFFFFFFFFFFFFFFFFF AND PUSH20 0xFFFFFFFFFFFFFFFFFFFFFFFFFFFFFFFFFFFFFFFF AND PUSH32 0x8BE0079C531659141344CD1FD0A4F28419497F9722A3DAAFE3B4186F6B6457E0 PUSH1 0x40 MLOAD PUSH1 0x40 MLOAD DUP1 SWAP2 SUB SWAP1 LOG3 PUSH1 0x0 PUSH1 0x33 PUSH1 0x0 PUSH2 0x100 EXP DUP2 SLOAD DUP2 PUSH20 0xFFFFFFFFFFFFFFFFFFFFFFFFFFFFFFFFFFFFFFFF MUL NOT AND SWAP1 DUP4 PUSH20 0xFFFFFFFFFFFFFFFFFFFFFFFFFFFFFFFFFFFFFFFF AND MUL OR SWAP1 SSTORE POP JUMP JUMPDEST PUSH2 0x17AD PUSH2 0x1DF1 JUMP JUMPDEST PUSH2 0x181F JUMPI PUSH1 0x40 MLOAD PUSH32 0x8C379A000000000000000000000000000000000000000000000000000000000 DUP2 MSTORE PUSH1 0x4 ADD DUP1 DUP1 PUSH1 0x20 ADD DUP3 DUP2 SUB DUP3 MSTORE PUSH1 0x20 DUP2 MSTORE PUSH1 0x20 ADD DUP1 PUSH32 0x4F776E61626C653A2063616C6C6572206973206E6F7420746865206F776E6572 DUP2 MSTORE POP PUSH1 0x20 ADD SWAP2 POP POP PUSH1 0x40 MLOAD DUP1 SWAP2 SUB SWAP1 REVERT JUMPDEST PUSH1 0x0 PUSH20 0xFFFFFFFFFFFFFFFFFFFFFFFFFFFFFFFFFFFFFFFF AND DUP4 PUSH20 0xFFFFFFFFFFFFFFFFFFFFFFFFFFFFFFFFFFFFFFFF AND EQ ISZERO PUSH2 0x18A5 JUMPI PUSH1 0x40 MLOAD PUSH32 0x8C379A000000000000000000000000000000000000000000000000000000000 DUP2 MSTORE PUSH1 0x4 ADD DUP1 DUP1 PUSH1 0x20 ADD DUP3 DUP2 SUB DUP3 MSTORE PUSH1 0x22 DUP2 MSTORE PUSH1 0x20 ADD DUP1 PUSH2 0x2EE9 PUSH1 0x22 SWAP2 CODECOPY PUSH1 0x40 ADD SWAP2 POP POP PUSH1 0x40 MLOAD DUP1 SWAP2 SUB SWAP1 REVERT JUMPDEST DUP3 PUSH1 0x34 PUSH1 0x0 PUSH2 0x100 EXP DUP2 SLOAD DUP2 PUSH20 0xFFFFFFFFFFFFFFFFFFFFFFFFFFFFFFFFFFFFFFFF MUL NOT AND SWAP1 DUP4 PUSH20 0xFFFFFFFFFFFFFFFFFFFFFFFFFFFFFFFFFFFFFFFF AND MUL OR SWAP1 SSTORE POP PUSH1 0x34 PUSH1 0x0 SWAP1 SLOAD SWAP1 PUSH2 0x100 EXP SWAP1 DIV PUSH20 0xFFFFFFFFFFFFFFFFFFFFFFFFFFFFFFFFFFFFFFFF AND PUSH20 0xFFFFFFFFFFFFFFFFFFFFFFFFFFFFFFFFFFFFFFFF AND PUSH4 0x7165485D PUSH1 0x40 MLOAD DUP2 PUSH4 0xFFFFFFFF AND PUSH1 0xE0 SHL DUP2 MSTORE PUSH1 0x4 ADD PUSH1 0x20 PUSH1 0x40 MLOAD DUP1 DUP4 SUB DUP2 DUP7 DUP1 EXTCODESIZE ISZERO DUP1 ISZERO PUSH2 0x194E JUMPI PUSH1 0x0 DUP1 REVERT JUMPDEST POP GAS STATICCALL ISZERO DUP1 ISZERO PUSH2 0x1962 JUMPI RETURNDATASIZE PUSH1 0x0 DUP1 RETURNDATACOPY RETURNDATASIZE PUSH1 0x0 REVERT JUMPDEST POP POP POP POP PUSH1 0x40 MLOAD RETURNDATASIZE PUSH1 0x20 DUP2 LT ISZERO PUSH2 0x1978 JUMPI PUSH1 0x0 DUP1 REVERT JUMPDEST DUP2 ADD SWAP1 DUP1 DUP1 MLOAD SWAP1 PUSH1 0x20 ADD SWAP1 SWAP3 SWAP2 SWAP1 POP POP POP PUSH1 0x35 PUSH1 0x0 PUSH2 0x100 EXP DUP2 SLOAD DUP2 PUSH20 0xFFFFFFFFFFFFFFFFFFFFFFFFFFFFFFFFFFFFFFFF MUL NOT AND SWAP1 DUP4 PUSH20 0xFFFFFFFFFFFFFFFFFFFFFFFFFFFFFFFFFFFFFFFF AND MUL OR SWAP1 SSTORE POP DUP2 PUSH1 0x37 PUSH1 0x0 PUSH2 0x100 EXP DUP2 SLOAD DUP2 PUSH20 0xFFFFFFFFFFFFFFFFFFFFFFFFFFFFFFFFFFFFFFFF MUL NOT AND SWAP1 DUP4 PUSH20 0xFFFFFFFFFFFFFFFFFFFFFFFFFFFFFFFFFFFFFFFF AND MUL OR SWAP1 SSTORE POP PUSH1 0x34 PUSH1 0x0 SWAP1 SLOAD SWAP1 PUSH2 0x100 EXP SWAP1 DIV PUSH20 0xFFFFFFFFFFFFFFFFFFFFFFFFFFFFFFFFFFFFFFFF AND PUSH20 0xFFFFFFFFFFFFFFFFFFFFFFFFFFFFFFFFFFFFFFFF AND PUSH4 0xFC0C546A PUSH1 0x40 MLOAD DUP2 PUSH4 0xFFFFFFFF AND PUSH1 0xE0 SHL DUP2 MSTORE PUSH1 0x4 ADD PUSH1 0x20 PUSH1 0x40 MLOAD DUP1 DUP4 SUB DUP2 DUP7 DUP1 EXTCODESIZE ISZERO DUP1 ISZERO PUSH2 0x1A72 JUMPI PUSH1 0x0 DUP1 REVERT JUMPDEST POP GAS STATICCALL ISZERO DUP1 ISZERO PUSH2 0x1A86 JUMPI RETURNDATASIZE PUSH1 0x0 DUP1 RETURNDATACOPY RETURNDATASIZE PUSH1 0x0 REVERT JUMPDEST POP POP POP POP PUSH1 0x40 MLOAD RETURNDATASIZE PUSH1 0x20 DUP2 LT ISZERO PUSH2 0x1A9C JUMPI PUSH1 0x0 DUP1 REVERT JUMPDEST DUP2 ADD SWAP1 DUP1 DUP1 MLOAD SWAP1 PUSH1 0x20 ADD SWAP1 SWAP3 SWAP2 SWAP1 POP POP POP PUSH1 0x36 PUSH1 0x0 PUSH2 0x100 EXP DUP2 SLOAD DUP2 PUSH20 0xFFFFFFFFFFFFFFFFFFFFFFFFFFFFFFFFFFFFFFFF MUL NOT AND SWAP1 DUP4 PUSH20 0xFFFFFFFFFFFFFFFFFFFFFFFFFFFFFFFFFFFFFFFF AND MUL OR SWAP1 SSTORE POP PUSH1 0x36 PUSH1 0x0 SWAP1 SLOAD SWAP1 PUSH2 0x100 EXP SWAP1 DIV PUSH20 0xFFFFFFFFFFFFFFFFFFFFFFFFFFFFFFFFFFFFFFFF AND PUSH20 0xFFFFFFFFFFFFFFFFFFFFFFFFFFFFFFFFFFFFFFFF AND PUSH1 0x37 PUSH1 0x0 SWAP1 SLOAD SWAP1 PUSH2 0x100 EXP SWAP1 DIV PUSH20 0xFFFFFFFFFFFFFFFFFFFFFFFFFFFFFFFFFFFFFFFF AND PUSH20 0xFFFFFFFFFFFFFFFFFFFFFFFFFFFFFFFFFFFFFFFF AND PUSH4 0x82C63066 PUSH1 0x40 MLOAD DUP2 PUSH4 0xFFFFFFFF AND PUSH1 0xE0 SHL DUP2 MSTORE PUSH1 0x4 ADD PUSH1 0x20 PUSH1 0x40 MLOAD DUP1 DUP4 SUB DUP2 DUP7 DUP1 EXTCODESIZE ISZERO DUP1 ISZERO PUSH2 0x1B8E JUMPI PUSH1 0x0 DUP1 REVERT JUMPDEST POP GAS STATICCALL ISZERO DUP1 ISZERO PUSH2 0x1BA2 JUMPI RETURNDATASIZE PUSH1 0x0 DUP1 RETURNDATACOPY RETURNDATASIZE PUSH1 0x0 REVERT JUMPDEST POP POP POP POP PUSH1 0x40 MLOAD RETURNDATASIZE PUSH1 0x20 DUP2 LT ISZERO PUSH2 0x1BB8 JUMPI PUSH1 0x0 DUP1 REVERT JUMPDEST DUP2 ADD SWAP1 DUP1 DUP1 MLOAD SWAP1 PUSH1 0x20 ADD SWAP1 SWAP3 SWAP2 SWAP1 POP POP POP PUSH20 0xFFFFFFFFFFFFFFFFFFFFFFFFFFFFFFFFFFFFFFFF AND EQ PUSH2 0x1C52 JUMPI PUSH1 0x40 MLOAD PUSH32 0x8C379A000000000000000000000000000000000000000000000000000000000 DUP2 MSTORE PUSH1 0x4 ADD DUP1 DUP1 PUSH1 0x20 ADD DUP3 DUP2 SUB DUP3 MSTORE PUSH1 0x1E DUP2 MSTORE PUSH1 0x20 ADD DUP1 PUSH32 0x43757276654669204C5020746F6B656E7320646F206E6F74206D617463680000 DUP2 MSTORE POP PUSH1 0x20 ADD SWAP2 POP POP PUSH1 0x40 MLOAD DUP1 SWAP2 SUB SWAP1 REVERT JUMPDEST DUP1 PUSH1 0x38 PUSH1 0x0 PUSH2 0x100 EXP DUP2 SLOAD DUP2 PUSH20 0xFFFFFFFFFFFFFFFFFFFFFFFFFFFFFFFFFFFFFFFF MUL NOT AND SWAP1 DUP4 PUSH20 0xFFFFFFFFFFFFFFFFFFFFFFFFFFFFFFFFFFFFFFFF AND MUL OR SWAP1 SSTORE POP PUSH1 0x37 PUSH1 0x0 SWAP1 SLOAD SWAP1 PUSH2 0x100 EXP SWAP1 DIV PUSH20 0xFFFFFFFFFFFFFFFFFFFFFFFFFFFFFFFFFFFFFFFF AND PUSH20 0xFFFFFFFFFFFFFFFFFFFFFFFFFFFFFFFFFFFFFFFF AND PUSH4 0x76D8B117 PUSH1 0x40 MLOAD DUP2 PUSH4 0xFFFFFFFF AND PUSH1 0xE0 SHL DUP2 MSTORE PUSH1 0x4 ADD PUSH1 0x20 PUSH1 0x40 MLOAD DUP1 DUP4 SUB DUP2 DUP7 DUP1 EXTCODESIZE ISZERO DUP1 ISZERO PUSH2 0x1CFB JUMPI PUSH1 0x0 DUP1 REVERT JUMPDEST POP GAS STATICCALL ISZERO DUP1 ISZERO PUSH2 0x1D0F JUMPI RETURNDATASIZE PUSH1 0x0 DUP1 RETURNDATACOPY RETURNDATASIZE PUSH1 0x0 REVERT JUMPDEST POP POP POP POP PUSH1 0x40 MLOAD RETURNDATASIZE PUSH1 0x20 DUP2 LT ISZERO PUSH2 0x1D25 JUMPI PUSH1 0x0 DUP1 REVERT JUMPDEST DUP2 ADD SWAP1 DUP1 DUP1 MLOAD SWAP1 PUSH1 0x20 ADD SWAP1 SWAP3 SWAP2 SWAP1 POP POP POP PUSH1 0x39 PUSH1 0x0 PUSH2 0x100 EXP DUP2 SLOAD DUP2 PUSH20 0xFFFFFFFFFFFFFFFFFFFFFFFFFFFFFFFFFFFFFFFF MUL NOT AND SWAP1 DUP4 PUSH20 0xFFFFFFFFFFFFFFFFFFFFFFFFFFFFFFFFFFFFFFFF AND MUL OR SWAP1 SSTORE POP POP POP POP JUMP JUMPDEST PUSH1 0x38 PUSH1 0x0 SWAP1 SLOAD SWAP1 PUSH2 0x100 EXP SWAP1 DIV PUSH20 0xFFFFFFFFFFFFFFFFFFFFFFFFFFFFFFFFFFFFFFFF AND DUP2 JUMP JUMPDEST PUSH1 0x39 PUSH1 0x0 SWAP1 SLOAD SWAP1 PUSH2 0x100 EXP SWAP1 DIV PUSH20 0xFFFFFFFFFFFFFFFFFFFFFFFFFFFFFFFFFFFFFFFF AND DUP2 JUMP JUMPDEST PUSH1 0x0 PUSH1 0x33 PUSH1 0x0 SWAP1 SLOAD SWAP1 PUSH2 0x100 EXP SWAP1 DIV PUSH20 0xFFFFFFFFFFFFFFFFFFFFFFFFFFFFFFFFFFFFFFFF AND SWAP1 POP SWAP1 JUMP JUMPDEST PUSH1 0x0 PUSH1 0x33 PUSH1 0x0 SWAP1 SLOAD SWAP1 PUSH2 0x100 EXP SWAP1 DIV PUSH20 0xFFFFFFFFFFFFFFFFFFFFFFFFFFFFFFFFFFFFFFFF AND PUSH20 0xFFFFFFFFFFFFFFFFFFFFFFFFFFFFFFFFFFFFFFFF AND PUSH2 0x1E34 PUSH2 0x2163 JUMP JUMPDEST PUSH20 0xFFFFFFFFFFFFFFFFFFFFFFFFFFFFFFFFFFFFFFFF AND EQ SWAP1 POP SWAP1 JUMP JUMPDEST PUSH1 0x0 DUP1 PUSH2 0x1E5B PUSH2 0x145C JUMP JUMPDEST SWAP1 POP PUSH1 0x0 PUSH2 0x1E67 PUSH2 0x1ECF JUMP JUMPDEST SWAP1 POP PUSH2 0x1E7C DUP3 DUP3 PUSH2 0x2812 SWAP1 SWAP2 SWAP1 PUSH4 0xFFFFFFFF AND JUMP JUMPDEST SWAP3 POP POP POP SWAP1 JUMP JUMPDEST PUSH1 0x36 PUSH1 0x0 SWAP1 SLOAD SWAP1 PUSH2 0x100 EXP SWAP1 DIV PUSH20 0xFFFFFFFFFFFFFFFFFFFFFFFFFFFFFFFFFFFFFFFF AND DUP2 JUMP JUMPDEST PUSH1 0x34 PUSH1 0x0 SWAP1 SLOAD SWAP1 PUSH2 0x100 EXP SWAP1 DIV PUSH20 0xFFFFFFFFFFFFFFFFFFFFFFFFFFFFFFFFFFFFFFFF AND DUP2 JUMP JUMPDEST PUSH1 0x0 PUSH1 0x36 PUSH1 0x0 SWAP1 SLOAD SWAP1 PUSH2 0x100 EXP SWAP1 DIV PUSH20 0xFFFFFFFFFFFFFFFFFFFFFFFFFFFFFFFFFFFFFFFF AND PUSH20 0xFFFFFFFFFFFFFFFFFFFFFFFFFFFFFFFFFFFFFFFF AND PUSH4 0x70A08231 ADDRESS PUSH1 0x40 MLOAD DUP3 PUSH4 0xFFFFFFFF AND PUSH1 0xE0 SHL DUP2 MSTORE PUSH1 0x4 ADD DUP1 DUP3 PUSH20 0xFFFFFFFFFFFFFFFFFFFFFFFFFFFFFFFFFFFFFFFF AND PUSH20 0xFFFFFFFFFFFFFFFFFFFFFFFFFFFFFFFFFFFFFFFF AND DUP2 MSTORE PUSH1 0x20 ADD SWAP2 POP POP PUSH1 0x20 PUSH1 0x40 MLOAD DUP1 DUP4 SUB DUP2 DUP7 DUP1 EXTCODESIZE ISZERO DUP1 ISZERO PUSH2 0x1F70 JUMPI PUSH1 0x0 DUP1 REVERT JUMPDEST POP GAS STATICCALL ISZERO DUP1 ISZERO PUSH2 0x1F84 JUMPI RETURNDATASIZE PUSH1 0x0 DUP1 RETURNDATACOPY RETURNDATASIZE PUSH1 0x0 REVERT JUMPDEST POP POP POP POP PUSH1 0x40 MLOAD RETURNDATASIZE PUSH1 0x20 DUP2 LT ISZERO PUSH2 0x1F9A JUMPI PUSH1 0x0 DUP1 REVERT JUMPDEST DUP2 ADD SWAP1 DUP1 DUP1 MLOAD SWAP1 PUSH1 0x20 ADD SWAP1 SWAP3 SWAP2 SWAP1 POP POP POP SWAP1 POP SWAP1 JUMP JUMPDEST PUSH1 0x37 PUSH1 0x0 SWAP1 SLOAD SWAP1 PUSH2 0x100 EXP SWAP1 DIV PUSH20 0xFFFFFFFFFFFFFFFFFFFFFFFFFFFFFFFFFFFFFFFF AND DUP2 JUMP JUMPDEST PUSH2 0x1FDE PUSH2 0x1DF1 JUMP JUMPDEST PUSH2 0x2050 JUMPI PUSH1 0x40 MLOAD PUSH32 0x8C379A000000000000000000000000000000000000000000000000000000000 DUP2 MSTORE PUSH1 0x4 ADD DUP1 DUP1 PUSH1 0x20 ADD DUP3 DUP2 SUB DUP3 MSTORE PUSH1 0x20 DUP2 MSTORE PUSH1 0x20 ADD DUP1 PUSH32 0x4F776E61626C653A2063616C6C6572206973206E6F7420746865206F776E6572 DUP2 MSTORE POP PUSH1 0x20 ADD SWAP2 POP POP PUSH1 0x40 MLOAD DUP1 SWAP2 SUB SWAP1 REVERT JUMPDEST PUSH2 0x2059 DUP2 PUSH2 0x292B JUMP JUMPDEST POP JUMP JUMPDEST PUSH1 0x0 PUSH1 0x1 SWAP1 SLOAD SWAP1 PUSH2 0x100 EXP SWAP1 DIV PUSH1 0xFF AND DUP1 PUSH2 0x207B JUMPI POP PUSH2 0x207A PUSH2 0x2A71 JUMP JUMPDEST JUMPDEST DUP1 PUSH2 0x2092 JUMPI POP PUSH1 0x0 DUP1 SWAP1 SLOAD SWAP1 PUSH2 0x100 EXP SWAP1 DIV PUSH1 0xFF AND ISZERO JUMPDEST PUSH2 0x20E7 JUMPI PUSH1 0x40 MLOAD PUSH32 0x8C379A000000000000000000000000000000000000000000000000000000000 DUP2 MSTORE PUSH1 0x4 ADD DUP1 DUP1 PUSH1 0x20 ADD DUP3 DUP2 SUB DUP3 MSTORE PUSH1 0x2E DUP2 MSTORE PUSH1 0x20 ADD DUP1 PUSH2 0x2F52 PUSH1 0x2E SWAP2 CODECOPY PUSH1 0x40 ADD SWAP2 POP POP PUSH1 0x40 MLOAD DUP1 SWAP2 SUB SWAP1 REVERT JUMPDEST PUSH1 0x0 DUP1 PUSH1 0x1 SWAP1 SLOAD SWAP1 PUSH2 0x100 EXP SWAP1 DIV PUSH1 0xFF AND ISZERO SWAP1 POP DUP1 ISZERO PUSH2 0x2137 JUMPI PUSH1 0x1 PUSH1 0x0 PUSH1 0x1 PUSH2 0x100 EXP DUP2 SLOAD DUP2 PUSH1 0xFF MUL NOT AND SWAP1 DUP4 ISZERO ISZERO MUL OR SWAP1 SSTORE POP PUSH1 0x1 PUSH1 0x0 DUP1 PUSH2 0x100 EXP DUP2 SLOAD DUP2 PUSH1 0xFF MUL NOT AND SWAP1 DUP4 ISZERO ISZERO MUL OR SWAP1 SSTORE POP JUMPDEST DUP2 PUSH1 0x3A DUP2 SWAP1 SSTORE POP DUP1 ISZERO PUSH2 0x215F JUMPI PUSH1 0x0 DUP1 PUSH1 0x1 PUSH2 0x100 EXP DUP2 SLOAD DUP2 PUSH1 0xFF MUL NOT AND SWAP1 DUP4 ISZERO ISZERO MUL OR SWAP1 SSTORE POP JUMPDEST POP POP JUMP JUMPDEST PUSH1 0x0 CALLER SWAP1 POP SWAP1 JUMP JUMPDEST PUSH2 0x226B DUP5 DUP6 PUSH20 0xFFFFFFFFFFFFFFFFFFFFFFFFFFFFFFFFFFFFFFFF AND PUSH4 0x23B872DD SWAP1 POP PUSH1 0xE0 SHL DUP6 DUP6 DUP6 PUSH1 0x40 MLOAD PUSH1 0x24 ADD DUP1 DUP5 PUSH20 0xFFFFFFFFFFFFFFFFFFFFFFFFFFFFFFFFFFFFFFFF AND PUSH20 0xFFFFFFFFFFFFFFFFFFFFFFFFFFFFFFFFFFFFFFFF AND DUP2 MSTORE PUSH1 0x20 ADD DUP4 PUSH20 0xFFFFFFFFFFFFFFFFFFFFFFFFFFFFFFFFFFFFFFFF AND PUSH20 0xFFFFFFFFFFFFFFFFFFFFFFFFFFFFFFFFFFFFFFFF AND DUP2 MSTORE PUSH1 0x20 ADD DUP3 DUP2 MSTORE PUSH1 0x20 ADD SWAP4 POP POP POP POP PUSH1 0x40 MLOAD PUSH1 0x20 DUP2 DUP4 SUB SUB DUP2 MSTORE SWAP1 PUSH1 0x40 MSTORE SWAP1 PUSH28 0xFFFFFFFFFFFFFFFFFFFFFFFFFFFFFFFFFFFFFFFFFFFFFFFFFFFFFFFF NOT AND PUSH1 0x20 DUP3 ADD DUP1 MLOAD PUSH28 0xFFFFFFFFFFFFFFFFFFFFFFFFFFFFFFFFFFFFFFFFFFFFFFFFFFFFFFFF DUP4 DUP2 DUP4 AND OR DUP4 MSTORE POP POP POP POP PUSH2 0x2A88 JUMP JUMPDEST POP POP POP POP JUMP JUMPDEST PUSH1 0x0 DUP2 EQ DUP1 PUSH2 0x236B JUMPI POP PUSH1 0x0 DUP4 PUSH20 0xFFFFFFFFFFFFFFFFFFFFFFFFFFFFFFFFFFFFFFFF AND PUSH4 0xDD62ED3E ADDRESS DUP6 PUSH1 0x40 MLOAD DUP4 PUSH4 0xFFFFFFFF AND PUSH1 0xE0 SHL DUP2 MSTORE PUSH1 0x4 ADD DUP1 DUP4 PUSH20 0xFFFFFFFFFFFFFFFFFFFFFFFFFFFFFFFFFFFFFFFF AND PUSH20 0xFFFFFFFFFFFFFFFFFFFFFFFFFFFFFFFFFFFFFFFF AND DUP2 MSTORE PUSH1 0x20 ADD DUP3 PUSH20 0xFFFFFFFFFFFFFFFFFFFFFFFFFFFFFFFFFFFFFFFF AND PUSH20 0xFFFFFFFFFFFFFFFFFFFFFFFFFFFFFFFFFFFFFFFF AND DUP2 MSTORE PUSH1 0x20 ADD SWAP3 POP POP POP PUSH1 0x20 PUSH1 0x40 MLOAD DUP1 DUP4 SUB DUP2 DUP7 DUP1 EXTCODESIZE ISZERO DUP1 ISZERO PUSH2 0x232E JUMPI PUSH1 0x0 DUP1 REVERT JUMPDEST POP GAS STATICCALL ISZERO DUP1 ISZERO PUSH2 0x2342 JUMPI RETURNDATASIZE PUSH1 0x0 DUP1 RETURNDATACOPY RETURNDATASIZE PUSH1 0x0 REVERT JUMPDEST POP POP POP POP PUSH1 0x40 MLOAD RETURNDATASIZE PUSH1 0x20 DUP2 LT ISZERO PUSH2 0x2358 JUMPI PUSH1 0x0 DUP1 REVERT JUMPDEST DUP2 ADD SWAP1 DUP1 DUP1 MLOAD SWAP1 PUSH1 0x20 ADD SWAP1 SWAP3 SWAP2 SWAP1 POP POP POP EQ JUMPDEST PUSH2 0x23C0 JUMPI PUSH1 0x40 MLOAD PUSH32 0x8C379A000000000000000000000000000000000000000000000000000000000 DUP2 MSTORE PUSH1 0x4 ADD DUP1 DUP1 PUSH1 0x20 ADD DUP3 DUP2 SUB DUP3 MSTORE PUSH1 0x36 DUP2 MSTORE PUSH1 0x20 ADD DUP1 PUSH2 0x2FAA PUSH1 0x36 SWAP2 CODECOPY PUSH1 0x40 ADD SWAP2 POP POP PUSH1 0x40 MLOAD DUP1 SWAP2 SUB SWAP1 REVERT JUMPDEST PUSH2 0x248C DUP4 DUP5 PUSH20 0xFFFFFFFFFFFFFFFFFFFFFFFFFFFFFFFFFFFFFFFF AND PUSH4 0x95EA7B3 SWAP1 POP PUSH1 0xE0 SHL DUP5 DUP5 PUSH1 0x40 MLOAD PUSH1 0x24 ADD DUP1 DUP4 PUSH20 0xFFFFFFFFFFFFFFFFFFFFFFFFFFFFFFFFFFFFFFFF AND PUSH20 0xFFFFFFFFFFFFFFFFFFFFFFFFFFFFFFFFFFFFFFFF AND DUP2 MSTORE PUSH1 0x20 ADD DUP3 DUP2 MSTORE PUSH1 0x20 ADD SWAP3 POP POP POP PUSH1 0x40 MLOAD PUSH1 0x20 DUP2 DUP4 SUB SUB DUP2 MSTORE SWAP1 PUSH1 0x40 MSTORE SWAP1 PUSH28 0xFFFFFFFFFFFFFFFFFFFFFFFFFFFFFFFFFFFFFFFFFFFFFFFFFFFFFFFF NOT AND PUSH1 0x20 DUP3 ADD DUP1 MLOAD PUSH28 0xFFFFFFFFFFFFFFFFFFFFFFFFFFFFFFFFFFFFFFFFFFFFFFFFFFFFFFFF DUP4 DUP2 DUP4 AND OR DUP4 MSTORE POP POP POP POP PUSH2 0x2A88 JUMP JUMPDEST POP POP POP JUMP JUMPDEST PUSH1 0x38 PUSH1 0x0 SWAP1 SLOAD SWAP1 PUSH2 0x100 EXP SWAP1 DIV PUSH20 0xFFFFFFFFFFFFFFFFFFFFFFFFFFFFFFFFFFFFFFFF AND PUSH20 0xFFFFFFFFFFFFFFFFFFFFFFFFFFFFFFFFFFFFFFFF AND PUSH4 0x6A627842 PUSH1 0x37 PUSH1 0x0 SWAP1 SLOAD SWAP1 PUSH2 0x100 EXP SWAP1 DIV PUSH20 0xFFFFFFFFFFFFFFFFFFFFFFFFFFFFFFFFFFFFFFFF AND PUSH1 0x40 MLOAD DUP3 PUSH4 0xFFFFFFFF AND PUSH1 0xE0 SHL DUP2 MSTORE PUSH1 0x4 ADD DUP1 DUP3 PUSH20 0xFFFFFFFFFFFFFFFFFFFFFFFFFFFFFFFFFFFFFFFF AND PUSH20 0xFFFFFFFFFFFFFFFFFFFFFFFFFFFFFFFFFFFFFFFF AND DUP2 MSTORE PUSH1 0x20 ADD SWAP2 POP POP PUSH1 0x0 PUSH1 0x40 MLOAD DUP1 DUP4 SUB DUP2 PUSH1 0x0 DUP8 DUP1 EXTCODESIZE ISZERO DUP1 ISZERO PUSH2 0x2554 JUMPI PUSH1 0x0 DUP1 REVERT JUMPDEST POP GAS CALL ISZERO DUP1 ISZERO PUSH2 0x2568 JUMPI RETURNDATASIZE PUSH1 0x0 DUP1 RETURNDATACOPY RETURNDATASIZE PUSH1 0x0 REVERT JUMPDEST POP POP POP POP JUMP JUMPDEST PUSH2 0x263A DUP4 DUP5 PUSH20 0xFFFFFFFFFFFFFFFFFFFFFFFFFFFFFFFFFFFFFFFF AND PUSH4 0xA9059CBB SWAP1 POP PUSH1 0xE0 SHL DUP5 DUP5 PUSH1 0x40 MLOAD PUSH1 0x24 ADD DUP1 DUP4 PUSH20 0xFFFFFFFFFFFFFFFFFFFFFFFFFFFFFFFFFFFFFFFF AND PUSH20 0xFFFFFFFFFFFFFFFFFFFFFFFFFFFFFFFFFFFFFFFF AND DUP2 MSTORE PUSH1 0x20 ADD DUP3 DUP2 MSTORE PUSH1 0x20 ADD SWAP3 POP POP POP PUSH1 0x40 MLOAD PUSH1 0x20 DUP2 DUP4 SUB SUB DUP2 MSTORE SWAP1 PUSH1 0x40 MSTORE SWAP1 PUSH28 0xFFFFFFFFFFFFFFFFFFFFFFFFFFFFFFFFFFFFFFFFFFFFFFFFFFFFFFFF NOT AND PUSH1 0x20 DUP3 ADD DUP1 MLOAD PUSH28 0xFFFFFFFFFFFFFFFFFFFFFFFFFFFFFFFFFFFFFFFFFFFFFFFFFFFFFFFF DUP4 DUP2 DUP4 AND OR DUP4 MSTORE POP POP POP POP PUSH2 0x2A88 JUMP JUMPDEST POP POP POP JUMP JUMPDEST PUSH1 0x0 DUP1 DUP4 EQ ISZERO PUSH2 0x2652 JUMPI PUSH1 0x0 SWAP1 POP PUSH2 0x26BF JUMP JUMPDEST PUSH1 0x0 DUP3 DUP5 MUL SWAP1 POP DUP3 DUP5 DUP3 DUP2 PUSH2 0x2663 JUMPI INVALID JUMPDEST DIV EQ PUSH2 0x26BA JUMPI PUSH1 0x40 MLOAD PUSH32 0x8C379A000000000000000000000000000000000000000000000000000000000 DUP2 MSTORE PUSH1 0x4 ADD DUP1 DUP1 PUSH1 0x20 ADD DUP3 DUP2 SUB DUP3 MSTORE PUSH1 0x21 DUP2 MSTORE PUSH1 0x20 ADD DUP1 PUSH2 0x2F31 PUSH1 0x21 SWAP2 CODECOPY PUSH1 0x40 ADD SWAP2 POP POP PUSH1 0x40 MLOAD DUP1 SWAP2 SUB SWAP1 REVERT JUMPDEST DUP1 SWAP2 POP POP JUMPDEST SWAP3 SWAP2 POP POP JUMP JUMPDEST PUSH1 0x0 PUSH2 0x2707 DUP4 DUP4 PUSH1 0x40 MLOAD DUP1 PUSH1 0x40 ADD PUSH1 0x40 MSTORE DUP1 PUSH1 0x1A DUP2 MSTORE PUSH1 0x20 ADD PUSH32 0x536166654D6174683A206469766973696F6E206279207A65726F000000000000 DUP2 MSTORE POP PUSH2 0x2CD3 JUMP JUMPDEST SWAP1 POP SWAP3 SWAP2 POP POP JUMP JUMPDEST PUSH1 0x0 DUP1 DUP4 PUSH20 0xFFFFFFFFFFFFFFFFFFFFFFFFFFFFFFFFFFFFFFFF AND PUSH4 0x313CE567 PUSH1 0x40 MLOAD DUP2 PUSH4 0xFFFFFFFF AND PUSH1 0xE0 SHL DUP2 MSTORE PUSH1 0x4 ADD PUSH1 0x20 PUSH1 0x40 MLOAD DUP1 DUP4 SUB DUP2 DUP7 DUP1 EXTCODESIZE ISZERO DUP1 ISZERO PUSH2 0x2758 JUMPI PUSH1 0x0 DUP1 REVERT JUMPDEST POP GAS STATICCALL ISZERO DUP1 ISZERO PUSH2 0x276C JUMPI RETURNDATASIZE PUSH1 0x0 DUP1 RETURNDATACOPY RETURNDATASIZE PUSH1 0x0 REVERT JUMPDEST POP POP POP POP PUSH1 0x40 MLOAD RETURNDATASIZE PUSH1 0x20 DUP2 LT ISZERO PUSH2 0x2782 JUMPI PUSH1 0x0 DUP1 REVERT JUMPDEST DUP2 ADD SWAP1 DUP1 DUP1 MLOAD SWAP1 PUSH1 0x20 ADD SWAP1 SWAP3 SWAP2 SWAP1 POP POP POP SWAP1 POP PUSH1 0x12 DUP2 PUSH1 0xFF AND EQ ISZERO PUSH2 0x27AA JUMPI DUP3 SWAP2 POP POP PUSH2 0x280C JUMP JUMPDEST PUSH1 0x12 DUP2 PUSH1 0xFF AND GT ISZERO PUSH2 0x27DA JUMPI PUSH2 0x27D2 PUSH1 0x12 DUP3 SUB PUSH1 0xFF AND PUSH1 0xA EXP DUP5 PUSH2 0x26C5 SWAP1 SWAP2 SWAP1 PUSH4 0xFFFFFFFF AND JUMP JUMPDEST SWAP2 POP POP PUSH2 0x280C JUMP JUMPDEST PUSH1 0x12 DUP2 PUSH1 0xFF AND LT ISZERO PUSH2 0x280A JUMPI PUSH2 0x2802 DUP2 PUSH1 0x12 SUB PUSH1 0xFF AND PUSH1 0xA EXP DUP5 PUSH2 0x263F SWAP1 SWAP2 SWAP1 PUSH4 0xFFFFFFFF AND JUMP JUMPDEST SWAP2 POP POP PUSH2 0x280C JUMP JUMPDEST POP JUMPDEST SWAP3 SWAP2 POP POP JUMP JUMPDEST PUSH1 0x0 DUP1 DUP3 DUP5 ADD SWAP1 POP DUP4 DUP2 LT ISZERO PUSH2 0x2890 JUMPI PUSH1 0x40 MLOAD PUSH32 0x8C379A000000000000000000000000000000000000000000000000000000000 DUP2 MSTORE PUSH1 0x4 ADD DUP1 DUP1 PUSH1 0x20 ADD DUP3 DUP2 SUB DUP3 MSTORE PUSH1 0x1B DUP2 MSTORE PUSH1 0x20 ADD DUP1 PUSH32 0x536166654D6174683A206164646974696F6E206F766572666C6F770000000000 DUP2 MSTORE POP PUSH1 0x20 ADD SWAP2 POP POP PUSH1 0x40 MLOAD DUP1 SWAP2 SUB SWAP1 REVERT JUMPDEST DUP1 SWAP2 POP POP SWAP3 SWAP2 POP POP JUMP JUMPDEST PUSH1 0x0 DUP1 PUSH2 0x28A5 PUSH2 0x153D JUMP JUMPDEST SWAP1 POP PUSH1 0x0 PUSH2 0x28B1 PUSH2 0x1E50 JUMP JUMPDEST SWAP1 POP PUSH2 0x28D8 DUP3 PUSH2 0x28CA DUP7 DUP5 PUSH2 0x263F SWAP1 SWAP2 SWAP1 PUSH4 0xFFFFFFFF AND JUMP JUMPDEST PUSH2 0x26C5 SWAP1 SWAP2 SWAP1 PUSH4 0xFFFFFFFF AND JUMP JUMPDEST SWAP3 POP POP POP SWAP2 SWAP1 POP JUMP JUMPDEST PUSH1 0x0 PUSH2 0x2923 DUP4 DUP4 PUSH1 0x40 MLOAD DUP1 PUSH1 0x40 ADD PUSH1 0x40 MSTORE DUP1 PUSH1 0x1E DUP2 MSTORE PUSH1 0x20 ADD PUSH32 0x536166654D6174683A207375627472616374696F6E206F766572666C6F770000 DUP2 MSTORE POP PUSH2 0x2D99 JUMP JUMPDEST SWAP1 POP SWAP3 SWAP2 POP POP JUMP JUMPDEST PUSH1 0x0 PUSH20 0xFFFFFFFFFFFFFFFFFFFFFFFFFFFFFFFFFFFFFFFF AND DUP2 PUSH20 0xFFFFFFFFFFFFFFFFFFFFFFFFFFFFFFFFFFFFFFFF AND EQ ISZERO PUSH2 0x29B1 JUMPI PUSH1 0x40 MLOAD PUSH32 0x8C379A000000000000000000000000000000000000000000000000000000000 DUP2 MSTORE PUSH1 0x4 ADD DUP1 DUP1 PUSH1 0x20 ADD DUP3 DUP2 SUB DUP3 MSTORE PUSH1 0x26 DUP2 MSTORE PUSH1 0x20 ADD DUP1 PUSH2 0x2F0B PUSH1 0x26 SWAP2 CODECOPY PUSH1 0x40 ADD SWAP2 POP POP PUSH1 0x40 MLOAD DUP1 SWAP2 SUB SWAP1 REVERT JUMPDEST DUP1 PUSH20 0xFFFFFFFFFFFFFFFFFFFFFFFFFFFFFFFFFFFFFFFF AND PUSH1 0x33 PUSH1 0x0 SWAP1 SLOAD SWAP1 PUSH2 0x100 EXP SWAP1 DIV PUSH20 0xFFFFFFFFFFFFFFFFFFFFFFFFFFFFFFFFFFFFFFFF AND PUSH20 0xFFFFFFFFFFFFFFFFFFFFFFFFFFFFFFFFFFFFFFFF AND PUSH32 0x8BE0079C531659141344CD1FD0A4F28419497F9722A3DAAFE3B4186F6B6457E0 PUSH1 0x40 MLOAD PUSH1 0x40 MLOAD DUP1 SWAP2 SUB SWAP1 LOG3 DUP1 PUSH1 0x33 PUSH1 0x0 PUSH2 0x100 EXP DUP2 SLOAD DUP2 PUSH20 0xFFFFFFFFFFFFFFFFFFFFFFFFFFFFFFFFFFFFFFFF MUL NOT AND SWAP1 DUP4 PUSH20 0xFFFFFFFFFFFFFFFFFFFFFFFFFFFFFFFFFFFFFFFF AND MUL OR SWAP1 SSTORE POP POP JUMP JUMPDEST PUSH1 0x0 DUP1 ADDRESS SWAP1 POP PUSH1 0x0 DUP2 EXTCODESIZE SWAP1 POP PUSH1 0x0 DUP2 EQ SWAP3 POP POP POP SWAP1 JUMP JUMPDEST PUSH2 0x2AA7 DUP3 PUSH20 0xFFFFFFFFFFFFFFFFFFFFFFFFFFFFFFFFFFFFFFFF AND PUSH2 0x2E59 JUMP JUMPDEST PUSH2 0x2B19 JUMPI PUSH1 0x40 MLOAD PUSH32 0x8C379A000000000000000000000000000000000000000000000000000000000 DUP2 MSTORE PUSH1 0x4 ADD DUP1 DUP1 PUSH1 0x20 ADD DUP3 DUP2 SUB DUP3 MSTORE PUSH1 0x1F DUP2 MSTORE PUSH1 0x20 ADD DUP1 PUSH32 0x5361666545524332303A2063616C6C20746F206E6F6E2D636F6E747261637400 DUP2 MSTORE POP PUSH1 0x20 ADD SWAP2 POP POP PUSH1 0x40 MLOAD DUP1 SWAP2 SUB SWAP1 REVERT JUMPDEST PUSH1 0x0 PUSH1 0x60 DUP4 PUSH20 0xFFFFFFFFFFFFFFFFFFFFFFFFFFFFFFFFFFFFFFFF AND DUP4 PUSH1 0x40 MLOAD DUP1 DUP3 DUP1 MLOAD SWAP1 PUSH1 0x20 ADD SWAP1 DUP1 DUP4 DUP4 JUMPDEST PUSH1 0x20 DUP4 LT PUSH2 0x2B68 JUMPI DUP1 MLOAD DUP3 MSTORE PUSH1 0x20 DUP3 ADD SWAP2 POP PUSH1 0x20 DUP2 ADD SWAP1 POP PUSH1 0x20 DUP4 SUB SWAP3 POP PUSH2 0x2B45 JUMP JUMPDEST PUSH1 0x1 DUP4 PUSH1 0x20 SUB PUSH2 0x100 EXP SUB DUP1 NOT DUP3 MLOAD AND DUP2 DUP5 MLOAD AND DUP1 DUP3 OR DUP6 MSTORE POP POP POP POP POP POP SWAP1 POP ADD SWAP2 POP POP PUSH1 0x0 PUSH1 0x40 MLOAD DUP1 DUP4 SUB DUP2 PUSH1 0x0 DUP7 GAS CALL SWAP2 POP POP RETURNDATASIZE DUP1 PUSH1 0x0 DUP2 EQ PUSH2 0x2BCA JUMPI PUSH1 0x40 MLOAD SWAP2 POP PUSH1 0x1F NOT PUSH1 0x3F RETURNDATASIZE ADD AND DUP3 ADD PUSH1 0x40 MSTORE RETURNDATASIZE DUP3 MSTORE RETURNDATASIZE PUSH1 0x0 PUSH1 0x20 DUP5 ADD RETURNDATACOPY PUSH2 0x2BCF JUMP JUMPDEST PUSH1 0x60 SWAP2 POP JUMPDEST POP SWAP2 POP SWAP2 POP DUP2 PUSH2 0x2C47 JUMPI PUSH1 0x40 MLOAD PUSH32 0x8C379A000000000000000000000000000000000000000000000000000000000 DUP2 MSTORE PUSH1 0x4 ADD DUP1 DUP1 PUSH1 0x20 ADD DUP3 DUP2 SUB DUP3 MSTORE PUSH1 0x20 DUP2 MSTORE PUSH1 0x20 ADD DUP1 PUSH32 0x5361666545524332303A206C6F772D6C6576656C2063616C6C206661696C6564 DUP2 MSTORE POP PUSH1 0x20 ADD SWAP2 POP POP PUSH1 0x40 MLOAD DUP1 SWAP2 SUB SWAP1 REVERT JUMPDEST PUSH1 0x0 DUP2 MLOAD GT ISZERO PUSH2 0x2CCD JUMPI DUP1 DUP1 PUSH1 0x20 ADD SWAP1 MLOAD PUSH1 0x20 DUP2 LT ISZERO PUSH2 0x2C66 JUMPI PUSH1 0x0 DUP1 REVERT JUMPDEST DUP2 ADD SWAP1 DUP1 DUP1 MLOAD SWAP1 PUSH1 0x20 ADD SWAP1 SWAP3 SWAP2 SWAP1 POP POP POP PUSH2 0x2CCC JUMPI PUSH1 0x40 MLOAD PUSH32 0x8C379A000000000000000000000000000000000000000000000000000000000 DUP2 MSTORE PUSH1 0x4 ADD DUP1 DUP1 PUSH1 0x20 ADD DUP3 DUP2 SUB DUP3 MSTORE PUSH1 0x2A DUP2 MSTORE PUSH1 0x20 ADD DUP1 PUSH2 0x2F80 PUSH1 0x2A SWAP2 CODECOPY PUSH1 0x40 ADD SWAP2 POP POP PUSH1 0x40 MLOAD DUP1 SWAP2 SUB SWAP1 REVERT JUMPDEST JUMPDEST POP POP POP POP JUMP JUMPDEST PUSH1 0x0 DUP1 DUP4 GT DUP3 SWAP1 PUSH2 0x2D7F JUMPI PUSH1 0x40 MLOAD PUSH32 0x8C379A000000000000000000000000000000000000000000000000000000000 DUP2 MSTORE PUSH1 0x4 ADD DUP1 DUP1 PUSH1 0x20 ADD DUP3 DUP2 SUB DUP3 MSTORE DUP4 DUP2 DUP2 MLOAD DUP2 MSTORE PUSH1 0x20 ADD SWAP2 POP DUP1 MLOAD SWAP1 PUSH1 0x20 ADD SWAP1 DUP1 DUP4 DUP4 PUSH1 0x0 JUMPDEST DUP4 DUP2 LT ISZERO PUSH2 0x2D44 JUMPI DUP1 DUP3 ADD MLOAD DUP2 DUP5 ADD MSTORE PUSH1 0x20 DUP2 ADD SWAP1 POP PUSH2 0x2D29 JUMP JUMPDEST POP POP POP POP SWAP1 POP SWAP1 DUP2 ADD SWAP1 PUSH1 0x1F AND DUP1 ISZERO PUSH2 0x2D71 JUMPI DUP1 DUP3 SUB DUP1 MLOAD PUSH1 0x1 DUP4 PUSH1 0x20 SUB PUSH2 0x100 EXP SUB NOT AND DUP2 MSTORE PUSH1 0x20 ADD SWAP2 POP JUMPDEST POP SWAP3 POP POP POP PUSH1 0x40 MLOAD DUP1 SWAP2 SUB SWAP1 REVERT JUMPDEST POP PUSH1 0x0 DUP4 DUP6 DUP2 PUSH2 0x2D8B JUMPI INVALID JUMPDEST DIV SWAP1 POP DUP1 SWAP2 POP POP SWAP4 SWAP3 POP POP POP JUMP JUMPDEST PUSH1 0x0 DUP4 DUP4 GT ISZERO DUP3 SWAP1 PUSH2 0x2E46 JUMPI PUSH1 0x40 MLOAD PUSH32 0x8C379A000000000000000000000000000000000000000000000000000000000 DUP2 MSTORE PUSH1 0x4 ADD DUP1 DUP1 PUSH1 0x20 ADD DUP3 DUP2 SUB DUP3 MSTORE DUP4 DUP2 DUP2 MLOAD DUP2 MSTORE PUSH1 0x20 ADD SWAP2 POP DUP1 MLOAD SWAP1 PUSH1 0x20 ADD SWAP1 DUP1 DUP4 DUP4 PUSH1 0x0 JUMPDEST DUP4 DUP2 LT ISZERO PUSH2 0x2E0B JUMPI DUP1 DUP3 ADD MLOAD DUP2 DUP5 ADD MSTORE PUSH1 0x20 DUP2 ADD SWAP1 POP PUSH2 0x2DF0 JUMP JUMPDEST POP POP POP POP SWAP1 POP SWAP1 DUP2 ADD SWAP1 PUSH1 0x1F AND DUP1 ISZERO PUSH2 0x2E38 JUMPI DUP1 DUP3 SUB DUP1 MLOAD PUSH1 0x1 DUP4 PUSH1 0x20 SUB PUSH2 0x100 EXP SUB NOT AND DUP2 MSTORE PUSH1 0x20 ADD SWAP2 POP JUMPDEST POP SWAP3 POP POP POP PUSH1 0x40 MLOAD DUP1 SWAP2 SUB SWAP1 REVERT JUMPDEST POP PUSH1 0x0 DUP4 DUP6 SUB SWAP1 POP DUP1 SWAP2 POP POP SWAP4 SWAP3 POP POP POP JUMP JUMPDEST PUSH1 0x0 DUP1 PUSH1 0x0 PUSH32 0xC5D2460186F7233C927E7DB2DCC703C0E500B653CA82273B7BFAD8045D85A470 PUSH1 0x0 SHL SWAP1 POP DUP4 EXTCODEHASH SWAP2 POP DUP1 DUP3 EQ ISZERO DUP1 ISZERO PUSH2 0x2E9B JUMPI POP PUSH1 0x0 DUP1 SHL DUP3 EQ ISZERO JUMPDEST SWAP3 POP POP POP SWAP2 SWAP1 POP JUMP JUMPDEST PUSH1 0x40 MLOAD DUP1 PUSH1 0x80 ADD PUSH1 0x40 MSTORE DUP1 PUSH1 0x4 SWAP1 PUSH1 0x20 DUP3 MUL DUP1 CODESIZE DUP4 CODECOPY DUP1 DUP3 ADD SWAP2 POP POP SWAP1 POP POP SWAP1 JUMP JUMPDEST PUSH1 0x40 MLOAD DUP1 PUSH1 0x80 ADD PUSH1 0x40 MSTORE DUP1 PUSH1 0x4 SWAP1 PUSH1 0x20 DUP3 MUL DUP1 CODESIZE DUP4 CODECOPY DUP1 DUP3 ADD SWAP2 POP POP SWAP1 POP POP SWAP1 JUMP INVALID 0x49 PUSH15 0x636F7272656374206465706F736974 KECCAK256 PUSH4 0x6F6E7472 PUSH2 0x6374 KECCAK256 PUSH2 0x6464 PUSH19 0x6573734F776E61626C653A206E6577206F776E PUSH6 0x722069732074 PUSH9 0x65207A65726F206164 PUSH5 0x7265737353 PUSH2 0x6665 0x4d PUSH2 0x7468 GASPRICE KECCAK256 PUSH14 0x756C7469706C69636174696F6E20 PUSH16 0x766572666C6F77436F6E747261637420 PUSH10 0x6E7374616E6365206861 PUSH20 0x20616C7265616479206265656E20696E69746961 PUSH13 0x697A6564536166654552433230 GASPRICE KECCAK256 GASLIMIT MSTORE NUMBER ORIGIN ADDRESS KECCAK256 PUSH16 0x7065726174696F6E20646964206E6F74 KECCAK256 PUSH20 0x7563636565645361666545524332303A20617070 PUSH19 0x6F76652066726F6D206E6F6E2D7A65726F2074 PUSH16 0x206E6F6E2D7A65726F20616C6C6F7761 PUSH15 0x6365A265627A7A7231582012F905A1 DUP15 0xea SELFBALANCE 0x21 0x28 0xbb EXTCODECOPY 0x4b 0xaa 0x48 0xca 0xb5 DUP1 0xae GT RETURNDATASIZE GASPRICE 0x23 DUP9 CREATE 0x2b SWAP9 0xb2 PUSH29 0xA93D23AE64736F6C634300050C00320000000000000000000000000000 "
				},
				"gasEstimates": {
					"creation": {
						"codeDepositCost": "2461600",
						"executionCost": "infinite",
						"totalCost": "infinite"
					},
					"external": {
						"balanceOfAll()": "infinite",
						"curveFi_CRVMinter()": "564",
						"curveFi_CRVToken()": "476",
						"curveFi_Deposit()": "475",
						"curveFi_LPGauge()": "519",
						"curveFi_LPToken()": "564",
						"curveFi_Swap()": "521",
						"curveLPTokenBalance()": "infinite",
						"curveLPTokenStaked()": "infinite",
						"curveLPTokenUnstaked()": "infinite",
						"initialize(uint256)": "infinite",
						"isOwner()": "580",
						"multiStepDeposit(uint256[4])": "infinite",
						"multiStepWithdraw(uint256[4])": "infinite",
						"normalizedBalance()": "infinite",
						"owner()": "506",
						"renounceOwnership()": "22599",
						"setup(address,address,address)": "infinite",
						"transferOwnership(address)": "infinite",
						"x()": "429"
					},
					"internal": {
						"calculateShares(uint256)": "infinite",
						"crvTokenClaim()": "infinite",
						"normalize(address,uint256)": "infinite"
					}
				},
				"methodIdentifiers": {
					"balanceOfAll()": "208e509f",
					"curveFi_CRVMinter()": "7c241146",
					"curveFi_CRVToken()": "8141d266",
					"curveFi_Deposit()": "be873f50",
					"curveFi_LPGauge()": "e011262a",
					"curveFi_LPToken()": "a3477c36",
					"curveFi_Swap()": "1c600416",
					"curveLPTokenBalance()": "97aa80d5",
					"curveLPTokenStaked()": "44f9c395",
					"curveLPTokenUnstaked()": "dfda714a",
					"initialize(uint256)": "fe4b84df",
					"isOwner()": "8f32d59b",
					"multiStepDeposit(uint256[4])": "14a19aec",
					"multiStepWithdraw(uint256[4])": "38eda370",
					"normalizedBalance()": "628cb95e",
					"owner()": "8da5cb5b",
					"renounceOwnership()": "715018a6",
					"setup(address,address,address)": "77b8b1c7",
					"transferOwnership(address)": "f2fde38b",
					"x()": "0c55699c"
				}
			},
			"userdoc": {
				"methods": {
					"balanceOfAll()": {
						"notice": "Balances of stablecoins available for withdraw"
					},
					"curveLPTokenBalance()": {
						"notice": "Get full amount of Curve LP tokens available for this contract"
					},
					"curveLPTokenStaked()": {
						"notice": "Get amount of CurveFi LP tokens staked in the Gauge"
					},
					"curveLPTokenUnstaked()": {
						"notice": "Get amount of unstaked CurveFi LP tokens (which lay on this contract)"
					},
					"multiStepDeposit(uint256[4])": {
						"notice": "Deposits 4 stablecoins (registered in Curve.Fi Y pool)"
					},
					"multiStepWithdraw(uint256[4])": {
						"notice": "Withdraws 4 stablecoins (registered in Curve.Fi Y pool)"
					},
					"normalizedBalance()": {
						"notice": "Balances of stablecoins available for withdraw normalized to 18 decimals"
					},
					"setup(address,address,address)": {
						"notice": "Set CurveFi contracts addresses"
					}
				}
			}
		}
	}
}